{
  "_format": "hh-sol-artifact-1",
  "contractName": "CarbonOracle",
  "sourceName": "blockchain/contracts/CarbonOracle.sol",
  "abi": [
    {
      "inputs": [
        {
          "internalType": "address",
          "name": "_carbonTokenAddress",
          "type": "address"
        }
      ],
      "stateMutability": "nonpayable",
      "type": "constructor"
    },
    {
      "anonymous": false,
      "inputs": [
        {
          "indexed": true,
          "internalType": "uint256",
          "name": "requestId",
          "type": "uint256"
        },
        {
          "indexed": false,
          "internalType": "uint256",
          "name": "aiScore",
          "type": "uint256"
        },
        {
          "indexed": false,
          "internalType": "string",
          "name": "aiAnalysisHash",
          "type": "string"
        }
      ],
      "name": "AIVerificationCompleted",
      "type": "event"
    },
    {
      "anonymous": false,
      "inputs": [
        {
          "indexed": true,
          "internalType": "uint256",
          "name": "requestId",
          "type": "uint256"
        },
        {
          "indexed": true,
          "internalType": "string",
          "name": "projectId",
          "type": "string"
        },
        {
          "indexed": false,
          "internalType": "uint256",
          "name": "tokenId",
          "type": "uint256"
        }
      ],
      "name": "CreditMintingApproved",
      "type": "event"
    },
    {
      "anonymous": false,
      "inputs": [
        {
          "indexed": true,
          "internalType": "uint256",
          "name": "dataId",
          "type": "uint256"
        },
        {
          "indexed": true,
          "internalType": "address",
          "name": "verifier",
          "type": "address"
        }
      ],
      "name": "DataVerified",
      "type": "event"
    },
    {
      "anonymous": false,
      "inputs": [
        {
          "indexed": true,
          "internalType": "uint256",
          "name": "dataId",
          "type": "uint256"
        },
        {
          "indexed": true,
          "internalType": "string",
          "name": "sensorId",
          "type": "string"
        },
        {
          "indexed": false,
          "internalType": "uint256",
          "name": "co2Reading",
          "type": "uint256"
        },
        {
          "indexed": true,
          "internalType": "address",
          "name": "provider",
          "type": "address"
        }
      ],
      "name": "EmissionDataSubmitted",
      "type": "event"
    },
    {
      "anonymous": false,
      "inputs": [
        {
          "indexed": false,
          "internalType": "address",
          "name": "account",
          "type": "address"
        }
      ],
      "name": "Paused",
      "type": "event"
    },
    {
      "anonymous": false,
      "inputs": [
        {
          "indexed": true,
          "internalType": "bytes32",
          "name": "role",
          "type": "bytes32"
        },
        {
          "indexed": true,
          "internalType": "bytes32",
          "name": "previousAdminRole",
          "type": "bytes32"
        },
        {
          "indexed": true,
          "internalType": "bytes32",
          "name": "newAdminRole",
          "type": "bytes32"
        }
      ],
      "name": "RoleAdminChanged",
      "type": "event"
    },
    {
      "anonymous": false,
      "inputs": [
        {
          "indexed": true,
          "internalType": "bytes32",
          "name": "role",
          "type": "bytes32"
        },
        {
          "indexed": true,
          "internalType": "address",
          "name": "account",
          "type": "address"
        },
        {
          "indexed": true,
          "internalType": "address",
          "name": "sender",
          "type": "address"
        }
      ],
      "name": "RoleGranted",
      "type": "event"
    },
    {
      "anonymous": false,
      "inputs": [
        {
          "indexed": true,
          "internalType": "bytes32",
          "name": "role",
          "type": "bytes32"
        },
        {
          "indexed": true,
          "internalType": "address",
          "name": "account",
          "type": "address"
        },
        {
          "indexed": true,
          "internalType": "address",
          "name": "sender",
          "type": "address"
        }
      ],
      "name": "RoleRevoked",
      "type": "event"
    },
    {
      "anonymous": false,
      "inputs": [
        {
          "indexed": false,
          "internalType": "address",
          "name": "account",
          "type": "address"
        }
      ],
      "name": "Unpaused",
      "type": "event"
    },
    {
      "anonymous": false,
      "inputs": [
        {
          "indexed": true,
          "internalType": "uint256",
          "name": "requestId",
          "type": "uint256"
        },
        {
          "indexed": true,
          "internalType": "string",
          "name": "projectId",
          "type": "string"
        },
        {
          "indexed": true,
          "internalType": "address",
          "name": "requester",
          "type": "address"
        }
      ],
      "name": "VerificationRequested",
      "type": "event"
    },
    {
      "inputs": [],
      "name": "AI_THRESHOLD_HIGH",
      "outputs": [
        {
          "internalType": "uint256",
          "name": "",
          "type": "uint256"
        }
      ],
      "stateMutability": "view",
      "type": "function"
    },
    {
      "inputs": [],
      "name": "AI_THRESHOLD_LOW",
      "outputs": [
        {
          "internalType": "uint256",
          "name": "",
          "type": "uint256"
        }
      ],
      "stateMutability": "view",
      "type": "function"
    },
    {
      "inputs": [],
      "name": "AI_VERIFIER_ROLE",
      "outputs": [
        {
          "internalType": "bytes32",
          "name": "",
          "type": "bytes32"
        }
      ],
      "stateMutability": "view",
      "type": "function"
    },
    {
      "inputs": [],
      "name": "DEFAULT_ADMIN_ROLE",
      "outputs": [
        {
          "internalType": "bytes32",
          "name": "",
          "type": "bytes32"
        }
      ],
      "stateMutability": "view",
      "type": "function"
    },
    {
      "inputs": [],
      "name": "IOT_PROVIDER_ROLE",
      "outputs": [
        {
          "internalType": "bytes32",
          "name": "",
          "type": "bytes32"
        }
      ],
      "stateMutability": "view",
      "type": "function"
    },
    {
      "inputs": [],
      "name": "ORACLE_ROLE",
      "outputs": [
        {
          "internalType": "bytes32",
          "name": "",
          "type": "bytes32"
        }
      ],
      "stateMutability": "view",
      "type": "function"
    },
    {
      "inputs": [],
      "name": "carbonToken",
      "outputs": [
        {
          "internalType": "contract ICarbonCreditToken",
          "name": "",
          "type": "address"
        }
      ],
      "stateMutability": "view",
      "type": "function"
    },
    {
      "inputs": [
        {
          "internalType": "uint256",
          "name": "",
          "type": "uint256"
        }
      ],
      "name": "emissionData",
      "outputs": [
        {
          "internalType": "string",
          "name": "sensorId",
          "type": "string"
        },
        {
          "internalType": "uint256",
          "name": "timestamp",
          "type": "uint256"
        },
        {
          "internalType": "uint256",
          "name": "co2Reading",
          "type": "uint256"
        },
        {
          "internalType": "uint256",
          "name": "location",
          "type": "uint256"
        },
        {
          "internalType": "string",
          "name": "dataHash",
          "type": "string"
        },
        {
          "internalType": "bool",
          "name": "verified",
          "type": "bool"
        },
        {
          "internalType": "address",
          "name": "provider",
          "type": "address"
        }
      ],
      "stateMutability": "view",
      "type": "function"
    },
    {
      "inputs": [
        {
          "internalType": "uint256",
          "name": "dataId",
          "type": "uint256"
        }
      ],
      "name": "getEmissionData",
      "outputs": [
        {
          "components": [
            {
              "internalType": "string",
              "name": "sensorId",
              "type": "string"
            },
            {
              "internalType": "uint256",
              "name": "timestamp",
              "type": "uint256"
            },
            {
              "internalType": "uint256",
              "name": "co2Reading",
              "type": "uint256"
            },
            {
              "internalType": "uint256",
              "name": "location",
              "type": "uint256"
            },
            {
              "internalType": "string",
              "name": "dataHash",
              "type": "string"
            },
            {
              "internalType": "bool",
              "name": "verified",
              "type": "bool"
            },
            {
              "internalType": "address",
              "name": "provider",
              "type": "address"
            }
          ],
          "internalType": "struct CarbonOracle.EmissionData",
          "name": "",
          "type": "tuple"
        }
      ],
      "stateMutability": "view",
      "type": "function"
    },
    {
      "inputs": [],
      "name": "getPendingRequests",
      "outputs": [
        {
          "internalType": "uint256[]",
          "name": "",
          "type": "uint256[]"
        }
      ],
      "stateMutability": "view",
      "type": "function"
    },
    {
      "inputs": [
        {
          "internalType": "address",
          "name": "provider",
          "type": "address"
        }
      ],
      "name": "getProviderData",
      "outputs": [
        {
          "internalType": "uint256[]",
          "name": "",
          "type": "uint256[]"
        }
      ],
      "stateMutability": "view",
      "type": "function"
    },
    {
      "inputs": [
        {
          "internalType": "bytes32",
          "name": "role",
          "type": "bytes32"
        }
      ],
      "name": "getRoleAdmin",
      "outputs": [
        {
          "internalType": "bytes32",
          "name": "",
          "type": "bytes32"
        }
      ],
      "stateMutability": "view",
      "type": "function"
    },
    {
      "inputs": [
        {
          "internalType": "uint256",
          "name": "requestId",
          "type": "uint256"
        }
      ],
      "name": "getVerificationRequest",
      "outputs": [
        {
          "components": [
            {
              "internalType": "uint256",
              "name": "requestId",
              "type": "uint256"
            },
            {
              "internalType": "string",
              "name": "projectId",
              "type": "string"
            },
            {
              "internalType": "uint256[]",
              "name": "emissionDataIds",
              "type": "uint256[]"
            },
            {
              "internalType": "string",
              "name": "methodology",
              "type": "string"
            },
            {
              "internalType": "uint256",
              "name": "co2Equivalent",
              "type": "uint256"
            },
            {
              "internalType": "uint256",
              "name": "requestTime",
              "type": "uint256"
            },
            {
              "internalType": "enum CarbonOracle.VerificationStatus",
              "name": "status",
              "type": "uint8"
            },
            {
              "internalType": "address",
              "name": "requester",
              "type": "address"
            },
            {
              "internalType": "string",
              "name": "ipfsHash",
              "type": "string"
            },
            {
              "internalType": "uint256",
              "name": "aiScore",
              "type": "uint256"
            },
            {
              "internalType": "string",
              "name": "aiAnalysisHash",
              "type": "string"
            }
          ],
          "internalType": "struct CarbonOracle.VerificationRequest",
          "name": "",
          "type": "tuple"
        }
      ],
      "stateMutability": "view",
      "type": "function"
    },
    {
      "inputs": [
        {
          "internalType": "bytes32",
          "name": "role",
          "type": "bytes32"
        },
        {
          "internalType": "address",
          "name": "account",
          "type": "address"
        }
      ],
      "name": "grantRole",
      "outputs": [],
      "stateMutability": "nonpayable",
      "type": "function"
    },
    {
      "inputs": [
        {
          "internalType": "bytes32",
          "name": "role",
          "type": "bytes32"
        },
        {
          "internalType": "address",
          "name": "account",
          "type": "address"
        }
      ],
      "name": "hasRole",
      "outputs": [
        {
          "internalType": "bool",
          "name": "",
          "type": "bool"
        }
      ],
      "stateMutability": "view",
      "type": "function"
    },
    {
      "inputs": [
        {
          "internalType": "uint256",
          "name": "requestId",
          "type": "uint256"
        },
        {
          "internalType": "bool",
          "name": "approved",
          "type": "bool"
        }
      ],
      "name": "humanVerifyRequest",
      "outputs": [],
      "stateMutability": "nonpayable",
      "type": "function"
    },
    {
      "inputs": [],
      "name": "pause",
      "outputs": [],
      "stateMutability": "nonpayable",
      "type": "function"
    },
    {
      "inputs": [],
      "name": "paused",
      "outputs": [
        {
          "internalType": "bool",
          "name": "",
          "type": "bool"
        }
      ],
      "stateMutability": "view",
      "type": "function"
    },
    {
      "inputs": [
        {
          "internalType": "string",
          "name": "",
          "type": "string"
        }
      ],
      "name": "projectRequests",
      "outputs": [
        {
          "internalType": "uint256",
          "name": "",
          "type": "uint256"
        }
      ],
      "stateMutability": "view",
      "type": "function"
    },
    {
      "inputs": [
        {
          "internalType": "address",
          "name": "",
          "type": "address"
        },
        {
          "internalType": "uint256",
          "name": "",
          "type": "uint256"
        }
      ],
      "name": "providerData",
      "outputs": [
        {
          "internalType": "uint256",
          "name": "",
          "type": "uint256"
        }
      ],
      "stateMutability": "view",
      "type": "function"
    },
    {
      "inputs": [
        {
          "internalType": "bytes32",
          "name": "role",
          "type": "bytes32"
        },
        {
          "internalType": "address",
          "name": "account",
          "type": "address"
        }
      ],
      "name": "renounceRole",
      "outputs": [],
      "stateMutability": "nonpayable",
      "type": "function"
    },
    {
      "inputs": [
        {
          "internalType": "string",
          "name": "projectId",
          "type": "string"
        },
        {
          "internalType": "uint256[]",
          "name": "emissionDataIds",
          "type": "uint256[]"
        },
        {
          "internalType": "string",
          "name": "methodology",
          "type": "string"
        },
        {
          "internalType": "uint256",
          "name": "co2Equivalent",
          "type": "uint256"
        },
        {
          "internalType": "string",
          "name": "ipfsHash",
          "type": "string"
        }
      ],
      "name": "requestVerification",
      "outputs": [
        {
          "internalType": "uint256",
          "name": "",
          "type": "uint256"
        }
      ],
      "stateMutability": "nonpayable",
      "type": "function"
    },
    {
      "inputs": [
        {
          "internalType": "bytes32",
          "name": "role",
          "type": "bytes32"
        },
        {
          "internalType": "address",
          "name": "account",
          "type": "address"
        }
      ],
      "name": "revokeRole",
      "outputs": [],
      "stateMutability": "nonpayable",
      "type": "function"
    },
    {
      "inputs": [
        {
          "internalType": "uint256",
          "name": "requestId",
          "type": "uint256"
        },
        {
          "internalType": "uint256",
          "name": "aiScore",
          "type": "uint256"
        },
        {
          "internalType": "string",
          "name": "aiAnalysisHash",
          "type": "string"
        }
      ],
      "name": "submitAIVerification",
      "outputs": [],
      "stateMutability": "nonpayable",
      "type": "function"
    },
    {
      "inputs": [
        {
          "internalType": "string",
          "name": "sensorId",
          "type": "string"
        },
        {
          "internalType": "uint256",
          "name": "co2Reading",
          "type": "uint256"
        },
        {
          "internalType": "uint256",
          "name": "location",
          "type": "uint256"
        },
        {
          "internalType": "string",
          "name": "dataHash",
          "type": "string"
        }
      ],
      "name": "submitEmissionData",
      "outputs": [
        {
          "internalType": "uint256",
          "name": "",
          "type": "uint256"
        }
      ],
      "stateMutability": "nonpayable",
      "type": "function"
    },
    {
      "inputs": [
        {
          "internalType": "bytes4",
          "name": "interfaceId",
          "type": "bytes4"
        }
      ],
      "name": "supportsInterface",
      "outputs": [
        {
          "internalType": "bool",
          "name": "",
          "type": "bool"
        }
      ],
      "stateMutability": "view",
      "type": "function"
    },
    {
      "inputs": [],
      "name": "unpause",
      "outputs": [],
      "stateMutability": "nonpayable",
      "type": "function"
    },
    {
      "inputs": [
        {
          "internalType": "address",
          "name": "_carbonTokenAddress",
          "type": "address"
        }
      ],
      "name": "updateCarbonTokenAddress",
      "outputs": [],
      "stateMutability": "nonpayable",
      "type": "function"
    },
    {
      "inputs": [
        {
          "internalType": "uint256",
          "name": "",
          "type": "uint256"
        }
      ],
      "name": "verificationRequests",
      "outputs": [
        {
          "internalType": "uint256",
          "name": "requestId",
          "type": "uint256"
        },
        {
          "internalType": "string",
          "name": "projectId",
          "type": "string"
        },
        {
          "internalType": "string",
          "name": "methodology",
          "type": "string"
        },
        {
          "internalType": "uint256",
          "name": "co2Equivalent",
          "type": "uint256"
        },
        {
          "internalType": "uint256",
          "name": "requestTime",
          "type": "uint256"
        },
        {
          "internalType": "enum CarbonOracle.VerificationStatus",
          "name": "status",
          "type": "uint8"
        },
        {
          "internalType": "address",
          "name": "requester",
          "type": "address"
        },
        {
          "internalType": "string",
          "name": "ipfsHash",
          "type": "string"
        },
        {
          "internalType": "uint256",
          "name": "aiScore",
          "type": "uint256"
        },
        {
          "internalType": "string",
          "name": "aiAnalysisHash",
          "type": "string"
        }
      ],
      "stateMutability": "view",
      "type": "function"
    },
    {
      "inputs": [
        {
          "internalType": "uint256",
          "name": "dataId",
          "type": "uint256"
        }
      ],
      "name": "verifyEmissionData",
      "outputs": [],
      "stateMutability": "nonpayable",
      "type": "function"
    }
  ],
  "bytecode": "0x60806040523480156200001157600080fd5b5060405162002feb38038062002feb833981016040819052620000349162000138565b60018055600280546001600160a81b0319166101006001600160a01b038416021790556200006460003362000097565b620000907f68e79a7bf1e0bc45d0a330c573bc367f9cf464fd326078812f301165fbda4ef13362000097565b506200016a565b6000828152602081815260408083206001600160a01b038516845290915290205460ff1662000134576000828152602081815260408083206001600160a01b03851684529091529020805460ff19166001179055620000f33390565b6001600160a01b0316816001600160a01b0316837f2f8788117e7eff1d82e926ec794901d17c78024a50270940304540a733656f0d60405160405180910390a45b5050565b6000602082840312156200014b57600080fd5b81516001600160a01b03811681146200016357600080fd5b9392505050565b612e71806200017a6000396000f3fe608060405234801561001057600080fd5b50600436106101da5760003560e01c806380a1f71211610104578063a217fddf116100a2578063d547741f11610071578063d547741f14610479578063ea58c95d1461048c578063f3152a771461049f578063fc2d64e3146104b257600080fd5b8063a217fddf14610417578063a705726d1461041f578063b820ebeb1461043f578063ba9781931461046657600080fd5b80638d4eea66116100de5780638d4eea66146103b85780638fee22d1146103cb57806391d14854146103de57806399fab435146103f157600080fd5b806380a1f7121461036b57806382a71ef2146103805780638456cb59146103b057600080fd5b806336568abe1161017c578063478d6c341161014b578063478d6c341461033d57806350d9286d14610350578063519ede30146103585780635c975abb1461036057600080fd5b806336568abe146102ce5780633f4ba83a146102e15780634089d49f146102e9578063458109f31461031257600080fd5b806322ccb474116101b857806322ccb47414610263578063248a9ca3146102835780632acd8779146102a65780632f2ff15d146102b957600080fd5b806301ffc9a7146101df578063062d7c851461020757806307e2cea51461023c575b600080fd5b6101f26101ed3660046122e2565b6104c5565b60405190151581526020015b60405180910390f35b61022e7f2ef4a036f8479fb980495c64256c1d75ebe5f064c1c3142f56b3df2e241ff63681565b6040519081526020016101fe565b61022e7f68e79a7bf1e0bc45d0a330c573bc367f9cf464fd326078812f301165fbda4ef181565b61027661027136600461230c565b6104fc565b6040516101fe91906123e8565b61022e61029136600461230c565b60009081526020819052604090206001015490565b61022e6102b436600461259b565b61086b565b6102cc6102c736600461262e565b610ad1565b005b6102cc6102dc36600461262e565b610afb565b6102cc610b79565b6102fc6102f736600461230c565b610b8f565b6040516101fe9a9998979695949392919061265a565b61022e6103203660046126f1565b805160208183018101805160058252928201919093012091525481565b6102cc61034b36600461230c565b610e0d565b61022e603c81565b61022e605a81565b60025460ff166101f2565b610373610f1f565b6040516101fe919061272e565b6002546103989061010090046001600160a01b031681565b6040516001600160a01b0390911681526020016101fe565b6102cc6110b9565b6102cc6103c6366004612772565b6110cc565b61022e6103d936600461278d565b611148565b6101f26103ec36600461262e565b611531565b6104046103ff36600461230c565b61155a565b6040516101fe97969594939291906128a7565b61022e600081565b61043261042d36600461230c565b6116b2565b6040516101fe9190612903565b61022e7f04516a438d7a6ea0a767ab73178ff354a6680d6f5121da52d484005ab1ec308b81565b61022e610474366004612989565b6118c6565b6102cc61048736600461262e565b6118f7565b6102cc61049a3660046129b3565b61191c565b6102cc6104ad366004612a03565b611aff565b6103736104c0366004612772565b611c1c565b60006001600160e01b03198216637965db0b60e01b14806104f657506301ffc9a760e01b6001600160e01b03198316145b92915050565b61050461220e565b60085482111561052f5760405162461bcd60e51b815260040161052690612a38565b60405180910390fd5b60046000838152602001908152602001600020604051806101600160405290816000820154815260200160018201805461056890612a64565b80601f016020809104026020016040519081016040528092919081815260200182805461059490612a64565b80156105e15780601f106105b6576101008083540402835291602001916105e1565b820191906000526020600020905b8154815290600101906020018083116105c457829003601f168201915b505050505081526020016002820180548060200260200160405190810160405280929190818152602001828054801561063957602002820191906000526020600020905b815481526020019060010190808311610625575b5050505050815260200160038201805461065290612a64565b80601f016020809104026020016040519081016040528092919081815260200182805461067e90612a64565b80156106cb5780601f106106a0576101008083540402835291602001916106cb565b820191906000526020600020905b8154815290600101906020018083116106ae57829003601f168201915b5050509183525050600482810154602083015260058301546040830152600683015460609092019160ff1690811115610706576107066123b0565b6004811115610717576107176123b0565b8152600682015461010090046001600160a01b0316602082015260078201805460409092019161074690612a64565b80601f016020809104026020016040519081016040528092919081815260200182805461077290612a64565b80156107bf5780601f10610794576101008083540402835291602001916107bf565b820191906000526020600020905b8154815290600101906020018083116107a257829003601f168201915b50505050508152602001600882015481526020016009820180546107e290612a64565b80601f016020809104026020016040519081016040528092919081815260200182805461080e90612a64565b801561085b5780601f106108305761010080835404028352916020019161085b565b820191906000526020600020905b81548152906001019060200180831161083e57829003601f168201915b5050505050815250509050919050565b60007f2ef4a036f8479fb980495c64256c1d75ebe5f064c1c3142f56b3df2e241ff63661089781611c88565b61089f611c92565b60008651116108e55760405162461bcd60e51b815260206004820152601260248201527114d95b9cdbdc881251081c995c5d5a5c995960721b6044820152606401610526565b6000851161092b5760405162461bcd60e51b8152602060048201526013602482015272496e76616c696420434f322072656164696e6760681b6044820152606401610526565b60008351116109715760405162461bcd60e51b815260206004820152601260248201527111185d18481a185cda081c995c5d5a5c995960721b6044820152606401610526565b6007805490600061098183612ab4565b90915550506007546040805160e081018252888152426020808301919091528183018990526060820188905260808201879052600060a083018190523360c0840152848152600390915291909120815181906109dd9082612b1b565b5060208201516001820155604082015160028201556060820151600382015560808201516004820190610a109082612b1b565b5060a08201516005909101805460c0909301516001600160a01b031661010002610100600160a81b0319921515929092166001600160a81b0319909316929092171790553360008181526006602090815260408083208054600181018255908452919092200183905551610a85908990612bdb565b6040518091039020827f6bb02587d80adeeb15c3be54a7728ac4bc2f8feeab9473d23024f1ee809137b089604051610abf91815260200190565b60405180910390a49695505050505050565b600082815260208190526040902060010154610aec81611c88565b610af68383611cda565b505050565b6001600160a01b0381163314610b6b5760405162461bcd60e51b815260206004820152602f60248201527f416363657373436f6e74726f6c3a2063616e206f6e6c792072656e6f756e636560448201526e103937b632b9903337b91039b2b63360891b6064820152608401610526565b610b758282611d5e565b5050565b6000610b8481611c88565b610b8c611dc3565b50565b60046020526000908152604090208054600182018054919291610bb190612a64565b80601f0160208091040260200160405190810160405280929190818152602001828054610bdd90612a64565b8015610c2a5780601f10610bff57610100808354040283529160200191610c2a565b820191906000526020600020905b815481529060010190602001808311610c0d57829003601f168201915b505050505090806003018054610c3f90612a64565b80601f0160208091040260200160405190810160405280929190818152602001828054610c6b90612a64565b8015610cb85780601f10610c8d57610100808354040283529160200191610cb8565b820191906000526020600020905b815481529060010190602001808311610c9b57829003601f168201915b505050506004830154600584015460068501546007860180549596939592945060ff8216936101009092046001600160a01b031692610cf690612a64565b80601f0160208091040260200160405190810160405280929190818152602001828054610d2290612a64565b8015610d6f5780601f10610d4457610100808354040283529160200191610d6f565b820191906000526020600020905b815481529060010190602001808311610d5257829003601f168201915b505050505090806008015490806009018054610d8a90612a64565b80601f0160208091040260200160405190810160405280929190818152602001828054610db690612a64565b8015610e035780601f10610dd857610100808354040283529160200191610e03565b820191906000526020600020905b815481529060010190602001808311610de657829003601f168201915b505050505090508a565b7f68e79a7bf1e0bc45d0a330c573bc367f9cf464fd326078812f301165fbda4ef1610e3781611c88565b600754821115610e7b5760405162461bcd60e51b815260206004820152600f60248201526e125b9d985b1a590819185d18481251608a1b6044820152606401610526565b60008281526003602052604090206005015460ff1615610ed55760405162461bcd60e51b815260206004820152601560248201527411185d1848185b1c9958591e481d995c9a599a5959605a1b6044820152606401610526565b600082815260036020526040808220600501805460ff1916600117905551339184917f4e206a2da258866fea320fabca330294731f7d223dd64c52cadd28e22ba479ad9190a35050565b6060600060085467ffffffffffffffff811115610f3e57610f3e6124e4565b604051908082528060200260200182016040528015610f67578160200160208202803683370190505b509050600060015b600854811161101557600081815260046020819052604082206006015460ff1690811115610f9f57610f9f6123b0565b1480610fd25750600160008281526004602081905260409091206006015460ff1690811115610fd057610fd06123b0565b145b156110035780838381518110610fea57610fea612bf7565b602090810291909101015281610fff81612ab4565b9250505b8061100d81612ab4565b915050610f6f565b5060008167ffffffffffffffff811115611031576110316124e4565b60405190808252806020026020018201604052801561105a578160200160208202803683370190505b50905060005b828110156110b15783818151811061107a5761107a612bf7565b602002602001015182828151811061109457611094612bf7565b6020908102919091010152806110a981612ab4565b915050611060565b509392505050565b60006110c481611c88565b610b8c611e15565b60006110d781611c88565b6001600160a01b03821661111f5760405162461bcd60e51b815260206004820152600f60248201526e496e76616c6964206164647265737360881b6044820152606401610526565b50600280546001600160a01b0390921661010002610100600160a81b0319909216919091179055565b6000611152611e52565b61115a611c92565b60008651116111a15760405162461bcd60e51b8152602060048201526013602482015272141c9bda9958dd081251081c995c5d5a5c9959606a1b6044820152606401610526565b60008551116111eb5760405162461bcd60e51b8152602060048201526016602482015275115b5a5cdcda5bdb8819185d18481c995c5d5a5c995960521b6044820152606401610526565b6000831161123b5760405162461bcd60e51b815260206004820152601f60248201527f434f32206571756976616c656e74206d75737420626520706f736974697665006044820152606401610526565b60058660405161124b9190612bdb565b9081526020016040518091039020546000146112b55760405162461bcd60e51b815260206004820152602360248201527f50726f6a65637420616c7265616479206861732070656e64696e672072657175604482015262195cdd60ea1b6064820152608401610526565b60005b855181101561134a576000600360008884815181106112d9576112d9612bf7565b6020026020010151815260200190815260200160002060010154116113385760405162461bcd60e51b8152602060048201526015602482015274496e76616c696420656d697373696f6e206461746160581b6044820152606401610526565b8061134281612ab4565b9150506112b8565b506008805490600061135b83612ab4565b9091555050600854604080516101608101825282815260208082018a81528284018a905260608301899052608083018890524260a0840152600060c084018190523360e08501526101008401889052610120840181905284518084018652818152610140850152858152600490925292902081518155915190919060018201906113e59082612b1b565b5060408201518051611401916002840191602090910190612282565b50606082015160038201906114169082612b1b565b506080820151816004015560a0820151816005015560c08201518160060160006101000a81548160ff02191690836004811115611455576114556123b0565b021790555060e0820151600682018054610100600160a81b0319166101006001600160a01b03909316830217905582015160078201906114959082612b1b565b50610120820151600882015561014082015160098201906114b69082612b1b565b50905050806005886040516114cb9190612bdb565b9081526040519081900360200181209190915533906114eb908990612bdb565b6040519081900381209083907fd8772f50f014e5b02c03c9358de8dd171a9abb9be51b416f7c4dbfd4d16b6e1b90600090a4905061152860018055565b95945050505050565b6000918252602082815260408084206001600160a01b0393909316845291905290205460ff1690565b60036020526000908152604090208054819061157590612a64565b80601f01602080910402602001604051908101604052809291908181526020018280546115a190612a64565b80156115ee5780601f106115c3576101008083540402835291602001916115ee565b820191906000526020600020905b8154815290600101906020018083116115d157829003601f168201915b50505050509080600101549080600201549080600301549080600401805461161590612a64565b80601f016020809104026020016040519081016040528092919081815260200182805461164190612a64565b801561168e5780601f106116635761010080835404028352916020019161168e565b820191906000526020600020905b81548152906001019060200180831161167157829003601f168201915b5050506005909301549192505060ff8116906001600160a01b036101009091041687565b6116fd6040518060e00160405280606081526020016000815260200160008152602001600081526020016060815260200160001515815260200160006001600160a01b031681525090565b6007548211156117415760405162461bcd60e51b815260206004820152600f60248201526e125b9d985b1a590819185d18481251608a1b6044820152606401610526565b60008281526003602052604090819020815160e0810190925280548290829061176990612a64565b80601f016020809104026020016040519081016040528092919081815260200182805461179590612a64565b80156117e25780601f106117b7576101008083540402835291602001916117e2565b820191906000526020600020905b8154815290600101906020018083116117c557829003601f168201915b5050505050815260200160018201548152602001600282015481526020016003820154815260200160048201805461181990612a64565b80601f016020809104026020016040519081016040528092919081815260200182805461184590612a64565b80156118925780601f1061186757610100808354040283529160200191611892565b820191906000526020600020905b81548152906001019060200180831161187557829003601f168201915b50505091835250506005919091015460ff81161515602083015261010090046001600160a01b031660409091015292915050565b600660205281600052604060002081815481106118e257600080fd5b90600052602060002001600091509150505481565b60008281526020819052604090206001015461191281611c88565b610af68383611d5e565b7f04516a438d7a6ea0a767ab73178ff354a6680d6f5121da52d484005ab1ec308b61194681611c88565b6008548411156119685760405162461bcd60e51b815260040161052690612a38565b600084815260046020526040812090600682015460ff166004811115611990576119906123b0565b146119d35760405162461bcd60e51b815260206004820152601360248201527252657175657374206e6f742070656e64696e6760681b6044820152606401610526565b6064841115611a175760405162461bcd60e51b815260206004820152601060248201526f496e76616c69642041492073636f726560801b6044820152606401610526565b6000835111611a685760405162461bcd60e51b815260206004820152601960248201527f414920616e616c797369732068617368207265717569726564000000000000006044820152606401610526565b6008810184905560098101611a7d8482612b1b565b5060068101805460ff1916600117905560405185907f4d524acf354732b975e86852d5a71731b2a470216c6ad9b64c5525e91d7008fa90611ac19087908790612c0d565b60405180910390a2605a8410611adf57611ada85611eab565b611af8565b603c841015611af85760068101805460ff191660031790555b5050505050565b7f68e79a7bf1e0bc45d0a330c573bc367f9cf464fd326078812f301165fbda4ef1611b2981611c88565b600854831115611b4b5760405162461bcd60e51b815260040161052690612a38565b60008381526004602052604090206001600682015460ff166004811115611b7457611b746123b0565b1480611b9857506000600682015460ff166004811115611b9657611b966123b0565b145b611bf25760405162461bcd60e51b815260206004820152602560248201527f496e76616c69642073746174757320666f722068756d616e207665726966696360448201526430ba34b7b760d91b6064820152608401610526565b8215611c0657611c0184611eab565b611c16565b60068101805460ff191660031790555b50505050565b6001600160a01b038116600090815260066020908152604091829020805483518184028101840190945280845260609392830182828015611c7c57602002820191906000526020600020905b815481526020019060010190808311611c68575b50505050509050919050565b610b8c8133611fb7565b60025460ff1615611cd85760405162461bcd60e51b815260206004820152601060248201526f14185d5cd8589b194e881c185d5cd95960821b6044820152606401610526565b565b611ce48282611531565b610b75576000828152602081815260408083206001600160a01b03851684529091529020805460ff19166001179055611d1a3390565b6001600160a01b0316816001600160a01b0316837f2f8788117e7eff1d82e926ec794901d17c78024a50270940304540a733656f0d60405160405180910390a45050565b611d688282611531565b15610b75576000828152602081815260408083206001600160a01b0385168085529252808320805460ff1916905551339285917ff6391f5c32d9c69d2a47ea670b442974b53935d1edc7fd64eb21e047a839171b9190a45050565b611dcb612010565b6002805460ff191690557f5db9ee0a495bf2e6ff9c91a7834c1ba4fdd244a5e8aa4e537bd38aeae4b073aa335b6040516001600160a01b03909116815260200160405180910390a1565b611e1d611c92565b6002805460ff191660011790557f62e78cea01bee320cd4e420270b5ea74000d11b0c9f74754ebdbfc544b05a258611df83390565b600260015403611ea45760405162461bcd60e51b815260206004820152601f60248201527f5265656e7472616e637947756172643a207265656e7472616e742063616c6c006044820152606401610526565b6002600155565b60008181526004602081905260408220908101549091611ecf426312cc0300612c26565b600254600485810154604051630757044f60e21b81529394506101009092046001600160a01b031692631d5c113c92611f1c92600189019260038a019291889160078c01918b9101612cb6565b600060405180830381600087803b158015611f3657600080fd5b505af1158015611f4a573d6000803e3d6000fd5b5050505060068301805460ff19166004179055604051611f6e906001850190612d0f565b6040518091039020847fd486bacaa6124074407c4c8d461cceda936209bc2b56e9173b9bd622a27f13986000604051611fa991815260200190565b60405180910390a350505050565b611fc18282611531565b610b7557611fce81612059565b611fd983602061206b565b604051602001611fea929190612d85565b60408051601f198184030181529082905262461bcd60e51b825261052691600401612dfa565b60025460ff16611cd85760405162461bcd60e51b815260206004820152601460248201527314185d5cd8589b194e881b9bdd081c185d5cd95960621b6044820152606401610526565b60606104f66001600160a01b03831660145b6060600061207a836002612e0d565b612085906002612c26565b67ffffffffffffffff81111561209d5761209d6124e4565b6040519080825280601f01601f1916602001820160405280156120c7576020820181803683370190505b509050600360fc1b816000815181106120e2576120e2612bf7565b60200101906001600160f81b031916908160001a905350600f60fb1b8160018151811061211157612111612bf7565b60200101906001600160f81b031916908160001a9053506000612135846002612e0d565b612140906001612c26565b90505b60018111156121b8576f181899199a1a9b1b9c1cb0b131b232b360811b85600f166010811061217457612174612bf7565b1a60f81b82828151811061218a5761218a612bf7565b60200101906001600160f81b031916908160001a90535060049490941c936121b181612e24565b9050612143565b5083156122075760405162461bcd60e51b815260206004820181905260248201527f537472696e67733a20686578206c656e67746820696e73756666696369656e746044820152606401610526565b9392505050565b60405180610160016040528060008152602001606081526020016060815260200160608152602001600081526020016000815260200160006004811115612257576122576123b0565b815260200160006001600160a01b031681526020016060815260200160008152602001606081525090565b8280548282559060005260206000209081019282156122bd579160200282015b828111156122bd5782518255916020019190600101906122a2565b506122c99291506122cd565b5090565b5b808211156122c957600081556001016122ce565b6000602082840312156122f457600080fd5b81356001600160e01b03198116811461220757600080fd5b60006020828403121561231e57600080fd5b5035919050565b60005b83811015612340578181015183820152602001612328565b50506000910152565b60008151808452612361816020860160208601612325565b601f01601f19169290920160200192915050565b600081518084526020808501945080840160005b838110156123a557815187529582019590820190600101612389565b509495945050505050565b634e487b7160e01b600052602160045260246000fd5b600581106123e457634e487b7160e01b600052602160045260246000fd5b9052565b602081528151602082015260006020830151610160806040850152612411610180850183612349565b91506040850151601f198086850301606087015261242f8483612375565b9350606087015191508086850301608087015261244c8483612349565b9350608087015160a087015260a087015160c087015260c0870151915061247660e08701836123c6565b60e08701519150610100612494818801846001600160a01b03169052565b808801519250506101208187860301818801526124b18584612349565b908801516101408881019190915288015187820390920184880152935090506124da8382612349565b9695505050505050565b634e487b7160e01b600052604160045260246000fd5b604051601f8201601f1916810167ffffffffffffffff81118282101715612523576125236124e4565b604052919050565b600082601f83011261253c57600080fd5b813567ffffffffffffffff811115612556576125566124e4565b612569601f8201601f19166020016124fa565b81815284602083860101111561257e57600080fd5b816020850160208301376000918101602001919091529392505050565b600080600080608085870312156125b157600080fd5b843567ffffffffffffffff808211156125c957600080fd5b6125d58883890161252b565b9550602087013594506040870135935060608701359150808211156125f957600080fd5b506126068782880161252b565b91505092959194509250565b80356001600160a01b038116811461262957600080fd5b919050565b6000806040838503121561264157600080fd5b8235915061265160208401612612565b90509250929050565b60006101408c83528060208401526126748184018d612349565b90508281036040840152612688818c612349565b90508960608401528860808401526126a360a08401896123c6565b6001600160a01b03871660c084015282810360e08401526126c48187612349565b9050846101008401528281036101208401526126e08185612349565b9d9c50505050505050505050505050565b60006020828403121561270357600080fd5b813567ffffffffffffffff81111561271a57600080fd5b6127268482850161252b565b949350505050565b6020808252825182820181905260009190848201906040850190845b818110156127665783518352928401929184019160010161274a565b50909695505050505050565b60006020828403121561278457600080fd5b61220782612612565b600080600080600060a086880312156127a557600080fd5b853567ffffffffffffffff808211156127bd57600080fd5b6127c989838a0161252b565b96506020915081880135818111156127e057600080fd5b8801601f81018a136127f157600080fd5b803582811115612803576128036124e4565b8060051b6128128582016124fa565b918252828101850191858101908d84111561282c57600080fd5b938601935b8385101561284a57843582529386019390860190612831565b995050505060408901359250508082111561286457600080fd5b61287089838a0161252b565b945060608801359350608088013591508082111561288d57600080fd5b5061289a8882890161252b565b9150509295509295909350565b60e0815260006128ba60e083018a612349565b88602084015287604084015286606084015282810360808401526128de8187612349565b94151560a084015250506001600160a01b039190911660c09091015295945050505050565b602081526000825160e06020840152612920610100840182612349565b90506020840151604084015260408401516060840152606084015160808401526080840151601f198483030160a085015261295b8282612349565b60a0860151151560c086810191909152909501516001600160a01b031660e090940193909352509192915050565b6000806040838503121561299c57600080fd5b6129a583612612565b946020939093013593505050565b6000806000606084860312156129c857600080fd5b8335925060208401359150604084013567ffffffffffffffff8111156129ed57600080fd5b6129f98682870161252b565b9150509250925092565b60008060408385031215612a1657600080fd5b8235915060208301358015158114612a2d57600080fd5b809150509250929050565b602080825260129082015271125b9d985b1a59081c995c5d595cdd08125160721b604082015260600190565b600181811c90821680612a7857607f821691505b602082108103612a9857634e487b7160e01b600052602260045260246000fd5b50919050565b634e487b7160e01b600052601160045260246000fd5b600060018201612ac657612ac6612a9e565b5060010190565b601f821115610af657600081815260208120601f850160051c81016020861015612af45750805b601f850160051c820191505b81811015612b1357828155600101612b00565b505050505050565b815167ffffffffffffffff811115612b3557612b356124e4565b612b4981612b438454612a64565b84612acd565b602080601f831160018114612b7e5760008415612b665750858301515b600019600386901b1c1916600185901b178555612b13565b600085815260208120601f198616915b82811015612bad57888601518255948401946001909101908401612b8e565b5085821015612bcb5787850151600019600388901b60f8161c191681555b5050505050600190811b01905550565b60008251612bed818460208701612325565b9190910192915050565b634e487b7160e01b600052603260045260246000fd5b8281526040602082015260006127266040830184612349565b808201808211156104f6576104f6612a9e565b60008154612c4681612a64565b808552602060018381168015612c635760018114612c7d57612cab565b60ff1985168884015283151560051b880183019550612cab565b866000528260002060005b85811015612ca35781548a8201860152908301908401612c88565b890184019650505b505050505092915050565b60c081526000612cc960c0830189612c39565b8281036020840152612cdb8189612c39565b90508660408401528560608401528281036080840152612cfb8186612c39565b9150508260a0830152979650505050505050565b6000808354612d1d81612a64565b60018281168015612d355760018114612d4a57612d79565b60ff1984168752821515830287019450612d79565b8760005260208060002060005b85811015612d705781548a820152908401908201612d57565b50505082870194505b50929695505050505050565b7f416363657373436f6e74726f6c3a206163636f756e7420000000000000000000815260008351612dbd816017850160208801612325565b7001034b99036b4b9b9b4b733903937b6329607d1b6017918401918201528351612dee816028840160208801612325565b01602801949350505050565b6020815260006122076020830184612349565b80820281158282048414176104f6576104f6612a9e565b600081612e3357612e33612a9e565b50600019019056fea2646970667358221220d845a7a407a385a287e833b913777cfdabb3d5f134c2e83cdc75bc614fc731fe64736f6c63430008130033",
  "linkReferences": {},
  "deployedLinkReferences": {}
}