{
  "_format": "hh-sol-artifact-1",
  "contractName": "CarbonCreditToken",
  "sourceName": "blockchain/contracts/CarbonCreditToken.sol",
  "abi": [
    {
      "inputs": [
        {
          "internalType": "string",
          "name": "uri",
          "type": "string"
        }
      ],
      "stateMutability": "nonpayable",
      "type": "constructor"
    },
    {
      "anonymous": false,
      "inputs": [
        {
          "indexed": true,
          "internalType": "address",
          "name": "account",
          "type": "address"
        },
        {
          "indexed": true,
          "internalType": "address",
          "name": "operator",
          "type": "address"
        },
        {
          "indexed": false,
          "internalType": "bool",
          "name": "approved",
          "type": "bool"
        }
      ],
      "name": "ApprovalForAll",
      "type": "event"
    },
    {
      "anonymous": false,
      "inputs": [
        {
          "indexed": true,
          "internalType": "uint256",
          "name": "tokenId",
          "type": "uint256"
        },
        {
          "indexed": true,
          "internalType": "string",
          "name": "projectId",
          "type": "string"
        },
        {
          "indexed": false,
          "internalType": "uint256",
          "name": "co2Equivalent",
          "type": "uint256"
        },
        {
          "indexed": true,
          "internalType": "address",
          "name": "issuer",
          "type": "address"
        }
      ],
      "name": "CreditMinted",
      "type": "event"
    },
    {
      "anonymous": false,
      "inputs": [
        {
          "indexed": true,
          "internalType": "uint256",
          "name": "tokenId",
          "type": "uint256"
        },
        {
          "indexed": false,
          "internalType": "uint256",
          "name": "amount",
          "type": "uint256"
        },
        {
          "indexed": true,
          "internalType": "address",
          "name": "retiree",
          "type": "address"
        }
      ],
      "name": "CreditRetired",
      "type": "event"
    },
    {
      "anonymous": false,
      "inputs": [
        {
          "indexed": true,
          "internalType": "uint256",
          "name": "tokenId",
          "type": "uint256"
        },
        {
          "indexed": true,
          "internalType": "address",
          "name": "from",
          "type": "address"
        },
        {
          "indexed": true,
          "internalType": "address",
          "name": "to",
          "type": "address"
        },
        {
          "indexed": false,
          "internalType": "uint256",
          "name": "amount",
          "type": "uint256"
        }
      ],
      "name": "CreditTransferred",
      "type": "event"
    },
    {
      "anonymous": false,
      "inputs": [
        {
          "indexed": true,
          "internalType": "uint256",
          "name": "tokenId",
          "type": "uint256"
        },
        {
          "indexed": true,
          "internalType": "address",
          "name": "verifier",
          "type": "address"
        }
      ],
      "name": "CreditVerified",
      "type": "event"
    },
    {
      "anonymous": false,
      "inputs": [
        {
          "indexed": false,
          "internalType": "address",
          "name": "account",
          "type": "address"
        }
      ],
      "name": "Paused",
      "type": "event"
    },
    {
      "anonymous": false,
      "inputs": [
        {
          "indexed": true,
          "internalType": "bytes32",
          "name": "role",
          "type": "bytes32"
        },
        {
          "indexed": true,
          "internalType": "bytes32",
          "name": "previousAdminRole",
          "type": "bytes32"
        },
        {
          "indexed": true,
          "internalType": "bytes32",
          "name": "newAdminRole",
          "type": "bytes32"
        }
      ],
      "name": "RoleAdminChanged",
      "type": "event"
    },
    {
      "anonymous": false,
      "inputs": [
        {
          "indexed": true,
          "internalType": "bytes32",
          "name": "role",
          "type": "bytes32"
        },
        {
          "indexed": true,
          "internalType": "address",
          "name": "account",
          "type": "address"
        },
        {
          "indexed": true,
          "internalType": "address",
          "name": "sender",
          "type": "address"
        }
      ],
      "name": "RoleGranted",
      "type": "event"
    },
    {
      "anonymous": false,
      "inputs": [
        {
          "indexed": true,
          "internalType": "bytes32",
          "name": "role",
          "type": "bytes32"
        },
        {
          "indexed": true,
          "internalType": "address",
          "name": "account",
          "type": "address"
        },
        {
          "indexed": true,
          "internalType": "address",
          "name": "sender",
          "type": "address"
        }
      ],
      "name": "RoleRevoked",
      "type": "event"
    },
    {
      "anonymous": false,
      "inputs": [
        {
          "indexed": true,
          "internalType": "address",
          "name": "operator",
          "type": "address"
        },
        {
          "indexed": true,
          "internalType": "address",
          "name": "from",
          "type": "address"
        },
        {
          "indexed": true,
          "internalType": "address",
          "name": "to",
          "type": "address"
        },
        {
          "indexed": false,
          "internalType": "uint256[]",
          "name": "ids",
          "type": "uint256[]"
        },
        {
          "indexed": false,
          "internalType": "uint256[]",
          "name": "values",
          "type": "uint256[]"
        }
      ],
      "name": "TransferBatch",
      "type": "event"
    },
    {
      "anonymous": false,
      "inputs": [
        {
          "indexed": true,
          "internalType": "address",
          "name": "operator",
          "type": "address"
        },
        {
          "indexed": true,
          "internalType": "address",
          "name": "from",
          "type": "address"
        },
        {
          "indexed": true,
          "internalType": "address",
          "name": "to",
          "type": "address"
        },
        {
          "indexed": false,
          "internalType": "uint256",
          "name": "id",
          "type": "uint256"
        },
        {
          "indexed": false,
          "internalType": "uint256",
          "name": "value",
          "type": "uint256"
        }
      ],
      "name": "TransferSingle",
      "type": "event"
    },
    {
      "anonymous": false,
      "inputs": [
        {
          "indexed": false,
          "internalType": "string",
          "name": "value",
          "type": "string"
        },
        {
          "indexed": true,
          "internalType": "uint256",
          "name": "id",
          "type": "uint256"
        }
      ],
      "name": "URI",
      "type": "event"
    },
    {
      "anonymous": false,
      "inputs": [
        {
          "indexed": false,
          "internalType": "address",
          "name": "account",
          "type": "address"
        }
      ],
      "name": "Unpaused",
      "type": "event"
    },
    {
      "inputs": [],
      "name": "DEFAULT_ADMIN_ROLE",
      "outputs": [
        {
          "internalType": "bytes32",
          "name": "",
          "type": "bytes32"
        }
      ],
      "stateMutability": "view",
      "type": "function"
    },
    {
      "inputs": [],
      "name": "MINTER_ROLE",
      "outputs": [
        {
          "internalType": "bytes32",
          "name": "",
          "type": "bytes32"
        }
      ],
      "stateMutability": "view",
      "type": "function"
    },
    {
      "inputs": [],
      "name": "ORACLE_ROLE",
      "outputs": [
        {
          "internalType": "bytes32",
          "name": "",
          "type": "bytes32"
        }
      ],
      "stateMutability": "view",
      "type": "function"
    },
    {
      "inputs": [],
      "name": "VERIFIER_ROLE",
      "outputs": [
        {
          "internalType": "bytes32",
          "name": "",
          "type": "bytes32"
        }
      ],
      "stateMutability": "view",
      "type": "function"
    },
    {
      "inputs": [
        {
          "internalType": "uint256",
          "name": "tokenId",
          "type": "uint256"
        }
      ],
      "name": "activateCredit",
      "outputs": [],
      "stateMutability": "nonpayable",
      "type": "function"
    },
    {
      "inputs": [
        {
          "internalType": "address",
          "name": "account",
          "type": "address"
        },
        {
          "internalType": "uint256",
          "name": "id",
          "type": "uint256"
        }
      ],
      "name": "balanceOf",
      "outputs": [
        {
          "internalType": "uint256",
          "name": "",
          "type": "uint256"
        }
      ],
      "stateMutability": "view",
      "type": "function"
    },
    {
      "inputs": [
        {
          "internalType": "address[]",
          "name": "accounts",
          "type": "address[]"
        },
        {
          "internalType": "uint256[]",
          "name": "ids",
          "type": "uint256[]"
        }
      ],
      "name": "balanceOfBatch",
      "outputs": [
        {
          "internalType": "uint256[]",
          "name": "",
          "type": "uint256[]"
        }
      ],
      "stateMutability": "view",
      "type": "function"
    },
    {
      "inputs": [
        {
          "internalType": "address",
          "name": "to",
          "type": "address"
        },
        {
          "internalType": "uint256[]",
          "name": "tokenIds",
          "type": "uint256[]"
        },
        {
          "internalType": "uint256[]",
          "name": "amounts",
          "type": "uint256[]"
        }
      ],
      "name": "batchTransferCredits",
      "outputs": [],
      "stateMutability": "nonpayable",
      "type": "function"
    },
    {
      "inputs": [
        {
          "internalType": "uint256",
          "name": "",
          "type": "uint256"
        }
      ],
      "name": "carbonCredits",
      "outputs": [
        {
          "internalType": "uint256",
          "name": "tokenId",
          "type": "uint256"
        },
        {
          "internalType": "uint256",
          "name": "totalSupply",
          "type": "uint256"
        },
        {
          "internalType": "uint256",
          "name": "availableSupply",
          "type": "uint256"
        },
        {
          "internalType": "string",
          "name": "projectId",
          "type": "string"
        },
        {
          "internalType": "string",
          "name": "methodology",
          "type": "string"
        },
        {
          "internalType": "uint256",
          "name": "co2Equivalent",
          "type": "uint256"
        },
        {
          "internalType": "uint256",
          "name": "issuanceDate",
          "type": "uint256"
        },
        {
          "internalType": "uint256",
          "name": "expirationDate",
          "type": "uint256"
        },
        {
          "internalType": "string",
          "name": "ipfsHash",
          "type": "string"
        },
        {
          "internalType": "bool",
          "name": "verified",
          "type": "bool"
        },
        {
          "internalType": "address",
          "name": "issuer",
          "type": "address"
        },
        {
          "internalType": "enum CarbonCreditToken.CreditStatus",
          "name": "status",
          "type": "uint8"
        }
      ],
      "stateMutability": "view",
      "type": "function"
    },
    {
      "inputs": [],
      "name": "getActiveCredits",
      "outputs": [
        {
          "internalType": "uint256[]",
          "name": "",
          "type": "uint256[]"
        }
      ],
      "stateMutability": "view",
      "type": "function"
    },
    {
      "inputs": [
        {
          "internalType": "uint256",
          "name": "tokenId",
          "type": "uint256"
        }
      ],
      "name": "getCreditInfo",
      "outputs": [
        {
          "components": [
            {
              "internalType": "uint256",
              "name": "tokenId",
              "type": "uint256"
            },
            {
              "internalType": "uint256",
              "name": "totalSupply",
              "type": "uint256"
            },
            {
              "internalType": "uint256",
              "name": "availableSupply",
              "type": "uint256"
            },
            {
              "internalType": "string",
              "name": "projectId",
              "type": "string"
            },
            {
              "internalType": "string",
              "name": "methodology",
              "type": "string"
            },
            {
              "internalType": "uint256",
              "name": "co2Equivalent",
              "type": "uint256"
            },
            {
              "internalType": "uint256",
              "name": "issuanceDate",
              "type": "uint256"
            },
            {
              "internalType": "uint256",
              "name": "expirationDate",
              "type": "uint256"
            },
            {
              "internalType": "string",
              "name": "ipfsHash",
              "type": "string"
            },
            {
              "internalType": "bool",
              "name": "verified",
              "type": "bool"
            },
            {
              "internalType": "address",
              "name": "issuer",
              "type": "address"
            },
            {
              "internalType": "enum CarbonCreditToken.CreditStatus",
              "name": "status",
              "type": "uint8"
            }
          ],
          "internalType": "struct CarbonCreditToken.CarbonCredit",
          "name": "",
          "type": "tuple"
        }
      ],
      "stateMutability": "view",
      "type": "function"
    },
    {
      "inputs": [
        {
          "internalType": "bytes32",
          "name": "role",
          "type": "bytes32"
        }
      ],
      "name": "getRoleAdmin",
      "outputs": [
        {
          "internalType": "bytes32",
          "name": "",
          "type": "bytes32"
        }
      ],
      "stateMutability": "view",
      "type": "function"
    },
    {
      "inputs": [
        {
          "internalType": "address",
          "name": "user",
          "type": "address"
        }
      ],
      "name": "getUserCredits",
      "outputs": [
        {
          "internalType": "uint256[]",
          "name": "",
          "type": "uint256[]"
        }
      ],
      "stateMutability": "view",
      "type": "function"
    },
    {
      "inputs": [
        {
          "internalType": "bytes32",
          "name": "role",
          "type": "bytes32"
        },
        {
          "internalType": "address",
          "name": "account",
          "type": "address"
        }
      ],
      "name": "grantRole",
      "outputs": [],
      "stateMutability": "nonpayable",
      "type": "function"
    },
    {
      "inputs": [
        {
          "internalType": "bytes32",
          "name": "role",
          "type": "bytes32"
        },
        {
          "internalType": "address",
          "name": "account",
          "type": "address"
        }
      ],
      "name": "hasRole",
      "outputs": [
        {
          "internalType": "bool",
          "name": "",
          "type": "bool"
        }
      ],
      "stateMutability": "view",
      "type": "function"
    },
    {
      "inputs": [
        {
          "internalType": "address",
          "name": "account",
          "type": "address"
        },
        {
          "internalType": "address",
          "name": "operator",
          "type": "address"
        }
      ],
      "name": "isApprovedForAll",
      "outputs": [
        {
          "internalType": "bool",
          "name": "",
          "type": "bool"
        }
      ],
      "stateMutability": "view",
      "type": "function"
    },
    {
      "inputs": [
        {
          "internalType": "string",
          "name": "projectId",
          "type": "string"
        },
        {
          "internalType": "string",
          "name": "methodology",
          "type": "string"
        },
        {
          "internalType": "uint256",
          "name": "co2Equivalent",
          "type": "uint256"
        },
        {
          "internalType": "uint256",
          "name": "expirationDate",
          "type": "uint256"
        },
        {
          "internalType": "string",
          "name": "ipfsHash",
          "type": "string"
        },
        {
          "internalType": "uint256",
          "name": "amount",
          "type": "uint256"
        }
      ],
      "name": "mintCarbonCredit",
      "outputs": [],
      "stateMutability": "nonpayable",
      "type": "function"
    },
    {
      "inputs": [],
      "name": "pause",
      "outputs": [],
      "stateMutability": "nonpayable",
      "type": "function"
    },
    {
      "inputs": [],
      "name": "paused",
      "outputs": [
        {
          "internalType": "bool",
          "name": "",
          "type": "bool"
        }
      ],
      "stateMutability": "view",
      "type": "function"
    },
    {
      "inputs": [
        {
          "internalType": "string",
          "name": "",
          "type": "string"
        }
      ],
      "name": "projectToTokenId",
      "outputs": [
        {
          "internalType": "uint256",
          "name": "",
          "type": "uint256"
        }
      ],
      "stateMutability": "view",
      "type": "function"
    },
    {
      "inputs": [
        {
          "internalType": "bytes32",
          "name": "role",
          "type": "bytes32"
        },
        {
          "internalType": "address",
          "name": "account",
          "type": "address"
        }
      ],
      "name": "renounceRole",
      "outputs": [],
      "stateMutability": "nonpayable",
      "type": "function"
    },
    {
      "inputs": [
        {
          "internalType": "uint256",
          "name": "tokenId",
          "type": "uint256"
        },
        {
          "internalType": "uint256",
          "name": "amount",
          "type": "uint256"
        }
      ],
      "name": "retireCredit",
      "outputs": [],
      "stateMutability": "nonpayable",
      "type": "function"
    },
    {
      "inputs": [
        {
          "internalType": "bytes32",
          "name": "role",
          "type": "bytes32"
        },
        {
          "internalType": "address",
          "name": "account",
          "type": "address"
        }
      ],
      "name": "revokeRole",
      "outputs": [],
      "stateMutability": "nonpayable",
      "type": "function"
    },
    {
      "inputs": [
        {
          "internalType": "address",
          "name": "from",
          "type": "address"
        },
        {
          "internalType": "address",
          "name": "to",
          "type": "address"
        },
        {
          "internalType": "uint256[]",
          "name": "ids",
          "type": "uint256[]"
        },
        {
          "internalType": "uint256[]",
          "name": "amounts",
          "type": "uint256[]"
        },
        {
          "internalType": "bytes",
          "name": "data",
          "type": "bytes"
        }
      ],
      "name": "safeBatchTransferFrom",
      "outputs": [],
      "stateMutability": "nonpayable",
      "type": "function"
    },
    {
      "inputs": [
        {
          "internalType": "address",
          "name": "from",
          "type": "address"
        },
        {
          "internalType": "address",
          "name": "to",
          "type": "address"
        },
        {
          "internalType": "uint256",
          "name": "id",
          "type": "uint256"
        },
        {
          "internalType": "uint256",
          "name": "amount",
          "type": "uint256"
        },
        {
          "internalType": "bytes",
          "name": "data",
          "type": "bytes"
        }
      ],
      "name": "safeTransferFrom",
      "outputs": [],
      "stateMutability": "nonpayable",
      "type": "function"
    },
    {
      "inputs": [
        {
          "internalType": "address",
          "name": "operator",
          "type": "address"
        },
        {
          "internalType": "bool",
          "name": "approved",
          "type": "bool"
        }
      ],
      "name": "setApprovalForAll",
      "outputs": [],
      "stateMutability": "nonpayable",
      "type": "function"
    },
    {
      "inputs": [
        {
          "internalType": "bytes4",
          "name": "interfaceId",
          "type": "bytes4"
        }
      ],
      "name": "supportsInterface",
      "outputs": [
        {
          "internalType": "bool",
          "name": "",
          "type": "bool"
        }
      ],
      "stateMutability": "view",
      "type": "function"
    },
    {
      "inputs": [
        {
          "internalType": "address",
          "name": "to",
          "type": "address"
        },
        {
          "internalType": "uint256",
          "name": "tokenId",
          "type": "uint256"
        },
        {
          "internalType": "uint256",
          "name": "amount",
          "type": "uint256"
        }
      ],
      "name": "transferCredit",
      "outputs": [],
      "stateMutability": "nonpayable",
      "type": "function"
    },
    {
      "inputs": [],
      "name": "unpause",
      "outputs": [],
      "stateMutability": "nonpayable",
      "type": "function"
    },
    {
      "inputs": [
        {
          "internalType": "uint256",
          "name": "",
          "type": "uint256"
        }
      ],
      "name": "uri",
      "outputs": [
        {
          "internalType": "string",
          "name": "",
          "type": "string"
        }
      ],
      "stateMutability": "view",
      "type": "function"
    },
    {
      "inputs": [
        {
          "internalType": "address",
          "name": "",
          "type": "address"
        },
        {
          "internalType": "uint256",
          "name": "",
          "type": "uint256"
        }
      ],
      "name": "userCredits",
      "outputs": [
        {
          "internalType": "uint256",
          "name": "",
          "type": "uint256"
        }
      ],
      "stateMutability": "view",
      "type": "function"
    },
    {
      "inputs": [
        {
          "internalType": "uint256",
          "name": "tokenId",
          "type": "uint256"
        }
      ],
      "name": "verifyCredit",
      "outputs": [],
      "stateMutability": "nonpayable",
      "type": "function"
    }
  ],
  "bytecode": "0x60806040523480156200001157600080fd5b5060405162003b0b38038062003b0b833981016040819052620000349162000188565b806200004081620000bc565b5060016004556005805460ff191690556200005d600033620000ce565b620000897f9f2df0fed2c77648de5860a4cc508cd0818c85b8b8a1ab4ceeef8d981c8956a633620000ce565b620000b57f0ce23c3e399818cfee81a7ab0880f714e53d7672b08df0fa62f2843416e1ea0933620000ce565b50620003b8565b6002620000ca8282620002ec565b5050565b60008281526003602090815260408083206001600160a01b038516845290915290205460ff16620000ca5760008281526003602090815260408083206001600160a01b03851684529091529020805460ff191660011790556200012e3390565b6001600160a01b0316816001600160a01b0316837f2f8788117e7eff1d82e926ec794901d17c78024a50270940304540a733656f0d60405160405180910390a45050565b634e487b7160e01b600052604160045260246000fd5b600060208083850312156200019c57600080fd5b82516001600160401b0380821115620001b457600080fd5b818501915085601f830112620001c957600080fd5b815181811115620001de57620001de62000172565b604051601f8201601f19908116603f0116810190838211818310171562000209576200020962000172565b8160405282815288868487010111156200022257600080fd5b600093505b8284101562000246578484018601518185018701529285019262000227565b600086848301015280965050505050505092915050565b600181811c908216806200027257607f821691505b6020821081036200029357634e487b7160e01b600052602260045260246000fd5b50919050565b601f821115620002e757600081815260208120601f850160051c81016020861015620002c25750805b601f850160051c820191505b81811015620002e357828155600101620002ce565b5050505b505050565b81516001600160401b0381111562000308576200030862000172565b62000320816200031984546200025d565b8462000299565b602080601f8311600181146200035857600084156200033f5750858301515b600019600386901b1c1916600185901b178555620002e3565b600085815260208120601f198616915b82811015620003895788860151825594840194600190910190840162000368565b5085821015620003a85787850151600019600388901b60f8161c191681555b5050505050600190811b01905550565b61374380620003c86000396000f3fe608060405234801561001057600080fd5b50600436106101ef5760003560e01c80637c3772231161010f578063c11abbd9116100a2578063e7705db611610071578063e7705db614610488578063e985e9c5146104af578063f0ef08bf146104eb578063f242432a146104fe57600080fd5b8063c11abbd914610428578063d53913931461043b578063d547741f14610462578063d5ddab9b1461047557600080fd5b8063a217fddf116100de578063a217fddf146103cf578063a22cb465146103d7578063a45d245c146103ea578063b3eea4d7146103fd57600080fd5b80637c3772231461038157806381b26dda146103a15780638456cb59146103b457806391d14854146103bc57600080fd5b80632eb2c2d6116101875780634a820248116101565780634a820248146103235780634e1273f4146103385780635a7dd27c1461034b5780635c975abb1461037657600080fd5b80632eb2c2d6146102e25780632f2ff15d146102f557806336568abe146103085780633f4ba83a1461031b57600080fd5b806314fe83f8116101c357806314fe83f81461028457806317a483a3146102995780631d5c113c146102ac578063248a9ca3146102bf57600080fd5b8062fdd58e146101f457806301ffc9a71461021a57806307e2cea51461023d5780630e89341c14610264575b600080fd5b610207610202366004612935565b610511565b6040519081526020015b60405180910390f35b61022d610228366004612975565b6105aa565b6040519015158152602001610211565b6102077f68e79a7bf1e0bc45d0a330c573bc367f9cf464fd326078812f301165fbda4ef181565b610277610272366004612992565b6105b5565b60405161021191906129fb565b610297610292366004612992565b610649565b005b6102076102a7366004612935565b6107d1565b6102976102ba366004612ac3565b610802565b6102076102cd366004612992565b60009081526003602052604090206001015490565b6102976102f0366004612bfa565b610bcd565b610297610303366004612ca3565b610c19565b610297610316366004612ca3565b610c43565b610297610cc1565b61032b610cd7565b6040516102119190612d0a565b61032b610346366004612d1d565b610e4a565b61035e610359366004612992565b610f6b565b6040516102119c9b9a99989796959493929190612e1f565b60055460ff1661022d565b61039461038f366004612992565b611170565b6040516102119190612ebc565b61032b6103af366004612faa565b611411565b61029761147c565b61022d6103ca366004612ca3565b61148f565b610207600081565b6102976103e5366004612fc5565b6114ba565b6102976103f8366004613001565b6114c5565b61020761040b366004613034565b805160208183018101805160088252928201919093012091525481565b610297610436366004613070565b611601565b6102077f9f2df0fed2c77648de5860a4cc508cd0818c85b8b8a1ab4ceeef8d981c8956a681565b610297610470366004612ca3565b6117dd565b610297610483366004613092565b611802565b6102077f0ce23c3e399818cfee81a7ab0880f714e53d7672b08df0fa62f2843416e1ea0981565b61022d6104bd366004613105565b6001600160a01b03918216600090815260016020908152604080832093909416825291909152205460ff1690565b6102976104f9366004612992565b611941565b61029761050c36600461312f565b611a8e565b60006001600160a01b0383166105815760405162461bcd60e51b815260206004820152602a60248201527f455243313135353a2061646472657373207a65726f206973206e6f742061207660448201526930b634b21037bbb732b960b11b60648201526084015b60405180910390fd5b506000818152602081815260408083206001600160a01b03861684529091529020545b92915050565b60006105a482611ad3565b6060600280546105c490613193565b80601f01602080910402602001604051908101604052809291908181526020018280546105f090613193565b801561063d5780601f106106125761010080835404028352916020019161063d565b820191906000526020600020905b81548152906001019060200180831161062057829003601f168201915b50505050509050919050565b7f0ce23c3e399818cfee81a7ab0880f714e53d7672b08df0fa62f2843416e1ea0961067381611af8565b60008281526007602052604090205461069e5760405162461bcd60e51b8152600401610578906131cd565b60008281526007602052604090206009015460ff16156107005760405162461bcd60e51b815260206004820152601760248201527f43726564697420616c72656164792076657269666965640000000000000000006044820152606401610578565b60008083815260076020526040902060090154600160a81b900460ff16600481111561072e5761072e612de7565b1461077b5760405162461bcd60e51b815260206004820152601c60248201527f437265646974206e6f7420696e2070656e64696e6720737461747573000000006044820152606401610578565b600082815260076020526040808220600901805460ff60ff60a81b0119166001600160a81b0117905551339184917ffb0eafba66d536e6069c4034f4a025380fb2178d955970896c46cbcf89ad3c349190a35050565b600960205281600052604060002081815481106107ed57600080fd5b90600052602060002001600091509150505481565b7f9f2df0fed2c77648de5860a4cc508cd0818c85b8b8a1ab4ceeef8d981c8956a661082c81611af8565b610834611b02565b60008751116108855760405162461bcd60e51b815260206004820152601a60248201527f50726f6a6563742049442063616e6e6f7420626520656d7074790000000000006044820152606401610578565b600085116108d55760405162461bcd60e51b815260206004820152601f60248201527f434f32206571756976616c656e74206d75737420626520706f736974697665006044820152606401610578565b42841161092e5760405162461bcd60e51b815260206004820152602160248201527f45787069726174696f6e2064617465206d75737420626520696e2066757475726044820152606560f81b6064820152608401610578565b60088760405161093e91906131fb565b9081526020016040518091039020546000146109955760405162461bcd60e51b815260206004820152601660248201527550726f6a65637420616c72656164792065786973747360501b6044820152606401610578565b6109a3600680546001019055565b60006109ae60065490565b9050604051806101800160405280828152602001848152602001848152602001898152602001888152602001878152602001428152602001868152602001858152602001600015158152602001336001600160a01b0316815260200160006004811115610a1d57610a1d612de7565b90526000828152600760209081526040918290208351815590830151600182015590820151600282015560608201516003820190610a5b908261325d565b5060808201516004820190610a70908261325d565b5060a0820151600582015560c0820151600682015560e082015160078201556101008201516008820190610aa4908261325d565b506101208201516009820180546101408501516001600160a01b031661010002610100600160a81b0319931515939093166001600160a81b03199091161791909117808255610160840151919060ff60a81b1916600160a81b836004811115610b0f57610b0f612de7565b021790555090505080600889604051610b2891906131fb565b90815260408051602092819003830181209390935533600081815260098452828120805460018101825590825284822001869055928401909152908252610b729183908690611b4a565b6040513390610b82908a906131fb565b6040518091039020827e6eb78c28940e3c491b390d404595d28155cf8e639f975d760fa33e34b1c84989604051610bbb91815260200190565b60405180910390a45050505050505050565b6001600160a01b038516331480610be95750610be985336104bd565b610c055760405162461bcd60e51b81526004016105789061331c565b610c128585858585611c5e565b5050505050565b600082815260036020526040902060010154610c3481611af8565b610c3e8383611e3b565b505050565b6001600160a01b0381163314610cb35760405162461bcd60e51b815260206004820152602f60248201527f416363657373436f6e74726f6c3a2063616e206f6e6c792072656e6f756e636560448201526e103937b632b9903337b91039b2b63360891b6064820152608401610578565b610cbd8282611ec1565b5050565b6000610ccc81611af8565b610cd4611f28565b50565b60606000610ce460065490565b6001600160401b03811115610cfb57610cfb612a0e565b604051908082528060200260200182016040528015610d24578160200160208202803683370190505b509050600060015b6006548111610da7576002600082815260076020526040902060090154600160a81b900460ff166004811115610d6457610d64612de7565b03610d955780838381518110610d7c57610d7c61336a565b602090810291909101015281610d9181613396565b9250505b80610d9f81613396565b915050610d2c565b506000816001600160401b03811115610dc257610dc2612a0e565b604051908082528060200260200182016040528015610deb578160200160208202803683370190505b50905060005b82811015610e4257838181518110610e0b57610e0b61336a565b6020026020010151828281518110610e2557610e2561336a565b602090810291909101015280610e3a81613396565b915050610df1565b509392505050565b60608151835114610eaf5760405162461bcd60e51b815260206004820152602960248201527f455243313135353a206163636f756e747320616e6420696473206c656e677468604482015268040dad2e6dac2e8c6d60bb1b6064820152608401610578565b600083516001600160401b03811115610eca57610eca612a0e565b604051908082528060200260200182016040528015610ef3578160200160208202803683370190505b50905060005b8451811015610e4257610f3e858281518110610f1757610f1761336a565b6020026020010151858381518110610f3157610f3161336a565b6020026020010151610511565b828281518110610f5057610f5061336a565b6020908102919091010152610f6481613396565b9050610ef9565b600760205260009081526040902080546001820154600283015460038401805493949293919291610f9b90613193565b80601f0160208091040260200160405190810160405280929190818152602001828054610fc790613193565b80156110145780601f10610fe957610100808354040283529160200191611014565b820191906000526020600020905b815481529060010190602001808311610ff757829003601f168201915b50505050509080600401805461102990613193565b80601f016020809104026020016040519081016040528092919081815260200182805461105590613193565b80156110a25780601f10611077576101008083540402835291602001916110a2565b820191906000526020600020905b81548152906001019060200180831161108557829003601f168201915b5050505050908060050154908060060154908060070154908060080180546110c990613193565b80601f01602080910402602001604051908101604052809291908181526020018280546110f590613193565b80156111425780601f1061111757610100808354040283529160200191611142565b820191906000526020600020905b81548152906001019060200180831161112557829003601f168201915b5050506009909301549192505060ff808216916001600160a01b0361010082041691600160a81b909104168c565b61117861289d565b6000828152600760205260409020546111a35760405162461bcd60e51b8152600401610578906131cd565b60076000838152602001908152602001600020604051806101800160405290816000820154815260200160018201548152602001600282015481526020016003820180546111f090613193565b80601f016020809104026020016040519081016040528092919081815260200182805461121c90613193565b80156112695780601f1061123e57610100808354040283529160200191611269565b820191906000526020600020905b81548152906001019060200180831161124c57829003601f168201915b5050505050815260200160048201805461128290613193565b80601f01602080910402602001604051908101604052809291908181526020018280546112ae90613193565b80156112fb5780601f106112d0576101008083540402835291602001916112fb565b820191906000526020600020905b8154815290600101906020018083116112de57829003601f168201915b5050505050815260200160058201548152602001600682015481526020016007820154815260200160088201805461133290613193565b80601f016020809104026020016040519081016040528092919081815260200182805461135e90613193565b80156113ab5780601f10611380576101008083540402835291602001916113ab565b820191906000526020600020905b81548152906001019060200180831161138e57829003601f168201915b5050509183525050600982015460ff808216151560208401526001600160a01b036101008304166040840152606090920191600160a81b9091041660048111156113f7576113f7612de7565b600481111561140857611408612de7565b90525092915050565b6001600160a01b03811660009081526009602090815260409182902080548351818402810184019094528084526060939283018282801561063d57602002820191906000526020600020905b81548152602001906001019080831161145d5750505050509050919050565b600061148781611af8565b610cd4611f7a565b60009182526003602090815260408084206001600160a01b0393909316845291905290205460ff1690565b610cbd338383611fb7565b6000828152600760205260409020546114f05760405162461bcd60e51b8152600401610578906131cd565b6002600083815260076020526040902060090154600160a81b900460ff16600481111561151f5761151f612de7565b1461153c5760405162461bcd60e51b8152600401610578906133af565b6001600160a01b0383166115925760405162461bcd60e51b815260206004820152601f60248201527f43616e6e6f74207472616e7366657220746f207a65726f2061646472657373006044820152606401610578565b6115ae3384848460405180602001604052806000815250611a8e565b826001600160a01b0316336001600160a01b0316837f7e65550eb596228315865d2268f12d8c62f668138881455c3c85891d53fcf6f8846040516115f491815260200190565b60405180910390a4505050565b611609612097565b6000828152600760205260409020546116345760405162461bcd60e51b8152600401610578906131cd565b6002600083815260076020526040902060090154600160a81b900460ff16600481111561166357611663612de7565b146116805760405162461bcd60e51b8152600401610578906133af565b8061168b3384610511565b10156116d95760405162461bcd60e51b815260206004820152601e60248201527f496e73756666696369656e74206372656469747320746f2072657469726500006044820152606401610578565b600082815260076020819052604090912001544211156117305760405162461bcd60e51b815260206004820152601260248201527110dc99591a5d081a185cc8195e1c1a5c995960721b6044820152606401610578565b61173b3383836120f0565b6000828152600760205260408120600201805483929061175c9084906133da565b9091555050600082815260076020526040812060020154900361179c576000828152600760205260409020600901805460ff60a81b1916600360a81b1790555b604051818152339083907f2d171ea7cdc66c98fc45a3f46df038771b2784f1eaf4d164961f526a766889679060200160405180910390a3610cbd6001600455565b6000828152600360205260409020600101546117f881611af8565b610c3e8383611ec1565b805182511461184c5760405162461bcd60e51b8152602060048201526016602482015275082e4e4c2f2e640d8cadccee8d040dad2e6dac2e8c6d60531b6044820152606401610578565b60005b82518110156119245761188983828151811061186d5761186d61336a565b6020026020010151600090815260076020526040902054151590565b6118a55760405162461bcd60e51b8152600401610578906131cd565b6002600760008584815181106118bd576118bd61336a565b6020026020010151815260200190815260200160002060090160159054906101000a900460ff1660048111156118f5576118f5612de7565b146119125760405162461bcd60e51b8152600401610578906133af565b8061191c81613396565b91505061184f565b50610c3e3384848460405180602001604052806000815250610bcd565b7f0ce23c3e399818cfee81a7ab0880f714e53d7672b08df0fa62f2843416e1ea0961196b81611af8565b6000828152600760205260409020546119965760405162461bcd60e51b8152600401610578906131cd565b60008281526007602052604090206009015460ff166119ed5760405162461bcd60e51b815260206004820152601360248201527210dc99591a5d081b9bdd081d995c9a599a5959606a1b6044820152606401610578565b6001600083815260076020526040902060090154600160a81b900460ff166004811115611a1c57611a1c612de7565b14611a695760405162461bcd60e51b815260206004820152601d60248201527f437265646974206e6f7420696e207665726966696564207374617475730000006044820152606401610578565b506000908152600760205260409020600901805460ff60a81b1916600160a91b179055565b6001600160a01b038516331480611aaa5750611aaa85336104bd565b611ac65760405162461bcd60e51b81526004016105789061331c565b610c12858585858561226c565b60006001600160e01b03198216637965db0b60e01b14806105a457506105a482612396565b610cd481336123e6565b60055460ff1615611b485760405162461bcd60e51b815260206004820152601060248201526f14185d5cd8589b194e881c185d5cd95960821b6044820152606401610578565b565b6001600160a01b038416611baa5760405162461bcd60e51b815260206004820152602160248201527f455243313135353a206d696e7420746f20746865207a65726f206164647265736044820152607360f81b6064820152608401610578565b336000611bb68561243f565b90506000611bc38561243f565b90506000868152602081815260408083206001600160a01b038b16845290915281208054879290611bf59084906133ed565b909155505060408051878152602081018790526001600160a01b03808a1692600092918716917fc3d58168c5ae7397731d063d5bbf3d657854427343f4c083240f7aacaa2d0f62910160405180910390a4611c558360008989898961248a565b50505050505050565b8151835114611cc05760405162461bcd60e51b815260206004820152602860248201527f455243313135353a2069647320616e6420616d6f756e7473206c656e677468206044820152670dad2e6dac2e8c6d60c31b6064820152608401610578565b6001600160a01b038416611ce65760405162461bcd60e51b815260040161057890613400565b3360005b8451811015611dcd576000858281518110611d0757611d0761336a565b602002602001015190506000858381518110611d2557611d2561336a565b602090810291909101810151600084815280835260408082206001600160a01b038e168352909352919091205490915081811015611d755760405162461bcd60e51b815260040161057890613445565b6000838152602081815260408083206001600160a01b038e8116855292528083208585039055908b16825281208054849290611db29084906133ed565b9250508190555050505080611dc690613396565b9050611cea565b50846001600160a01b0316866001600160a01b0316826001600160a01b03167f4a39dc06d4c0dbc64b70af90fd698a233a518aa5d07e595d983b8c0526c8f7fb8787604051611e1d92919061348f565b60405180910390a4611e338187878787876125e5565b505050505050565b611e45828261148f565b610cbd5760008281526003602090815260408083206001600160a01b03851684529091529020805460ff19166001179055611e7d3390565b6001600160a01b0316816001600160a01b0316837f2f8788117e7eff1d82e926ec794901d17c78024a50270940304540a733656f0d60405160405180910390a45050565b611ecb828261148f565b15610cbd5760008281526003602090815260408083206001600160a01b0385168085529252808320805460ff1916905551339285917ff6391f5c32d9c69d2a47ea670b442974b53935d1edc7fd64eb21e047a839171b9190a45050565b611f306126a0565b6005805460ff191690557f5db9ee0a495bf2e6ff9c91a7834c1ba4fdd244a5e8aa4e537bd38aeae4b073aa335b6040516001600160a01b03909116815260200160405180910390a1565b611f82611b02565b6005805460ff191660011790557f62e78cea01bee320cd4e420270b5ea74000d11b0c9f74754ebdbfc544b05a258611f5d3390565b816001600160a01b0316836001600160a01b03160361202a5760405162461bcd60e51b815260206004820152602960248201527f455243313135353a2073657474696e6720617070726f76616c20737461747573604482015268103337b91039b2b63360b91b6064820152608401610578565b6001600160a01b03838116600081815260016020908152604080832094871680845294825291829020805460ff191686151590811790915591519182527f17307eab39ab6107e8899845ad3d59bd9653f200f220920489ca2b5937696c31910160405180910390a3505050565b6002600454036120e95760405162461bcd60e51b815260206004820152601f60248201527f5265656e7472616e637947756172643a207265656e7472616e742063616c6c006044820152606401610578565b6002600455565b6001600160a01b0383166121525760405162461bcd60e51b815260206004820152602360248201527f455243313135353a206275726e2066726f6d20746865207a65726f206164647260448201526265737360e81b6064820152608401610578565b33600061215e8461243f565b9050600061216b8461243f565b60408051602080820183526000918290528882528181528282206001600160a01b038b16835290522054909150848110156121f45760405162461bcd60e51b8152602060048201526024808201527f455243313135353a206275726e20616d6f756e7420657863656564732062616c604482015263616e636560e01b6064820152608401610578565b6000868152602081815260408083206001600160a01b038b81168086529184528285208a8703905582518b81529384018a90529092908816917fc3d58168c5ae7397731d063d5bbf3d657854427343f4c083240f7aacaa2d0f62910160405180910390a4604080516020810190915260009052611c55565b6001600160a01b0384166122925760405162461bcd60e51b815260040161057890613400565b33600061229e8561243f565b905060006122ab8561243f565b90506000868152602081815260408083206001600160a01b038c168452909152902054858110156122ee5760405162461bcd60e51b815260040161057890613445565b6000878152602081815260408083206001600160a01b038d8116855292528083208985039055908a1682528120805488929061232b9084906133ed565b909155505060408051888152602081018890526001600160a01b03808b16928c821692918816917fc3d58168c5ae7397731d063d5bbf3d657854427343f4c083240f7aacaa2d0f62910160405180910390a461238b848a8a8a8a8a61248a565b505050505050505050565b60006001600160e01b03198216636cdb3d1360e11b14806123c757506001600160e01b031982166303a24d0760e21b145b806105a457506301ffc9a760e01b6001600160e01b03198316146105a4565b6123f0828261148f565b610cbd576123fd816126e9565b6124088360206126fb565b6040516020016124199291906134bd565b60408051601f198184030181529082905262461bcd60e51b8252610578916004016129fb565b604080516001808252818301909252606091600091906020808301908036833701905050905082816000815181106124795761247961336a565b602090810291909101015292915050565b6001600160a01b0384163b15611e335760405163f23a6e6160e01b81526001600160a01b0385169063f23a6e61906124ce9089908990889088908890600401613532565b6020604051808303816000875af1925050508015612509575060408051601f3d908101601f1916820190925261250691810190613577565b60015b6125b557612515613594565b806308c379a00361254e57506125296135b0565b806125345750612550565b8060405162461bcd60e51b815260040161057891906129fb565b505b60405162461bcd60e51b815260206004820152603460248201527f455243313135353a207472616e7366657220746f206e6f6e2d455243313135356044820152732932b1b2b4bb32b91034b6b83632b6b2b73a32b960611b6064820152608401610578565b6001600160e01b0319811663f23a6e6160e01b14611c555760405162461bcd60e51b815260040161057890613639565b6001600160a01b0384163b15611e335760405163bc197c8160e01b81526001600160a01b0385169063bc197c81906126299089908990889088908890600401613681565b6020604051808303816000875af1925050508015612664575060408051601f3d908101601f1916820190925261266191810190613577565b60015b61267057612515613594565b6001600160e01b0319811663bc197c8160e01b14611c555760405162461bcd60e51b815260040161057890613639565b60055460ff16611b485760405162461bcd60e51b815260206004820152601460248201527314185d5cd8589b194e881b9bdd081c185d5cd95960621b6044820152606401610578565b60606105a46001600160a01b03831660145b6060600061270a8360026136df565b6127159060026133ed565b6001600160401b0381111561272c5761272c612a0e565b6040519080825280601f01601f191660200182016040528015612756576020820181803683370190505b509050600360fc1b816000815181106127715761277161336a565b60200101906001600160f81b031916908160001a905350600f60fb1b816001815181106127a0576127a061336a565b60200101906001600160f81b031916908160001a90535060006127c48460026136df565b6127cf9060016133ed565b90505b6001811115612847576f181899199a1a9b1b9c1cb0b131b232b360811b85600f16601081106128035761280361336a565b1a60f81b8282815181106128195761281961336a565b60200101906001600160f81b031916908160001a90535060049490941c93612840816136f6565b90506127d2565b5083156128965760405162461bcd60e51b815260206004820181905260248201527f537472696e67733a20686578206c656e67746820696e73756666696369656e746044820152606401610578565b9392505050565b60405180610180016040528060008152602001600081526020016000815260200160608152602001606081526020016000815260200160008152602001600081526020016060815260200160001515815260200160006001600160a01b031681526020016000600481111561291457612914612de7565b905290565b80356001600160a01b038116811461293057600080fd5b919050565b6000806040838503121561294857600080fd5b61295183612919565b946020939093013593505050565b6001600160e01b031981168114610cd457600080fd5b60006020828403121561298757600080fd5b81356128968161295f565b6000602082840312156129a457600080fd5b5035919050565b60005b838110156129c65781810151838201526020016129ae565b50506000910152565b600081518084526129e78160208601602086016129ab565b601f01601f19169290920160200192915050565b60208152600061289660208301846129cf565b634e487b7160e01b600052604160045260246000fd5b601f8201601f191681016001600160401b0381118282101715612a4957612a49612a0e565b6040525050565b600082601f830112612a6157600080fd5b81356001600160401b03811115612a7a57612a7a612a0e565b604051612a91601f8301601f191660200182612a24565b818152846020838601011115612aa657600080fd5b816020850160208301376000918101602001919091529392505050565b60008060008060008060c08789031215612adc57600080fd5b86356001600160401b0380821115612af357600080fd5b612aff8a838b01612a50565b97506020890135915080821115612b1557600080fd5b612b218a838b01612a50565b965060408901359550606089013594506080890135915080821115612b4557600080fd5b50612b5289828a01612a50565b92505060a087013590509295509295509295565b60006001600160401b03821115612b7f57612b7f612a0e565b5060051b60200190565b600082601f830112612b9a57600080fd5b81356020612ba782612b66565b604051612bb48282612a24565b83815260059390931b8501820192828101915086841115612bd457600080fd5b8286015b84811015612bef5780358352918301918301612bd8565b509695505050505050565b600080600080600060a08688031215612c1257600080fd5b612c1b86612919565b9450612c2960208701612919565b935060408601356001600160401b0380821115612c4557600080fd5b612c5189838a01612b89565b94506060880135915080821115612c6757600080fd5b612c7389838a01612b89565b93506080880135915080821115612c8957600080fd5b50612c9688828901612a50565b9150509295509295909350565b60008060408385031215612cb657600080fd5b82359150612cc660208401612919565b90509250929050565b600081518084526020808501945080840160005b83811015612cff57815187529582019590820190600101612ce3565b509495945050505050565b6020815260006128966020830184612ccf565b60008060408385031215612d3057600080fd5b82356001600160401b0380821115612d4757600080fd5b818501915085601f830112612d5b57600080fd5b81356020612d6882612b66565b604051612d758282612a24565b83815260059390931b8501820192828101915089841115612d9557600080fd5b948201945b83861015612dba57612dab86612919565b82529482019490820190612d9a565b96505086013592505080821115612dd057600080fd5b50612ddd85828601612b89565b9150509250929050565b634e487b7160e01b600052602160045260246000fd5b60058110612e1b57634e487b7160e01b600052602160045260246000fd5b9052565b60006101808e83528d60208401528c6040840152806060840152612e458184018d6129cf565b90508281036080840152612e59818c6129cf565b90508960a08401528860c08401528760e0840152828103610100840152612e8081886129cf565b8615156101208501526001600160a01b0386166101408501529150612eab9050610160830184612dfd565b9d9c50505050505050505050505050565b6020815281516020820152602082015160408201526040820151606082015260006060830151610180806080850152612ef96101a08501836129cf565b91506080850151601f19808685030160a0870152612f1784836129cf565b935060a087015160c087015260c087015160e087015260e08701519150610100828188015280880151925050610120818786030181880152612f5985846129cf565b94508088015192505050610140612f738187018315159052565b8601519050610160612f8f868201836001600160a01b03169052565b8601519050612fa085830182612dfd565b5090949350505050565b600060208284031215612fbc57600080fd5b61289682612919565b60008060408385031215612fd857600080fd5b612fe183612919565b915060208301358015158114612ff657600080fd5b809150509250929050565b60008060006060848603121561301657600080fd5b61301f84612919565b95602085013595506040909401359392505050565b60006020828403121561304657600080fd5b81356001600160401b0381111561305c57600080fd5b61306884828501612a50565b949350505050565b6000806040838503121561308357600080fd5b50508035926020909101359150565b6000806000606084860312156130a757600080fd5b6130b084612919565b925060208401356001600160401b03808211156130cc57600080fd5b6130d887838801612b89565b935060408601359150808211156130ee57600080fd5b506130fb86828701612b89565b9150509250925092565b6000806040838503121561311857600080fd5b61312183612919565b9150612cc660208401612919565b600080600080600060a0868803121561314757600080fd5b61315086612919565b945061315e60208701612919565b9350604086013592506060860135915060808601356001600160401b0381111561318757600080fd5b612c9688828901612a50565b600181811c908216806131a757607f821691505b6020821081036131c757634e487b7160e01b600052602260045260246000fd5b50919050565b602080825260149082015273151bdad95b88191bd95cc81b9bdd08195e1a5cdd60621b604082015260600190565b6000825161320d8184602087016129ab565b9190910192915050565b601f821115610c3e57600081815260208120601f850160051c8101602086101561323e5750805b601f850160051c820191505b81811015611e335782815560010161324a565b81516001600160401b0381111561327657613276612a0e565b61328a816132848454613193565b84613217565b602080601f8311600181146132bf57600084156132a75750858301515b600019600386901b1c1916600185901b178555611e33565b600085815260208120601f198616915b828110156132ee578886015182559484019460019091019084016132cf565b508582101561330c5787850151600019600388901b60f8161c191681555b5050505050600190811b01905550565b6020808252602e908201527f455243313135353a2063616c6c6572206973206e6f7420746f6b656e206f776e60408201526d195c881bdc88185c1c1c9bdd995960921b606082015260800190565b634e487b7160e01b600052603260045260246000fd5b634e487b7160e01b600052601160045260246000fd5b6000600182016133a8576133a8613380565b5060010190565b602080825260119082015270437265646974206e6f742061637469766560781b604082015260600190565b818103818111156105a4576105a4613380565b808201808211156105a4576105a4613380565b60208082526025908201527f455243313135353a207472616e7366657220746f20746865207a65726f206164604082015264647265737360d81b606082015260800190565b6020808252602a908201527f455243313135353a20696e73756666696369656e742062616c616e636520666f60408201526939103a3930b739b332b960b11b606082015260800190565b6040815260006134a26040830185612ccf565b82810360208401526134b48185612ccf565b95945050505050565b7f416363657373436f6e74726f6c3a206163636f756e74200000000000000000008152600083516134f58160178501602088016129ab565b7001034b99036b4b9b9b4b733903937b6329607d1b60179184019182015283516135268160288401602088016129ab565b01602801949350505050565b6001600160a01b03868116825285166020820152604081018490526060810183905260a06080820181905260009061356c908301846129cf565b979650505050505050565b60006020828403121561358957600080fd5b81516128968161295f565b600060033d11156135ad5760046000803e5060005160e01c5b90565b600060443d10156135be5790565b6040516003193d81016004833e81513d6001600160401b0381602484011181841117156135ed57505050505090565b82850191508151818111156136055750505050505090565b843d870101602082850101111561361f5750505050505090565b61362e60208286010187612a24565b509095945050505050565b60208082526028908201527f455243313135353a204552433131353552656365697665722072656a656374656040820152676420746f6b656e7360c01b606082015260800190565b6001600160a01b0386811682528516602082015260a0604082018190526000906136ad90830186612ccf565b82810360608401526136bf8186612ccf565b905082810360808401526136d381856129cf565b98975050505050505050565b80820281158282048414176105a4576105a4613380565b60008161370557613705613380565b50600019019056fea2646970667358221220aec786cf8f114b233ecc1b0fa0ec427da2e3099afa6431db6f5f7d9d49df195464736f6c63430008130033",
  "linkReferences": {},
  "deployedLinkReferences": {}
}