{"blockchain/contracts/CarbonMarketplace.sol":{"CarbonMarketplace":{"abi":[{"inputs":[{"internalType":"address","name":"_carbonTokenAddress","type":"address"}],"stateMutability":"nonpayable","type":"constructor"},{"anonymous":false,"inputs":[{"indexed":true,"internalType":"uint256","name":"auctionId","type":"uint256"},{"indexed":true,"internalType":"uint256","name":"tokenId","type":"uint256"},{"indexed":true,"internalType":"address","name":"seller","type":"address"},{"indexed":false,"internalType":"uint256","name":"amount","type":"uint256"},{"indexed":false,"internalType":"uint256","name":"startingPrice","type":"uint256"},{"indexed":false,"internalType":"uint256","name":"endTime","type":"uint256"}],"name":"AuctionCreated","type":"event"},{"anonymous":false,"inputs":[{"indexed":true,"internalType":"uint256","name":"auctionId","type":"uint256"},{"indexed":true,"internalType":"address","name":"winner","type":"address"},{"indexed":false,"internalType":"uint256","name":"winningBid","type":"uint256"}],"name":"AuctionFinalized","type":"event"},{"anonymous":false,"inputs":[{"indexed":true,"internalType":"uint256","name":"auctionId","type":"uint256"},{"indexed":true,"internalType":"address","name":"bidder","type":"address"},{"indexed":false,"internalType":"uint256","name":"bidAmount","type":"uint256"}],"name":"BidPlaced","type":"event"},{"anonymous":false,"inputs":[{"indexed":true,"internalType":"uint256","name":"listingId","type":"uint256"}],"name":"ListingCancelled","type":"event"},{"anonymous":false,"inputs":[{"indexed":true,"internalType":"uint256","name":"listingId","type":"uint256"},{"indexed":true,"internalType":"uint256","name":"tokenId","type":"uint256"},{"indexed":true,"internalType":"address","name":"seller","type":"address"},{"indexed":false,"internalType":"uint256","name":"amount","type":"uint256"},{"indexed":false,"internalType":"uint256","name":"pricePerCredit","type":"uint256"}],"name":"ListingCreated","type":"event"},{"anonymous":false,"inputs":[{"indexed":true,"internalType":"uint256","name":"listingId","type":"uint256"},{"indexed":true,"internalType":"uint256","name":"tokenId","type":"uint256"},{"indexed":true,"internalType":"address","name":"buyer","type":"address"},{"indexed":false,"internalType":"uint256","name":"amount","type":"uint256"},{"indexed":false,"internalType":"uint256","name":"totalPrice","type":"uint256"}],"name":"ListingPurchased","type":"event"},{"anonymous":false,"inputs":[{"indexed":true,"internalType":"address","name":"previousOwner","type":"address"},{"indexed":true,"internalType":"address","name":"newOwner","type":"address"}],"name":"OwnershipTransferred","type":"event"},{"anonymous":false,"inputs":[{"indexed":false,"internalType":"address","name":"account","type":"address"}],"name":"Paused","type":"event"},{"anonymous":false,"inputs":[{"indexed":false,"internalType":"address","name":"account","type":"address"}],"name":"Unpaused","type":"event"},{"inputs":[{"internalType":"uint256","name":"","type":"uint256"}],"name":"auctions","outputs":[{"internalType":"uint256","name":"auctionId","type":"uint256"},{"internalType":"uint256","name":"tokenId","type":"uint256"},{"internalType":"address","name":"seller","type":"address"},{"internalType":"uint256","name":"amount","type":"uint256"},{"internalType":"uint256","name":"startingPrice","type":"uint256"},{"internalType":"uint256","name":"currentBid","type":"uint256"},{"internalType":"address","name":"currentBidder","type":"address"},{"internalType":"uint256","name":"startTime","type":"uint256"},{"internalType":"uint256","name":"endTime","type":"uint256"},{"internalType":"bool","name":"active","type":"bool"},{"internalType":"bool","name":"finalized","type":"bool"}],"stateMutability":"view","type":"function"},{"inputs":[{"internalType":"uint256","name":"listingId","type":"uint256"}],"name":"cancelListing","outputs":[],"stateMutability":"nonpayable","type":"function"},{"inputs":[],"name":"carbonToken","outputs":[{"internalType":"contract ICarbonCreditToken","name":"","type":"address"}],"stateMutability":"view","type":"function"},{"inputs":[{"internalType":"uint256","name":"tokenId","type":"uint256"},{"internalType":"uint256","name":"amount","type":"uint256"},{"internalType":"uint256","name":"startingPrice","type":"uint256"},{"internalType":"uint256","name":"duration","type":"uint256"}],"name":"createAuction","outputs":[],"stateMutability":"nonpayable","type":"function"},{"inputs":[{"internalType":"uint256","name":"tokenId","type":"uint256"},{"internalType":"uint256","name":"amount","type":"uint256"},{"internalType":"uint256","name":"pricePerCredit","type":"uint256"},{"internalType":"uint256","name":"duration","type":"uint256"}],"name":"createListing","outputs":[],"stateMutability":"nonpayable","type":"function"},{"inputs":[{"internalType":"uint256","name":"auctionId","type":"uint256"}],"name":"finalizeAuction","outputs":[],"stateMutability":"nonpayable","type":"function"},{"inputs":[],"name":"getActiveAuctions","outputs":[{"internalType":"uint256[]","name":"","type":"uint256[]"}],"stateMutability":"view","type":"function"},{"inputs":[],"name":"getActiveListings","outputs":[{"internalType":"uint256[]","name":"","type":"uint256[]"}],"stateMutability":"view","type":"function"},{"inputs":[{"internalType":"uint256","name":"","type":"uint256"}],"name":"listings","outputs":[{"internalType":"uint256","name":"listingId","type":"uint256"},{"internalType":"uint256","name":"tokenId","type":"uint256"},{"internalType":"address","name":"seller","type":"address"},{"internalType":"uint256","name":"amount","type":"uint256"},{"internalType":"uint256","name":"pricePerCredit","type":"uint256"},{"internalType":"uint256","name":"createdAt","type":"uint256"},{"internalType":"uint256","name":"expiresAt","type":"uint256"},{"internalType":"bool","name":"active","type":"bool"},{"internalType":"enum CarbonMarketplace.ListingType","name":"listingType","type":"uint8"}],"stateMutability":"view","type":"function"},{"inputs":[{"internalType":"address","name":"","type":"address"},{"internalType":"address","name":"","type":"address"},{"internalType":"uint256[]","name":"","type":"uint256[]"},{"internalType":"uint256[]","name":"","type":"uint256[]"},{"internalType":"bytes","name":"","type":"bytes"}],"name":"onERC1155BatchReceived","outputs":[{"internalType":"bytes4","name":"","type":"bytes4"}],"stateMutability":"nonpayable","type":"function"},{"inputs":[{"internalType":"address","name":"","type":"address"},{"internalType":"address","name":"","type":"address"},{"internalType":"uint256","name":"","type":"uint256"},{"internalType":"uint256","name":"","type":"uint256"},{"internalType":"bytes","name":"","type":"bytes"}],"name":"onERC1155Received","outputs":[{"internalType":"bytes4","name":"","type":"bytes4"}],"stateMutability":"nonpayable","type":"function"},{"inputs":[],"name":"owner","outputs":[{"internalType":"address","name":"","type":"address"}],"stateMutability":"view","type":"function"},{"inputs":[],"name":"pause","outputs":[],"stateMutability":"nonpayable","type":"function"},{"inputs":[],"name":"paused","outputs":[{"internalType":"bool","name":"","type":"bool"}],"stateMutability":"view","type":"function"},{"inputs":[{"internalType":"uint256","name":"auctionId","type":"uint256"}],"name":"placeBid","outputs":[],"stateMutability":"payable","type":"function"},{"inputs":[{"internalType":"uint256","name":"listingId","type":"uint256"},{"internalType":"uint256","name":"amount","type":"uint256"}],"name":"purchaseListing","outputs":[],"stateMutability":"payable","type":"function"},{"inputs":[],"name":"renounceOwnership","outputs":[],"stateMutability":"nonpayable","type":"function"},{"inputs":[{"internalType":"bytes4","name":"interfaceId","type":"bytes4"}],"name":"supportsInterface","outputs":[{"internalType":"bool","name":"","type":"bool"}],"stateMutability":"view","type":"function"},{"inputs":[],"name":"totalTransactions","outputs":[{"internalType":"uint256","name":"","type":"uint256"}],"stateMutability":"view","type":"function"},{"inputs":[],"name":"totalVolume","outputs":[{"internalType":"uint256","name":"","type":"uint256"}],"stateMutability":"view","type":"function"},{"inputs":[{"internalType":"address","name":"newOwner","type":"address"}],"name":"transferOwnership","outputs":[],"stateMutability":"nonpayable","type":"function"},{"inputs":[],"name":"unpause","outputs":[],"stateMutability":"nonpayable","type":"function"},{"inputs":[{"internalType":"address","name":"","type":"address"},{"internalType":"uint256","name":"","type":"uint256"}],"name":"userBids","outputs":[{"internalType":"uint256","name":"","type":"uint256"}],"stateMutability":"view","type":"function"},{"inputs":[{"internalType":"address","name":"","type":"address"},{"internalType":"uint256","name":"","type":"uint256"}],"name":"userListings","outputs":[{"internalType":"uint256","name":"","type":"uint256"}],"stateMutability":"view","type":"function"},{"inputs":[],"name":"withdrawFees","outputs":[],"stateMutability":"nonpayable","type":"function"}],"evm":{"bytecode":{"linkReferences":{},"object":"60806040523480156200001157600080fd5b5060405162002806380380620028068339810160408190526200003491620000c9565b6001600055620000443362000077565b6001805460ff60a01b19169055600280546001600160a01b0319166001600160a01b0392909216919091179055620000fb565b600180546001600160a01b038381166001600160a01b0319831681179093556040519116919082907f8be0079c531659141344cd1fd0a4f28419497f9722a3daafe3b4186f6b6457e090600090a35050565b600060208284031215620000dc57600080fd5b81516001600160a01b0381168114620000f457600080fd5b9392505050565b6126fb806200010b6000396000f3fe6080604052600436106101655760003560e01c806386cfa7d3116100d1578063b9a600381161008a578063de74e57b11610064578063de74e57b146104d6578063e808386314610562578063f23a6e6114610582578063f2fde38b146105ae57600080fd5b8063b9a6003814610466578063bc197c811461047c578063cf44b5d5146104c157600080fd5b806386cfa7d3146103b357806386d71ee2146103d357806387c35bc0146103f35780638da5cb5b1461041557806396ec50c3146104335780639979ef451461045357600080fd5b8063571a26a011610123578063571a26a01461021e5780635c975abb1461030e5780635f81a57c1461032d578063715018a61461035157806382a71ef2146103665780638456cb591461039e57600080fd5b8062b395f41461016a57806301ffc9a71461017f578063305a67a8146101b45780633f4ba83a146101d4578063431f21da146101e9578063476343ee14610209575b600080fd5b61017d610178366004611fb7565b6105ce565b005b34801561018b57600080fd5b5061019f61019a366004611fd9565b610945565b60405190151581526020015b60405180910390f35b3480156101c057600080fd5b5061017d6101cf36600461200a565b61097c565b3480156101e057600080fd5b5061017d610ae6565b3480156101f557600080fd5b5061017d610204366004612023565b610af8565b34801561021557600080fd5b5061017d610f91565b34801561022a57600080fd5b506102a361023936600461200a565b60046020819052600091825260409091208054600182015460028301546003840154948401546005850154600686015460078701546008880154600990980154969895976001600160a01b0395861697949593949290931692909160ff808216916101009004168b565b604080519b8c5260208c019a909a526001600160a01b03988916998b019990995260608a0196909652608089019490945260a088019290925290931660c086015260e085019290925261010084019190915215156101208301521515610140820152610160016101ab565b34801561031a57600080fd5b50600154600160a01b900460ff1661019f565b34801561033957600080fd5b5061034360095481565b6040519081526020016101ab565b34801561035d57600080fd5b5061017d611017565b34801561037257600080fd5b50600254610386906001600160a01b031681565b6040516001600160a01b0390911681526020016101ab565b3480156103aa57600080fd5b5061017d611029565b3480156103bf57600080fd5b506103436103ce36600461206a565b611039565b3480156103df57600080fd5b5061017d6103ee366004612023565b61106a565b3480156103ff57600080fd5b506104086114dd565b6040516101ab9190612096565b34801561042157600080fd5b506001546001600160a01b0316610386565b34801561043f57600080fd5b5061034361044e36600461206a565b61164e565b61017d61046136600461200a565b61166a565b34801561047257600080fd5b50610343600a5481565b34801561048857600080fd5b506104a8610497366004612249565b63bc197c8160e01b95945050505050565b6040516001600160e01b031990911681526020016101ab565b3480156104cd57600080fd5b50610408611887565b3480156104e257600080fd5b5061054d6104f136600461200a565b600360208190526000918252604090912080546001820154600283015493830154600484015460058501546006860154600790960154949693956001600160a01b03909416949293919290919060ff8082169161010090041689565b6040516101ab9998979695949392919061230d565b34801561056e57600080fd5b5061017d61057d36600461200a565b6119f0565b34801561058e57600080fd5b506104a861059d366004612382565b63f23a6e6160e01b95945050505050565b3480156105ba57600080fd5b5061017d6105c93660046123eb565b611d07565b6105d6611d7d565b6105de611dd6565b6000828152600360205260409020600781015460ff1661063a5760405162461bcd60e51b81526020600482015260126024820152714c697374696e67206e6f742061637469766560701b60448201526064015b60405180910390fd5b4281600601541161067f5760405162461bcd60e51b815260206004820152600f60248201526e131a5cdd1a5b99c8195e1c1a5c9959608a1b6044820152606401610631565b600082118015610693575080600301548211155b6106d05760405162461bcd60e51b815260206004820152600e60248201526d125b9d985b1a5908185b5bdd5b9d60921b6044820152606401610631565b60028101546001600160a01b031633036107255760405162461bcd60e51b815260206004820152601660248201527543616e6e6f7420627579206f776e206c697374696e6760501b6044820152606401610631565b6000816004015483610737919061241e565b9050803410156107805760405162461bcd60e51b8152602060048201526014602482015273125b9cdd59999a58da595b9d081c185e5b595b9d60621b6044820152606401610631565b600061271061079060fa8461241e565b61079a9190612435565b905060006107a88284612457565b9050848460030160008282546107be9190612457565b909155505060038401546000036107dc5760078401805460ff191690555b6002546001850154604051637921219560e11b81526001600160a01b039092169163f242432a9161081591309133918b9060040161246a565b600060405180830381600087803b15801561082f57600080fd5b505af1158015610843573d6000803e3d6000fd5b50505060028501546040516001600160a01b03909116915082156108fc029083906000818181858888f19350505050158015610883573d6000803e3d6000fd5b50826009600082825461089691906124a2565b9091555050600a80549060006108ab836124b5565b9190505550823411156108f057336108fc6108c68534612457565b6040518115909202916000818181858888f193505050501580156108ee573d6000803e3d6000fd5b505b6001840154604080518781526020810186905233929189917f4796a149c21fb626dad3324569974193fef170cfdb5501fa4b8eec483b5f1395910160405180910390a4505050506109416001600055565b5050565b60006001600160e01b03198216630271189760e51b148061097657506301ffc9a760e01b6001600160e01b03198316145b92915050565b610984611d7d565b6000818152600360205260409020600781015460ff166109db5760405162461bcd60e51b81526020600482015260126024820152714c697374696e67206e6f742061637469766560701b6044820152606401610631565b60028101546001600160a01b03163314610a2b5760405162461bcd60e51b81526020600482015260116024820152702737ba103634b9ba34b7339037bbb732b960791b6044820152606401610631565b60078101805460ff19169055600280549082015460018301546003840154604051637921219560e11b81526001600160a01b039485169463f242432a94610a7b943094919092169260040161246a565b600060405180830381600087803b158015610a9557600080fd5b505af1158015610aa9573d6000803e3d6000fd5b50506040518492507f411aee90354c51b1b04cd563fcab2617142a9d50da19232d888547c8a1b7fd8a9150600090a250610ae36001600055565b50565b610aee611e23565b610af6611e7d565b565b610b00611d7d565b610b08611dd6565b60008311610b585760405162461bcd60e51b815260206004820152601d60248201527f416d6f756e74206d7573742062652067726561746572207468616e20300000006044820152606401610631565b60008211610bb65760405162461bcd60e51b815260206004820152602560248201527f5374617274696e67207072696365206d75737420626520677265617465722074604482015264068616e20360dc1b6064820152608401610631565b610e108110158015610bcb575062093a808111155b610c0a5760405162461bcd60e51b815260206004820152601060248201526f24b73b30b634b210323ab930ba34b7b760811b6044820152606401610631565b600254604051637c37722360e01b8152600481018690526000916001600160a01b031690637c37722390602401600060405180830381865afa158015610c54573d6000803e3d6000fd5b505050506040513d6000823e601f3d908101601f19168201604052610c7c9190810190612564565b905080610160015160ff16600214610cca5760405162461bcd60e51b8152602060048201526011602482015270437265646974206e6f742061637469766560781b6044820152606401610631565b600254604051627eeac760e11b81523360048201526024810187905285916001600160a01b03169062fdd58e90604401602060405180830381865afa158015610d17573d6000803e3d6000fd5b505050506040513d601f19601f82011682018060405250810190610d3b9190612696565b1015610d895760405162461bcd60e51b815260206004820152601a60248201527f496e73756666696369656e7420746f6b656e2062616c616e63650000000000006044820152606401610631565b60088054906000610d99836124b5565b919050555060006008549050604051806101600160405280828152602001878152602001336001600160a01b0316815260200186815260200185815260200185815260200160006001600160a01b031681526020014281526020018442610e0091906124a2565b8152600160208083018290526000604093840181905285815260048083529084902085518155918501519282019290925583830151600280830180546001600160a01b03199081166001600160a01b03948516179091556060870151600385015560808701518486015560a0870151600585015560c087015160068501805490921690841617905560e08601516007840155610100808701516008850155610120870151600990940180546101409098015161ffff1990981694151561ff00191694909417961515029590951790915592549151637921219560e11b8152919092169163f242432a91610efb91339130918c918c910161246a565b600060405180830381600087803b158015610f1557600080fd5b505af1158015610f29573d6000803e3d6000fd5b503392508891508390507f56102b55f8c4ba831c7d439c06939c7e1fe545abbd4f8a71737c2a9b0f7e85848888610f6089426124a2565b604080519384526020840192909252908201526060015b60405180910390a45050610f8b6001600055565b50505050565b610f99611e23565b4780610fdd5760405162461bcd60e51b81526020600482015260136024820152724e6f206665657320746f20776974686472617760681b6044820152606401610631565b6001546040516001600160a01b039091169082156108fc029083906000818181858888f19350505050158015610941573d6000803e3d6000fd5b61101f611e23565b610af66000611ed2565b611031611e23565b610af6611f24565b6005602052816000526040600020818154811061105557600080fd5b90600052602060002001600091509150505481565b611072611d7d565b61107a611dd6565b600083116110ca5760405162461bcd60e51b815260206004820152601d60248201527f416d6f756e74206d7573742062652067726561746572207468616e20300000006044820152606401610631565b6000821161111a5760405162461bcd60e51b815260206004820152601c60248201527f5072696365206d7573742062652067726561746572207468616e2030000000006044820152606401610631565b6000811161116a5760405162461bcd60e51b815260206004820152601f60248201527f4475726174696f6e206d7573742062652067726561746572207468616e2030006044820152606401610631565b600254604051637c37722360e01b8152600481018690526000916001600160a01b031690637c37722390602401600060405180830381865afa1580156111b4573d6000803e3d6000fd5b505050506040513d6000823e601f3d908101601f191682016040526111dc9190810190612564565b905080610160015160ff1660021461122a5760405162461bcd60e51b8152602060048201526011602482015270437265646974206e6f742061637469766560781b6044820152606401610631565b600254604051627eeac760e11b81523360048201526024810187905285916001600160a01b03169062fdd58e90604401602060405180830381865afa158015611277573d6000803e3d6000fd5b505050506040513d601f19601f8201168201806040525081019061129b9190612696565b10156112e95760405162461bcd60e51b815260206004820152601a60248201527f496e73756666696369656e7420746f6b656e2062616c616e63650000000000006044820152606401610631565b600780549060006112f9836124b5565b919050555060006007549050604051806101200160405280828152602001878152602001336001600160a01b03168152602001868152602001858152602001428152602001844261134a91906124a2565b815260016020820152604001600090526000828152600360208181526040928390208451815590840151600182015591830151600280840180546001600160a01b0319166001600160a01b03909316929092179091556060840151918301919091556080830151600483015560a0830151600583015560c0830151600683015560e083015160078301805460ff19811692151592831782556101008087015194929361ffff1990921661ff001990921691909117918490811115611410576114106122f7565b021790555050336000818152600560209081526040808320805460018101825590845291909220018490556002549051637921219560e11b81526001600160a01b03909116925063f242432a9161146f9130908b908b9060040161246a565b600060405180830381600087803b15801561148957600080fd5b505af115801561149d573d6000803e3d6000fd5b5050604080518881526020810188905233935089925084917f492d2294f1b8a982001da6ecb3de3a374ad9c29c9c8d5ad43da90cc50b5851369101610f77565b6060600060075467ffffffffffffffff8111156114fc576114fc6120da565b604051908082528060200260200182016040528015611525578160200160208202803683370190505b509050600060015b60075481116115aa5760008181526003602052604090206007015460ff168015611567575060008181526003602052604090206006015442105b15611598578083838151811061157f5761157f6126af565b602090810291909101015281611594816124b5565b9250505b806115a2816124b5565b91505061152d565b5060008167ffffffffffffffff8111156115c6576115c66120da565b6040519080825280602002602001820160405280156115ef578160200160208202803683370190505b50905060005b828110156116465783818151811061160f5761160f6126af565b6020026020010151828281518110611629576116296126af565b60209081029190910101528061163e816124b5565b9150506115f5565b509392505050565b6006602052816000526040600020818154811061105557600080fd5b611672611d7d565b61167a611dd6565b6000818152600460205260409020600981015460ff166116d15760405162461bcd60e51b815260206004820152601260248201527141756374696f6e206e6f742061637469766560701b6044820152606401610631565b806008015442106117145760405162461bcd60e51b815260206004820152600d60248201526c105d58dd1a5bdb88195b991959609a1b6044820152606401610631565b60028101546001600160a01b031633036117705760405162461bcd60e51b815260206004820152601960248201527f43616e6e6f7420626964206f6e206f776e2061756374696f6e000000000000006044820152606401610631565b806005015434116117b15760405162461bcd60e51b815260206004820152600b60248201526a42696420746f6f206c6f7760a81b6044820152606401610631565b60068101546001600160a01b03161561180657600681015460058201546040516001600160a01b039092169181156108fc0291906000818181858888f19350505050158015611804573d6000803e3d6000fd5b505b3460058201819055600680830180546001600160a01b03191633908117909155600081815260209283526040808220805460018101825590835291849020909101869055519283529184917f0e54eff26401bf69b81b26f60bd85ef47f5d85275c1d268d84f68d6897431c47910160405180910390a350610ae36001600055565b6060600060085467ffffffffffffffff8111156118a6576118a66120da565b6040519080825280602002602001820160405280156118cf578160200160208202803683370190505b509050600060015b60085481116119545760008181526004602052604090206009015460ff168015611911575060008181526004602052604090206008015442105b156119425780838381518110611929576119296126af565b60209081029190910101528161193e816124b5565b9250505b8061194c816124b5565b9150506118d7565b5060008167ffffffffffffffff811115611970576119706120da565b604051908082528060200260200182016040528015611999578160200160208202803683370190505b50905060005b82811015611646578381815181106119b9576119b96126af565b60200260200101518282815181106119d3576119d36126af565b6020908102919091010152806119e8816124b5565b91505061199f565b6119f8611d7d565b6000818152600460205260409020600981015460ff16611a4f5760405162461bcd60e51b815260206004820152601260248201527141756374696f6e206e6f742061637469766560701b6044820152606401610631565b8060080154421015611a9b5760405162461bcd60e51b815260206004820152601560248201527441756374696f6e207374696c6c206f6e676f696e6760581b6044820152606401610631565b6009810154610100900460ff1615611af55760405162461bcd60e51b815260206004820152601960248201527f41756374696f6e20616c72656164792066696e616c697a6564000000000000006044820152606401610631565b60098101805461ffff191661010017905560068101546001600160a01b031615611c8557600061271060fa8360050154611b2f919061241e565b611b399190612435565b90506000818360050154611b4d9190612457565b600254600685015460018601546003870154604051637921219560e11b81529495506001600160a01b039384169463f242432a94611b94943094911692909160040161246a565b600060405180830381600087803b158015611bae57600080fd5b505af1158015611bc2573d6000803e3d6000fd5b50505060028401546040516001600160a01b03909116915082156108fc029083906000818181858888f19350505050158015611c02573d6000803e3d6000fd5b50826005015460096000828254611c1991906124a2565b9091555050600a8054906000611c2e836124b5565b9091555050600683015460058401546040519081526001600160a01b039091169085907f4d9113a1377d665eaa1f9168a9c9080f2e488cb820b10149de3d6d2e0f2780c79060200160405180910390a35050611cfc565b600280549082015460018301546003840154604051637921219560e11b81526001600160a01b039485169463f242432a94611cc9943094919092169260040161246a565b600060405180830381600087803b158015611ce357600080fd5b505af1158015611cf7573d6000803e3d6000fd5b505050505b50610ae36001600055565b611d0f611e23565b6001600160a01b038116611d745760405162461bcd60e51b815260206004820152602660248201527f4f776e61626c653a206e6577206f776e657220697320746865207a65726f206160448201526564647265737360d01b6064820152608401610631565b610ae381611ed2565b600260005403611dcf5760405162461bcd60e51b815260206004820152601f60248201527f5265656e7472616e637947756172643a207265656e7472616e742063616c6c006044820152606401610631565b6002600055565b600154600160a01b900460ff1615610af65760405162461bcd60e51b815260206004820152601060248201526f14185d5cd8589b194e881c185d5cd95960821b6044820152606401610631565b6001546001600160a01b03163314610af65760405162461bcd60e51b815260206004820181905260248201527f4f776e61626c653a2063616c6c6572206973206e6f7420746865206f776e65726044820152606401610631565b611e85611f67565b6001805460ff60a01b191690557f5db9ee0a495bf2e6ff9c91a7834c1ba4fdd244a5e8aa4e537bd38aeae4b073aa335b6040516001600160a01b03909116815260200160405180910390a1565b600180546001600160a01b038381166001600160a01b0319831681179093556040519116919082907f8be0079c531659141344cd1fd0a4f28419497f9722a3daafe3b4186f6b6457e090600090a35050565b611f2c611dd6565b6001805460ff60a01b1916600160a01b1790557f62e78cea01bee320cd4e420270b5ea74000d11b0c9f74754ebdbfc544b05a258611eb53390565b600154600160a01b900460ff16610af65760405162461bcd60e51b815260206004820152601460248201527314185d5cd8589b194e881b9bdd081c185d5cd95960621b6044820152606401610631565b60008060408385031215611fca57600080fd5b50508035926020909101359150565b600060208284031215611feb57600080fd5b81356001600160e01b03198116811461200357600080fd5b9392505050565b60006020828403121561201c57600080fd5b5035919050565b6000806000806080858703121561203957600080fd5b5050823594602084013594506040840135936060013592509050565b6001600160a01b0381168114610ae357600080fd5b6000806040838503121561207d57600080fd5b823561208881612055565b946020939093013593505050565b6020808252825182820181905260009190848201906040850190845b818110156120ce578351835292840192918401916001016120b2565b50909695505050505050565b634e487b7160e01b600052604160045260246000fd5b604051610180810167ffffffffffffffff81118282101715612114576121146120da565b60405290565b604051601f8201601f1916810167ffffffffffffffff81118282101715612143576121436120da565b604052919050565b600082601f83011261215c57600080fd5b8135602067ffffffffffffffff821115612178576121786120da565b8160051b61218782820161211a565b92835284810182019282810190878511156121a157600080fd5b83870192505b848310156121c0578235825291830191908301906121a7565b979650505050505050565b600067ffffffffffffffff8211156121e5576121e56120da565b50601f01601f191660200190565b600082601f83011261220457600080fd5b8135612217612212826121cb565b61211a565b81815284602083860101111561222c57600080fd5b816020850160208301376000918101602001919091529392505050565b600080600080600060a0868803121561226157600080fd5b853561226c81612055565b9450602086013561227c81612055565b9350604086013567ffffffffffffffff8082111561229957600080fd5b6122a589838a0161214b565b945060608801359150808211156122bb57600080fd5b6122c789838a0161214b565b935060808801359150808211156122dd57600080fd5b506122ea888289016121f3565b9150509295509295909350565b634e487b7160e01b600052602160045260246000fd5b898152602081018990526001600160a01b0388166040820152606081018790526080810186905260a0810185905260c0810184905282151560e082015261012081016003831061236d57634e487b7160e01b600052602160045260246000fd5b826101008301529a9950505050505050505050565b600080600080600060a0868803121561239a57600080fd5b85356123a581612055565b945060208601356123b581612055565b93506040860135925060608601359150608086013567ffffffffffffffff8111156123df57600080fd5b6122ea888289016121f3565b6000602082840312156123fd57600080fd5b813561200381612055565b634e487b7160e01b600052601160045260246000fd5b808202811582820484141761097657610976612408565b60008261245257634e487b7160e01b600052601260045260246000fd5b500490565b8181038181111561097657610976612408565b6001600160a01b0394851681529290931660208301526040820152606081019190915260a06080820181905260009082015260c00190565b8082018082111561097657610976612408565b6000600182016124c7576124c7612408565b5060010190565b600082601f8301126124df57600080fd5b81516124ed612212826121cb565b8181526020858184870101111561250357600080fd5b60005b83811015612521578581018201518382018301528101612506565b50600092820101919091529392505050565b8051801515811461254357600080fd5b919050565b805161254381612055565b805160ff8116811461254357600080fd5b60006020828403121561257657600080fd5b815167ffffffffffffffff8082111561258e57600080fd5b9083019061018082860312156125a357600080fd5b6125ab6120f0565b8251815260208301516020820152604083015160408201526060830151828111156125d557600080fd5b6125e1878286016124ce565b6060830152506080830151828111156125f957600080fd5b612605878286016124ce565b60808301525060a083015160a082015260c083015160c082015260e083015160e0820152610100808401518381111561263d57600080fd5b612649888287016124ce565b828401525050610120915061265f828401612533565b828201526101409150612673828401612548565b828201526101609150612687828401612553565b91810191909152949350505050565b6000602082840312156126a857600080fd5b5051919050565b634e487b7160e01b600052603260045260246000fdfea26469706673582212208672b03e1484e660c1234395a8e442d7b287f3835520efaaf0876a1fbe35550064736f6c63430008130033","opcodes":"PUSH1 0x80 PUSH1 0x40 MSTORE CALLVALUE DUP1 ISZERO PUSH3 0x11 JUMPI PUSH1 0x0 DUP1 REVERT JUMPDEST POP PUSH1 0x40 MLOAD PUSH3 0x2806 CODESIZE SUB DUP1 PUSH3 0x2806 DUP4 CODECOPY DUP2 ADD PUSH1 0x40 DUP2 SWAP1 MSTORE PUSH3 0x34 SWAP2 PUSH3 0xC9 JUMP JUMPDEST PUSH1 0x1 PUSH1 0x0 SSTORE PUSH3 0x44 CALLER PUSH3 0x77 JUMP JUMPDEST PUSH1 0x1 DUP1 SLOAD PUSH1 0xFF PUSH1 0xA0 SHL NOT AND SWAP1 SSTORE PUSH1 0x2 DUP1 SLOAD PUSH1 0x1 PUSH1 0x1 PUSH1 0xA0 SHL SUB NOT AND PUSH1 0x1 PUSH1 0x1 PUSH1 0xA0 SHL SUB SWAP3 SWAP1 SWAP3 AND SWAP2 SWAP1 SWAP2 OR SWAP1 SSTORE PUSH3 0xFB JUMP JUMPDEST PUSH1 0x1 DUP1 SLOAD PUSH1 0x1 PUSH1 0x1 PUSH1 0xA0 SHL SUB DUP4 DUP2 AND PUSH1 0x1 PUSH1 0x1 PUSH1 0xA0 SHL SUB NOT DUP4 AND DUP2 OR SWAP1 SWAP4 SSTORE PUSH1 0x40 MLOAD SWAP2 AND SWAP2 SWAP1 DUP3 SWAP1 PUSH32 0x8BE0079C531659141344CD1FD0A4F28419497F9722A3DAAFE3B4186F6B6457E0 SWAP1 PUSH1 0x0 SWAP1 LOG3 POP POP JUMP JUMPDEST PUSH1 0x0 PUSH1 0x20 DUP3 DUP5 SUB SLT ISZERO PUSH3 0xDC JUMPI PUSH1 0x0 DUP1 REVERT JUMPDEST DUP2 MLOAD PUSH1 0x1 PUSH1 0x1 PUSH1 0xA0 SHL SUB DUP2 AND DUP2 EQ PUSH3 0xF4 JUMPI PUSH1 0x0 DUP1 REVERT JUMPDEST SWAP4 SWAP3 POP POP POP JUMP JUMPDEST PUSH2 0x26FB DUP1 PUSH3 0x10B PUSH1 0x0 CODECOPY PUSH1 0x0 RETURN INVALID PUSH1 0x80 PUSH1 0x40 MSTORE PUSH1 0x4 CALLDATASIZE LT PUSH2 0x165 JUMPI PUSH1 0x0 CALLDATALOAD PUSH1 0xE0 SHR DUP1 PUSH4 0x86CFA7D3 GT PUSH2 0xD1 JUMPI DUP1 PUSH4 0xB9A60038 GT PUSH2 0x8A JUMPI DUP1 PUSH4 0xDE74E57B GT PUSH2 0x64 JUMPI DUP1 PUSH4 0xDE74E57B EQ PUSH2 0x4D6 JUMPI DUP1 PUSH4 0xE8083863 EQ PUSH2 0x562 JUMPI DUP1 PUSH4 0xF23A6E61 EQ PUSH2 0x582 JUMPI DUP1 PUSH4 0xF2FDE38B EQ PUSH2 0x5AE JUMPI PUSH1 0x0 DUP1 REVERT JUMPDEST DUP1 PUSH4 0xB9A60038 EQ PUSH2 0x466 JUMPI DUP1 PUSH4 0xBC197C81 EQ PUSH2 0x47C JUMPI DUP1 PUSH4 0xCF44B5D5 EQ PUSH2 0x4C1 JUMPI PUSH1 0x0 DUP1 REVERT JUMPDEST DUP1 PUSH4 0x86CFA7D3 EQ PUSH2 0x3B3 JUMPI DUP1 PUSH4 0x86D71EE2 EQ PUSH2 0x3D3 JUMPI DUP1 PUSH4 0x87C35BC0 EQ PUSH2 0x3F3 JUMPI DUP1 PUSH4 0x8DA5CB5B EQ PUSH2 0x415 JUMPI DUP1 PUSH4 0x96EC50C3 EQ PUSH2 0x433 JUMPI DUP1 PUSH4 0x9979EF45 EQ PUSH2 0x453 JUMPI PUSH1 0x0 DUP1 REVERT JUMPDEST DUP1 PUSH4 0x571A26A0 GT PUSH2 0x123 JUMPI DUP1 PUSH4 0x571A26A0 EQ PUSH2 0x21E JUMPI DUP1 PUSH4 0x5C975ABB EQ PUSH2 0x30E JUMPI DUP1 PUSH4 0x5F81A57C EQ PUSH2 0x32D JUMPI DUP1 PUSH4 0x715018A6 EQ PUSH2 0x351 JUMPI DUP1 PUSH4 0x82A71EF2 EQ PUSH2 0x366 JUMPI DUP1 PUSH4 0x8456CB59 EQ PUSH2 0x39E JUMPI PUSH1 0x0 DUP1 REVERT JUMPDEST DUP1 PUSH3 0xB395F4 EQ PUSH2 0x16A JUMPI DUP1 PUSH4 0x1FFC9A7 EQ PUSH2 0x17F JUMPI DUP1 PUSH4 0x305A67A8 EQ PUSH2 0x1B4 JUMPI DUP1 PUSH4 0x3F4BA83A EQ PUSH2 0x1D4 JUMPI DUP1 PUSH4 0x431F21DA EQ PUSH2 0x1E9 JUMPI DUP1 PUSH4 0x476343EE EQ PUSH2 0x209 JUMPI JUMPDEST PUSH1 0x0 DUP1 REVERT JUMPDEST PUSH2 0x17D PUSH2 0x178 CALLDATASIZE PUSH1 0x4 PUSH2 0x1FB7 JUMP JUMPDEST PUSH2 0x5CE JUMP JUMPDEST STOP JUMPDEST CALLVALUE DUP1 ISZERO PUSH2 0x18B JUMPI PUSH1 0x0 DUP1 REVERT JUMPDEST POP PUSH2 0x19F PUSH2 0x19A CALLDATASIZE PUSH1 0x4 PUSH2 0x1FD9 JUMP JUMPDEST PUSH2 0x945 JUMP JUMPDEST PUSH1 0x40 MLOAD SWAP1 ISZERO ISZERO DUP2 MSTORE PUSH1 0x20 ADD JUMPDEST PUSH1 0x40 MLOAD DUP1 SWAP2 SUB SWAP1 RETURN JUMPDEST CALLVALUE DUP1 ISZERO PUSH2 0x1C0 JUMPI PUSH1 0x0 DUP1 REVERT JUMPDEST POP PUSH2 0x17D PUSH2 0x1CF CALLDATASIZE PUSH1 0x4 PUSH2 0x200A JUMP JUMPDEST PUSH2 0x97C JUMP JUMPDEST CALLVALUE DUP1 ISZERO PUSH2 0x1E0 JUMPI PUSH1 0x0 DUP1 REVERT JUMPDEST POP PUSH2 0x17D PUSH2 0xAE6 JUMP JUMPDEST CALLVALUE DUP1 ISZERO PUSH2 0x1F5 JUMPI PUSH1 0x0 DUP1 REVERT JUMPDEST POP PUSH2 0x17D PUSH2 0x204 CALLDATASIZE PUSH1 0x4 PUSH2 0x2023 JUMP JUMPDEST PUSH2 0xAF8 JUMP JUMPDEST CALLVALUE DUP1 ISZERO PUSH2 0x215 JUMPI PUSH1 0x0 DUP1 REVERT JUMPDEST POP PUSH2 0x17D PUSH2 0xF91 JUMP JUMPDEST CALLVALUE DUP1 ISZERO PUSH2 0x22A JUMPI PUSH1 0x0 DUP1 REVERT JUMPDEST POP PUSH2 0x2A3 PUSH2 0x239 CALLDATASIZE PUSH1 0x4 PUSH2 0x200A JUMP JUMPDEST PUSH1 0x4 PUSH1 0x20 DUP2 SWAP1 MSTORE PUSH1 0x0 SWAP2 DUP3 MSTORE PUSH1 0x40 SWAP1 SWAP2 KECCAK256 DUP1 SLOAD PUSH1 0x1 DUP3 ADD SLOAD PUSH1 0x2 DUP4 ADD SLOAD PUSH1 0x3 DUP5 ADD SLOAD SWAP5 DUP5 ADD SLOAD PUSH1 0x5 DUP6 ADD SLOAD PUSH1 0x6 DUP7 ADD SLOAD PUSH1 0x7 DUP8 ADD SLOAD PUSH1 0x8 DUP9 ADD SLOAD PUSH1 0x9 SWAP1 SWAP9 ADD SLOAD SWAP7 SWAP9 SWAP6 SWAP8 PUSH1 0x1 PUSH1 0x1 PUSH1 0xA0 SHL SUB SWAP6 DUP7 AND SWAP8 SWAP5 SWAP6 SWAP4 SWAP5 SWAP3 SWAP1 SWAP4 AND SWAP3 SWAP1 SWAP2 PUSH1 0xFF DUP1 DUP3 AND SWAP2 PUSH2 0x100 SWAP1 DIV AND DUP12 JUMP JUMPDEST PUSH1 0x40 DUP1 MLOAD SWAP12 DUP13 MSTORE PUSH1 0x20 DUP13 ADD SWAP11 SWAP1 SWAP11 MSTORE PUSH1 0x1 PUSH1 0x1 PUSH1 0xA0 SHL SUB SWAP9 DUP10 AND SWAP10 DUP12 ADD SWAP10 SWAP1 SWAP10 MSTORE PUSH1 0x60 DUP11 ADD SWAP7 SWAP1 SWAP7 MSTORE PUSH1 0x80 DUP10 ADD SWAP5 SWAP1 SWAP5 MSTORE PUSH1 0xA0 DUP9 ADD SWAP3 SWAP1 SWAP3 MSTORE SWAP1 SWAP4 AND PUSH1 0xC0 DUP7 ADD MSTORE PUSH1 0xE0 DUP6 ADD SWAP3 SWAP1 SWAP3 MSTORE PUSH2 0x100 DUP5 ADD SWAP2 SWAP1 SWAP2 MSTORE ISZERO ISZERO PUSH2 0x120 DUP4 ADD MSTORE ISZERO ISZERO PUSH2 0x140 DUP3 ADD MSTORE PUSH2 0x160 ADD PUSH2 0x1AB JUMP JUMPDEST CALLVALUE DUP1 ISZERO PUSH2 0x31A JUMPI PUSH1 0x0 DUP1 REVERT JUMPDEST POP PUSH1 0x1 SLOAD PUSH1 0x1 PUSH1 0xA0 SHL SWAP1 DIV PUSH1 0xFF AND PUSH2 0x19F JUMP JUMPDEST CALLVALUE DUP1 ISZERO PUSH2 0x339 JUMPI PUSH1 0x0 DUP1 REVERT JUMPDEST POP PUSH2 0x343 PUSH1 0x9 SLOAD DUP2 JUMP JUMPDEST PUSH1 0x40 MLOAD SWAP1 DUP2 MSTORE PUSH1 0x20 ADD PUSH2 0x1AB JUMP JUMPDEST CALLVALUE DUP1 ISZERO PUSH2 0x35D JUMPI PUSH1 0x0 DUP1 REVERT JUMPDEST POP PUSH2 0x17D PUSH2 0x1017 JUMP JUMPDEST CALLVALUE DUP1 ISZERO PUSH2 0x372 JUMPI PUSH1 0x0 DUP1 REVERT JUMPDEST POP PUSH1 0x2 SLOAD PUSH2 0x386 SWAP1 PUSH1 0x1 PUSH1 0x1 PUSH1 0xA0 SHL SUB AND DUP2 JUMP JUMPDEST PUSH1 0x40 MLOAD PUSH1 0x1 PUSH1 0x1 PUSH1 0xA0 SHL SUB SWAP1 SWAP2 AND DUP2 MSTORE PUSH1 0x20 ADD PUSH2 0x1AB JUMP JUMPDEST CALLVALUE DUP1 ISZERO PUSH2 0x3AA JUMPI PUSH1 0x0 DUP1 REVERT JUMPDEST POP PUSH2 0x17D PUSH2 0x1029 JUMP JUMPDEST CALLVALUE DUP1 ISZERO PUSH2 0x3BF JUMPI PUSH1 0x0 DUP1 REVERT JUMPDEST POP PUSH2 0x343 PUSH2 0x3CE CALLDATASIZE PUSH1 0x4 PUSH2 0x206A JUMP JUMPDEST PUSH2 0x1039 JUMP JUMPDEST CALLVALUE DUP1 ISZERO PUSH2 0x3DF JUMPI PUSH1 0x0 DUP1 REVERT JUMPDEST POP PUSH2 0x17D PUSH2 0x3EE CALLDATASIZE PUSH1 0x4 PUSH2 0x2023 JUMP JUMPDEST PUSH2 0x106A JUMP JUMPDEST CALLVALUE DUP1 ISZERO PUSH2 0x3FF JUMPI PUSH1 0x0 DUP1 REVERT JUMPDEST POP PUSH2 0x408 PUSH2 0x14DD JUMP JUMPDEST PUSH1 0x40 MLOAD PUSH2 0x1AB SWAP2 SWAP1 PUSH2 0x2096 JUMP JUMPDEST CALLVALUE DUP1 ISZERO PUSH2 0x421 JUMPI PUSH1 0x0 DUP1 REVERT JUMPDEST POP PUSH1 0x1 SLOAD PUSH1 0x1 PUSH1 0x1 PUSH1 0xA0 SHL SUB AND PUSH2 0x386 JUMP JUMPDEST CALLVALUE DUP1 ISZERO PUSH2 0x43F JUMPI PUSH1 0x0 DUP1 REVERT JUMPDEST POP PUSH2 0x343 PUSH2 0x44E CALLDATASIZE PUSH1 0x4 PUSH2 0x206A JUMP JUMPDEST PUSH2 0x164E JUMP JUMPDEST PUSH2 0x17D PUSH2 0x461 CALLDATASIZE PUSH1 0x4 PUSH2 0x200A JUMP JUMPDEST PUSH2 0x166A JUMP JUMPDEST CALLVALUE DUP1 ISZERO PUSH2 0x472 JUMPI PUSH1 0x0 DUP1 REVERT JUMPDEST POP PUSH2 0x343 PUSH1 0xA SLOAD DUP2 JUMP JUMPDEST CALLVALUE DUP1 ISZERO PUSH2 0x488 JUMPI PUSH1 0x0 DUP1 REVERT JUMPDEST POP PUSH2 0x4A8 PUSH2 0x497 CALLDATASIZE PUSH1 0x4 PUSH2 0x2249 JUMP JUMPDEST PUSH4 0xBC197C81 PUSH1 0xE0 SHL SWAP6 SWAP5 POP POP POP POP POP JUMP JUMPDEST PUSH1 0x40 MLOAD PUSH1 0x1 PUSH1 0x1 PUSH1 0xE0 SHL SUB NOT SWAP1 SWAP2 AND DUP2 MSTORE PUSH1 0x20 ADD PUSH2 0x1AB JUMP JUMPDEST CALLVALUE DUP1 ISZERO PUSH2 0x4CD JUMPI PUSH1 0x0 DUP1 REVERT JUMPDEST POP PUSH2 0x408 PUSH2 0x1887 JUMP JUMPDEST CALLVALUE DUP1 ISZERO PUSH2 0x4E2 JUMPI PUSH1 0x0 DUP1 REVERT JUMPDEST POP PUSH2 0x54D PUSH2 0x4F1 CALLDATASIZE PUSH1 0x4 PUSH2 0x200A JUMP JUMPDEST PUSH1 0x3 PUSH1 0x20 DUP2 SWAP1 MSTORE PUSH1 0x0 SWAP2 DUP3 MSTORE PUSH1 0x40 SWAP1 SWAP2 KECCAK256 DUP1 SLOAD PUSH1 0x1 DUP3 ADD SLOAD PUSH1 0x2 DUP4 ADD SLOAD SWAP4 DUP4 ADD SLOAD PUSH1 0x4 DUP5 ADD SLOAD PUSH1 0x5 DUP6 ADD SLOAD PUSH1 0x6 DUP7 ADD SLOAD PUSH1 0x7 SWAP1 SWAP7 ADD SLOAD SWAP5 SWAP7 SWAP4 SWAP6 PUSH1 0x1 PUSH1 0x1 PUSH1 0xA0 SHL SUB SWAP1 SWAP5 AND SWAP5 SWAP3 SWAP4 SWAP2 SWAP3 SWAP1 SWAP2 SWAP1 PUSH1 0xFF DUP1 DUP3 AND SWAP2 PUSH2 0x100 SWAP1 DIV AND DUP10 JUMP JUMPDEST PUSH1 0x40 MLOAD PUSH2 0x1AB SWAP10 SWAP9 SWAP8 SWAP7 SWAP6 SWAP5 SWAP4 SWAP3 SWAP2 SWAP1 PUSH2 0x230D JUMP JUMPDEST CALLVALUE DUP1 ISZERO PUSH2 0x56E JUMPI PUSH1 0x0 DUP1 REVERT JUMPDEST POP PUSH2 0x17D PUSH2 0x57D CALLDATASIZE PUSH1 0x4 PUSH2 0x200A JUMP JUMPDEST PUSH2 0x19F0 JUMP JUMPDEST CALLVALUE DUP1 ISZERO PUSH2 0x58E JUMPI PUSH1 0x0 DUP1 REVERT JUMPDEST POP PUSH2 0x4A8 PUSH2 0x59D CALLDATASIZE PUSH1 0x4 PUSH2 0x2382 JUMP JUMPDEST PUSH4 0xF23A6E61 PUSH1 0xE0 SHL SWAP6 SWAP5 POP POP POP POP POP JUMP JUMPDEST CALLVALUE DUP1 ISZERO PUSH2 0x5BA JUMPI PUSH1 0x0 DUP1 REVERT JUMPDEST POP PUSH2 0x17D PUSH2 0x5C9 CALLDATASIZE PUSH1 0x4 PUSH2 0x23EB JUMP JUMPDEST PUSH2 0x1D07 JUMP JUMPDEST PUSH2 0x5D6 PUSH2 0x1D7D JUMP JUMPDEST PUSH2 0x5DE PUSH2 0x1DD6 JUMP JUMPDEST PUSH1 0x0 DUP3 DUP2 MSTORE PUSH1 0x3 PUSH1 0x20 MSTORE PUSH1 0x40 SWAP1 KECCAK256 PUSH1 0x7 DUP2 ADD SLOAD PUSH1 0xFF AND PUSH2 0x63A JUMPI PUSH1 0x40 MLOAD PUSH3 0x461BCD PUSH1 0xE5 SHL DUP2 MSTORE PUSH1 0x20 PUSH1 0x4 DUP3 ADD MSTORE PUSH1 0x12 PUSH1 0x24 DUP3 ADD MSTORE PUSH18 0x4C697374696E67206E6F7420616374697665 PUSH1 0x70 SHL PUSH1 0x44 DUP3 ADD MSTORE PUSH1 0x64 ADD JUMPDEST PUSH1 0x40 MLOAD DUP1 SWAP2 SUB SWAP1 REVERT JUMPDEST TIMESTAMP DUP2 PUSH1 0x6 ADD SLOAD GT PUSH2 0x67F JUMPI PUSH1 0x40 MLOAD PUSH3 0x461BCD PUSH1 0xE5 SHL DUP2 MSTORE PUSH1 0x20 PUSH1 0x4 DUP3 ADD MSTORE PUSH1 0xF PUSH1 0x24 DUP3 ADD MSTORE PUSH15 0x131A5CDD1A5B99C8195E1C1A5C9959 PUSH1 0x8A SHL PUSH1 0x44 DUP3 ADD MSTORE PUSH1 0x64 ADD PUSH2 0x631 JUMP JUMPDEST PUSH1 0x0 DUP3 GT DUP1 ISZERO PUSH2 0x693 JUMPI POP DUP1 PUSH1 0x3 ADD SLOAD DUP3 GT ISZERO JUMPDEST PUSH2 0x6D0 JUMPI PUSH1 0x40 MLOAD PUSH3 0x461BCD PUSH1 0xE5 SHL DUP2 MSTORE PUSH1 0x20 PUSH1 0x4 DUP3 ADD MSTORE PUSH1 0xE PUSH1 0x24 DUP3 ADD MSTORE PUSH14 0x125B9D985B1A5908185B5BDD5B9D PUSH1 0x92 SHL PUSH1 0x44 DUP3 ADD MSTORE PUSH1 0x64 ADD PUSH2 0x631 JUMP JUMPDEST PUSH1 0x2 DUP2 ADD SLOAD PUSH1 0x1 PUSH1 0x1 PUSH1 0xA0 SHL SUB AND CALLER SUB PUSH2 0x725 JUMPI PUSH1 0x40 MLOAD PUSH3 0x461BCD PUSH1 0xE5 SHL DUP2 MSTORE PUSH1 0x20 PUSH1 0x4 DUP3 ADD MSTORE PUSH1 0x16 PUSH1 0x24 DUP3 ADD MSTORE PUSH22 0x43616E6E6F7420627579206F776E206C697374696E67 PUSH1 0x50 SHL PUSH1 0x44 DUP3 ADD MSTORE PUSH1 0x64 ADD PUSH2 0x631 JUMP JUMPDEST PUSH1 0x0 DUP2 PUSH1 0x4 ADD SLOAD DUP4 PUSH2 0x737 SWAP2 SWAP1 PUSH2 0x241E JUMP JUMPDEST SWAP1 POP DUP1 CALLVALUE LT ISZERO PUSH2 0x780 JUMPI PUSH1 0x40 MLOAD PUSH3 0x461BCD PUSH1 0xE5 SHL DUP2 MSTORE PUSH1 0x20 PUSH1 0x4 DUP3 ADD MSTORE PUSH1 0x14 PUSH1 0x24 DUP3 ADD MSTORE PUSH20 0x125B9CDD59999A58DA595B9D081C185E5B595B9D PUSH1 0x62 SHL PUSH1 0x44 DUP3 ADD MSTORE PUSH1 0x64 ADD PUSH2 0x631 JUMP JUMPDEST PUSH1 0x0 PUSH2 0x2710 PUSH2 0x790 PUSH1 0xFA DUP5 PUSH2 0x241E JUMP JUMPDEST PUSH2 0x79A SWAP2 SWAP1 PUSH2 0x2435 JUMP JUMPDEST SWAP1 POP PUSH1 0x0 PUSH2 0x7A8 DUP3 DUP5 PUSH2 0x2457 JUMP JUMPDEST SWAP1 POP DUP5 DUP5 PUSH1 0x3 ADD PUSH1 0x0 DUP3 DUP3 SLOAD PUSH2 0x7BE SWAP2 SWAP1 PUSH2 0x2457 JUMP JUMPDEST SWAP1 SWAP2 SSTORE POP POP PUSH1 0x3 DUP5 ADD SLOAD PUSH1 0x0 SUB PUSH2 0x7DC JUMPI PUSH1 0x7 DUP5 ADD DUP1 SLOAD PUSH1 0xFF NOT AND SWAP1 SSTORE JUMPDEST PUSH1 0x2 SLOAD PUSH1 0x1 DUP6 ADD SLOAD PUSH1 0x40 MLOAD PUSH4 0x79212195 PUSH1 0xE1 SHL DUP2 MSTORE PUSH1 0x1 PUSH1 0x1 PUSH1 0xA0 SHL SUB SWAP1 SWAP3 AND SWAP2 PUSH4 0xF242432A SWAP2 PUSH2 0x815 SWAP2 ADDRESS SWAP2 CALLER SWAP2 DUP12 SWAP1 PUSH1 0x4 ADD PUSH2 0x246A JUMP JUMPDEST PUSH1 0x0 PUSH1 0x40 MLOAD DUP1 DUP4 SUB DUP2 PUSH1 0x0 DUP8 DUP1 EXTCODESIZE ISZERO DUP1 ISZERO PUSH2 0x82F JUMPI PUSH1 0x0 DUP1 REVERT JUMPDEST POP GAS CALL ISZERO DUP1 ISZERO PUSH2 0x843 JUMPI RETURNDATASIZE PUSH1 0x0 DUP1 RETURNDATACOPY RETURNDATASIZE PUSH1 0x0 REVERT JUMPDEST POP POP POP PUSH1 0x2 DUP6 ADD SLOAD PUSH1 0x40 MLOAD PUSH1 0x1 PUSH1 0x1 PUSH1 0xA0 SHL SUB SWAP1 SWAP2 AND SWAP2 POP DUP3 ISZERO PUSH2 0x8FC MUL SWAP1 DUP4 SWAP1 PUSH1 0x0 DUP2 DUP2 DUP2 DUP6 DUP9 DUP9 CALL SWAP4 POP POP POP POP ISZERO DUP1 ISZERO PUSH2 0x883 JUMPI RETURNDATASIZE PUSH1 0x0 DUP1 RETURNDATACOPY RETURNDATASIZE PUSH1 0x0 REVERT JUMPDEST POP DUP3 PUSH1 0x9 PUSH1 0x0 DUP3 DUP3 SLOAD PUSH2 0x896 SWAP2 SWAP1 PUSH2 0x24A2 JUMP JUMPDEST SWAP1 SWAP2 SSTORE POP POP PUSH1 0xA DUP1 SLOAD SWAP1 PUSH1 0x0 PUSH2 0x8AB DUP4 PUSH2 0x24B5 JUMP JUMPDEST SWAP2 SWAP1 POP SSTORE POP DUP3 CALLVALUE GT ISZERO PUSH2 0x8F0 JUMPI CALLER PUSH2 0x8FC PUSH2 0x8C6 DUP6 CALLVALUE PUSH2 0x2457 JUMP JUMPDEST PUSH1 0x40 MLOAD DUP2 ISZERO SWAP1 SWAP3 MUL SWAP2 PUSH1 0x0 DUP2 DUP2 DUP2 DUP6 DUP9 DUP9 CALL SWAP4 POP POP POP POP ISZERO DUP1 ISZERO PUSH2 0x8EE JUMPI RETURNDATASIZE PUSH1 0x0 DUP1 RETURNDATACOPY RETURNDATASIZE PUSH1 0x0 REVERT JUMPDEST POP JUMPDEST PUSH1 0x1 DUP5 ADD SLOAD PUSH1 0x40 DUP1 MLOAD DUP8 DUP2 MSTORE PUSH1 0x20 DUP2 ADD DUP7 SWAP1 MSTORE CALLER SWAP3 SWAP2 DUP10 SWAP2 PUSH32 0x4796A149C21FB626DAD3324569974193FEF170CFDB5501FA4B8EEC483B5F1395 SWAP2 ADD PUSH1 0x40 MLOAD DUP1 SWAP2 SUB SWAP1 LOG4 POP POP POP POP PUSH2 0x941 PUSH1 0x1 PUSH1 0x0 SSTORE JUMP JUMPDEST POP POP JUMP JUMPDEST PUSH1 0x0 PUSH1 0x1 PUSH1 0x1 PUSH1 0xE0 SHL SUB NOT DUP3 AND PUSH4 0x2711897 PUSH1 0xE5 SHL EQ DUP1 PUSH2 0x976 JUMPI POP PUSH4 0x1FFC9A7 PUSH1 0xE0 SHL PUSH1 0x1 PUSH1 0x1 PUSH1 0xE0 SHL SUB NOT DUP4 AND EQ JUMPDEST SWAP3 SWAP2 POP POP JUMP JUMPDEST PUSH2 0x984 PUSH2 0x1D7D JUMP JUMPDEST PUSH1 0x0 DUP2 DUP2 MSTORE PUSH1 0x3 PUSH1 0x20 MSTORE PUSH1 0x40 SWAP1 KECCAK256 PUSH1 0x7 DUP2 ADD SLOAD PUSH1 0xFF AND PUSH2 0x9DB JUMPI PUSH1 0x40 MLOAD PUSH3 0x461BCD PUSH1 0xE5 SHL DUP2 MSTORE PUSH1 0x20 PUSH1 0x4 DUP3 ADD MSTORE PUSH1 0x12 PUSH1 0x24 DUP3 ADD MSTORE PUSH18 0x4C697374696E67206E6F7420616374697665 PUSH1 0x70 SHL PUSH1 0x44 DUP3 ADD MSTORE PUSH1 0x64 ADD PUSH2 0x631 JUMP JUMPDEST PUSH1 0x2 DUP2 ADD SLOAD PUSH1 0x1 PUSH1 0x1 PUSH1 0xA0 SHL SUB AND CALLER EQ PUSH2 0xA2B JUMPI PUSH1 0x40 MLOAD PUSH3 0x461BCD PUSH1 0xE5 SHL DUP2 MSTORE PUSH1 0x20 PUSH1 0x4 DUP3 ADD MSTORE PUSH1 0x11 PUSH1 0x24 DUP3 ADD MSTORE PUSH17 0x2737BA103634B9BA34B7339037BBB732B9 PUSH1 0x79 SHL PUSH1 0x44 DUP3 ADD MSTORE PUSH1 0x64 ADD PUSH2 0x631 JUMP JUMPDEST PUSH1 0x7 DUP2 ADD DUP1 SLOAD PUSH1 0xFF NOT AND SWAP1 SSTORE PUSH1 0x2 DUP1 SLOAD SWAP1 DUP3 ADD SLOAD PUSH1 0x1 DUP4 ADD SLOAD PUSH1 0x3 DUP5 ADD SLOAD PUSH1 0x40 MLOAD PUSH4 0x79212195 PUSH1 0xE1 SHL DUP2 MSTORE PUSH1 0x1 PUSH1 0x1 PUSH1 0xA0 SHL SUB SWAP5 DUP6 AND SWAP5 PUSH4 0xF242432A SWAP5 PUSH2 0xA7B SWAP5 ADDRESS SWAP5 SWAP2 SWAP1 SWAP3 AND SWAP3 PUSH1 0x4 ADD PUSH2 0x246A JUMP JUMPDEST PUSH1 0x0 PUSH1 0x40 MLOAD DUP1 DUP4 SUB DUP2 PUSH1 0x0 DUP8 DUP1 EXTCODESIZE ISZERO DUP1 ISZERO PUSH2 0xA95 JUMPI PUSH1 0x0 DUP1 REVERT JUMPDEST POP GAS CALL ISZERO DUP1 ISZERO PUSH2 0xAA9 JUMPI RETURNDATASIZE PUSH1 0x0 DUP1 RETURNDATACOPY RETURNDATASIZE PUSH1 0x0 REVERT JUMPDEST POP POP PUSH1 0x40 MLOAD DUP5 SWAP3 POP PUSH32 0x411AEE90354C51B1B04CD563FCAB2617142A9D50DA19232D888547C8A1B7FD8A SWAP2 POP PUSH1 0x0 SWAP1 LOG2 POP PUSH2 0xAE3 PUSH1 0x1 PUSH1 0x0 SSTORE JUMP JUMPDEST POP JUMP JUMPDEST PUSH2 0xAEE PUSH2 0x1E23 JUMP JUMPDEST PUSH2 0xAF6 PUSH2 0x1E7D JUMP JUMPDEST JUMP JUMPDEST PUSH2 0xB00 PUSH2 0x1D7D JUMP JUMPDEST PUSH2 0xB08 PUSH2 0x1DD6 JUMP JUMPDEST PUSH1 0x0 DUP4 GT PUSH2 0xB58 JUMPI PUSH1 0x40 MLOAD PUSH3 0x461BCD PUSH1 0xE5 SHL DUP2 MSTORE PUSH1 0x20 PUSH1 0x4 DUP3 ADD MSTORE PUSH1 0x1D PUSH1 0x24 DUP3 ADD MSTORE PUSH32 0x416D6F756E74206D7573742062652067726561746572207468616E2030000000 PUSH1 0x44 DUP3 ADD MSTORE PUSH1 0x64 ADD PUSH2 0x631 JUMP JUMPDEST PUSH1 0x0 DUP3 GT PUSH2 0xBB6 JUMPI PUSH1 0x40 MLOAD PUSH3 0x461BCD PUSH1 0xE5 SHL DUP2 MSTORE PUSH1 0x20 PUSH1 0x4 DUP3 ADD MSTORE PUSH1 0x25 PUSH1 0x24 DUP3 ADD MSTORE PUSH32 0x5374617274696E67207072696365206D75737420626520677265617465722074 PUSH1 0x44 DUP3 ADD MSTORE PUSH5 0x68616E203 PUSH1 0xDC SHL PUSH1 0x64 DUP3 ADD MSTORE PUSH1 0x84 ADD PUSH2 0x631 JUMP JUMPDEST PUSH2 0xE10 DUP2 LT ISZERO DUP1 ISZERO PUSH2 0xBCB JUMPI POP PUSH3 0x93A80 DUP2 GT ISZERO JUMPDEST PUSH2 0xC0A JUMPI PUSH1 0x40 MLOAD PUSH3 0x461BCD PUSH1 0xE5 SHL DUP2 MSTORE PUSH1 0x20 PUSH1 0x4 DUP3 ADD MSTORE PUSH1 0x10 PUSH1 0x24 DUP3 ADD MSTORE PUSH16 0x24B73B30B634B210323AB930BA34B7B7 PUSH1 0x81 SHL PUSH1 0x44 DUP3 ADD MSTORE PUSH1 0x64 ADD PUSH2 0x631 JUMP JUMPDEST PUSH1 0x2 SLOAD PUSH1 0x40 MLOAD PUSH4 0x7C377223 PUSH1 0xE0 SHL DUP2 MSTORE PUSH1 0x4 DUP2 ADD DUP7 SWAP1 MSTORE PUSH1 0x0 SWAP2 PUSH1 0x1 PUSH1 0x1 PUSH1 0xA0 SHL SUB AND SWAP1 PUSH4 0x7C377223 SWAP1 PUSH1 0x24 ADD PUSH1 0x0 PUSH1 0x40 MLOAD DUP1 DUP4 SUB DUP2 DUP7 GAS STATICCALL ISZERO DUP1 ISZERO PUSH2 0xC54 JUMPI RETURNDATASIZE PUSH1 0x0 DUP1 RETURNDATACOPY RETURNDATASIZE PUSH1 0x0 REVERT JUMPDEST POP POP POP POP PUSH1 0x40 MLOAD RETURNDATASIZE PUSH1 0x0 DUP3 RETURNDATACOPY PUSH1 0x1F RETURNDATASIZE SWAP1 DUP2 ADD PUSH1 0x1F NOT AND DUP3 ADD PUSH1 0x40 MSTORE PUSH2 0xC7C SWAP2 SWAP1 DUP2 ADD SWAP1 PUSH2 0x2564 JUMP JUMPDEST SWAP1 POP DUP1 PUSH2 0x160 ADD MLOAD PUSH1 0xFF AND PUSH1 0x2 EQ PUSH2 0xCCA JUMPI PUSH1 0x40 MLOAD PUSH3 0x461BCD PUSH1 0xE5 SHL DUP2 MSTORE PUSH1 0x20 PUSH1 0x4 DUP3 ADD MSTORE PUSH1 0x11 PUSH1 0x24 DUP3 ADD MSTORE PUSH17 0x437265646974206E6F7420616374697665 PUSH1 0x78 SHL PUSH1 0x44 DUP3 ADD MSTORE PUSH1 0x64 ADD PUSH2 0x631 JUMP JUMPDEST PUSH1 0x2 SLOAD PUSH1 0x40 MLOAD PUSH3 0x7EEAC7 PUSH1 0xE1 SHL DUP2 MSTORE CALLER PUSH1 0x4 DUP3 ADD MSTORE PUSH1 0x24 DUP2 ADD DUP8 SWAP1 MSTORE DUP6 SWAP2 PUSH1 0x1 PUSH1 0x1 PUSH1 0xA0 SHL SUB AND SWAP1 PUSH3 0xFDD58E SWAP1 PUSH1 0x44 ADD PUSH1 0x20 PUSH1 0x40 MLOAD DUP1 DUP4 SUB DUP2 DUP7 GAS STATICCALL ISZERO DUP1 ISZERO PUSH2 0xD17 JUMPI RETURNDATASIZE PUSH1 0x0 DUP1 RETURNDATACOPY RETURNDATASIZE PUSH1 0x0 REVERT JUMPDEST POP POP POP POP PUSH1 0x40 MLOAD RETURNDATASIZE PUSH1 0x1F NOT PUSH1 0x1F DUP3 ADD AND DUP3 ADD DUP1 PUSH1 0x40 MSTORE POP DUP2 ADD SWAP1 PUSH2 0xD3B SWAP2 SWAP1 PUSH2 0x2696 JUMP JUMPDEST LT ISZERO PUSH2 0xD89 JUMPI PUSH1 0x40 MLOAD PUSH3 0x461BCD PUSH1 0xE5 SHL DUP2 MSTORE PUSH1 0x20 PUSH1 0x4 DUP3 ADD MSTORE PUSH1 0x1A PUSH1 0x24 DUP3 ADD MSTORE PUSH32 0x496E73756666696369656E7420746F6B656E2062616C616E6365000000000000 PUSH1 0x44 DUP3 ADD MSTORE PUSH1 0x64 ADD PUSH2 0x631 JUMP JUMPDEST PUSH1 0x8 DUP1 SLOAD SWAP1 PUSH1 0x0 PUSH2 0xD99 DUP4 PUSH2 0x24B5 JUMP JUMPDEST SWAP2 SWAP1 POP SSTORE POP PUSH1 0x0 PUSH1 0x8 SLOAD SWAP1 POP PUSH1 0x40 MLOAD DUP1 PUSH2 0x160 ADD PUSH1 0x40 MSTORE DUP1 DUP3 DUP2 MSTORE PUSH1 0x20 ADD DUP8 DUP2 MSTORE PUSH1 0x20 ADD CALLER PUSH1 0x1 PUSH1 0x1 PUSH1 0xA0 SHL SUB AND DUP2 MSTORE PUSH1 0x20 ADD DUP7 DUP2 MSTORE PUSH1 0x20 ADD DUP6 DUP2 MSTORE PUSH1 0x20 ADD DUP6 DUP2 MSTORE PUSH1 0x20 ADD PUSH1 0x0 PUSH1 0x1 PUSH1 0x1 PUSH1 0xA0 SHL SUB AND DUP2 MSTORE PUSH1 0x20 ADD TIMESTAMP DUP2 MSTORE PUSH1 0x20 ADD DUP5 TIMESTAMP PUSH2 0xE00 SWAP2 SWAP1 PUSH2 0x24A2 JUMP JUMPDEST DUP2 MSTORE PUSH1 0x1 PUSH1 0x20 DUP1 DUP4 ADD DUP3 SWAP1 MSTORE PUSH1 0x0 PUSH1 0x40 SWAP4 DUP5 ADD DUP2 SWAP1 MSTORE DUP6 DUP2 MSTORE PUSH1 0x4 DUP1 DUP4 MSTORE SWAP1 DUP5 SWAP1 KECCAK256 DUP6 MLOAD DUP2 SSTORE SWAP2 DUP6 ADD MLOAD SWAP3 DUP3 ADD SWAP3 SWAP1 SWAP3 SSTORE DUP4 DUP4 ADD MLOAD PUSH1 0x2 DUP1 DUP4 ADD DUP1 SLOAD PUSH1 0x1 PUSH1 0x1 PUSH1 0xA0 SHL SUB NOT SWAP1 DUP2 AND PUSH1 0x1 PUSH1 0x1 PUSH1 0xA0 SHL SUB SWAP5 DUP6 AND OR SWAP1 SWAP2 SSTORE PUSH1 0x60 DUP8 ADD MLOAD PUSH1 0x3 DUP6 ADD SSTORE PUSH1 0x80 DUP8 ADD MLOAD DUP5 DUP7 ADD SSTORE PUSH1 0xA0 DUP8 ADD MLOAD PUSH1 0x5 DUP6 ADD SSTORE PUSH1 0xC0 DUP8 ADD MLOAD PUSH1 0x6 DUP6 ADD DUP1 SLOAD SWAP1 SWAP3 AND SWAP1 DUP5 AND OR SWAP1 SSTORE PUSH1 0xE0 DUP7 ADD MLOAD PUSH1 0x7 DUP5 ADD SSTORE PUSH2 0x100 DUP1 DUP8 ADD MLOAD PUSH1 0x8 DUP6 ADD SSTORE PUSH2 0x120 DUP8 ADD MLOAD PUSH1 0x9 SWAP1 SWAP5 ADD DUP1 SLOAD PUSH2 0x140 SWAP1 SWAP9 ADD MLOAD PUSH2 0xFFFF NOT SWAP1 SWAP9 AND SWAP5 ISZERO ISZERO PUSH2 0xFF00 NOT AND SWAP5 SWAP1 SWAP5 OR SWAP7 ISZERO ISZERO MUL SWAP6 SWAP1 SWAP6 OR SWAP1 SWAP2 SSTORE SWAP3 SLOAD SWAP2 MLOAD PUSH4 0x79212195 PUSH1 0xE1 SHL DUP2 MSTORE SWAP2 SWAP1 SWAP3 AND SWAP2 PUSH4 0xF242432A SWAP2 PUSH2 0xEFB SWAP2 CALLER SWAP2 ADDRESS SWAP2 DUP13 SWAP2 DUP13 SWAP2 ADD PUSH2 0x246A JUMP JUMPDEST PUSH1 0x0 PUSH1 0x40 MLOAD DUP1 DUP4 SUB DUP2 PUSH1 0x0 DUP8 DUP1 EXTCODESIZE ISZERO DUP1 ISZERO PUSH2 0xF15 JUMPI PUSH1 0x0 DUP1 REVERT JUMPDEST POP GAS CALL ISZERO DUP1 ISZERO PUSH2 0xF29 JUMPI RETURNDATASIZE PUSH1 0x0 DUP1 RETURNDATACOPY RETURNDATASIZE PUSH1 0x0 REVERT JUMPDEST POP CALLER SWAP3 POP DUP9 SWAP2 POP DUP4 SWAP1 POP PUSH32 0x56102B55F8C4BA831C7D439C06939C7E1FE545ABBD4F8A71737C2A9B0F7E8584 DUP9 DUP9 PUSH2 0xF60 DUP10 TIMESTAMP PUSH2 0x24A2 JUMP JUMPDEST PUSH1 0x40 DUP1 MLOAD SWAP4 DUP5 MSTORE PUSH1 0x20 DUP5 ADD SWAP3 SWAP1 SWAP3 MSTORE SWAP1 DUP3 ADD MSTORE PUSH1 0x60 ADD JUMPDEST PUSH1 0x40 MLOAD DUP1 SWAP2 SUB SWAP1 LOG4 POP POP PUSH2 0xF8B PUSH1 0x1 PUSH1 0x0 SSTORE JUMP JUMPDEST POP POP POP POP JUMP JUMPDEST PUSH2 0xF99 PUSH2 0x1E23 JUMP JUMPDEST SELFBALANCE DUP1 PUSH2 0xFDD JUMPI PUSH1 0x40 MLOAD PUSH3 0x461BCD PUSH1 0xE5 SHL DUP2 MSTORE PUSH1 0x20 PUSH1 0x4 DUP3 ADD MSTORE PUSH1 0x13 PUSH1 0x24 DUP3 ADD MSTORE PUSH19 0x4E6F206665657320746F207769746864726177 PUSH1 0x68 SHL PUSH1 0x44 DUP3 ADD MSTORE PUSH1 0x64 ADD PUSH2 0x631 JUMP JUMPDEST PUSH1 0x1 SLOAD PUSH1 0x40 MLOAD PUSH1 0x1 PUSH1 0x1 PUSH1 0xA0 SHL SUB SWAP1 SWAP2 AND SWAP1 DUP3 ISZERO PUSH2 0x8FC MUL SWAP1 DUP4 SWAP1 PUSH1 0x0 DUP2 DUP2 DUP2 DUP6 DUP9 DUP9 CALL SWAP4 POP POP POP POP ISZERO DUP1 ISZERO PUSH2 0x941 JUMPI RETURNDATASIZE PUSH1 0x0 DUP1 RETURNDATACOPY RETURNDATASIZE PUSH1 0x0 REVERT JUMPDEST PUSH2 0x101F PUSH2 0x1E23 JUMP JUMPDEST PUSH2 0xAF6 PUSH1 0x0 PUSH2 0x1ED2 JUMP JUMPDEST PUSH2 0x1031 PUSH2 0x1E23 JUMP JUMPDEST PUSH2 0xAF6 PUSH2 0x1F24 JUMP JUMPDEST PUSH1 0x5 PUSH1 0x20 MSTORE DUP2 PUSH1 0x0 MSTORE PUSH1 0x40 PUSH1 0x0 KECCAK256 DUP2 DUP2 SLOAD DUP2 LT PUSH2 0x1055 JUMPI PUSH1 0x0 DUP1 REVERT JUMPDEST SWAP1 PUSH1 0x0 MSTORE PUSH1 0x20 PUSH1 0x0 KECCAK256 ADD PUSH1 0x0 SWAP2 POP SWAP2 POP POP SLOAD DUP2 JUMP JUMPDEST PUSH2 0x1072 PUSH2 0x1D7D JUMP JUMPDEST PUSH2 0x107A PUSH2 0x1DD6 JUMP JUMPDEST PUSH1 0x0 DUP4 GT PUSH2 0x10CA JUMPI PUSH1 0x40 MLOAD PUSH3 0x461BCD PUSH1 0xE5 SHL DUP2 MSTORE PUSH1 0x20 PUSH1 0x4 DUP3 ADD MSTORE PUSH1 0x1D PUSH1 0x24 DUP3 ADD MSTORE PUSH32 0x416D6F756E74206D7573742062652067726561746572207468616E2030000000 PUSH1 0x44 DUP3 ADD MSTORE PUSH1 0x64 ADD PUSH2 0x631 JUMP JUMPDEST PUSH1 0x0 DUP3 GT PUSH2 0x111A JUMPI PUSH1 0x40 MLOAD PUSH3 0x461BCD PUSH1 0xE5 SHL DUP2 MSTORE PUSH1 0x20 PUSH1 0x4 DUP3 ADD MSTORE PUSH1 0x1C PUSH1 0x24 DUP3 ADD MSTORE PUSH32 0x5072696365206D7573742062652067726561746572207468616E203000000000 PUSH1 0x44 DUP3 ADD MSTORE PUSH1 0x64 ADD PUSH2 0x631 JUMP JUMPDEST PUSH1 0x0 DUP2 GT PUSH2 0x116A JUMPI PUSH1 0x40 MLOAD PUSH3 0x461BCD PUSH1 0xE5 SHL DUP2 MSTORE PUSH1 0x20 PUSH1 0x4 DUP3 ADD MSTORE PUSH1 0x1F PUSH1 0x24 DUP3 ADD MSTORE PUSH32 0x4475726174696F6E206D7573742062652067726561746572207468616E203000 PUSH1 0x44 DUP3 ADD MSTORE PUSH1 0x64 ADD PUSH2 0x631 JUMP JUMPDEST PUSH1 0x2 SLOAD PUSH1 0x40 MLOAD PUSH4 0x7C377223 PUSH1 0xE0 SHL DUP2 MSTORE PUSH1 0x4 DUP2 ADD DUP7 SWAP1 MSTORE PUSH1 0x0 SWAP2 PUSH1 0x1 PUSH1 0x1 PUSH1 0xA0 SHL SUB AND SWAP1 PUSH4 0x7C377223 SWAP1 PUSH1 0x24 ADD PUSH1 0x0 PUSH1 0x40 MLOAD DUP1 DUP4 SUB DUP2 DUP7 GAS STATICCALL ISZERO DUP1 ISZERO PUSH2 0x11B4 JUMPI RETURNDATASIZE PUSH1 0x0 DUP1 RETURNDATACOPY RETURNDATASIZE PUSH1 0x0 REVERT JUMPDEST POP POP POP POP PUSH1 0x40 MLOAD RETURNDATASIZE PUSH1 0x0 DUP3 RETURNDATACOPY PUSH1 0x1F RETURNDATASIZE SWAP1 DUP2 ADD PUSH1 0x1F NOT AND DUP3 ADD PUSH1 0x40 MSTORE PUSH2 0x11DC SWAP2 SWAP1 DUP2 ADD SWAP1 PUSH2 0x2564 JUMP JUMPDEST SWAP1 POP DUP1 PUSH2 0x160 ADD MLOAD PUSH1 0xFF AND PUSH1 0x2 EQ PUSH2 0x122A JUMPI PUSH1 0x40 MLOAD PUSH3 0x461BCD PUSH1 0xE5 SHL DUP2 MSTORE PUSH1 0x20 PUSH1 0x4 DUP3 ADD MSTORE PUSH1 0x11 PUSH1 0x24 DUP3 ADD MSTORE PUSH17 0x437265646974206E6F7420616374697665 PUSH1 0x78 SHL PUSH1 0x44 DUP3 ADD MSTORE PUSH1 0x64 ADD PUSH2 0x631 JUMP JUMPDEST PUSH1 0x2 SLOAD PUSH1 0x40 MLOAD PUSH3 0x7EEAC7 PUSH1 0xE1 SHL DUP2 MSTORE CALLER PUSH1 0x4 DUP3 ADD MSTORE PUSH1 0x24 DUP2 ADD DUP8 SWAP1 MSTORE DUP6 SWAP2 PUSH1 0x1 PUSH1 0x1 PUSH1 0xA0 SHL SUB AND SWAP1 PUSH3 0xFDD58E SWAP1 PUSH1 0x44 ADD PUSH1 0x20 PUSH1 0x40 MLOAD DUP1 DUP4 SUB DUP2 DUP7 GAS STATICCALL ISZERO DUP1 ISZERO PUSH2 0x1277 JUMPI RETURNDATASIZE PUSH1 0x0 DUP1 RETURNDATACOPY RETURNDATASIZE PUSH1 0x0 REVERT JUMPDEST POP POP POP POP PUSH1 0x40 MLOAD RETURNDATASIZE PUSH1 0x1F NOT PUSH1 0x1F DUP3 ADD AND DUP3 ADD DUP1 PUSH1 0x40 MSTORE POP DUP2 ADD SWAP1 PUSH2 0x129B SWAP2 SWAP1 PUSH2 0x2696 JUMP JUMPDEST LT ISZERO PUSH2 0x12E9 JUMPI PUSH1 0x40 MLOAD PUSH3 0x461BCD PUSH1 0xE5 SHL DUP2 MSTORE PUSH1 0x20 PUSH1 0x4 DUP3 ADD MSTORE PUSH1 0x1A PUSH1 0x24 DUP3 ADD MSTORE PUSH32 0x496E73756666696369656E7420746F6B656E2062616C616E6365000000000000 PUSH1 0x44 DUP3 ADD MSTORE PUSH1 0x64 ADD PUSH2 0x631 JUMP JUMPDEST PUSH1 0x7 DUP1 SLOAD SWAP1 PUSH1 0x0 PUSH2 0x12F9 DUP4 PUSH2 0x24B5 JUMP JUMPDEST SWAP2 SWAP1 POP SSTORE POP PUSH1 0x0 PUSH1 0x7 SLOAD SWAP1 POP PUSH1 0x40 MLOAD DUP1 PUSH2 0x120 ADD PUSH1 0x40 MSTORE DUP1 DUP3 DUP2 MSTORE PUSH1 0x20 ADD DUP8 DUP2 MSTORE PUSH1 0x20 ADD CALLER PUSH1 0x1 PUSH1 0x1 PUSH1 0xA0 SHL SUB AND DUP2 MSTORE PUSH1 0x20 ADD DUP7 DUP2 MSTORE PUSH1 0x20 ADD DUP6 DUP2 MSTORE PUSH1 0x20 ADD TIMESTAMP DUP2 MSTORE PUSH1 0x20 ADD DUP5 TIMESTAMP PUSH2 0x134A SWAP2 SWAP1 PUSH2 0x24A2 JUMP JUMPDEST DUP2 MSTORE PUSH1 0x1 PUSH1 0x20 DUP3 ADD MSTORE PUSH1 0x40 ADD PUSH1 0x0 SWAP1 MSTORE PUSH1 0x0 DUP3 DUP2 MSTORE PUSH1 0x3 PUSH1 0x20 DUP2 DUP2 MSTORE PUSH1 0x40 SWAP3 DUP4 SWAP1 KECCAK256 DUP5 MLOAD DUP2 SSTORE SWAP1 DUP5 ADD MLOAD PUSH1 0x1 DUP3 ADD SSTORE SWAP2 DUP4 ADD MLOAD PUSH1 0x2 DUP1 DUP5 ADD DUP1 SLOAD PUSH1 0x1 PUSH1 0x1 PUSH1 0xA0 SHL SUB NOT AND PUSH1 0x1 PUSH1 0x1 PUSH1 0xA0 SHL SUB SWAP1 SWAP4 AND SWAP3 SWAP1 SWAP3 OR SWAP1 SWAP2 SSTORE PUSH1 0x60 DUP5 ADD MLOAD SWAP2 DUP4 ADD SWAP2 SWAP1 SWAP2 SSTORE PUSH1 0x80 DUP4 ADD MLOAD PUSH1 0x4 DUP4 ADD SSTORE PUSH1 0xA0 DUP4 ADD MLOAD PUSH1 0x5 DUP4 ADD SSTORE PUSH1 0xC0 DUP4 ADD MLOAD PUSH1 0x6 DUP4 ADD SSTORE PUSH1 0xE0 DUP4 ADD MLOAD PUSH1 0x7 DUP4 ADD DUP1 SLOAD PUSH1 0xFF NOT DUP2 AND SWAP3 ISZERO ISZERO SWAP3 DUP4 OR DUP3 SSTORE PUSH2 0x100 DUP1 DUP8 ADD MLOAD SWAP5 SWAP3 SWAP4 PUSH2 0xFFFF NOT SWAP1 SWAP3 AND PUSH2 0xFF00 NOT SWAP1 SWAP3 AND SWAP2 SWAP1 SWAP2 OR SWAP2 DUP5 SWAP1 DUP2 GT ISZERO PUSH2 0x1410 JUMPI PUSH2 0x1410 PUSH2 0x22F7 JUMP JUMPDEST MUL OR SWAP1 SSTORE POP POP CALLER PUSH1 0x0 DUP2 DUP2 MSTORE PUSH1 0x5 PUSH1 0x20 SWAP1 DUP2 MSTORE PUSH1 0x40 DUP1 DUP4 KECCAK256 DUP1 SLOAD PUSH1 0x1 DUP2 ADD DUP3 SSTORE SWAP1 DUP5 MSTORE SWAP2 SWAP1 SWAP3 KECCAK256 ADD DUP5 SWAP1 SSTORE PUSH1 0x2 SLOAD SWAP1 MLOAD PUSH4 0x79212195 PUSH1 0xE1 SHL DUP2 MSTORE PUSH1 0x1 PUSH1 0x1 PUSH1 0xA0 SHL SUB SWAP1 SWAP2 AND SWAP3 POP PUSH4 0xF242432A SWAP2 PUSH2 0x146F SWAP2 ADDRESS SWAP1 DUP12 SWAP1 DUP12 SWAP1 PUSH1 0x4 ADD PUSH2 0x246A JUMP JUMPDEST PUSH1 0x0 PUSH1 0x40 MLOAD DUP1 DUP4 SUB DUP2 PUSH1 0x0 DUP8 DUP1 EXTCODESIZE ISZERO DUP1 ISZERO PUSH2 0x1489 JUMPI PUSH1 0x0 DUP1 REVERT JUMPDEST POP GAS CALL ISZERO DUP1 ISZERO PUSH2 0x149D JUMPI RETURNDATASIZE PUSH1 0x0 DUP1 RETURNDATACOPY RETURNDATASIZE PUSH1 0x0 REVERT JUMPDEST POP POP PUSH1 0x40 DUP1 MLOAD DUP9 DUP2 MSTORE PUSH1 0x20 DUP2 ADD DUP9 SWAP1 MSTORE CALLER SWAP4 POP DUP10 SWAP3 POP DUP5 SWAP2 PUSH32 0x492D2294F1B8A982001DA6ECB3DE3A374AD9C29C9C8D5AD43DA90CC50B585136 SWAP2 ADD PUSH2 0xF77 JUMP JUMPDEST PUSH1 0x60 PUSH1 0x0 PUSH1 0x7 SLOAD PUSH8 0xFFFFFFFFFFFFFFFF DUP2 GT ISZERO PUSH2 0x14FC JUMPI PUSH2 0x14FC PUSH2 0x20DA JUMP JUMPDEST PUSH1 0x40 MLOAD SWAP1 DUP1 DUP3 MSTORE DUP1 PUSH1 0x20 MUL PUSH1 0x20 ADD DUP3 ADD PUSH1 0x40 MSTORE DUP1 ISZERO PUSH2 0x1525 JUMPI DUP2 PUSH1 0x20 ADD PUSH1 0x20 DUP3 MUL DUP1 CALLDATASIZE DUP4 CALLDATACOPY ADD SWAP1 POP JUMPDEST POP SWAP1 POP PUSH1 0x0 PUSH1 0x1 JUMPDEST PUSH1 0x7 SLOAD DUP2 GT PUSH2 0x15AA JUMPI PUSH1 0x0 DUP2 DUP2 MSTORE PUSH1 0x3 PUSH1 0x20 MSTORE PUSH1 0x40 SWAP1 KECCAK256 PUSH1 0x7 ADD SLOAD PUSH1 0xFF AND DUP1 ISZERO PUSH2 0x1567 JUMPI POP PUSH1 0x0 DUP2 DUP2 MSTORE PUSH1 0x3 PUSH1 0x20 MSTORE PUSH1 0x40 SWAP1 KECCAK256 PUSH1 0x6 ADD SLOAD TIMESTAMP LT JUMPDEST ISZERO PUSH2 0x1598 JUMPI DUP1 DUP4 DUP4 DUP2 MLOAD DUP2 LT PUSH2 0x157F JUMPI PUSH2 0x157F PUSH2 0x26AF JUMP JUMPDEST PUSH1 0x20 SWAP1 DUP2 MUL SWAP2 SWAP1 SWAP2 ADD ADD MSTORE DUP2 PUSH2 0x1594 DUP2 PUSH2 0x24B5 JUMP JUMPDEST SWAP3 POP POP JUMPDEST DUP1 PUSH2 0x15A2 DUP2 PUSH2 0x24B5 JUMP JUMPDEST SWAP2 POP POP PUSH2 0x152D JUMP JUMPDEST POP PUSH1 0x0 DUP2 PUSH8 0xFFFFFFFFFFFFFFFF DUP2 GT ISZERO PUSH2 0x15C6 JUMPI PUSH2 0x15C6 PUSH2 0x20DA JUMP JUMPDEST PUSH1 0x40 MLOAD SWAP1 DUP1 DUP3 MSTORE DUP1 PUSH1 0x20 MUL PUSH1 0x20 ADD DUP3 ADD PUSH1 0x40 MSTORE DUP1 ISZERO PUSH2 0x15EF JUMPI DUP2 PUSH1 0x20 ADD PUSH1 0x20 DUP3 MUL DUP1 CALLDATASIZE DUP4 CALLDATACOPY ADD SWAP1 POP JUMPDEST POP SWAP1 POP PUSH1 0x0 JUMPDEST DUP3 DUP2 LT ISZERO PUSH2 0x1646 JUMPI DUP4 DUP2 DUP2 MLOAD DUP2 LT PUSH2 0x160F JUMPI PUSH2 0x160F PUSH2 0x26AF JUMP JUMPDEST PUSH1 0x20 MUL PUSH1 0x20 ADD ADD MLOAD DUP3 DUP3 DUP2 MLOAD DUP2 LT PUSH2 0x1629 JUMPI PUSH2 0x1629 PUSH2 0x26AF JUMP JUMPDEST PUSH1 0x20 SWAP1 DUP2 MUL SWAP2 SWAP1 SWAP2 ADD ADD MSTORE DUP1 PUSH2 0x163E DUP2 PUSH2 0x24B5 JUMP JUMPDEST SWAP2 POP POP PUSH2 0x15F5 JUMP JUMPDEST POP SWAP4 SWAP3 POP POP POP JUMP JUMPDEST PUSH1 0x6 PUSH1 0x20 MSTORE DUP2 PUSH1 0x0 MSTORE PUSH1 0x40 PUSH1 0x0 KECCAK256 DUP2 DUP2 SLOAD DUP2 LT PUSH2 0x1055 JUMPI PUSH1 0x0 DUP1 REVERT JUMPDEST PUSH2 0x1672 PUSH2 0x1D7D JUMP JUMPDEST PUSH2 0x167A PUSH2 0x1DD6 JUMP JUMPDEST PUSH1 0x0 DUP2 DUP2 MSTORE PUSH1 0x4 PUSH1 0x20 MSTORE PUSH1 0x40 SWAP1 KECCAK256 PUSH1 0x9 DUP2 ADD SLOAD PUSH1 0xFF AND PUSH2 0x16D1 JUMPI PUSH1 0x40 MLOAD PUSH3 0x461BCD PUSH1 0xE5 SHL DUP2 MSTORE PUSH1 0x20 PUSH1 0x4 DUP3 ADD MSTORE PUSH1 0x12 PUSH1 0x24 DUP3 ADD MSTORE PUSH18 0x41756374696F6E206E6F7420616374697665 PUSH1 0x70 SHL PUSH1 0x44 DUP3 ADD MSTORE PUSH1 0x64 ADD PUSH2 0x631 JUMP JUMPDEST DUP1 PUSH1 0x8 ADD SLOAD TIMESTAMP LT PUSH2 0x1714 JUMPI PUSH1 0x40 MLOAD PUSH3 0x461BCD PUSH1 0xE5 SHL DUP2 MSTORE PUSH1 0x20 PUSH1 0x4 DUP3 ADD MSTORE PUSH1 0xD PUSH1 0x24 DUP3 ADD MSTORE PUSH13 0x105D58DD1A5BDB88195B991959 PUSH1 0x9A SHL PUSH1 0x44 DUP3 ADD MSTORE PUSH1 0x64 ADD PUSH2 0x631 JUMP JUMPDEST PUSH1 0x2 DUP2 ADD SLOAD PUSH1 0x1 PUSH1 0x1 PUSH1 0xA0 SHL SUB AND CALLER SUB PUSH2 0x1770 JUMPI PUSH1 0x40 MLOAD PUSH3 0x461BCD PUSH1 0xE5 SHL DUP2 MSTORE PUSH1 0x20 PUSH1 0x4 DUP3 ADD MSTORE PUSH1 0x19 PUSH1 0x24 DUP3 ADD MSTORE PUSH32 0x43616E6E6F7420626964206F6E206F776E2061756374696F6E00000000000000 PUSH1 0x44 DUP3 ADD MSTORE PUSH1 0x64 ADD PUSH2 0x631 JUMP JUMPDEST DUP1 PUSH1 0x5 ADD SLOAD CALLVALUE GT PUSH2 0x17B1 JUMPI PUSH1 0x40 MLOAD PUSH3 0x461BCD PUSH1 0xE5 SHL DUP2 MSTORE PUSH1 0x20 PUSH1 0x4 DUP3 ADD MSTORE PUSH1 0xB PUSH1 0x24 DUP3 ADD MSTORE PUSH11 0x42696420746F6F206C6F77 PUSH1 0xA8 SHL PUSH1 0x44 DUP3 ADD MSTORE PUSH1 0x64 ADD PUSH2 0x631 JUMP JUMPDEST PUSH1 0x6 DUP2 ADD SLOAD PUSH1 0x1 PUSH1 0x1 PUSH1 0xA0 SHL SUB AND ISZERO PUSH2 0x1806 JUMPI PUSH1 0x6 DUP2 ADD SLOAD PUSH1 0x5 DUP3 ADD SLOAD PUSH1 0x40 MLOAD PUSH1 0x1 PUSH1 0x1 PUSH1 0xA0 SHL SUB SWAP1 SWAP3 AND SWAP2 DUP2 ISZERO PUSH2 0x8FC MUL SWAP2 SWAP1 PUSH1 0x0 DUP2 DUP2 DUP2 DUP6 DUP9 DUP9 CALL SWAP4 POP POP POP POP ISZERO DUP1 ISZERO PUSH2 0x1804 JUMPI RETURNDATASIZE PUSH1 0x0 DUP1 RETURNDATACOPY RETURNDATASIZE PUSH1 0x0 REVERT JUMPDEST POP JUMPDEST CALLVALUE PUSH1 0x5 DUP3 ADD DUP2 SWAP1 SSTORE PUSH1 0x6 DUP1 DUP4 ADD DUP1 SLOAD PUSH1 0x1 PUSH1 0x1 PUSH1 0xA0 SHL SUB NOT AND CALLER SWAP1 DUP2 OR SWAP1 SWAP2 SSTORE PUSH1 0x0 DUP2 DUP2 MSTORE PUSH1 0x20 SWAP3 DUP4 MSTORE PUSH1 0x40 DUP1 DUP3 KECCAK256 DUP1 SLOAD PUSH1 0x1 DUP2 ADD DUP3 SSTORE SWAP1 DUP4 MSTORE SWAP2 DUP5 SWAP1 KECCAK256 SWAP1 SWAP2 ADD DUP7 SWAP1 SSTORE MLOAD SWAP3 DUP4 MSTORE SWAP2 DUP5 SWAP2 PUSH32 0xE54EFF26401BF69B81B26F60BD85EF47F5D85275C1D268D84F68D6897431C47 SWAP2 ADD PUSH1 0x40 MLOAD DUP1 SWAP2 SUB SWAP1 LOG3 POP PUSH2 0xAE3 PUSH1 0x1 PUSH1 0x0 SSTORE JUMP JUMPDEST PUSH1 0x60 PUSH1 0x0 PUSH1 0x8 SLOAD PUSH8 0xFFFFFFFFFFFFFFFF DUP2 GT ISZERO PUSH2 0x18A6 JUMPI PUSH2 0x18A6 PUSH2 0x20DA JUMP JUMPDEST PUSH1 0x40 MLOAD SWAP1 DUP1 DUP3 MSTORE DUP1 PUSH1 0x20 MUL PUSH1 0x20 ADD DUP3 ADD PUSH1 0x40 MSTORE DUP1 ISZERO PUSH2 0x18CF JUMPI DUP2 PUSH1 0x20 ADD PUSH1 0x20 DUP3 MUL DUP1 CALLDATASIZE DUP4 CALLDATACOPY ADD SWAP1 POP JUMPDEST POP SWAP1 POP PUSH1 0x0 PUSH1 0x1 JUMPDEST PUSH1 0x8 SLOAD DUP2 GT PUSH2 0x1954 JUMPI PUSH1 0x0 DUP2 DUP2 MSTORE PUSH1 0x4 PUSH1 0x20 MSTORE PUSH1 0x40 SWAP1 KECCAK256 PUSH1 0x9 ADD SLOAD PUSH1 0xFF AND DUP1 ISZERO PUSH2 0x1911 JUMPI POP PUSH1 0x0 DUP2 DUP2 MSTORE PUSH1 0x4 PUSH1 0x20 MSTORE PUSH1 0x40 SWAP1 KECCAK256 PUSH1 0x8 ADD SLOAD TIMESTAMP LT JUMPDEST ISZERO PUSH2 0x1942 JUMPI DUP1 DUP4 DUP4 DUP2 MLOAD DUP2 LT PUSH2 0x1929 JUMPI PUSH2 0x1929 PUSH2 0x26AF JUMP JUMPDEST PUSH1 0x20 SWAP1 DUP2 MUL SWAP2 SWAP1 SWAP2 ADD ADD MSTORE DUP2 PUSH2 0x193E DUP2 PUSH2 0x24B5 JUMP JUMPDEST SWAP3 POP POP JUMPDEST DUP1 PUSH2 0x194C DUP2 PUSH2 0x24B5 JUMP JUMPDEST SWAP2 POP POP PUSH2 0x18D7 JUMP JUMPDEST POP PUSH1 0x0 DUP2 PUSH8 0xFFFFFFFFFFFFFFFF DUP2 GT ISZERO PUSH2 0x1970 JUMPI PUSH2 0x1970 PUSH2 0x20DA JUMP JUMPDEST PUSH1 0x40 MLOAD SWAP1 DUP1 DUP3 MSTORE DUP1 PUSH1 0x20 MUL PUSH1 0x20 ADD DUP3 ADD PUSH1 0x40 MSTORE DUP1 ISZERO PUSH2 0x1999 JUMPI DUP2 PUSH1 0x20 ADD PUSH1 0x20 DUP3 MUL DUP1 CALLDATASIZE DUP4 CALLDATACOPY ADD SWAP1 POP JUMPDEST POP SWAP1 POP PUSH1 0x0 JUMPDEST DUP3 DUP2 LT ISZERO PUSH2 0x1646 JUMPI DUP4 DUP2 DUP2 MLOAD DUP2 LT PUSH2 0x19B9 JUMPI PUSH2 0x19B9 PUSH2 0x26AF JUMP JUMPDEST PUSH1 0x20 MUL PUSH1 0x20 ADD ADD MLOAD DUP3 DUP3 DUP2 MLOAD DUP2 LT PUSH2 0x19D3 JUMPI PUSH2 0x19D3 PUSH2 0x26AF JUMP JUMPDEST PUSH1 0x20 SWAP1 DUP2 MUL SWAP2 SWAP1 SWAP2 ADD ADD MSTORE DUP1 PUSH2 0x19E8 DUP2 PUSH2 0x24B5 JUMP JUMPDEST SWAP2 POP POP PUSH2 0x199F JUMP JUMPDEST PUSH2 0x19F8 PUSH2 0x1D7D JUMP JUMPDEST PUSH1 0x0 DUP2 DUP2 MSTORE PUSH1 0x4 PUSH1 0x20 MSTORE PUSH1 0x40 SWAP1 KECCAK256 PUSH1 0x9 DUP2 ADD SLOAD PUSH1 0xFF AND PUSH2 0x1A4F JUMPI PUSH1 0x40 MLOAD PUSH3 0x461BCD PUSH1 0xE5 SHL DUP2 MSTORE PUSH1 0x20 PUSH1 0x4 DUP3 ADD MSTORE PUSH1 0x12 PUSH1 0x24 DUP3 ADD MSTORE PUSH18 0x41756374696F6E206E6F7420616374697665 PUSH1 0x70 SHL PUSH1 0x44 DUP3 ADD MSTORE PUSH1 0x64 ADD PUSH2 0x631 JUMP JUMPDEST DUP1 PUSH1 0x8 ADD SLOAD TIMESTAMP LT ISZERO PUSH2 0x1A9B JUMPI PUSH1 0x40 MLOAD PUSH3 0x461BCD PUSH1 0xE5 SHL DUP2 MSTORE PUSH1 0x20 PUSH1 0x4 DUP3 ADD MSTORE PUSH1 0x15 PUSH1 0x24 DUP3 ADD MSTORE PUSH21 0x41756374696F6E207374696C6C206F6E676F696E67 PUSH1 0x58 SHL PUSH1 0x44 DUP3 ADD MSTORE PUSH1 0x64 ADD PUSH2 0x631 JUMP JUMPDEST PUSH1 0x9 DUP2 ADD SLOAD PUSH2 0x100 SWAP1 DIV PUSH1 0xFF AND ISZERO PUSH2 0x1AF5 JUMPI PUSH1 0x40 MLOAD PUSH3 0x461BCD PUSH1 0xE5 SHL DUP2 MSTORE PUSH1 0x20 PUSH1 0x4 DUP3 ADD MSTORE PUSH1 0x19 PUSH1 0x24 DUP3 ADD MSTORE PUSH32 0x41756374696F6E20616C72656164792066696E616C697A656400000000000000 PUSH1 0x44 DUP3 ADD MSTORE PUSH1 0x64 ADD PUSH2 0x631 JUMP JUMPDEST PUSH1 0x9 DUP2 ADD DUP1 SLOAD PUSH2 0xFFFF NOT AND PUSH2 0x100 OR SWAP1 SSTORE PUSH1 0x6 DUP2 ADD SLOAD PUSH1 0x1 PUSH1 0x1 PUSH1 0xA0 SHL SUB AND ISZERO PUSH2 0x1C85 JUMPI PUSH1 0x0 PUSH2 0x2710 PUSH1 0xFA DUP4 PUSH1 0x5 ADD SLOAD PUSH2 0x1B2F SWAP2 SWAP1 PUSH2 0x241E JUMP JUMPDEST PUSH2 0x1B39 SWAP2 SWAP1 PUSH2 0x2435 JUMP JUMPDEST SWAP1 POP PUSH1 0x0 DUP2 DUP4 PUSH1 0x5 ADD SLOAD PUSH2 0x1B4D SWAP2 SWAP1 PUSH2 0x2457 JUMP JUMPDEST PUSH1 0x2 SLOAD PUSH1 0x6 DUP6 ADD SLOAD PUSH1 0x1 DUP7 ADD SLOAD PUSH1 0x3 DUP8 ADD SLOAD PUSH1 0x40 MLOAD PUSH4 0x79212195 PUSH1 0xE1 SHL DUP2 MSTORE SWAP5 SWAP6 POP PUSH1 0x1 PUSH1 0x1 PUSH1 0xA0 SHL SUB SWAP4 DUP5 AND SWAP5 PUSH4 0xF242432A SWAP5 PUSH2 0x1B94 SWAP5 ADDRESS SWAP5 SWAP2 AND SWAP3 SWAP1 SWAP2 PUSH1 0x4 ADD PUSH2 0x246A JUMP JUMPDEST PUSH1 0x0 PUSH1 0x40 MLOAD DUP1 DUP4 SUB DUP2 PUSH1 0x0 DUP8 DUP1 EXTCODESIZE ISZERO DUP1 ISZERO PUSH2 0x1BAE JUMPI PUSH1 0x0 DUP1 REVERT JUMPDEST POP GAS CALL ISZERO DUP1 ISZERO PUSH2 0x1BC2 JUMPI RETURNDATASIZE PUSH1 0x0 DUP1 RETURNDATACOPY RETURNDATASIZE PUSH1 0x0 REVERT JUMPDEST POP POP POP PUSH1 0x2 DUP5 ADD SLOAD PUSH1 0x40 MLOAD PUSH1 0x1 PUSH1 0x1 PUSH1 0xA0 SHL SUB SWAP1 SWAP2 AND SWAP2 POP DUP3 ISZERO PUSH2 0x8FC MUL SWAP1 DUP4 SWAP1 PUSH1 0x0 DUP2 DUP2 DUP2 DUP6 DUP9 DUP9 CALL SWAP4 POP POP POP POP ISZERO DUP1 ISZERO PUSH2 0x1C02 JUMPI RETURNDATASIZE PUSH1 0x0 DUP1 RETURNDATACOPY RETURNDATASIZE PUSH1 0x0 REVERT JUMPDEST POP DUP3 PUSH1 0x5 ADD SLOAD PUSH1 0x9 PUSH1 0x0 DUP3 DUP3 SLOAD PUSH2 0x1C19 SWAP2 SWAP1 PUSH2 0x24A2 JUMP JUMPDEST SWAP1 SWAP2 SSTORE POP POP PUSH1 0xA DUP1 SLOAD SWAP1 PUSH1 0x0 PUSH2 0x1C2E DUP4 PUSH2 0x24B5 JUMP JUMPDEST SWAP1 SWAP2 SSTORE POP POP PUSH1 0x6 DUP4 ADD SLOAD PUSH1 0x5 DUP5 ADD SLOAD PUSH1 0x40 MLOAD SWAP1 DUP2 MSTORE PUSH1 0x1 PUSH1 0x1 PUSH1 0xA0 SHL SUB SWAP1 SWAP2 AND SWAP1 DUP6 SWAP1 PUSH32 0x4D9113A1377D665EAA1F9168A9C9080F2E488CB820B10149DE3D6D2E0F2780C7 SWAP1 PUSH1 0x20 ADD PUSH1 0x40 MLOAD DUP1 SWAP2 SUB SWAP1 LOG3 POP POP PUSH2 0x1CFC JUMP JUMPDEST PUSH1 0x2 DUP1 SLOAD SWAP1 DUP3 ADD SLOAD PUSH1 0x1 DUP4 ADD SLOAD PUSH1 0x3 DUP5 ADD SLOAD PUSH1 0x40 MLOAD PUSH4 0x79212195 PUSH1 0xE1 SHL DUP2 MSTORE PUSH1 0x1 PUSH1 0x1 PUSH1 0xA0 SHL SUB SWAP5 DUP6 AND SWAP5 PUSH4 0xF242432A SWAP5 PUSH2 0x1CC9 SWAP5 ADDRESS SWAP5 SWAP2 SWAP1 SWAP3 AND SWAP3 PUSH1 0x4 ADD PUSH2 0x246A JUMP JUMPDEST PUSH1 0x0 PUSH1 0x40 MLOAD DUP1 DUP4 SUB DUP2 PUSH1 0x0 DUP8 DUP1 EXTCODESIZE ISZERO DUP1 ISZERO PUSH2 0x1CE3 JUMPI PUSH1 0x0 DUP1 REVERT JUMPDEST POP GAS CALL ISZERO DUP1 ISZERO PUSH2 0x1CF7 JUMPI RETURNDATASIZE PUSH1 0x0 DUP1 RETURNDATACOPY RETURNDATASIZE PUSH1 0x0 REVERT JUMPDEST POP POP POP POP JUMPDEST POP PUSH2 0xAE3 PUSH1 0x1 PUSH1 0x0 SSTORE JUMP JUMPDEST PUSH2 0x1D0F PUSH2 0x1E23 JUMP JUMPDEST PUSH1 0x1 PUSH1 0x1 PUSH1 0xA0 SHL SUB DUP2 AND PUSH2 0x1D74 JUMPI PUSH1 0x40 MLOAD PUSH3 0x461BCD PUSH1 0xE5 SHL DUP2 MSTORE PUSH1 0x20 PUSH1 0x4 DUP3 ADD MSTORE PUSH1 0x26 PUSH1 0x24 DUP3 ADD MSTORE PUSH32 0x4F776E61626C653A206E6577206F776E657220697320746865207A65726F2061 PUSH1 0x44 DUP3 ADD MSTORE PUSH6 0x646472657373 PUSH1 0xD0 SHL PUSH1 0x64 DUP3 ADD MSTORE PUSH1 0x84 ADD PUSH2 0x631 JUMP JUMPDEST PUSH2 0xAE3 DUP2 PUSH2 0x1ED2 JUMP JUMPDEST PUSH1 0x2 PUSH1 0x0 SLOAD SUB PUSH2 0x1DCF JUMPI PUSH1 0x40 MLOAD PUSH3 0x461BCD PUSH1 0xE5 SHL DUP2 MSTORE PUSH1 0x20 PUSH1 0x4 DUP3 ADD MSTORE PUSH1 0x1F PUSH1 0x24 DUP3 ADD MSTORE PUSH32 0x5265656E7472616E637947756172643A207265656E7472616E742063616C6C00 PUSH1 0x44 DUP3 ADD MSTORE PUSH1 0x64 ADD PUSH2 0x631 JUMP JUMPDEST PUSH1 0x2 PUSH1 0x0 SSTORE JUMP JUMPDEST PUSH1 0x1 SLOAD PUSH1 0x1 PUSH1 0xA0 SHL SWAP1 DIV PUSH1 0xFF AND ISZERO PUSH2 0xAF6 JUMPI PUSH1 0x40 MLOAD PUSH3 0x461BCD PUSH1 0xE5 SHL DUP2 MSTORE PUSH1 0x20 PUSH1 0x4 DUP3 ADD MSTORE PUSH1 0x10 PUSH1 0x24 DUP3 ADD MSTORE PUSH16 0x14185D5CD8589B194E881C185D5CD959 PUSH1 0x82 SHL PUSH1 0x44 DUP3 ADD MSTORE PUSH1 0x64 ADD PUSH2 0x631 JUMP JUMPDEST PUSH1 0x1 SLOAD PUSH1 0x1 PUSH1 0x1 PUSH1 0xA0 SHL SUB AND CALLER EQ PUSH2 0xAF6 JUMPI PUSH1 0x40 MLOAD PUSH3 0x461BCD PUSH1 0xE5 SHL DUP2 MSTORE PUSH1 0x20 PUSH1 0x4 DUP3 ADD DUP2 SWAP1 MSTORE PUSH1 0x24 DUP3 ADD MSTORE PUSH32 0x4F776E61626C653A2063616C6C6572206973206E6F7420746865206F776E6572 PUSH1 0x44 DUP3 ADD MSTORE PUSH1 0x64 ADD PUSH2 0x631 JUMP JUMPDEST PUSH2 0x1E85 PUSH2 0x1F67 JUMP JUMPDEST PUSH1 0x1 DUP1 SLOAD PUSH1 0xFF PUSH1 0xA0 SHL NOT AND SWAP1 SSTORE PUSH32 0x5DB9EE0A495BF2E6FF9C91A7834C1BA4FDD244A5E8AA4E537BD38AEAE4B073AA CALLER JUMPDEST PUSH1 0x40 MLOAD PUSH1 0x1 PUSH1 0x1 PUSH1 0xA0 SHL SUB SWAP1 SWAP2 AND DUP2 MSTORE PUSH1 0x20 ADD PUSH1 0x40 MLOAD DUP1 SWAP2 SUB SWAP1 LOG1 JUMP JUMPDEST PUSH1 0x1 DUP1 SLOAD PUSH1 0x1 PUSH1 0x1 PUSH1 0xA0 SHL SUB DUP4 DUP2 AND PUSH1 0x1 PUSH1 0x1 PUSH1 0xA0 SHL SUB NOT DUP4 AND DUP2 OR SWAP1 SWAP4 SSTORE PUSH1 0x40 MLOAD SWAP2 AND SWAP2 SWAP1 DUP3 SWAP1 PUSH32 0x8BE0079C531659141344CD1FD0A4F28419497F9722A3DAAFE3B4186F6B6457E0 SWAP1 PUSH1 0x0 SWAP1 LOG3 POP POP JUMP JUMPDEST PUSH2 0x1F2C PUSH2 0x1DD6 JUMP JUMPDEST PUSH1 0x1 DUP1 SLOAD PUSH1 0xFF PUSH1 0xA0 SHL NOT AND PUSH1 0x1 PUSH1 0xA0 SHL OR SWAP1 SSTORE PUSH32 0x62E78CEA01BEE320CD4E420270B5EA74000D11B0C9F74754EBDBFC544B05A258 PUSH2 0x1EB5 CALLER SWAP1 JUMP JUMPDEST PUSH1 0x1 SLOAD PUSH1 0x1 PUSH1 0xA0 SHL SWAP1 DIV PUSH1 0xFF AND PUSH2 0xAF6 JUMPI PUSH1 0x40 MLOAD PUSH3 0x461BCD PUSH1 0xE5 SHL DUP2 MSTORE PUSH1 0x20 PUSH1 0x4 DUP3 ADD MSTORE PUSH1 0x14 PUSH1 0x24 DUP3 ADD MSTORE PUSH20 0x14185D5CD8589B194E881B9BDD081C185D5CD959 PUSH1 0x62 SHL PUSH1 0x44 DUP3 ADD MSTORE PUSH1 0x64 ADD PUSH2 0x631 JUMP JUMPDEST PUSH1 0x0 DUP1 PUSH1 0x40 DUP4 DUP6 SUB SLT ISZERO PUSH2 0x1FCA JUMPI PUSH1 0x0 DUP1 REVERT JUMPDEST POP POP DUP1 CALLDATALOAD SWAP3 PUSH1 0x20 SWAP1 SWAP2 ADD CALLDATALOAD SWAP2 POP JUMP JUMPDEST PUSH1 0x0 PUSH1 0x20 DUP3 DUP5 SUB SLT ISZERO PUSH2 0x1FEB JUMPI PUSH1 0x0 DUP1 REVERT JUMPDEST DUP2 CALLDATALOAD PUSH1 0x1 PUSH1 0x1 PUSH1 0xE0 SHL SUB NOT DUP2 AND DUP2 EQ PUSH2 0x2003 JUMPI PUSH1 0x0 DUP1 REVERT JUMPDEST SWAP4 SWAP3 POP POP POP JUMP JUMPDEST PUSH1 0x0 PUSH1 0x20 DUP3 DUP5 SUB SLT ISZERO PUSH2 0x201C JUMPI PUSH1 0x0 DUP1 REVERT JUMPDEST POP CALLDATALOAD SWAP2 SWAP1 POP JUMP JUMPDEST PUSH1 0x0 DUP1 PUSH1 0x0 DUP1 PUSH1 0x80 DUP6 DUP8 SUB SLT ISZERO PUSH2 0x2039 JUMPI PUSH1 0x0 DUP1 REVERT JUMPDEST POP POP DUP3 CALLDATALOAD SWAP5 PUSH1 0x20 DUP5 ADD CALLDATALOAD SWAP5 POP PUSH1 0x40 DUP5 ADD CALLDATALOAD SWAP4 PUSH1 0x60 ADD CALLDATALOAD SWAP3 POP SWAP1 POP JUMP JUMPDEST PUSH1 0x1 PUSH1 0x1 PUSH1 0xA0 SHL SUB DUP2 AND DUP2 EQ PUSH2 0xAE3 JUMPI PUSH1 0x0 DUP1 REVERT JUMPDEST PUSH1 0x0 DUP1 PUSH1 0x40 DUP4 DUP6 SUB SLT ISZERO PUSH2 0x207D JUMPI PUSH1 0x0 DUP1 REVERT JUMPDEST DUP3 CALLDATALOAD PUSH2 0x2088 DUP2 PUSH2 0x2055 JUMP JUMPDEST SWAP5 PUSH1 0x20 SWAP4 SWAP1 SWAP4 ADD CALLDATALOAD SWAP4 POP POP POP JUMP JUMPDEST PUSH1 0x20 DUP1 DUP3 MSTORE DUP3 MLOAD DUP3 DUP3 ADD DUP2 SWAP1 MSTORE PUSH1 0x0 SWAP2 SWAP1 DUP5 DUP3 ADD SWAP1 PUSH1 0x40 DUP6 ADD SWAP1 DUP5 JUMPDEST DUP2 DUP2 LT ISZERO PUSH2 0x20CE JUMPI DUP4 MLOAD DUP4 MSTORE SWAP3 DUP5 ADD SWAP3 SWAP2 DUP5 ADD SWAP2 PUSH1 0x1 ADD PUSH2 0x20B2 JUMP JUMPDEST POP SWAP1 SWAP7 SWAP6 POP POP POP POP POP POP JUMP JUMPDEST PUSH4 0x4E487B71 PUSH1 0xE0 SHL PUSH1 0x0 MSTORE PUSH1 0x41 PUSH1 0x4 MSTORE PUSH1 0x24 PUSH1 0x0 REVERT JUMPDEST PUSH1 0x40 MLOAD PUSH2 0x180 DUP2 ADD PUSH8 0xFFFFFFFFFFFFFFFF DUP2 GT DUP3 DUP3 LT OR ISZERO PUSH2 0x2114 JUMPI PUSH2 0x2114 PUSH2 0x20DA JUMP JUMPDEST PUSH1 0x40 MSTORE SWAP1 JUMP JUMPDEST PUSH1 0x40 MLOAD PUSH1 0x1F DUP3 ADD PUSH1 0x1F NOT AND DUP2 ADD PUSH8 0xFFFFFFFFFFFFFFFF DUP2 GT DUP3 DUP3 LT OR ISZERO PUSH2 0x2143 JUMPI PUSH2 0x2143 PUSH2 0x20DA JUMP JUMPDEST PUSH1 0x40 MSTORE SWAP2 SWAP1 POP JUMP JUMPDEST PUSH1 0x0 DUP3 PUSH1 0x1F DUP4 ADD SLT PUSH2 0x215C JUMPI PUSH1 0x0 DUP1 REVERT JUMPDEST DUP2 CALLDATALOAD PUSH1 0x20 PUSH8 0xFFFFFFFFFFFFFFFF DUP3 GT ISZERO PUSH2 0x2178 JUMPI PUSH2 0x2178 PUSH2 0x20DA JUMP JUMPDEST DUP2 PUSH1 0x5 SHL PUSH2 0x2187 DUP3 DUP3 ADD PUSH2 0x211A JUMP JUMPDEST SWAP3 DUP4 MSTORE DUP5 DUP2 ADD DUP3 ADD SWAP3 DUP3 DUP2 ADD SWAP1 DUP8 DUP6 GT ISZERO PUSH2 0x21A1 JUMPI PUSH1 0x0 DUP1 REVERT JUMPDEST DUP4 DUP8 ADD SWAP3 POP JUMPDEST DUP5 DUP4 LT ISZERO PUSH2 0x21C0 JUMPI DUP3 CALLDATALOAD DUP3 MSTORE SWAP2 DUP4 ADD SWAP2 SWAP1 DUP4 ADD SWAP1 PUSH2 0x21A7 JUMP JUMPDEST SWAP8 SWAP7 POP POP POP POP POP POP POP JUMP JUMPDEST PUSH1 0x0 PUSH8 0xFFFFFFFFFFFFFFFF DUP3 GT ISZERO PUSH2 0x21E5 JUMPI PUSH2 0x21E5 PUSH2 0x20DA JUMP JUMPDEST POP PUSH1 0x1F ADD PUSH1 0x1F NOT AND PUSH1 0x20 ADD SWAP1 JUMP JUMPDEST PUSH1 0x0 DUP3 PUSH1 0x1F DUP4 ADD SLT PUSH2 0x2204 JUMPI PUSH1 0x0 DUP1 REVERT JUMPDEST DUP2 CALLDATALOAD PUSH2 0x2217 PUSH2 0x2212 DUP3 PUSH2 0x21CB JUMP JUMPDEST PUSH2 0x211A JUMP JUMPDEST DUP2 DUP2 MSTORE DUP5 PUSH1 0x20 DUP4 DUP7 ADD ADD GT ISZERO PUSH2 0x222C JUMPI PUSH1 0x0 DUP1 REVERT JUMPDEST DUP2 PUSH1 0x20 DUP6 ADD PUSH1 0x20 DUP4 ADD CALLDATACOPY PUSH1 0x0 SWAP2 DUP2 ADD PUSH1 0x20 ADD SWAP2 SWAP1 SWAP2 MSTORE SWAP4 SWAP3 POP POP POP JUMP JUMPDEST PUSH1 0x0 DUP1 PUSH1 0x0 DUP1 PUSH1 0x0 PUSH1 0xA0 DUP7 DUP9 SUB SLT ISZERO PUSH2 0x2261 JUMPI PUSH1 0x0 DUP1 REVERT JUMPDEST DUP6 CALLDATALOAD PUSH2 0x226C DUP2 PUSH2 0x2055 JUMP JUMPDEST SWAP5 POP PUSH1 0x20 DUP7 ADD CALLDATALOAD PUSH2 0x227C DUP2 PUSH2 0x2055 JUMP JUMPDEST SWAP4 POP PUSH1 0x40 DUP7 ADD CALLDATALOAD PUSH8 0xFFFFFFFFFFFFFFFF DUP1 DUP3 GT ISZERO PUSH2 0x2299 JUMPI PUSH1 0x0 DUP1 REVERT JUMPDEST PUSH2 0x22A5 DUP10 DUP4 DUP11 ADD PUSH2 0x214B JUMP JUMPDEST SWAP5 POP PUSH1 0x60 DUP9 ADD CALLDATALOAD SWAP2 POP DUP1 DUP3 GT ISZERO PUSH2 0x22BB JUMPI PUSH1 0x0 DUP1 REVERT JUMPDEST PUSH2 0x22C7 DUP10 DUP4 DUP11 ADD PUSH2 0x214B JUMP JUMPDEST SWAP4 POP PUSH1 0x80 DUP9 ADD CALLDATALOAD SWAP2 POP DUP1 DUP3 GT ISZERO PUSH2 0x22DD JUMPI PUSH1 0x0 DUP1 REVERT JUMPDEST POP PUSH2 0x22EA DUP9 DUP3 DUP10 ADD PUSH2 0x21F3 JUMP JUMPDEST SWAP2 POP POP SWAP3 SWAP6 POP SWAP3 SWAP6 SWAP1 SWAP4 POP JUMP JUMPDEST PUSH4 0x4E487B71 PUSH1 0xE0 SHL PUSH1 0x0 MSTORE PUSH1 0x21 PUSH1 0x4 MSTORE PUSH1 0x24 PUSH1 0x0 REVERT JUMPDEST DUP10 DUP2 MSTORE PUSH1 0x20 DUP2 ADD DUP10 SWAP1 MSTORE PUSH1 0x1 PUSH1 0x1 PUSH1 0xA0 SHL SUB DUP9 AND PUSH1 0x40 DUP3 ADD MSTORE PUSH1 0x60 DUP2 ADD DUP8 SWAP1 MSTORE PUSH1 0x80 DUP2 ADD DUP7 SWAP1 MSTORE PUSH1 0xA0 DUP2 ADD DUP6 SWAP1 MSTORE PUSH1 0xC0 DUP2 ADD DUP5 SWAP1 MSTORE DUP3 ISZERO ISZERO PUSH1 0xE0 DUP3 ADD MSTORE PUSH2 0x120 DUP2 ADD PUSH1 0x3 DUP4 LT PUSH2 0x236D JUMPI PUSH4 0x4E487B71 PUSH1 0xE0 SHL PUSH1 0x0 MSTORE PUSH1 0x21 PUSH1 0x4 MSTORE PUSH1 0x24 PUSH1 0x0 REVERT JUMPDEST DUP3 PUSH2 0x100 DUP4 ADD MSTORE SWAP11 SWAP10 POP POP POP POP POP POP POP POP POP POP JUMP JUMPDEST PUSH1 0x0 DUP1 PUSH1 0x0 DUP1 PUSH1 0x0 PUSH1 0xA0 DUP7 DUP9 SUB SLT ISZERO PUSH2 0x239A JUMPI PUSH1 0x0 DUP1 REVERT JUMPDEST DUP6 CALLDATALOAD PUSH2 0x23A5 DUP2 PUSH2 0x2055 JUMP JUMPDEST SWAP5 POP PUSH1 0x20 DUP7 ADD CALLDATALOAD PUSH2 0x23B5 DUP2 PUSH2 0x2055 JUMP JUMPDEST SWAP4 POP PUSH1 0x40 DUP7 ADD CALLDATALOAD SWAP3 POP PUSH1 0x60 DUP7 ADD CALLDATALOAD SWAP2 POP PUSH1 0x80 DUP7 ADD CALLDATALOAD PUSH8 0xFFFFFFFFFFFFFFFF DUP2 GT ISZERO PUSH2 0x23DF JUMPI PUSH1 0x0 DUP1 REVERT JUMPDEST PUSH2 0x22EA DUP9 DUP3 DUP10 ADD PUSH2 0x21F3 JUMP JUMPDEST PUSH1 0x0 PUSH1 0x20 DUP3 DUP5 SUB SLT ISZERO PUSH2 0x23FD JUMPI PUSH1 0x0 DUP1 REVERT JUMPDEST DUP2 CALLDATALOAD PUSH2 0x2003 DUP2 PUSH2 0x2055 JUMP JUMPDEST PUSH4 0x4E487B71 PUSH1 0xE0 SHL PUSH1 0x0 MSTORE PUSH1 0x11 PUSH1 0x4 MSTORE PUSH1 0x24 PUSH1 0x0 REVERT JUMPDEST DUP1 DUP3 MUL DUP2 ISZERO DUP3 DUP3 DIV DUP5 EQ OR PUSH2 0x976 JUMPI PUSH2 0x976 PUSH2 0x2408 JUMP JUMPDEST PUSH1 0x0 DUP3 PUSH2 0x2452 JUMPI PUSH4 0x4E487B71 PUSH1 0xE0 SHL PUSH1 0x0 MSTORE PUSH1 0x12 PUSH1 0x4 MSTORE PUSH1 0x24 PUSH1 0x0 REVERT JUMPDEST POP DIV SWAP1 JUMP JUMPDEST DUP2 DUP2 SUB DUP2 DUP2 GT ISZERO PUSH2 0x976 JUMPI PUSH2 0x976 PUSH2 0x2408 JUMP JUMPDEST PUSH1 0x1 PUSH1 0x1 PUSH1 0xA0 SHL SUB SWAP5 DUP6 AND DUP2 MSTORE SWAP3 SWAP1 SWAP4 AND PUSH1 0x20 DUP4 ADD MSTORE PUSH1 0x40 DUP3 ADD MSTORE PUSH1 0x60 DUP2 ADD SWAP2 SWAP1 SWAP2 MSTORE PUSH1 0xA0 PUSH1 0x80 DUP3 ADD DUP2 SWAP1 MSTORE PUSH1 0x0 SWAP1 DUP3 ADD MSTORE PUSH1 0xC0 ADD SWAP1 JUMP JUMPDEST DUP1 DUP3 ADD DUP1 DUP3 GT ISZERO PUSH2 0x976 JUMPI PUSH2 0x976 PUSH2 0x2408 JUMP JUMPDEST PUSH1 0x0 PUSH1 0x1 DUP3 ADD PUSH2 0x24C7 JUMPI PUSH2 0x24C7 PUSH2 0x2408 JUMP JUMPDEST POP PUSH1 0x1 ADD SWAP1 JUMP JUMPDEST PUSH1 0x0 DUP3 PUSH1 0x1F DUP4 ADD SLT PUSH2 0x24DF JUMPI PUSH1 0x0 DUP1 REVERT JUMPDEST DUP2 MLOAD PUSH2 0x24ED PUSH2 0x2212 DUP3 PUSH2 0x21CB JUMP JUMPDEST DUP2 DUP2 MSTORE PUSH1 0x20 DUP6 DUP2 DUP5 DUP8 ADD ADD GT ISZERO PUSH2 0x2503 JUMPI PUSH1 0x0 DUP1 REVERT JUMPDEST PUSH1 0x0 JUMPDEST DUP4 DUP2 LT ISZERO PUSH2 0x2521 JUMPI DUP6 DUP2 ADD DUP3 ADD MLOAD DUP4 DUP3 ADD DUP4 ADD MSTORE DUP2 ADD PUSH2 0x2506 JUMP JUMPDEST POP PUSH1 0x0 SWAP3 DUP3 ADD ADD SWAP2 SWAP1 SWAP2 MSTORE SWAP4 SWAP3 POP POP POP JUMP JUMPDEST DUP1 MLOAD DUP1 ISZERO ISZERO DUP2 EQ PUSH2 0x2543 JUMPI PUSH1 0x0 DUP1 REVERT JUMPDEST SWAP2 SWAP1 POP JUMP JUMPDEST DUP1 MLOAD PUSH2 0x2543 DUP2 PUSH2 0x2055 JUMP JUMPDEST DUP1 MLOAD PUSH1 0xFF DUP2 AND DUP2 EQ PUSH2 0x2543 JUMPI PUSH1 0x0 DUP1 REVERT JUMPDEST PUSH1 0x0 PUSH1 0x20 DUP3 DUP5 SUB SLT ISZERO PUSH2 0x2576 JUMPI PUSH1 0x0 DUP1 REVERT JUMPDEST DUP2 MLOAD PUSH8 0xFFFFFFFFFFFFFFFF DUP1 DUP3 GT ISZERO PUSH2 0x258E JUMPI PUSH1 0x0 DUP1 REVERT JUMPDEST SWAP1 DUP4 ADD SWAP1 PUSH2 0x180 DUP3 DUP7 SUB SLT ISZERO PUSH2 0x25A3 JUMPI PUSH1 0x0 DUP1 REVERT JUMPDEST PUSH2 0x25AB PUSH2 0x20F0 JUMP JUMPDEST DUP3 MLOAD DUP2 MSTORE PUSH1 0x20 DUP4 ADD MLOAD PUSH1 0x20 DUP3 ADD MSTORE PUSH1 0x40 DUP4 ADD MLOAD PUSH1 0x40 DUP3 ADD MSTORE PUSH1 0x60 DUP4 ADD MLOAD DUP3 DUP2 GT ISZERO PUSH2 0x25D5 JUMPI PUSH1 0x0 DUP1 REVERT JUMPDEST PUSH2 0x25E1 DUP8 DUP3 DUP7 ADD PUSH2 0x24CE JUMP JUMPDEST PUSH1 0x60 DUP4 ADD MSTORE POP PUSH1 0x80 DUP4 ADD MLOAD DUP3 DUP2 GT ISZERO PUSH2 0x25F9 JUMPI PUSH1 0x0 DUP1 REVERT JUMPDEST PUSH2 0x2605 DUP8 DUP3 DUP7 ADD PUSH2 0x24CE JUMP JUMPDEST PUSH1 0x80 DUP4 ADD MSTORE POP PUSH1 0xA0 DUP4 ADD MLOAD PUSH1 0xA0 DUP3 ADD MSTORE PUSH1 0xC0 DUP4 ADD MLOAD PUSH1 0xC0 DUP3 ADD MSTORE PUSH1 0xE0 DUP4 ADD MLOAD PUSH1 0xE0 DUP3 ADD MSTORE PUSH2 0x100 DUP1 DUP5 ADD MLOAD DUP4 DUP2 GT ISZERO PUSH2 0x263D JUMPI PUSH1 0x0 DUP1 REVERT JUMPDEST PUSH2 0x2649 DUP9 DUP3 DUP8 ADD PUSH2 0x24CE JUMP JUMPDEST DUP3 DUP5 ADD MSTORE POP POP PUSH2 0x120 SWAP2 POP PUSH2 0x265F DUP3 DUP5 ADD PUSH2 0x2533 JUMP JUMPDEST DUP3 DUP3 ADD MSTORE PUSH2 0x140 SWAP2 POP PUSH2 0x2673 DUP3 DUP5 ADD PUSH2 0x2548 JUMP JUMPDEST DUP3 DUP3 ADD MSTORE PUSH2 0x160 SWAP2 POP PUSH2 0x2687 DUP3 DUP5 ADD PUSH2 0x2553 JUMP JUMPDEST SWAP2 DUP2 ADD SWAP2 SWAP1 SWAP2 MSTORE SWAP5 SWAP4 POP POP POP POP JUMP JUMPDEST PUSH1 0x0 PUSH1 0x20 DUP3 DUP5 SUB SLT ISZERO PUSH2 0x26A8 JUMPI PUSH1 0x0 DUP1 REVERT JUMPDEST POP MLOAD SWAP2 SWAP1 POP JUMP JUMPDEST PUSH4 0x4E487B71 PUSH1 0xE0 SHL PUSH1 0x0 MSTORE PUSH1 0x32 PUSH1 0x4 MSTORE PUSH1 0x24 PUSH1 0x0 REVERT INVALID LOG2 PUSH5 0x6970667358 0x22 SLT KECCAK256 DUP7 PUSH19 0xB03E1484E660C1234395A8E442D7B287F38355 KECCAK256 0xEF 0xAA CREATE DUP8 PUSH11 0x1FBE35550064736F6C6343 STOP ADDMOD SGT STOP CALLER "},"methodIdentifiers":{"auctions(uint256)":"571a26a0","cancelListing(uint256)":"305a67a8","carbonToken()":"82a71ef2","createAuction(uint256,uint256,uint256,uint256)":"431f21da","createListing(uint256,uint256,uint256,uint256)":"86d71ee2","finalizeAuction(uint256)":"e8083863","getActiveAuctions()":"cf44b5d5","getActiveListings()":"87c35bc0","listings(uint256)":"de74e57b","onERC1155BatchReceived(address,address,uint256[],uint256[],bytes)":"bc197c81","onERC1155Received(address,address,uint256,uint256,bytes)":"f23a6e61","owner()":"8da5cb5b","pause()":"8456cb59","paused()":"5c975abb","placeBid(uint256)":"9979ef45","purchaseListing(uint256,uint256)":"00b395f4","renounceOwnership()":"715018a6","supportsInterface(bytes4)":"01ffc9a7","totalTransactions()":"b9a60038","totalVolume()":"5f81a57c","transferOwnership(address)":"f2fde38b","unpause()":"3f4ba83a","userBids(address,uint256)":"96ec50c3","userListings(address,uint256)":"86cfa7d3","withdrawFees()":"476343ee"}}}}}