{"blockchain/contracts/CarbonOracle.sol":{"CarbonOracle":{"abi":[{"inputs":[{"internalType":"address","name":"_carbonTokenAddress","type":"address"}],"stateMutability":"nonpayable","type":"constructor"},{"anonymous":false,"inputs":[{"indexed":true,"internalType":"uint256","name":"requestId","type":"uint256"},{"indexed":false,"internalType":"uint256","name":"aiScore","type":"uint256"},{"indexed":false,"internalType":"string","name":"aiAnalysisHash","type":"string"}],"name":"AIVerificationCompleted","type":"event"},{"anonymous":false,"inputs":[{"indexed":true,"internalType":"uint256","name":"requestId","type":"uint256"},{"indexed":true,"internalType":"string","name":"projectId","type":"string"},{"indexed":false,"internalType":"uint256","name":"tokenId","type":"uint256"}],"name":"CreditMintingApproved","type":"event"},{"anonymous":false,"inputs":[{"indexed":true,"internalType":"uint256","name":"dataId","type":"uint256"},{"indexed":true,"internalType":"address","name":"verifier","type":"address"}],"name":"DataVerified","type":"event"},{"anonymous":false,"inputs":[{"indexed":true,"internalType":"uint256","name":"dataId","type":"uint256"},{"indexed":true,"internalType":"string","name":"sensorId","type":"string"},{"indexed":false,"internalType":"uint256","name":"co2Reading","type":"uint256"},{"indexed":true,"internalType":"address","name":"provider","type":"address"}],"name":"EmissionDataSubmitted","type":"event"},{"anonymous":false,"inputs":[{"indexed":false,"internalType":"address","name":"account","type":"address"}],"name":"Paused","type":"event"},{"anonymous":false,"inputs":[{"indexed":true,"internalType":"bytes32","name":"role","type":"bytes32"},{"indexed":true,"internalType":"bytes32","name":"previousAdminRole","type":"bytes32"},{"indexed":true,"internalType":"bytes32","name":"newAdminRole","type":"bytes32"}],"name":"RoleAdminChanged","type":"event"},{"anonymous":false,"inputs":[{"indexed":true,"internalType":"bytes32","name":"role","type":"bytes32"},{"indexed":true,"internalType":"address","name":"account","type":"address"},{"indexed":true,"internalType":"address","name":"sender","type":"address"}],"name":"RoleGranted","type":"event"},{"anonymous":false,"inputs":[{"indexed":true,"internalType":"bytes32","name":"role","type":"bytes32"},{"indexed":true,"internalType":"address","name":"account","type":"address"},{"indexed":true,"internalType":"address","name":"sender","type":"address"}],"name":"RoleRevoked","type":"event"},{"anonymous":false,"inputs":[{"indexed":false,"internalType":"address","name":"account","type":"address"}],"name":"Unpaused","type":"event"},{"anonymous":false,"inputs":[{"indexed":true,"internalType":"uint256","name":"requestId","type":"uint256"},{"indexed":true,"internalType":"string","name":"projectId","type":"string"},{"indexed":true,"internalType":"address","name":"requester","type":"address"}],"name":"VerificationRequested","type":"event"},{"inputs":[],"name":"AI_THRESHOLD_HIGH","outputs":[{"internalType":"uint256","name":"","type":"uint256"}],"stateMutability":"view","type":"function"},{"inputs":[],"name":"AI_THRESHOLD_LOW","outputs":[{"internalType":"uint256","name":"","type":"uint256"}],"stateMutability":"view","type":"function"},{"inputs":[],"name":"AI_VERIFIER_ROLE","outputs":[{"internalType":"bytes32","name":"","type":"bytes32"}],"stateMutability":"view","type":"function"},{"inputs":[],"name":"DEFAULT_ADMIN_ROLE","outputs":[{"internalType":"bytes32","name":"","type":"bytes32"}],"stateMutability":"view","type":"function"},{"inputs":[],"name":"IOT_PROVIDER_ROLE","outputs":[{"internalType":"bytes32","name":"","type":"bytes32"}],"stateMutability":"view","type":"function"},{"inputs":[],"name":"ORACLE_ROLE","outputs":[{"internalType":"bytes32","name":"","type":"bytes32"}],"stateMutability":"view","type":"function"},{"inputs":[],"name":"carbonToken","outputs":[{"internalType":"contract ICarbonCreditToken","name":"","type":"address"}],"stateMutability":"view","type":"function"},{"inputs":[{"internalType":"uint256","name":"","type":"uint256"}],"name":"emissionData","outputs":[{"internalType":"string","name":"sensorId","type":"string"},{"internalType":"uint256","name":"timestamp","type":"uint256"},{"internalType":"uint256","name":"co2Reading","type":"uint256"},{"internalType":"uint256","name":"location","type":"uint256"},{"internalType":"string","name":"dataHash","type":"string"},{"internalType":"bool","name":"verified","type":"bool"},{"internalType":"address","name":"provider","type":"address"}],"stateMutability":"view","type":"function"},{"inputs":[{"internalType":"uint256","name":"dataId","type":"uint256"}],"name":"getEmissionData","outputs":[{"components":[{"internalType":"string","name":"sensorId","type":"string"},{"internalType":"uint256","name":"timestamp","type":"uint256"},{"internalType":"uint256","name":"co2Reading","type":"uint256"},{"internalType":"uint256","name":"location","type":"uint256"},{"internalType":"string","name":"dataHash","type":"string"},{"internalType":"bool","name":"verified","type":"bool"},{"internalType":"address","name":"provider","type":"address"}],"internalType":"struct CarbonOracle.EmissionData","name":"","type":"tuple"}],"stateMutability":"view","type":"function"},{"inputs":[],"name":"getPendingRequests","outputs":[{"internalType":"uint256[]","name":"","type":"uint256[]"}],"stateMutability":"view","type":"function"},{"inputs":[{"internalType":"address","name":"provider","type":"address"}],"name":"getProviderData","outputs":[{"internalType":"uint256[]","name":"","type":"uint256[]"}],"stateMutability":"view","type":"function"},{"inputs":[{"internalType":"bytes32","name":"role","type":"bytes32"}],"name":"getRoleAdmin","outputs":[{"internalType":"bytes32","name":"","type":"bytes32"}],"stateMutability":"view","type":"function"},{"inputs":[{"internalType":"uint256","name":"requestId","type":"uint256"}],"name":"getVerificationRequest","outputs":[{"components":[{"internalType":"uint256","name":"requestId","type":"uint256"},{"internalType":"string","name":"projectId","type":"string"},{"internalType":"uint256[]","name":"emissionDataIds","type":"uint256[]"},{"internalType":"string","name":"methodology","type":"string"},{"internalType":"uint256","name":"co2Equivalent","type":"uint256"},{"internalType":"uint256","name":"requestTime","type":"uint256"},{"internalType":"enum CarbonOracle.VerificationStatus","name":"status","type":"uint8"},{"internalType":"address","name":"requester","type":"address"},{"internalType":"string","name":"ipfsHash","type":"string"},{"internalType":"uint256","name":"aiScore","type":"uint256"},{"internalType":"string","name":"aiAnalysisHash","type":"string"}],"internalType":"struct CarbonOracle.VerificationRequest","name":"","type":"tuple"}],"stateMutability":"view","type":"function"},{"inputs":[{"internalType":"bytes32","name":"role","type":"bytes32"},{"internalType":"address","name":"account","type":"address"}],"name":"grantRole","outputs":[],"stateMutability":"nonpayable","type":"function"},{"inputs":[{"internalType":"bytes32","name":"role","type":"bytes32"},{"internalType":"address","name":"account","type":"address"}],"name":"hasRole","outputs":[{"internalType":"bool","name":"","type":"bool"}],"stateMutability":"view","type":"function"},{"inputs":[{"internalType":"uint256","name":"requestId","type":"uint256"},{"internalType":"bool","name":"approved","type":"bool"}],"name":"humanVerifyRequest","outputs":[],"stateMutability":"nonpayable","type":"function"},{"inputs":[],"name":"pause","outputs":[],"stateMutability":"nonpayable","type":"function"},{"inputs":[],"name":"paused","outputs":[{"internalType":"bool","name":"","type":"bool"}],"stateMutability":"view","type":"function"},{"inputs":[{"internalType":"string","name":"","type":"string"}],"name":"projectRequests","outputs":[{"internalType":"uint256","name":"","type":"uint256"}],"stateMutability":"view","type":"function"},{"inputs":[{"internalType":"address","name":"","type":"address"},{"internalType":"uint256","name":"","type":"uint256"}],"name":"providerData","outputs":[{"internalType":"uint256","name":"","type":"uint256"}],"stateMutability":"view","type":"function"},{"inputs":[{"internalType":"bytes32","name":"role","type":"bytes32"},{"internalType":"address","name":"account","type":"address"}],"name":"renounceRole","outputs":[],"stateMutability":"nonpayable","type":"function"},{"inputs":[{"internalType":"string","name":"projectId","type":"string"},{"internalType":"uint256[]","name":"emissionDataIds","type":"uint256[]"},{"internalType":"string","name":"methodology","type":"string"},{"internalType":"uint256","name":"co2Equivalent","type":"uint256"},{"internalType":"string","name":"ipfsHash","type":"string"}],"name":"requestVerification","outputs":[{"internalType":"uint256","name":"","type":"uint256"}],"stateMutability":"nonpayable","type":"function"},{"inputs":[{"internalType":"bytes32","name":"role","type":"bytes32"},{"internalType":"address","name":"account","type":"address"}],"name":"revokeRole","outputs":[],"stateMutability":"nonpayable","type":"function"},{"inputs":[{"internalType":"uint256","name":"requestId","type":"uint256"},{"internalType":"uint256","name":"aiScore","type":"uint256"},{"internalType":"string","name":"aiAnalysisHash","type":"string"}],"name":"submitAIVerification","outputs":[],"stateMutability":"nonpayable","type":"function"},{"inputs":[{"internalType":"string","name":"sensorId","type":"string"},{"internalType":"uint256","name":"co2Reading","type":"uint256"},{"internalType":"uint256","name":"location","type":"uint256"},{"internalType":"string","name":"dataHash","type":"string"}],"name":"submitEmissionData","outputs":[{"internalType":"uint256","name":"","type":"uint256"}],"stateMutability":"nonpayable","type":"function"},{"inputs":[{"internalType":"bytes4","name":"interfaceId","type":"bytes4"}],"name":"supportsInterface","outputs":[{"internalType":"bool","name":"","type":"bool"}],"stateMutability":"view","type":"function"},{"inputs":[],"name":"unpause","outputs":[],"stateMutability":"nonpayable","type":"function"},{"inputs":[{"internalType":"address","name":"_carbonTokenAddress","type":"address"}],"name":"updateCarbonTokenAddress","outputs":[],"stateMutability":"nonpayable","type":"function"},{"inputs":[{"internalType":"uint256","name":"","type":"uint256"}],"name":"verificationRequests","outputs":[{"internalType":"uint256","name":"requestId","type":"uint256"},{"internalType":"string","name":"projectId","type":"string"},{"internalType":"string","name":"methodology","type":"string"},{"internalType":"uint256","name":"co2Equivalent","type":"uint256"},{"internalType":"uint256","name":"requestTime","type":"uint256"},{"internalType":"enum CarbonOracle.VerificationStatus","name":"status","type":"uint8"},{"internalType":"address","name":"requester","type":"address"},{"internalType":"string","name":"ipfsHash","type":"string"},{"internalType":"uint256","name":"aiScore","type":"uint256"},{"internalType":"string","name":"aiAnalysisHash","type":"string"}],"stateMutability":"view","type":"function"},{"inputs":[{"internalType":"uint256","name":"dataId","type":"uint256"}],"name":"verifyEmissionData","outputs":[],"stateMutability":"nonpayable","type":"function"}],"evm":{"bytecode":{"linkReferences":{},"object":"60806040523480156200001157600080fd5b5060405162002feb38038062002feb833981016040819052620000349162000138565b60018055600280546001600160a81b0319166101006001600160a01b038416021790556200006460003362000097565b620000907f68e79a7bf1e0bc45d0a330c573bc367f9cf464fd326078812f301165fbda4ef13362000097565b506200016a565b6000828152602081815260408083206001600160a01b038516845290915290205460ff1662000134576000828152602081815260408083206001600160a01b03851684529091529020805460ff19166001179055620000f33390565b6001600160a01b0316816001600160a01b0316837f2f8788117e7eff1d82e926ec794901d17c78024a50270940304540a733656f0d60405160405180910390a45b5050565b6000602082840312156200014b57600080fd5b81516001600160a01b03811681146200016357600080fd5b9392505050565b612e71806200017a6000396000f3fe608060405234801561001057600080fd5b50600436106101da5760003560e01c806380a1f71211610104578063a217fddf116100a2578063d547741f11610071578063d547741f14610479578063ea58c95d1461048c578063f3152a771461049f578063fc2d64e3146104b257600080fd5b8063a217fddf14610417578063a705726d1461041f578063b820ebeb1461043f578063ba9781931461046657600080fd5b80638d4eea66116100de5780638d4eea66146103b85780638fee22d1146103cb57806391d14854146103de57806399fab435146103f157600080fd5b806380a1f7121461036b57806382a71ef2146103805780638456cb59146103b057600080fd5b806336568abe1161017c578063478d6c341161014b578063478d6c341461033d57806350d9286d14610350578063519ede30146103585780635c975abb1461036057600080fd5b806336568abe146102ce5780633f4ba83a146102e15780634089d49f146102e9578063458109f31461031257600080fd5b806322ccb474116101b857806322ccb47414610263578063248a9ca3146102835780632acd8779146102a65780632f2ff15d146102b957600080fd5b806301ffc9a7146101df578063062d7c851461020757806307e2cea51461023c575b600080fd5b6101f26101ed3660046122e2565b6104c5565b60405190151581526020015b60405180910390f35b61022e7f2ef4a036f8479fb980495c64256c1d75ebe5f064c1c3142f56b3df2e241ff63681565b6040519081526020016101fe565b61022e7f68e79a7bf1e0bc45d0a330c573bc367f9cf464fd326078812f301165fbda4ef181565b61027661027136600461230c565b6104fc565b6040516101fe91906123e8565b61022e61029136600461230c565b60009081526020819052604090206001015490565b61022e6102b436600461259b565b61086b565b6102cc6102c736600461262e565b610ad1565b005b6102cc6102dc36600461262e565b610afb565b6102cc610b79565b6102fc6102f736600461230c565b610b8f565b6040516101fe9a9998979695949392919061265a565b61022e6103203660046126f1565b805160208183018101805160058252928201919093012091525481565b6102cc61034b36600461230c565b610e0d565b61022e603c81565b61022e605a81565b60025460ff166101f2565b610373610f1f565b6040516101fe919061272e565b6002546103989061010090046001600160a01b031681565b6040516001600160a01b0390911681526020016101fe565b6102cc6110b9565b6102cc6103c6366004612772565b6110cc565b61022e6103d936600461278d565b611148565b6101f26103ec36600461262e565b611531565b6104046103ff36600461230c565b61155a565b6040516101fe97969594939291906128a7565b61022e600081565b61043261042d36600461230c565b6116b2565b6040516101fe9190612903565b61022e7f04516a438d7a6ea0a767ab73178ff354a6680d6f5121da52d484005ab1ec308b81565b61022e610474366004612989565b6118c6565b6102cc61048736600461262e565b6118f7565b6102cc61049a3660046129b3565b61191c565b6102cc6104ad366004612a03565b611aff565b6103736104c0366004612772565b611c1c565b60006001600160e01b03198216637965db0b60e01b14806104f657506301ffc9a760e01b6001600160e01b03198316145b92915050565b61050461220e565b60085482111561052f5760405162461bcd60e51b815260040161052690612a38565b60405180910390fd5b60046000838152602001908152602001600020604051806101600160405290816000820154815260200160018201805461056890612a64565b80601f016020809104026020016040519081016040528092919081815260200182805461059490612a64565b80156105e15780601f106105b6576101008083540402835291602001916105e1565b820191906000526020600020905b8154815290600101906020018083116105c457829003601f168201915b505050505081526020016002820180548060200260200160405190810160405280929190818152602001828054801561063957602002820191906000526020600020905b815481526020019060010190808311610625575b5050505050815260200160038201805461065290612a64565b80601f016020809104026020016040519081016040528092919081815260200182805461067e90612a64565b80156106cb5780601f106106a0576101008083540402835291602001916106cb565b820191906000526020600020905b8154815290600101906020018083116106ae57829003601f168201915b5050509183525050600482810154602083015260058301546040830152600683015460609092019160ff1690811115610706576107066123b0565b6004811115610717576107176123b0565b8152600682015461010090046001600160a01b0316602082015260078201805460409092019161074690612a64565b80601f016020809104026020016040519081016040528092919081815260200182805461077290612a64565b80156107bf5780601f10610794576101008083540402835291602001916107bf565b820191906000526020600020905b8154815290600101906020018083116107a257829003601f168201915b50505050508152602001600882015481526020016009820180546107e290612a64565b80601f016020809104026020016040519081016040528092919081815260200182805461080e90612a64565b801561085b5780601f106108305761010080835404028352916020019161085b565b820191906000526020600020905b81548152906001019060200180831161083e57829003601f168201915b5050505050815250509050919050565b60007f2ef4a036f8479fb980495c64256c1d75ebe5f064c1c3142f56b3df2e241ff63661089781611c88565b61089f611c92565b60008651116108e55760405162461bcd60e51b815260206004820152601260248201527114d95b9cdbdc881251081c995c5d5a5c995960721b6044820152606401610526565b6000851161092b5760405162461bcd60e51b8152602060048201526013602482015272496e76616c696420434f322072656164696e6760681b6044820152606401610526565b60008351116109715760405162461bcd60e51b815260206004820152601260248201527111185d18481a185cda081c995c5d5a5c995960721b6044820152606401610526565b6007805490600061098183612ab4565b90915550506007546040805160e081018252888152426020808301919091528183018990526060820188905260808201879052600060a083018190523360c0840152848152600390915291909120815181906109dd9082612b1b565b5060208201516001820155604082015160028201556060820151600382015560808201516004820190610a109082612b1b565b5060a08201516005909101805460c0909301516001600160a01b031661010002610100600160a81b0319921515929092166001600160a81b0319909316929092171790553360008181526006602090815260408083208054600181018255908452919092200183905551610a85908990612bdb565b6040518091039020827f6bb02587d80adeeb15c3be54a7728ac4bc2f8feeab9473d23024f1ee809137b089604051610abf91815260200190565b60405180910390a49695505050505050565b600082815260208190526040902060010154610aec81611c88565b610af68383611cda565b505050565b6001600160a01b0381163314610b6b5760405162461bcd60e51b815260206004820152602f60248201527f416363657373436f6e74726f6c3a2063616e206f6e6c792072656e6f756e636560448201526e103937b632b9903337b91039b2b63360891b6064820152608401610526565b610b758282611d5e565b5050565b6000610b8481611c88565b610b8c611dc3565b50565b60046020526000908152604090208054600182018054919291610bb190612a64565b80601f0160208091040260200160405190810160405280929190818152602001828054610bdd90612a64565b8015610c2a5780601f10610bff57610100808354040283529160200191610c2a565b820191906000526020600020905b815481529060010190602001808311610c0d57829003601f168201915b505050505090806003018054610c3f90612a64565b80601f0160208091040260200160405190810160405280929190818152602001828054610c6b90612a64565b8015610cb85780601f10610c8d57610100808354040283529160200191610cb8565b820191906000526020600020905b815481529060010190602001808311610c9b57829003601f168201915b505050506004830154600584015460068501546007860180549596939592945060ff8216936101009092046001600160a01b031692610cf690612a64565b80601f0160208091040260200160405190810160405280929190818152602001828054610d2290612a64565b8015610d6f5780601f10610d4457610100808354040283529160200191610d6f565b820191906000526020600020905b815481529060010190602001808311610d5257829003601f168201915b505050505090806008015490806009018054610d8a90612a64565b80601f0160208091040260200160405190810160405280929190818152602001828054610db690612a64565b8015610e035780601f10610dd857610100808354040283529160200191610e03565b820191906000526020600020905b815481529060010190602001808311610de657829003601f168201915b505050505090508a565b7f68e79a7bf1e0bc45d0a330c573bc367f9cf464fd326078812f301165fbda4ef1610e3781611c88565b600754821115610e7b5760405162461bcd60e51b815260206004820152600f60248201526e125b9d985b1a590819185d18481251608a1b6044820152606401610526565b60008281526003602052604090206005015460ff1615610ed55760405162461bcd60e51b815260206004820152601560248201527411185d1848185b1c9958591e481d995c9a599a5959605a1b6044820152606401610526565b600082815260036020526040808220600501805460ff1916600117905551339184917f4e206a2da258866fea320fabca330294731f7d223dd64c52cadd28e22ba479ad9190a35050565b6060600060085467ffffffffffffffff811115610f3e57610f3e6124e4565b604051908082528060200260200182016040528015610f67578160200160208202803683370190505b509050600060015b600854811161101557600081815260046020819052604082206006015460ff1690811115610f9f57610f9f6123b0565b1480610fd25750600160008281526004602081905260409091206006015460ff1690811115610fd057610fd06123b0565b145b156110035780838381518110610fea57610fea612bf7565b602090810291909101015281610fff81612ab4565b9250505b8061100d81612ab4565b915050610f6f565b5060008167ffffffffffffffff811115611031576110316124e4565b60405190808252806020026020018201604052801561105a578160200160208202803683370190505b50905060005b828110156110b15783818151811061107a5761107a612bf7565b602002602001015182828151811061109457611094612bf7565b6020908102919091010152806110a981612ab4565b915050611060565b509392505050565b60006110c481611c88565b610b8c611e15565b60006110d781611c88565b6001600160a01b03821661111f5760405162461bcd60e51b815260206004820152600f60248201526e496e76616c6964206164647265737360881b6044820152606401610526565b50600280546001600160a01b0390921661010002610100600160a81b0319909216919091179055565b6000611152611e52565b61115a611c92565b60008651116111a15760405162461bcd60e51b8152602060048201526013602482015272141c9bda9958dd081251081c995c5d5a5c9959606a1b6044820152606401610526565b60008551116111eb5760405162461bcd60e51b8152602060048201526016602482015275115b5a5cdcda5bdb8819185d18481c995c5d5a5c995960521b6044820152606401610526565b6000831161123b5760405162461bcd60e51b815260206004820152601f60248201527f434f32206571756976616c656e74206d75737420626520706f736974697665006044820152606401610526565b60058660405161124b9190612bdb565b9081526020016040518091039020546000146112b55760405162461bcd60e51b815260206004820152602360248201527f50726f6a65637420616c7265616479206861732070656e64696e672072657175604482015262195cdd60ea1b6064820152608401610526565b60005b855181101561134a576000600360008884815181106112d9576112d9612bf7565b6020026020010151815260200190815260200160002060010154116113385760405162461bcd60e51b8152602060048201526015602482015274496e76616c696420656d697373696f6e206461746160581b6044820152606401610526565b8061134281612ab4565b9150506112b8565b506008805490600061135b83612ab4565b9091555050600854604080516101608101825282815260208082018a81528284018a905260608301899052608083018890524260a0840152600060c084018190523360e08501526101008401889052610120840181905284518084018652818152610140850152858152600490925292902081518155915190919060018201906113e59082612b1b565b5060408201518051611401916002840191602090910190612282565b50606082015160038201906114169082612b1b565b506080820151816004015560a0820151816005015560c08201518160060160006101000a81548160ff02191690836004811115611455576114556123b0565b021790555060e0820151600682018054610100600160a81b0319166101006001600160a01b03909316830217905582015160078201906114959082612b1b565b50610120820151600882015561014082015160098201906114b69082612b1b565b50905050806005886040516114cb9190612bdb565b9081526040519081900360200181209190915533906114eb908990612bdb565b6040519081900381209083907fd8772f50f014e5b02c03c9358de8dd171a9abb9be51b416f7c4dbfd4d16b6e1b90600090a4905061152860018055565b95945050505050565b6000918252602082815260408084206001600160a01b0393909316845291905290205460ff1690565b60036020526000908152604090208054819061157590612a64565b80601f01602080910402602001604051908101604052809291908181526020018280546115a190612a64565b80156115ee5780601f106115c3576101008083540402835291602001916115ee565b820191906000526020600020905b8154815290600101906020018083116115d157829003601f168201915b50505050509080600101549080600201549080600301549080600401805461161590612a64565b80601f016020809104026020016040519081016040528092919081815260200182805461164190612a64565b801561168e5780601f106116635761010080835404028352916020019161168e565b820191906000526020600020905b81548152906001019060200180831161167157829003601f168201915b5050506005909301549192505060ff8116906001600160a01b036101009091041687565b6116fd6040518060e00160405280606081526020016000815260200160008152602001600081526020016060815260200160001515815260200160006001600160a01b031681525090565b6007548211156117415760405162461bcd60e51b815260206004820152600f60248201526e125b9d985b1a590819185d18481251608a1b6044820152606401610526565b60008281526003602052604090819020815160e0810190925280548290829061176990612a64565b80601f016020809104026020016040519081016040528092919081815260200182805461179590612a64565b80156117e25780601f106117b7576101008083540402835291602001916117e2565b820191906000526020600020905b8154815290600101906020018083116117c557829003601f168201915b5050505050815260200160018201548152602001600282015481526020016003820154815260200160048201805461181990612a64565b80601f016020809104026020016040519081016040528092919081815260200182805461184590612a64565b80156118925780601f1061186757610100808354040283529160200191611892565b820191906000526020600020905b81548152906001019060200180831161187557829003601f168201915b50505091835250506005919091015460ff81161515602083015261010090046001600160a01b031660409091015292915050565b600660205281600052604060002081815481106118e257600080fd5b90600052602060002001600091509150505481565b60008281526020819052604090206001015461191281611c88565b610af68383611d5e565b7f04516a438d7a6ea0a767ab73178ff354a6680d6f5121da52d484005ab1ec308b61194681611c88565b6008548411156119685760405162461bcd60e51b815260040161052690612a38565b600084815260046020526040812090600682015460ff166004811115611990576119906123b0565b146119d35760405162461bcd60e51b815260206004820152601360248201527252657175657374206e6f742070656e64696e6760681b6044820152606401610526565b6064841115611a175760405162461bcd60e51b815260206004820152601060248201526f496e76616c69642041492073636f726560801b6044820152606401610526565b6000835111611a685760405162461bcd60e51b815260206004820152601960248201527f414920616e616c797369732068617368207265717569726564000000000000006044820152606401610526565b6008810184905560098101611a7d8482612b1b565b5060068101805460ff1916600117905560405185907f4d524acf354732b975e86852d5a71731b2a470216c6ad9b64c5525e91d7008fa90611ac19087908790612c0d565b60405180910390a2605a8410611adf57611ada85611eab565b611af8565b603c841015611af85760068101805460ff191660031790555b5050505050565b7f68e79a7bf1e0bc45d0a330c573bc367f9cf464fd326078812f301165fbda4ef1611b2981611c88565b600854831115611b4b5760405162461bcd60e51b815260040161052690612a38565b60008381526004602052604090206001600682015460ff166004811115611b7457611b746123b0565b1480611b9857506000600682015460ff166004811115611b9657611b966123b0565b145b611bf25760405162461bcd60e51b815260206004820152602560248201527f496e76616c69642073746174757320666f722068756d616e207665726966696360448201526430ba34b7b760d91b6064820152608401610526565b8215611c0657611c0184611eab565b611c16565b60068101805460ff191660031790555b50505050565b6001600160a01b038116600090815260066020908152604091829020805483518184028101840190945280845260609392830182828015611c7c57602002820191906000526020600020905b815481526020019060010190808311611c68575b50505050509050919050565b610b8c8133611fb7565b60025460ff1615611cd85760405162461bcd60e51b815260206004820152601060248201526f14185d5cd8589b194e881c185d5cd95960821b6044820152606401610526565b565b611ce48282611531565b610b75576000828152602081815260408083206001600160a01b03851684529091529020805460ff19166001179055611d1a3390565b6001600160a01b0316816001600160a01b0316837f2f8788117e7eff1d82e926ec794901d17c78024a50270940304540a733656f0d60405160405180910390a45050565b611d688282611531565b15610b75576000828152602081815260408083206001600160a01b0385168085529252808320805460ff1916905551339285917ff6391f5c32d9c69d2a47ea670b442974b53935d1edc7fd64eb21e047a839171b9190a45050565b611dcb612010565b6002805460ff191690557f5db9ee0a495bf2e6ff9c91a7834c1ba4fdd244a5e8aa4e537bd38aeae4b073aa335b6040516001600160a01b03909116815260200160405180910390a1565b611e1d611c92565b6002805460ff191660011790557f62e78cea01bee320cd4e420270b5ea74000d11b0c9f74754ebdbfc544b05a258611df83390565b600260015403611ea45760405162461bcd60e51b815260206004820152601f60248201527f5265656e7472616e637947756172643a207265656e7472616e742063616c6c006044820152606401610526565b6002600155565b60008181526004602081905260408220908101549091611ecf426312cc0300612c26565b600254600485810154604051630757044f60e21b81529394506101009092046001600160a01b031692631d5c113c92611f1c92600189019260038a019291889160078c01918b9101612cb6565b600060405180830381600087803b158015611f3657600080fd5b505af1158015611f4a573d6000803e3d6000fd5b5050505060068301805460ff19166004179055604051611f6e906001850190612d0f565b6040518091039020847fd486bacaa6124074407c4c8d461cceda936209bc2b56e9173b9bd622a27f13986000604051611fa991815260200190565b60405180910390a350505050565b611fc18282611531565b610b7557611fce81612059565b611fd983602061206b565b604051602001611fea929190612d85565b60408051601f198184030181529082905262461bcd60e51b825261052691600401612dfa565b60025460ff16611cd85760405162461bcd60e51b815260206004820152601460248201527314185d5cd8589b194e881b9bdd081c185d5cd95960621b6044820152606401610526565b60606104f66001600160a01b03831660145b6060600061207a836002612e0d565b612085906002612c26565b67ffffffffffffffff81111561209d5761209d6124e4565b6040519080825280601f01601f1916602001820160405280156120c7576020820181803683370190505b509050600360fc1b816000815181106120e2576120e2612bf7565b60200101906001600160f81b031916908160001a905350600f60fb1b8160018151811061211157612111612bf7565b60200101906001600160f81b031916908160001a9053506000612135846002612e0d565b612140906001612c26565b90505b60018111156121b8576f181899199a1a9b1b9c1cb0b131b232b360811b85600f166010811061217457612174612bf7565b1a60f81b82828151811061218a5761218a612bf7565b60200101906001600160f81b031916908160001a90535060049490941c936121b181612e24565b9050612143565b5083156122075760405162461bcd60e51b815260206004820181905260248201527f537472696e67733a20686578206c656e67746820696e73756666696369656e746044820152606401610526565b9392505050565b60405180610160016040528060008152602001606081526020016060815260200160608152602001600081526020016000815260200160006004811115612257576122576123b0565b815260200160006001600160a01b031681526020016060815260200160008152602001606081525090565b8280548282559060005260206000209081019282156122bd579160200282015b828111156122bd5782518255916020019190600101906122a2565b506122c99291506122cd565b5090565b5b808211156122c957600081556001016122ce565b6000602082840312156122f457600080fd5b81356001600160e01b03198116811461220757600080fd5b60006020828403121561231e57600080fd5b5035919050565b60005b83811015612340578181015183820152602001612328565b50506000910152565b60008151808452612361816020860160208601612325565b601f01601f19169290920160200192915050565b600081518084526020808501945080840160005b838110156123a557815187529582019590820190600101612389565b509495945050505050565b634e487b7160e01b600052602160045260246000fd5b600581106123e457634e487b7160e01b600052602160045260246000fd5b9052565b602081528151602082015260006020830151610160806040850152612411610180850183612349565b91506040850151601f198086850301606087015261242f8483612375565b9350606087015191508086850301608087015261244c8483612349565b9350608087015160a087015260a087015160c087015260c0870151915061247660e08701836123c6565b60e08701519150610100612494818801846001600160a01b03169052565b808801519250506101208187860301818801526124b18584612349565b908801516101408881019190915288015187820390920184880152935090506124da8382612349565b9695505050505050565b634e487b7160e01b600052604160045260246000fd5b604051601f8201601f1916810167ffffffffffffffff81118282101715612523576125236124e4565b604052919050565b600082601f83011261253c57600080fd5b813567ffffffffffffffff811115612556576125566124e4565b612569601f8201601f19166020016124fa565b81815284602083860101111561257e57600080fd5b816020850160208301376000918101602001919091529392505050565b600080600080608085870312156125b157600080fd5b843567ffffffffffffffff808211156125c957600080fd5b6125d58883890161252b565b9550602087013594506040870135935060608701359150808211156125f957600080fd5b506126068782880161252b565b91505092959194509250565b80356001600160a01b038116811461262957600080fd5b919050565b6000806040838503121561264157600080fd5b8235915061265160208401612612565b90509250929050565b60006101408c83528060208401526126748184018d612349565b90508281036040840152612688818c612349565b90508960608401528860808401526126a360a08401896123c6565b6001600160a01b03871660c084015282810360e08401526126c48187612349565b9050846101008401528281036101208401526126e08185612349565b9d9c50505050505050505050505050565b60006020828403121561270357600080fd5b813567ffffffffffffffff81111561271a57600080fd5b6127268482850161252b565b949350505050565b6020808252825182820181905260009190848201906040850190845b818110156127665783518352928401929184019160010161274a565b50909695505050505050565b60006020828403121561278457600080fd5b61220782612612565b600080600080600060a086880312156127a557600080fd5b853567ffffffffffffffff808211156127bd57600080fd5b6127c989838a0161252b565b96506020915081880135818111156127e057600080fd5b8801601f81018a136127f157600080fd5b803582811115612803576128036124e4565b8060051b6128128582016124fa565b918252828101850191858101908d84111561282c57600080fd5b938601935b8385101561284a57843582529386019390860190612831565b995050505060408901359250508082111561286457600080fd5b61287089838a0161252b565b945060608801359350608088013591508082111561288d57600080fd5b5061289a8882890161252b565b9150509295509295909350565b60e0815260006128ba60e083018a612349565b88602084015287604084015286606084015282810360808401526128de8187612349565b94151560a084015250506001600160a01b039190911660c09091015295945050505050565b602081526000825160e06020840152612920610100840182612349565b90506020840151604084015260408401516060840152606084015160808401526080840151601f198483030160a085015261295b8282612349565b60a0860151151560c086810191909152909501516001600160a01b031660e090940193909352509192915050565b6000806040838503121561299c57600080fd5b6129a583612612565b946020939093013593505050565b6000806000606084860312156129c857600080fd5b8335925060208401359150604084013567ffffffffffffffff8111156129ed57600080fd5b6129f98682870161252b565b9150509250925092565b60008060408385031215612a1657600080fd5b8235915060208301358015158114612a2d57600080fd5b809150509250929050565b602080825260129082015271125b9d985b1a59081c995c5d595cdd08125160721b604082015260600190565b600181811c90821680612a7857607f821691505b602082108103612a9857634e487b7160e01b600052602260045260246000fd5b50919050565b634e487b7160e01b600052601160045260246000fd5b600060018201612ac657612ac6612a9e565b5060010190565b601f821115610af657600081815260208120601f850160051c81016020861015612af45750805b601f850160051c820191505b81811015612b1357828155600101612b00565b505050505050565b815167ffffffffffffffff811115612b3557612b356124e4565b612b4981612b438454612a64565b84612acd565b602080601f831160018114612b7e5760008415612b665750858301515b600019600386901b1c1916600185901b178555612b13565b600085815260208120601f198616915b82811015612bad57888601518255948401946001909101908401612b8e565b5085821015612bcb5787850151600019600388901b60f8161c191681555b5050505050600190811b01905550565b60008251612bed818460208701612325565b9190910192915050565b634e487b7160e01b600052603260045260246000fd5b8281526040602082015260006127266040830184612349565b808201808211156104f6576104f6612a9e565b60008154612c4681612a64565b808552602060018381168015612c635760018114612c7d57612cab565b60ff1985168884015283151560051b880183019550612cab565b866000528260002060005b85811015612ca35781548a8201860152908301908401612c88565b890184019650505b505050505092915050565b60c081526000612cc960c0830189612c39565b8281036020840152612cdb8189612c39565b90508660408401528560608401528281036080840152612cfb8186612c39565b9150508260a0830152979650505050505050565b6000808354612d1d81612a64565b60018281168015612d355760018114612d4a57612d79565b60ff1984168752821515830287019450612d79565b8760005260208060002060005b85811015612d705781548a820152908401908201612d57565b50505082870194505b50929695505050505050565b7f416363657373436f6e74726f6c3a206163636f756e7420000000000000000000815260008351612dbd816017850160208801612325565b7001034b99036b4b9b9b4b733903937b6329607d1b6017918401918201528351612dee816028840160208801612325565b01602801949350505050565b6020815260006122076020830184612349565b80820281158282048414176104f6576104f6612a9e565b600081612e3357612e33612a9e565b50600019019056fea2646970667358221220d845a7a407a385a287e833b913777cfdabb3d5f134c2e83cdc75bc614fc731fe64736f6c63430008130033","opcodes":"PUSH1 0x80 PUSH1 0x40 MSTORE CALLVALUE DUP1 ISZERO PUSH3 0x11 JUMPI PUSH1 0x0 DUP1 REVERT JUMPDEST POP PUSH1 0x40 MLOAD PUSH3 0x2FEB CODESIZE SUB DUP1 PUSH3 0x2FEB DUP4 CODECOPY DUP2 ADD PUSH1 0x40 DUP2 SWAP1 MSTORE PUSH3 0x34 SWAP2 PUSH3 0x138 JUMP JUMPDEST PUSH1 0x1 DUP1 SSTORE PUSH1 0x2 DUP1 SLOAD PUSH1 0x1 PUSH1 0x1 PUSH1 0xA8 SHL SUB NOT AND PUSH2 0x100 PUSH1 0x1 PUSH1 0x1 PUSH1 0xA0 SHL SUB DUP5 AND MUL OR SWAP1 SSTORE PUSH3 0x64 PUSH1 0x0 CALLER PUSH3 0x97 JUMP JUMPDEST PUSH3 0x90 PUSH32 0x68E79A7BF1E0BC45D0A330C573BC367F9CF464FD326078812F301165FBDA4EF1 CALLER PUSH3 0x97 JUMP JUMPDEST POP PUSH3 0x16A JUMP JUMPDEST PUSH1 0x0 DUP3 DUP2 MSTORE PUSH1 0x20 DUP2 DUP2 MSTORE PUSH1 0x40 DUP1 DUP4 KECCAK256 PUSH1 0x1 PUSH1 0x1 PUSH1 0xA0 SHL SUB DUP6 AND DUP5 MSTORE SWAP1 SWAP2 MSTORE SWAP1 KECCAK256 SLOAD PUSH1 0xFF AND PUSH3 0x134 JUMPI PUSH1 0x0 DUP3 DUP2 MSTORE PUSH1 0x20 DUP2 DUP2 MSTORE PUSH1 0x40 DUP1 DUP4 KECCAK256 PUSH1 0x1 PUSH1 0x1 PUSH1 0xA0 SHL SUB DUP6 AND DUP5 MSTORE SWAP1 SWAP2 MSTORE SWAP1 KECCAK256 DUP1 SLOAD PUSH1 0xFF NOT AND PUSH1 0x1 OR SWAP1 SSTORE PUSH3 0xF3 CALLER SWAP1 JUMP JUMPDEST PUSH1 0x1 PUSH1 0x1 PUSH1 0xA0 SHL SUB AND DUP2 PUSH1 0x1 PUSH1 0x1 PUSH1 0xA0 SHL SUB AND DUP4 PUSH32 0x2F8788117E7EFF1D82E926EC794901D17C78024A50270940304540A733656F0D PUSH1 0x40 MLOAD PUSH1 0x40 MLOAD DUP1 SWAP2 SUB SWAP1 LOG4 JUMPDEST POP POP JUMP JUMPDEST PUSH1 0x0 PUSH1 0x20 DUP3 DUP5 SUB SLT ISZERO PUSH3 0x14B JUMPI PUSH1 0x0 DUP1 REVERT JUMPDEST DUP2 MLOAD PUSH1 0x1 PUSH1 0x1 PUSH1 0xA0 SHL SUB DUP2 AND DUP2 EQ PUSH3 0x163 JUMPI PUSH1 0x0 DUP1 REVERT JUMPDEST SWAP4 SWAP3 POP POP POP JUMP JUMPDEST PUSH2 0x2E71 DUP1 PUSH3 0x17A PUSH1 0x0 CODECOPY PUSH1 0x0 RETURN INVALID PUSH1 0x80 PUSH1 0x40 MSTORE CALLVALUE DUP1 ISZERO PUSH2 0x10 JUMPI PUSH1 0x0 DUP1 REVERT JUMPDEST POP PUSH1 0x4 CALLDATASIZE LT PUSH2 0x1DA JUMPI PUSH1 0x0 CALLDATALOAD PUSH1 0xE0 SHR DUP1 PUSH4 0x80A1F712 GT PUSH2 0x104 JUMPI DUP1 PUSH4 0xA217FDDF GT PUSH2 0xA2 JUMPI DUP1 PUSH4 0xD547741F GT PUSH2 0x71 JUMPI DUP1 PUSH4 0xD547741F EQ PUSH2 0x479 JUMPI DUP1 PUSH4 0xEA58C95D EQ PUSH2 0x48C JUMPI DUP1 PUSH4 0xF3152A77 EQ PUSH2 0x49F JUMPI DUP1 PUSH4 0xFC2D64E3 EQ PUSH2 0x4B2 JUMPI PUSH1 0x0 DUP1 REVERT JUMPDEST DUP1 PUSH4 0xA217FDDF EQ PUSH2 0x417 JUMPI DUP1 PUSH4 0xA705726D EQ PUSH2 0x41F JUMPI DUP1 PUSH4 0xB820EBEB EQ PUSH2 0x43F JUMPI DUP1 PUSH4 0xBA978193 EQ PUSH2 0x466 JUMPI PUSH1 0x0 DUP1 REVERT JUMPDEST DUP1 PUSH4 0x8D4EEA66 GT PUSH2 0xDE JUMPI DUP1 PUSH4 0x8D4EEA66 EQ PUSH2 0x3B8 JUMPI DUP1 PUSH4 0x8FEE22D1 EQ PUSH2 0x3CB JUMPI DUP1 PUSH4 0x91D14854 EQ PUSH2 0x3DE JUMPI DUP1 PUSH4 0x99FAB435 EQ PUSH2 0x3F1 JUMPI PUSH1 0x0 DUP1 REVERT JUMPDEST DUP1 PUSH4 0x80A1F712 EQ PUSH2 0x36B JUMPI DUP1 PUSH4 0x82A71EF2 EQ PUSH2 0x380 JUMPI DUP1 PUSH4 0x8456CB59 EQ PUSH2 0x3B0 JUMPI PUSH1 0x0 DUP1 REVERT JUMPDEST DUP1 PUSH4 0x36568ABE GT PUSH2 0x17C JUMPI DUP1 PUSH4 0x478D6C34 GT PUSH2 0x14B JUMPI DUP1 PUSH4 0x478D6C34 EQ PUSH2 0x33D JUMPI DUP1 PUSH4 0x50D9286D EQ PUSH2 0x350 JUMPI DUP1 PUSH4 0x519EDE30 EQ PUSH2 0x358 JUMPI DUP1 PUSH4 0x5C975ABB EQ PUSH2 0x360 JUMPI PUSH1 0x0 DUP1 REVERT JUMPDEST DUP1 PUSH4 0x36568ABE EQ PUSH2 0x2CE JUMPI DUP1 PUSH4 0x3F4BA83A EQ PUSH2 0x2E1 JUMPI DUP1 PUSH4 0x4089D49F EQ PUSH2 0x2E9 JUMPI DUP1 PUSH4 0x458109F3 EQ PUSH2 0x312 JUMPI PUSH1 0x0 DUP1 REVERT JUMPDEST DUP1 PUSH4 0x22CCB474 GT PUSH2 0x1B8 JUMPI DUP1 PUSH4 0x22CCB474 EQ PUSH2 0x263 JUMPI DUP1 PUSH4 0x248A9CA3 EQ PUSH2 0x283 JUMPI DUP1 PUSH4 0x2ACD8779 EQ PUSH2 0x2A6 JUMPI DUP1 PUSH4 0x2F2FF15D EQ PUSH2 0x2B9 JUMPI PUSH1 0x0 DUP1 REVERT JUMPDEST DUP1 PUSH4 0x1FFC9A7 EQ PUSH2 0x1DF JUMPI DUP1 PUSH4 0x62D7C85 EQ PUSH2 0x207 JUMPI DUP1 PUSH4 0x7E2CEA5 EQ PUSH2 0x23C JUMPI JUMPDEST PUSH1 0x0 DUP1 REVERT JUMPDEST PUSH2 0x1F2 PUSH2 0x1ED CALLDATASIZE PUSH1 0x4 PUSH2 0x22E2 JUMP JUMPDEST PUSH2 0x4C5 JUMP JUMPDEST PUSH1 0x40 MLOAD SWAP1 ISZERO ISZERO DUP2 MSTORE PUSH1 0x20 ADD JUMPDEST PUSH1 0x40 MLOAD DUP1 SWAP2 SUB SWAP1 RETURN JUMPDEST PUSH2 0x22E PUSH32 0x2EF4A036F8479FB980495C64256C1D75EBE5F064C1C3142F56B3DF2E241FF636 DUP2 JUMP JUMPDEST PUSH1 0x40 MLOAD SWAP1 DUP2 MSTORE PUSH1 0x20 ADD PUSH2 0x1FE JUMP JUMPDEST PUSH2 0x22E PUSH32 0x68E79A7BF1E0BC45D0A330C573BC367F9CF464FD326078812F301165FBDA4EF1 DUP2 JUMP JUMPDEST PUSH2 0x276 PUSH2 0x271 CALLDATASIZE PUSH1 0x4 PUSH2 0x230C JUMP JUMPDEST PUSH2 0x4FC JUMP JUMPDEST PUSH1 0x40 MLOAD PUSH2 0x1FE SWAP2 SWAP1 PUSH2 0x23E8 JUMP JUMPDEST PUSH2 0x22E PUSH2 0x291 CALLDATASIZE PUSH1 0x4 PUSH2 0x230C JUMP JUMPDEST PUSH1 0x0 SWAP1 DUP2 MSTORE PUSH1 0x20 DUP2 SWAP1 MSTORE PUSH1 0x40 SWAP1 KECCAK256 PUSH1 0x1 ADD SLOAD SWAP1 JUMP JUMPDEST PUSH2 0x22E PUSH2 0x2B4 CALLDATASIZE PUSH1 0x4 PUSH2 0x259B JUMP JUMPDEST PUSH2 0x86B JUMP JUMPDEST PUSH2 0x2CC PUSH2 0x2C7 CALLDATASIZE PUSH1 0x4 PUSH2 0x262E JUMP JUMPDEST PUSH2 0xAD1 JUMP JUMPDEST STOP JUMPDEST PUSH2 0x2CC PUSH2 0x2DC CALLDATASIZE PUSH1 0x4 PUSH2 0x262E JUMP JUMPDEST PUSH2 0xAFB JUMP JUMPDEST PUSH2 0x2CC PUSH2 0xB79 JUMP JUMPDEST PUSH2 0x2FC PUSH2 0x2F7 CALLDATASIZE PUSH1 0x4 PUSH2 0x230C JUMP JUMPDEST PUSH2 0xB8F JUMP JUMPDEST PUSH1 0x40 MLOAD PUSH2 0x1FE SWAP11 SWAP10 SWAP9 SWAP8 SWAP7 SWAP6 SWAP5 SWAP4 SWAP3 SWAP2 SWAP1 PUSH2 0x265A JUMP JUMPDEST PUSH2 0x22E PUSH2 0x320 CALLDATASIZE PUSH1 0x4 PUSH2 0x26F1 JUMP JUMPDEST DUP1 MLOAD PUSH1 0x20 DUP2 DUP4 ADD DUP2 ADD DUP1 MLOAD PUSH1 0x5 DUP3 MSTORE SWAP3 DUP3 ADD SWAP2 SWAP1 SWAP4 ADD KECCAK256 SWAP2 MSTORE SLOAD DUP2 JUMP JUMPDEST PUSH2 0x2CC PUSH2 0x34B CALLDATASIZE PUSH1 0x4 PUSH2 0x230C JUMP JUMPDEST PUSH2 0xE0D JUMP JUMPDEST PUSH2 0x22E PUSH1 0x3C DUP2 JUMP JUMPDEST PUSH2 0x22E PUSH1 0x5A DUP2 JUMP JUMPDEST PUSH1 0x2 SLOAD PUSH1 0xFF AND PUSH2 0x1F2 JUMP JUMPDEST PUSH2 0x373 PUSH2 0xF1F JUMP JUMPDEST PUSH1 0x40 MLOAD PUSH2 0x1FE SWAP2 SWAP1 PUSH2 0x272E JUMP JUMPDEST PUSH1 0x2 SLOAD PUSH2 0x398 SWAP1 PUSH2 0x100 SWAP1 DIV PUSH1 0x1 PUSH1 0x1 PUSH1 0xA0 SHL SUB AND DUP2 JUMP JUMPDEST PUSH1 0x40 MLOAD PUSH1 0x1 PUSH1 0x1 PUSH1 0xA0 SHL SUB SWAP1 SWAP2 AND DUP2 MSTORE PUSH1 0x20 ADD PUSH2 0x1FE JUMP JUMPDEST PUSH2 0x2CC PUSH2 0x10B9 JUMP JUMPDEST PUSH2 0x2CC PUSH2 0x3C6 CALLDATASIZE PUSH1 0x4 PUSH2 0x2772 JUMP JUMPDEST PUSH2 0x10CC JUMP JUMPDEST PUSH2 0x22E PUSH2 0x3D9 CALLDATASIZE PUSH1 0x4 PUSH2 0x278D JUMP JUMPDEST PUSH2 0x1148 JUMP JUMPDEST PUSH2 0x1F2 PUSH2 0x3EC CALLDATASIZE PUSH1 0x4 PUSH2 0x262E JUMP JUMPDEST PUSH2 0x1531 JUMP JUMPDEST PUSH2 0x404 PUSH2 0x3FF CALLDATASIZE PUSH1 0x4 PUSH2 0x230C JUMP JUMPDEST PUSH2 0x155A JUMP JUMPDEST PUSH1 0x40 MLOAD PUSH2 0x1FE SWAP8 SWAP7 SWAP6 SWAP5 SWAP4 SWAP3 SWAP2 SWAP1 PUSH2 0x28A7 JUMP JUMPDEST PUSH2 0x22E PUSH1 0x0 DUP2 JUMP JUMPDEST PUSH2 0x432 PUSH2 0x42D CALLDATASIZE PUSH1 0x4 PUSH2 0x230C JUMP JUMPDEST PUSH2 0x16B2 JUMP JUMPDEST PUSH1 0x40 MLOAD PUSH2 0x1FE SWAP2 SWAP1 PUSH2 0x2903 JUMP JUMPDEST PUSH2 0x22E PUSH32 0x4516A438D7A6EA0A767AB73178FF354A6680D6F5121DA52D484005AB1EC308B DUP2 JUMP JUMPDEST PUSH2 0x22E PUSH2 0x474 CALLDATASIZE PUSH1 0x4 PUSH2 0x2989 JUMP JUMPDEST PUSH2 0x18C6 JUMP JUMPDEST PUSH2 0x2CC PUSH2 0x487 CALLDATASIZE PUSH1 0x4 PUSH2 0x262E JUMP JUMPDEST PUSH2 0x18F7 JUMP JUMPDEST PUSH2 0x2CC PUSH2 0x49A CALLDATASIZE PUSH1 0x4 PUSH2 0x29B3 JUMP JUMPDEST PUSH2 0x191C JUMP JUMPDEST PUSH2 0x2CC PUSH2 0x4AD CALLDATASIZE PUSH1 0x4 PUSH2 0x2A03 JUMP JUMPDEST PUSH2 0x1AFF JUMP JUMPDEST PUSH2 0x373 PUSH2 0x4C0 CALLDATASIZE PUSH1 0x4 PUSH2 0x2772 JUMP JUMPDEST PUSH2 0x1C1C JUMP JUMPDEST PUSH1 0x0 PUSH1 0x1 PUSH1 0x1 PUSH1 0xE0 SHL SUB NOT DUP3 AND PUSH4 0x7965DB0B PUSH1 0xE0 SHL EQ DUP1 PUSH2 0x4F6 JUMPI POP PUSH4 0x1FFC9A7 PUSH1 0xE0 SHL PUSH1 0x1 PUSH1 0x1 PUSH1 0xE0 SHL SUB NOT DUP4 AND EQ JUMPDEST SWAP3 SWAP2 POP POP JUMP JUMPDEST PUSH2 0x504 PUSH2 0x220E JUMP JUMPDEST PUSH1 0x8 SLOAD DUP3 GT ISZERO PUSH2 0x52F JUMPI PUSH1 0x40 MLOAD PUSH3 0x461BCD PUSH1 0xE5 SHL DUP2 MSTORE PUSH1 0x4 ADD PUSH2 0x526 SWAP1 PUSH2 0x2A38 JUMP JUMPDEST PUSH1 0x40 MLOAD DUP1 SWAP2 SUB SWAP1 REVERT JUMPDEST PUSH1 0x4 PUSH1 0x0 DUP4 DUP2 MSTORE PUSH1 0x20 ADD SWAP1 DUP2 MSTORE PUSH1 0x20 ADD PUSH1 0x0 KECCAK256 PUSH1 0x40 MLOAD DUP1 PUSH2 0x160 ADD PUSH1 0x40 MSTORE SWAP1 DUP2 PUSH1 0x0 DUP3 ADD SLOAD DUP2 MSTORE PUSH1 0x20 ADD PUSH1 0x1 DUP3 ADD DUP1 SLOAD PUSH2 0x568 SWAP1 PUSH2 0x2A64 JUMP JUMPDEST DUP1 PUSH1 0x1F ADD PUSH1 0x20 DUP1 SWAP2 DIV MUL PUSH1 0x20 ADD PUSH1 0x40 MLOAD SWAP1 DUP2 ADD PUSH1 0x40 MSTORE DUP1 SWAP3 SWAP2 SWAP1 DUP2 DUP2 MSTORE PUSH1 0x20 ADD DUP3 DUP1 SLOAD PUSH2 0x594 SWAP1 PUSH2 0x2A64 JUMP JUMPDEST DUP1 ISZERO PUSH2 0x5E1 JUMPI DUP1 PUSH1 0x1F LT PUSH2 0x5B6 JUMPI PUSH2 0x100 DUP1 DUP4 SLOAD DIV MUL DUP4 MSTORE SWAP2 PUSH1 0x20 ADD SWAP2 PUSH2 0x5E1 JUMP JUMPDEST DUP3 ADD SWAP2 SWAP1 PUSH1 0x0 MSTORE PUSH1 0x20 PUSH1 0x0 KECCAK256 SWAP1 JUMPDEST DUP2 SLOAD DUP2 MSTORE SWAP1 PUSH1 0x1 ADD SWAP1 PUSH1 0x20 ADD DUP1 DUP4 GT PUSH2 0x5C4 JUMPI DUP3 SWAP1 SUB PUSH1 0x1F AND DUP3 ADD SWAP2 JUMPDEST POP POP POP POP POP DUP2 MSTORE PUSH1 0x20 ADD PUSH1 0x2 DUP3 ADD DUP1 SLOAD DUP1 PUSH1 0x20 MUL PUSH1 0x20 ADD PUSH1 0x40 MLOAD SWAP1 DUP2 ADD PUSH1 0x40 MSTORE DUP1 SWAP3 SWAP2 SWAP1 DUP2 DUP2 MSTORE PUSH1 0x20 ADD DUP3 DUP1 SLOAD DUP1 ISZERO PUSH2 0x639 JUMPI PUSH1 0x20 MUL DUP3 ADD SWAP2 SWAP1 PUSH1 0x0 MSTORE PUSH1 0x20 PUSH1 0x0 KECCAK256 SWAP1 JUMPDEST DUP2 SLOAD DUP2 MSTORE PUSH1 0x20 ADD SWAP1 PUSH1 0x1 ADD SWAP1 DUP1 DUP4 GT PUSH2 0x625 JUMPI JUMPDEST POP POP POP POP POP DUP2 MSTORE PUSH1 0x20 ADD PUSH1 0x3 DUP3 ADD DUP1 SLOAD PUSH2 0x652 SWAP1 PUSH2 0x2A64 JUMP JUMPDEST DUP1 PUSH1 0x1F ADD PUSH1 0x20 DUP1 SWAP2 DIV MUL PUSH1 0x20 ADD PUSH1 0x40 MLOAD SWAP1 DUP2 ADD PUSH1 0x40 MSTORE DUP1 SWAP3 SWAP2 SWAP1 DUP2 DUP2 MSTORE PUSH1 0x20 ADD DUP3 DUP1 SLOAD PUSH2 0x67E SWAP1 PUSH2 0x2A64 JUMP JUMPDEST DUP1 ISZERO PUSH2 0x6CB JUMPI DUP1 PUSH1 0x1F LT PUSH2 0x6A0 JUMPI PUSH2 0x100 DUP1 DUP4 SLOAD DIV MUL DUP4 MSTORE SWAP2 PUSH1 0x20 ADD SWAP2 PUSH2 0x6CB JUMP JUMPDEST DUP3 ADD SWAP2 SWAP1 PUSH1 0x0 MSTORE PUSH1 0x20 PUSH1 0x0 KECCAK256 SWAP1 JUMPDEST DUP2 SLOAD DUP2 MSTORE SWAP1 PUSH1 0x1 ADD SWAP1 PUSH1 0x20 ADD DUP1 DUP4 GT PUSH2 0x6AE JUMPI DUP3 SWAP1 SUB PUSH1 0x1F AND DUP3 ADD SWAP2 JUMPDEST POP POP POP SWAP2 DUP4 MSTORE POP POP PUSH1 0x4 DUP3 DUP2 ADD SLOAD PUSH1 0x20 DUP4 ADD MSTORE PUSH1 0x5 DUP4 ADD SLOAD PUSH1 0x40 DUP4 ADD MSTORE PUSH1 0x6 DUP4 ADD SLOAD PUSH1 0x60 SWAP1 SWAP3 ADD SWAP2 PUSH1 0xFF AND SWAP1 DUP2 GT ISZERO PUSH2 0x706 JUMPI PUSH2 0x706 PUSH2 0x23B0 JUMP JUMPDEST PUSH1 0x4 DUP2 GT ISZERO PUSH2 0x717 JUMPI PUSH2 0x717 PUSH2 0x23B0 JUMP JUMPDEST DUP2 MSTORE PUSH1 0x6 DUP3 ADD SLOAD PUSH2 0x100 SWAP1 DIV PUSH1 0x1 PUSH1 0x1 PUSH1 0xA0 SHL SUB AND PUSH1 0x20 DUP3 ADD MSTORE PUSH1 0x7 DUP3 ADD DUP1 SLOAD PUSH1 0x40 SWAP1 SWAP3 ADD SWAP2 PUSH2 0x746 SWAP1 PUSH2 0x2A64 JUMP JUMPDEST DUP1 PUSH1 0x1F ADD PUSH1 0x20 DUP1 SWAP2 DIV MUL PUSH1 0x20 ADD PUSH1 0x40 MLOAD SWAP1 DUP2 ADD PUSH1 0x40 MSTORE DUP1 SWAP3 SWAP2 SWAP1 DUP2 DUP2 MSTORE PUSH1 0x20 ADD DUP3 DUP1 SLOAD PUSH2 0x772 SWAP1 PUSH2 0x2A64 JUMP JUMPDEST DUP1 ISZERO PUSH2 0x7BF JUMPI DUP1 PUSH1 0x1F LT PUSH2 0x794 JUMPI PUSH2 0x100 DUP1 DUP4 SLOAD DIV MUL DUP4 MSTORE SWAP2 PUSH1 0x20 ADD SWAP2 PUSH2 0x7BF JUMP JUMPDEST DUP3 ADD SWAP2 SWAP1 PUSH1 0x0 MSTORE PUSH1 0x20 PUSH1 0x0 KECCAK256 SWAP1 JUMPDEST DUP2 SLOAD DUP2 MSTORE SWAP1 PUSH1 0x1 ADD SWAP1 PUSH1 0x20 ADD DUP1 DUP4 GT PUSH2 0x7A2 JUMPI DUP3 SWAP1 SUB PUSH1 0x1F AND DUP3 ADD SWAP2 JUMPDEST POP POP POP POP POP DUP2 MSTORE PUSH1 0x20 ADD PUSH1 0x8 DUP3 ADD SLOAD DUP2 MSTORE PUSH1 0x20 ADD PUSH1 0x9 DUP3 ADD DUP1 SLOAD PUSH2 0x7E2 SWAP1 PUSH2 0x2A64 JUMP JUMPDEST DUP1 PUSH1 0x1F ADD PUSH1 0x20 DUP1 SWAP2 DIV MUL PUSH1 0x20 ADD PUSH1 0x40 MLOAD SWAP1 DUP2 ADD PUSH1 0x40 MSTORE DUP1 SWAP3 SWAP2 SWAP1 DUP2 DUP2 MSTORE PUSH1 0x20 ADD DUP3 DUP1 SLOAD PUSH2 0x80E SWAP1 PUSH2 0x2A64 JUMP JUMPDEST DUP1 ISZERO PUSH2 0x85B JUMPI DUP1 PUSH1 0x1F LT PUSH2 0x830 JUMPI PUSH2 0x100 DUP1 DUP4 SLOAD DIV MUL DUP4 MSTORE SWAP2 PUSH1 0x20 ADD SWAP2 PUSH2 0x85B JUMP JUMPDEST DUP3 ADD SWAP2 SWAP1 PUSH1 0x0 MSTORE PUSH1 0x20 PUSH1 0x0 KECCAK256 SWAP1 JUMPDEST DUP2 SLOAD DUP2 MSTORE SWAP1 PUSH1 0x1 ADD SWAP1 PUSH1 0x20 ADD DUP1 DUP4 GT PUSH2 0x83E JUMPI DUP3 SWAP1 SUB PUSH1 0x1F AND DUP3 ADD SWAP2 JUMPDEST POP POP POP POP POP DUP2 MSTORE POP POP SWAP1 POP SWAP2 SWAP1 POP JUMP JUMPDEST PUSH1 0x0 PUSH32 0x2EF4A036F8479FB980495C64256C1D75EBE5F064C1C3142F56B3DF2E241FF636 PUSH2 0x897 DUP2 PUSH2 0x1C88 JUMP JUMPDEST PUSH2 0x89F PUSH2 0x1C92 JUMP JUMPDEST PUSH1 0x0 DUP7 MLOAD GT PUSH2 0x8E5 JUMPI PUSH1 0x40 MLOAD PUSH3 0x461BCD PUSH1 0xE5 SHL DUP2 MSTORE PUSH1 0x20 PUSH1 0x4 DUP3 ADD MSTORE PUSH1 0x12 PUSH1 0x24 DUP3 ADD MSTORE PUSH18 0x14D95B9CDBDC881251081C995C5D5A5C9959 PUSH1 0x72 SHL PUSH1 0x44 DUP3 ADD MSTORE PUSH1 0x64 ADD PUSH2 0x526 JUMP JUMPDEST PUSH1 0x0 DUP6 GT PUSH2 0x92B JUMPI PUSH1 0x40 MLOAD PUSH3 0x461BCD PUSH1 0xE5 SHL DUP2 MSTORE PUSH1 0x20 PUSH1 0x4 DUP3 ADD MSTORE PUSH1 0x13 PUSH1 0x24 DUP3 ADD MSTORE PUSH19 0x496E76616C696420434F322072656164696E67 PUSH1 0x68 SHL PUSH1 0x44 DUP3 ADD MSTORE PUSH1 0x64 ADD PUSH2 0x526 JUMP JUMPDEST PUSH1 0x0 DUP4 MLOAD GT PUSH2 0x971 JUMPI PUSH1 0x40 MLOAD PUSH3 0x461BCD PUSH1 0xE5 SHL DUP2 MSTORE PUSH1 0x20 PUSH1 0x4 DUP3 ADD MSTORE PUSH1 0x12 PUSH1 0x24 DUP3 ADD MSTORE PUSH18 0x11185D18481A185CDA081C995C5D5A5C9959 PUSH1 0x72 SHL PUSH1 0x44 DUP3 ADD MSTORE PUSH1 0x64 ADD PUSH2 0x526 JUMP JUMPDEST PUSH1 0x7 DUP1 SLOAD SWAP1 PUSH1 0x0 PUSH2 0x981 DUP4 PUSH2 0x2AB4 JUMP JUMPDEST SWAP1 SWAP2 SSTORE POP POP PUSH1 0x7 SLOAD PUSH1 0x40 DUP1 MLOAD PUSH1 0xE0 DUP2 ADD DUP3 MSTORE DUP9 DUP2 MSTORE TIMESTAMP PUSH1 0x20 DUP1 DUP4 ADD SWAP2 SWAP1 SWAP2 MSTORE DUP2 DUP4 ADD DUP10 SWAP1 MSTORE PUSH1 0x60 DUP3 ADD DUP9 SWAP1 MSTORE PUSH1 0x80 DUP3 ADD DUP8 SWAP1 MSTORE PUSH1 0x0 PUSH1 0xA0 DUP4 ADD DUP2 SWAP1 MSTORE CALLER PUSH1 0xC0 DUP5 ADD MSTORE DUP5 DUP2 MSTORE PUSH1 0x3 SWAP1 SWAP2 MSTORE SWAP2 SWAP1 SWAP2 KECCAK256 DUP2 MLOAD DUP2 SWAP1 PUSH2 0x9DD SWAP1 DUP3 PUSH2 0x2B1B JUMP JUMPDEST POP PUSH1 0x20 DUP3 ADD MLOAD PUSH1 0x1 DUP3 ADD SSTORE PUSH1 0x40 DUP3 ADD MLOAD PUSH1 0x2 DUP3 ADD SSTORE PUSH1 0x60 DUP3 ADD MLOAD PUSH1 0x3 DUP3 ADD SSTORE PUSH1 0x80 DUP3 ADD MLOAD PUSH1 0x4 DUP3 ADD SWAP1 PUSH2 0xA10 SWAP1 DUP3 PUSH2 0x2B1B JUMP JUMPDEST POP PUSH1 0xA0 DUP3 ADD MLOAD PUSH1 0x5 SWAP1 SWAP2 ADD DUP1 SLOAD PUSH1 0xC0 SWAP1 SWAP4 ADD MLOAD PUSH1 0x1 PUSH1 0x1 PUSH1 0xA0 SHL SUB AND PUSH2 0x100 MUL PUSH2 0x100 PUSH1 0x1 PUSH1 0xA8 SHL SUB NOT SWAP3 ISZERO ISZERO SWAP3 SWAP1 SWAP3 AND PUSH1 0x1 PUSH1 0x1 PUSH1 0xA8 SHL SUB NOT SWAP1 SWAP4 AND SWAP3 SWAP1 SWAP3 OR OR SWAP1 SSTORE CALLER PUSH1 0x0 DUP2 DUP2 MSTORE PUSH1 0x6 PUSH1 0x20 SWAP1 DUP2 MSTORE PUSH1 0x40 DUP1 DUP4 KECCAK256 DUP1 SLOAD PUSH1 0x1 DUP2 ADD DUP3 SSTORE SWAP1 DUP5 MSTORE SWAP2 SWAP1 SWAP3 KECCAK256 ADD DUP4 SWAP1 SSTORE MLOAD PUSH2 0xA85 SWAP1 DUP10 SWAP1 PUSH2 0x2BDB JUMP JUMPDEST PUSH1 0x40 MLOAD DUP1 SWAP2 SUB SWAP1 KECCAK256 DUP3 PUSH32 0x6BB02587D80ADEEB15C3BE54A7728AC4BC2F8FEEAB9473D23024F1EE809137B0 DUP10 PUSH1 0x40 MLOAD PUSH2 0xABF SWAP2 DUP2 MSTORE PUSH1 0x20 ADD SWAP1 JUMP JUMPDEST PUSH1 0x40 MLOAD DUP1 SWAP2 SUB SWAP1 LOG4 SWAP7 SWAP6 POP POP POP POP POP POP JUMP JUMPDEST PUSH1 0x0 DUP3 DUP2 MSTORE PUSH1 0x20 DUP2 SWAP1 MSTORE PUSH1 0x40 SWAP1 KECCAK256 PUSH1 0x1 ADD SLOAD PUSH2 0xAEC DUP2 PUSH2 0x1C88 JUMP JUMPDEST PUSH2 0xAF6 DUP4 DUP4 PUSH2 0x1CDA JUMP JUMPDEST POP POP POP JUMP JUMPDEST PUSH1 0x1 PUSH1 0x1 PUSH1 0xA0 SHL SUB DUP2 AND CALLER EQ PUSH2 0xB6B JUMPI PUSH1 0x40 MLOAD PUSH3 0x461BCD PUSH1 0xE5 SHL DUP2 MSTORE PUSH1 0x20 PUSH1 0x4 DUP3 ADD MSTORE PUSH1 0x2F PUSH1 0x24 DUP3 ADD MSTORE PUSH32 0x416363657373436F6E74726F6C3A2063616E206F6E6C792072656E6F756E6365 PUSH1 0x44 DUP3 ADD MSTORE PUSH15 0x103937B632B9903337B91039B2B633 PUSH1 0x89 SHL PUSH1 0x64 DUP3 ADD MSTORE PUSH1 0x84 ADD PUSH2 0x526 JUMP JUMPDEST PUSH2 0xB75 DUP3 DUP3 PUSH2 0x1D5E JUMP JUMPDEST POP POP JUMP JUMPDEST PUSH1 0x0 PUSH2 0xB84 DUP2 PUSH2 0x1C88 JUMP JUMPDEST PUSH2 0xB8C PUSH2 0x1DC3 JUMP JUMPDEST POP JUMP JUMPDEST PUSH1 0x4 PUSH1 0x20 MSTORE PUSH1 0x0 SWAP1 DUP2 MSTORE PUSH1 0x40 SWAP1 KECCAK256 DUP1 SLOAD PUSH1 0x1 DUP3 ADD DUP1 SLOAD SWAP2 SWAP3 SWAP2 PUSH2 0xBB1 SWAP1 PUSH2 0x2A64 JUMP JUMPDEST DUP1 PUSH1 0x1F ADD PUSH1 0x20 DUP1 SWAP2 DIV MUL PUSH1 0x20 ADD PUSH1 0x40 MLOAD SWAP1 DUP2 ADD PUSH1 0x40 MSTORE DUP1 SWAP3 SWAP2 SWAP1 DUP2 DUP2 MSTORE PUSH1 0x20 ADD DUP3 DUP1 SLOAD PUSH2 0xBDD SWAP1 PUSH2 0x2A64 JUMP JUMPDEST DUP1 ISZERO PUSH2 0xC2A JUMPI DUP1 PUSH1 0x1F LT PUSH2 0xBFF JUMPI PUSH2 0x100 DUP1 DUP4 SLOAD DIV MUL DUP4 MSTORE SWAP2 PUSH1 0x20 ADD SWAP2 PUSH2 0xC2A JUMP JUMPDEST DUP3 ADD SWAP2 SWAP1 PUSH1 0x0 MSTORE PUSH1 0x20 PUSH1 0x0 KECCAK256 SWAP1 JUMPDEST DUP2 SLOAD DUP2 MSTORE SWAP1 PUSH1 0x1 ADD SWAP1 PUSH1 0x20 ADD DUP1 DUP4 GT PUSH2 0xC0D JUMPI DUP3 SWAP1 SUB PUSH1 0x1F AND DUP3 ADD SWAP2 JUMPDEST POP POP POP POP POP SWAP1 DUP1 PUSH1 0x3 ADD DUP1 SLOAD PUSH2 0xC3F SWAP1 PUSH2 0x2A64 JUMP JUMPDEST DUP1 PUSH1 0x1F ADD PUSH1 0x20 DUP1 SWAP2 DIV MUL PUSH1 0x20 ADD PUSH1 0x40 MLOAD SWAP1 DUP2 ADD PUSH1 0x40 MSTORE DUP1 SWAP3 SWAP2 SWAP1 DUP2 DUP2 MSTORE PUSH1 0x20 ADD DUP3 DUP1 SLOAD PUSH2 0xC6B SWAP1 PUSH2 0x2A64 JUMP JUMPDEST DUP1 ISZERO PUSH2 0xCB8 JUMPI DUP1 PUSH1 0x1F LT PUSH2 0xC8D JUMPI PUSH2 0x100 DUP1 DUP4 SLOAD DIV MUL DUP4 MSTORE SWAP2 PUSH1 0x20 ADD SWAP2 PUSH2 0xCB8 JUMP JUMPDEST DUP3 ADD SWAP2 SWAP1 PUSH1 0x0 MSTORE PUSH1 0x20 PUSH1 0x0 KECCAK256 SWAP1 JUMPDEST DUP2 SLOAD DUP2 MSTORE SWAP1 PUSH1 0x1 ADD SWAP1 PUSH1 0x20 ADD DUP1 DUP4 GT PUSH2 0xC9B JUMPI DUP3 SWAP1 SUB PUSH1 0x1F AND DUP3 ADD SWAP2 JUMPDEST POP POP POP POP PUSH1 0x4 DUP4 ADD SLOAD PUSH1 0x5 DUP5 ADD SLOAD PUSH1 0x6 DUP6 ADD SLOAD PUSH1 0x7 DUP7 ADD DUP1 SLOAD SWAP6 SWAP7 SWAP4 SWAP6 SWAP3 SWAP5 POP PUSH1 0xFF DUP3 AND SWAP4 PUSH2 0x100 SWAP1 SWAP3 DIV PUSH1 0x1 PUSH1 0x1 PUSH1 0xA0 SHL SUB AND SWAP3 PUSH2 0xCF6 SWAP1 PUSH2 0x2A64 JUMP JUMPDEST DUP1 PUSH1 0x1F ADD PUSH1 0x20 DUP1 SWAP2 DIV MUL PUSH1 0x20 ADD PUSH1 0x40 MLOAD SWAP1 DUP2 ADD PUSH1 0x40 MSTORE DUP1 SWAP3 SWAP2 SWAP1 DUP2 DUP2 MSTORE PUSH1 0x20 ADD DUP3 DUP1 SLOAD PUSH2 0xD22 SWAP1 PUSH2 0x2A64 JUMP JUMPDEST DUP1 ISZERO PUSH2 0xD6F JUMPI DUP1 PUSH1 0x1F LT PUSH2 0xD44 JUMPI PUSH2 0x100 DUP1 DUP4 SLOAD DIV MUL DUP4 MSTORE SWAP2 PUSH1 0x20 ADD SWAP2 PUSH2 0xD6F JUMP JUMPDEST DUP3 ADD SWAP2 SWAP1 PUSH1 0x0 MSTORE PUSH1 0x20 PUSH1 0x0 KECCAK256 SWAP1 JUMPDEST DUP2 SLOAD DUP2 MSTORE SWAP1 PUSH1 0x1 ADD SWAP1 PUSH1 0x20 ADD DUP1 DUP4 GT PUSH2 0xD52 JUMPI DUP3 SWAP1 SUB PUSH1 0x1F AND DUP3 ADD SWAP2 JUMPDEST POP POP POP POP POP SWAP1 DUP1 PUSH1 0x8 ADD SLOAD SWAP1 DUP1 PUSH1 0x9 ADD DUP1 SLOAD PUSH2 0xD8A SWAP1 PUSH2 0x2A64 JUMP JUMPDEST DUP1 PUSH1 0x1F ADD PUSH1 0x20 DUP1 SWAP2 DIV MUL PUSH1 0x20 ADD PUSH1 0x40 MLOAD SWAP1 DUP2 ADD PUSH1 0x40 MSTORE DUP1 SWAP3 SWAP2 SWAP1 DUP2 DUP2 MSTORE PUSH1 0x20 ADD DUP3 DUP1 SLOAD PUSH2 0xDB6 SWAP1 PUSH2 0x2A64 JUMP JUMPDEST DUP1 ISZERO PUSH2 0xE03 JUMPI DUP1 PUSH1 0x1F LT PUSH2 0xDD8 JUMPI PUSH2 0x100 DUP1 DUP4 SLOAD DIV MUL DUP4 MSTORE SWAP2 PUSH1 0x20 ADD SWAP2 PUSH2 0xE03 JUMP JUMPDEST DUP3 ADD SWAP2 SWAP1 PUSH1 0x0 MSTORE PUSH1 0x20 PUSH1 0x0 KECCAK256 SWAP1 JUMPDEST DUP2 SLOAD DUP2 MSTORE SWAP1 PUSH1 0x1 ADD SWAP1 PUSH1 0x20 ADD DUP1 DUP4 GT PUSH2 0xDE6 JUMPI DUP3 SWAP1 SUB PUSH1 0x1F AND DUP3 ADD SWAP2 JUMPDEST POP POP POP POP POP SWAP1 POP DUP11 JUMP JUMPDEST PUSH32 0x68E79A7BF1E0BC45D0A330C573BC367F9CF464FD326078812F301165FBDA4EF1 PUSH2 0xE37 DUP2 PUSH2 0x1C88 JUMP JUMPDEST PUSH1 0x7 SLOAD DUP3 GT ISZERO PUSH2 0xE7B JUMPI PUSH1 0x40 MLOAD PUSH3 0x461BCD PUSH1 0xE5 SHL DUP2 MSTORE PUSH1 0x20 PUSH1 0x4 DUP3 ADD MSTORE PUSH1 0xF PUSH1 0x24 DUP3 ADD MSTORE PUSH15 0x125B9D985B1A590819185D18481251 PUSH1 0x8A SHL PUSH1 0x44 DUP3 ADD MSTORE PUSH1 0x64 ADD PUSH2 0x526 JUMP JUMPDEST PUSH1 0x0 DUP3 DUP2 MSTORE PUSH1 0x3 PUSH1 0x20 MSTORE PUSH1 0x40 SWAP1 KECCAK256 PUSH1 0x5 ADD SLOAD PUSH1 0xFF AND ISZERO PUSH2 0xED5 JUMPI PUSH1 0x40 MLOAD PUSH3 0x461BCD PUSH1 0xE5 SHL DUP2 MSTORE PUSH1 0x20 PUSH1 0x4 DUP3 ADD MSTORE PUSH1 0x15 PUSH1 0x24 DUP3 ADD MSTORE PUSH21 0x11185D1848185B1C9958591E481D995C9A599A5959 PUSH1 0x5A SHL PUSH1 0x44 DUP3 ADD MSTORE PUSH1 0x64 ADD PUSH2 0x526 JUMP JUMPDEST PUSH1 0x0 DUP3 DUP2 MSTORE PUSH1 0x3 PUSH1 0x20 MSTORE PUSH1 0x40 DUP1 DUP3 KECCAK256 PUSH1 0x5 ADD DUP1 SLOAD PUSH1 0xFF NOT AND PUSH1 0x1 OR SWAP1 SSTORE MLOAD CALLER SWAP2 DUP5 SWAP2 PUSH32 0x4E206A2DA258866FEA320FABCA330294731F7D223DD64C52CADD28E22BA479AD SWAP2 SWAP1 LOG3 POP POP JUMP JUMPDEST PUSH1 0x60 PUSH1 0x0 PUSH1 0x8 SLOAD PUSH8 0xFFFFFFFFFFFFFFFF DUP2 GT ISZERO PUSH2 0xF3E JUMPI PUSH2 0xF3E PUSH2 0x24E4 JUMP JUMPDEST PUSH1 0x40 MLOAD SWAP1 DUP1 DUP3 MSTORE DUP1 PUSH1 0x20 MUL PUSH1 0x20 ADD DUP3 ADD PUSH1 0x40 MSTORE DUP1 ISZERO PUSH2 0xF67 JUMPI DUP2 PUSH1 0x20 ADD PUSH1 0x20 DUP3 MUL DUP1 CALLDATASIZE DUP4 CALLDATACOPY ADD SWAP1 POP JUMPDEST POP SWAP1 POP PUSH1 0x0 PUSH1 0x1 JUMPDEST PUSH1 0x8 SLOAD DUP2 GT PUSH2 0x1015 JUMPI PUSH1 0x0 DUP2 DUP2 MSTORE PUSH1 0x4 PUSH1 0x20 DUP2 SWAP1 MSTORE PUSH1 0x40 DUP3 KECCAK256 PUSH1 0x6 ADD SLOAD PUSH1 0xFF AND SWAP1 DUP2 GT ISZERO PUSH2 0xF9F JUMPI PUSH2 0xF9F PUSH2 0x23B0 JUMP JUMPDEST EQ DUP1 PUSH2 0xFD2 JUMPI POP PUSH1 0x1 PUSH1 0x0 DUP3 DUP2 MSTORE PUSH1 0x4 PUSH1 0x20 DUP2 SWAP1 MSTORE PUSH1 0x40 SWAP1 SWAP2 KECCAK256 PUSH1 0x6 ADD SLOAD PUSH1 0xFF AND SWAP1 DUP2 GT ISZERO PUSH2 0xFD0 JUMPI PUSH2 0xFD0 PUSH2 0x23B0 JUMP JUMPDEST EQ JUMPDEST ISZERO PUSH2 0x1003 JUMPI DUP1 DUP4 DUP4 DUP2 MLOAD DUP2 LT PUSH2 0xFEA JUMPI PUSH2 0xFEA PUSH2 0x2BF7 JUMP JUMPDEST PUSH1 0x20 SWAP1 DUP2 MUL SWAP2 SWAP1 SWAP2 ADD ADD MSTORE DUP2 PUSH2 0xFFF DUP2 PUSH2 0x2AB4 JUMP JUMPDEST SWAP3 POP POP JUMPDEST DUP1 PUSH2 0x100D DUP2 PUSH2 0x2AB4 JUMP JUMPDEST SWAP2 POP POP PUSH2 0xF6F JUMP JUMPDEST POP PUSH1 0x0 DUP2 PUSH8 0xFFFFFFFFFFFFFFFF DUP2 GT ISZERO PUSH2 0x1031 JUMPI PUSH2 0x1031 PUSH2 0x24E4 JUMP JUMPDEST PUSH1 0x40 MLOAD SWAP1 DUP1 DUP3 MSTORE DUP1 PUSH1 0x20 MUL PUSH1 0x20 ADD DUP3 ADD PUSH1 0x40 MSTORE DUP1 ISZERO PUSH2 0x105A JUMPI DUP2 PUSH1 0x20 ADD PUSH1 0x20 DUP3 MUL DUP1 CALLDATASIZE DUP4 CALLDATACOPY ADD SWAP1 POP JUMPDEST POP SWAP1 POP PUSH1 0x0 JUMPDEST DUP3 DUP2 LT ISZERO PUSH2 0x10B1 JUMPI DUP4 DUP2 DUP2 MLOAD DUP2 LT PUSH2 0x107A JUMPI PUSH2 0x107A PUSH2 0x2BF7 JUMP JUMPDEST PUSH1 0x20 MUL PUSH1 0x20 ADD ADD MLOAD DUP3 DUP3 DUP2 MLOAD DUP2 LT PUSH2 0x1094 JUMPI PUSH2 0x1094 PUSH2 0x2BF7 JUMP JUMPDEST PUSH1 0x20 SWAP1 DUP2 MUL SWAP2 SWAP1 SWAP2 ADD ADD MSTORE DUP1 PUSH2 0x10A9 DUP2 PUSH2 0x2AB4 JUMP JUMPDEST SWAP2 POP POP PUSH2 0x1060 JUMP JUMPDEST POP SWAP4 SWAP3 POP POP POP JUMP JUMPDEST PUSH1 0x0 PUSH2 0x10C4 DUP2 PUSH2 0x1C88 JUMP JUMPDEST PUSH2 0xB8C PUSH2 0x1E15 JUMP JUMPDEST PUSH1 0x0 PUSH2 0x10D7 DUP2 PUSH2 0x1C88 JUMP JUMPDEST PUSH1 0x1 PUSH1 0x1 PUSH1 0xA0 SHL SUB DUP3 AND PUSH2 0x111F JUMPI PUSH1 0x40 MLOAD PUSH3 0x461BCD PUSH1 0xE5 SHL DUP2 MSTORE PUSH1 0x20 PUSH1 0x4 DUP3 ADD MSTORE PUSH1 0xF PUSH1 0x24 DUP3 ADD MSTORE PUSH15 0x496E76616C69642061646472657373 PUSH1 0x88 SHL PUSH1 0x44 DUP3 ADD MSTORE PUSH1 0x64 ADD PUSH2 0x526 JUMP JUMPDEST POP PUSH1 0x2 DUP1 SLOAD PUSH1 0x1 PUSH1 0x1 PUSH1 0xA0 SHL SUB SWAP1 SWAP3 AND PUSH2 0x100 MUL PUSH2 0x100 PUSH1 0x1 PUSH1 0xA8 SHL SUB NOT SWAP1 SWAP3 AND SWAP2 SWAP1 SWAP2 OR SWAP1 SSTORE JUMP JUMPDEST PUSH1 0x0 PUSH2 0x1152 PUSH2 0x1E52 JUMP JUMPDEST PUSH2 0x115A PUSH2 0x1C92 JUMP JUMPDEST PUSH1 0x0 DUP7 MLOAD GT PUSH2 0x11A1 JUMPI PUSH1 0x40 MLOAD PUSH3 0x461BCD PUSH1 0xE5 SHL DUP2 MSTORE PUSH1 0x20 PUSH1 0x4 DUP3 ADD MSTORE PUSH1 0x13 PUSH1 0x24 DUP3 ADD MSTORE PUSH19 0x141C9BDA9958DD081251081C995C5D5A5C9959 PUSH1 0x6A SHL PUSH1 0x44 DUP3 ADD MSTORE PUSH1 0x64 ADD PUSH2 0x526 JUMP JUMPDEST PUSH1 0x0 DUP6 MLOAD GT PUSH2 0x11EB JUMPI PUSH1 0x40 MLOAD PUSH3 0x461BCD PUSH1 0xE5 SHL DUP2 MSTORE PUSH1 0x20 PUSH1 0x4 DUP3 ADD MSTORE PUSH1 0x16 PUSH1 0x24 DUP3 ADD MSTORE PUSH22 0x115B5A5CDCDA5BDB8819185D18481C995C5D5A5C9959 PUSH1 0x52 SHL PUSH1 0x44 DUP3 ADD MSTORE PUSH1 0x64 ADD PUSH2 0x526 JUMP JUMPDEST PUSH1 0x0 DUP4 GT PUSH2 0x123B JUMPI PUSH1 0x40 MLOAD PUSH3 0x461BCD PUSH1 0xE5 SHL DUP2 MSTORE PUSH1 0x20 PUSH1 0x4 DUP3 ADD MSTORE PUSH1 0x1F PUSH1 0x24 DUP3 ADD MSTORE PUSH32 0x434F32206571756976616C656E74206D75737420626520706F73697469766500 PUSH1 0x44 DUP3 ADD MSTORE PUSH1 0x64 ADD PUSH2 0x526 JUMP JUMPDEST PUSH1 0x5 DUP7 PUSH1 0x40 MLOAD PUSH2 0x124B SWAP2 SWAP1 PUSH2 0x2BDB JUMP JUMPDEST SWAP1 DUP2 MSTORE PUSH1 0x20 ADD PUSH1 0x40 MLOAD DUP1 SWAP2 SUB SWAP1 KECCAK256 SLOAD PUSH1 0x0 EQ PUSH2 0x12B5 JUMPI PUSH1 0x40 MLOAD PUSH3 0x461BCD PUSH1 0xE5 SHL DUP2 MSTORE PUSH1 0x20 PUSH1 0x4 DUP3 ADD MSTORE PUSH1 0x23 PUSH1 0x24 DUP3 ADD MSTORE PUSH32 0x50726F6A65637420616C7265616479206861732070656E64696E672072657175 PUSH1 0x44 DUP3 ADD MSTORE PUSH3 0x195CDD PUSH1 0xEA SHL PUSH1 0x64 DUP3 ADD MSTORE PUSH1 0x84 ADD PUSH2 0x526 JUMP JUMPDEST PUSH1 0x0 JUMPDEST DUP6 MLOAD DUP2 LT ISZERO PUSH2 0x134A JUMPI PUSH1 0x0 PUSH1 0x3 PUSH1 0x0 DUP9 DUP5 DUP2 MLOAD DUP2 LT PUSH2 0x12D9 JUMPI PUSH2 0x12D9 PUSH2 0x2BF7 JUMP JUMPDEST PUSH1 0x20 MUL PUSH1 0x20 ADD ADD MLOAD DUP2 MSTORE PUSH1 0x20 ADD SWAP1 DUP2 MSTORE PUSH1 0x20 ADD PUSH1 0x0 KECCAK256 PUSH1 0x1 ADD SLOAD GT PUSH2 0x1338 JUMPI PUSH1 0x40 MLOAD PUSH3 0x461BCD PUSH1 0xE5 SHL DUP2 MSTORE PUSH1 0x20 PUSH1 0x4 DUP3 ADD MSTORE PUSH1 0x15 PUSH1 0x24 DUP3 ADD MSTORE PUSH21 0x496E76616C696420656D697373696F6E2064617461 PUSH1 0x58 SHL PUSH1 0x44 DUP3 ADD MSTORE PUSH1 0x64 ADD PUSH2 0x526 JUMP JUMPDEST DUP1 PUSH2 0x1342 DUP2 PUSH2 0x2AB4 JUMP JUMPDEST SWAP2 POP POP PUSH2 0x12B8 JUMP JUMPDEST POP PUSH1 0x8 DUP1 SLOAD SWAP1 PUSH1 0x0 PUSH2 0x135B DUP4 PUSH2 0x2AB4 JUMP JUMPDEST SWAP1 SWAP2 SSTORE POP POP PUSH1 0x8 SLOAD PUSH1 0x40 DUP1 MLOAD PUSH2 0x160 DUP2 ADD DUP3 MSTORE DUP3 DUP2 MSTORE PUSH1 0x20 DUP1 DUP3 ADD DUP11 DUP2 MSTORE DUP3 DUP5 ADD DUP11 SWAP1 MSTORE PUSH1 0x60 DUP4 ADD DUP10 SWAP1 MSTORE PUSH1 0x80 DUP4 ADD DUP9 SWAP1 MSTORE TIMESTAMP PUSH1 0xA0 DUP5 ADD MSTORE PUSH1 0x0 PUSH1 0xC0 DUP5 ADD DUP2 SWAP1 MSTORE CALLER PUSH1 0xE0 DUP6 ADD MSTORE PUSH2 0x100 DUP5 ADD DUP9 SWAP1 MSTORE PUSH2 0x120 DUP5 ADD DUP2 SWAP1 MSTORE DUP5 MLOAD DUP1 DUP5 ADD DUP7 MSTORE DUP2 DUP2 MSTORE PUSH2 0x140 DUP6 ADD MSTORE DUP6 DUP2 MSTORE PUSH1 0x4 SWAP1 SWAP3 MSTORE SWAP3 SWAP1 KECCAK256 DUP2 MLOAD DUP2 SSTORE SWAP2 MLOAD SWAP1 SWAP2 SWAP1 PUSH1 0x1 DUP3 ADD SWAP1 PUSH2 0x13E5 SWAP1 DUP3 PUSH2 0x2B1B JUMP JUMPDEST POP PUSH1 0x40 DUP3 ADD MLOAD DUP1 MLOAD PUSH2 0x1401 SWAP2 PUSH1 0x2 DUP5 ADD SWAP2 PUSH1 0x20 SWAP1 SWAP2 ADD SWAP1 PUSH2 0x2282 JUMP JUMPDEST POP PUSH1 0x60 DUP3 ADD MLOAD PUSH1 0x3 DUP3 ADD SWAP1 PUSH2 0x1416 SWAP1 DUP3 PUSH2 0x2B1B JUMP JUMPDEST POP PUSH1 0x80 DUP3 ADD MLOAD DUP2 PUSH1 0x4 ADD SSTORE PUSH1 0xA0 DUP3 ADD MLOAD DUP2 PUSH1 0x5 ADD SSTORE PUSH1 0xC0 DUP3 ADD MLOAD DUP2 PUSH1 0x6 ADD PUSH1 0x0 PUSH2 0x100 EXP DUP2 SLOAD DUP2 PUSH1 0xFF MUL NOT AND SWAP1 DUP4 PUSH1 0x4 DUP2 GT ISZERO PUSH2 0x1455 JUMPI PUSH2 0x1455 PUSH2 0x23B0 JUMP JUMPDEST MUL OR SWAP1 SSTORE POP PUSH1 0xE0 DUP3 ADD MLOAD PUSH1 0x6 DUP3 ADD DUP1 SLOAD PUSH2 0x100 PUSH1 0x1 PUSH1 0xA8 SHL SUB NOT AND PUSH2 0x100 PUSH1 0x1 PUSH1 0x1 PUSH1 0xA0 SHL SUB SWAP1 SWAP4 AND DUP4 MUL OR SWAP1 SSTORE DUP3 ADD MLOAD PUSH1 0x7 DUP3 ADD SWAP1 PUSH2 0x1495 SWAP1 DUP3 PUSH2 0x2B1B JUMP JUMPDEST POP PUSH2 0x120 DUP3 ADD MLOAD PUSH1 0x8 DUP3 ADD SSTORE PUSH2 0x140 DUP3 ADD MLOAD PUSH1 0x9 DUP3 ADD SWAP1 PUSH2 0x14B6 SWAP1 DUP3 PUSH2 0x2B1B JUMP JUMPDEST POP SWAP1 POP POP DUP1 PUSH1 0x5 DUP9 PUSH1 0x40 MLOAD PUSH2 0x14CB SWAP2 SWAP1 PUSH2 0x2BDB JUMP JUMPDEST SWAP1 DUP2 MSTORE PUSH1 0x40 MLOAD SWAP1 DUP2 SWAP1 SUB PUSH1 0x20 ADD DUP2 KECCAK256 SWAP2 SWAP1 SWAP2 SSTORE CALLER SWAP1 PUSH2 0x14EB SWAP1 DUP10 SWAP1 PUSH2 0x2BDB JUMP JUMPDEST PUSH1 0x40 MLOAD SWAP1 DUP2 SWAP1 SUB DUP2 KECCAK256 SWAP1 DUP4 SWAP1 PUSH32 0xD8772F50F014E5B02C03C9358DE8DD171A9ABB9BE51B416F7C4DBFD4D16B6E1B SWAP1 PUSH1 0x0 SWAP1 LOG4 SWAP1 POP PUSH2 0x1528 PUSH1 0x1 DUP1 SSTORE JUMP JUMPDEST SWAP6 SWAP5 POP POP POP POP POP JUMP JUMPDEST PUSH1 0x0 SWAP2 DUP3 MSTORE PUSH1 0x20 DUP3 DUP2 MSTORE PUSH1 0x40 DUP1 DUP5 KECCAK256 PUSH1 0x1 PUSH1 0x1 PUSH1 0xA0 SHL SUB SWAP4 SWAP1 SWAP4 AND DUP5 MSTORE SWAP2 SWAP1 MSTORE SWAP1 KECCAK256 SLOAD PUSH1 0xFF AND SWAP1 JUMP JUMPDEST PUSH1 0x3 PUSH1 0x20 MSTORE PUSH1 0x0 SWAP1 DUP2 MSTORE PUSH1 0x40 SWAP1 KECCAK256 DUP1 SLOAD DUP2 SWAP1 PUSH2 0x1575 SWAP1 PUSH2 0x2A64 JUMP JUMPDEST DUP1 PUSH1 0x1F ADD PUSH1 0x20 DUP1 SWAP2 DIV MUL PUSH1 0x20 ADD PUSH1 0x40 MLOAD SWAP1 DUP2 ADD PUSH1 0x40 MSTORE DUP1 SWAP3 SWAP2 SWAP1 DUP2 DUP2 MSTORE PUSH1 0x20 ADD DUP3 DUP1 SLOAD PUSH2 0x15A1 SWAP1 PUSH2 0x2A64 JUMP JUMPDEST DUP1 ISZERO PUSH2 0x15EE JUMPI DUP1 PUSH1 0x1F LT PUSH2 0x15C3 JUMPI PUSH2 0x100 DUP1 DUP4 SLOAD DIV MUL DUP4 MSTORE SWAP2 PUSH1 0x20 ADD SWAP2 PUSH2 0x15EE JUMP JUMPDEST DUP3 ADD SWAP2 SWAP1 PUSH1 0x0 MSTORE PUSH1 0x20 PUSH1 0x0 KECCAK256 SWAP1 JUMPDEST DUP2 SLOAD DUP2 MSTORE SWAP1 PUSH1 0x1 ADD SWAP1 PUSH1 0x20 ADD DUP1 DUP4 GT PUSH2 0x15D1 JUMPI DUP3 SWAP1 SUB PUSH1 0x1F AND DUP3 ADD SWAP2 JUMPDEST POP POP POP POP POP SWAP1 DUP1 PUSH1 0x1 ADD SLOAD SWAP1 DUP1 PUSH1 0x2 ADD SLOAD SWAP1 DUP1 PUSH1 0x3 ADD SLOAD SWAP1 DUP1 PUSH1 0x4 ADD DUP1 SLOAD PUSH2 0x1615 SWAP1 PUSH2 0x2A64 JUMP JUMPDEST DUP1 PUSH1 0x1F ADD PUSH1 0x20 DUP1 SWAP2 DIV MUL PUSH1 0x20 ADD PUSH1 0x40 MLOAD SWAP1 DUP2 ADD PUSH1 0x40 MSTORE DUP1 SWAP3 SWAP2 SWAP1 DUP2 DUP2 MSTORE PUSH1 0x20 ADD DUP3 DUP1 SLOAD PUSH2 0x1641 SWAP1 PUSH2 0x2A64 JUMP JUMPDEST DUP1 ISZERO PUSH2 0x168E JUMPI DUP1 PUSH1 0x1F LT PUSH2 0x1663 JUMPI PUSH2 0x100 DUP1 DUP4 SLOAD DIV MUL DUP4 MSTORE SWAP2 PUSH1 0x20 ADD SWAP2 PUSH2 0x168E JUMP JUMPDEST DUP3 ADD SWAP2 SWAP1 PUSH1 0x0 MSTORE PUSH1 0x20 PUSH1 0x0 KECCAK256 SWAP1 JUMPDEST DUP2 SLOAD DUP2 MSTORE SWAP1 PUSH1 0x1 ADD SWAP1 PUSH1 0x20 ADD DUP1 DUP4 GT PUSH2 0x1671 JUMPI DUP3 SWAP1 SUB PUSH1 0x1F AND DUP3 ADD SWAP2 JUMPDEST POP POP POP PUSH1 0x5 SWAP1 SWAP4 ADD SLOAD SWAP2 SWAP3 POP POP PUSH1 0xFF DUP2 AND SWAP1 PUSH1 0x1 PUSH1 0x1 PUSH1 0xA0 SHL SUB PUSH2 0x100 SWAP1 SWAP2 DIV AND DUP8 JUMP JUMPDEST PUSH2 0x16FD PUSH1 0x40 MLOAD DUP1 PUSH1 0xE0 ADD PUSH1 0x40 MSTORE DUP1 PUSH1 0x60 DUP2 MSTORE PUSH1 0x20 ADD PUSH1 0x0 DUP2 MSTORE PUSH1 0x20 ADD PUSH1 0x0 DUP2 MSTORE PUSH1 0x20 ADD PUSH1 0x0 DUP2 MSTORE PUSH1 0x20 ADD PUSH1 0x60 DUP2 MSTORE PUSH1 0x20 ADD PUSH1 0x0 ISZERO ISZERO DUP2 MSTORE PUSH1 0x20 ADD PUSH1 0x0 PUSH1 0x1 PUSH1 0x1 PUSH1 0xA0 SHL SUB AND DUP2 MSTORE POP SWAP1 JUMP JUMPDEST PUSH1 0x7 SLOAD DUP3 GT ISZERO PUSH2 0x1741 JUMPI PUSH1 0x40 MLOAD PUSH3 0x461BCD PUSH1 0xE5 SHL DUP2 MSTORE PUSH1 0x20 PUSH1 0x4 DUP3 ADD MSTORE PUSH1 0xF PUSH1 0x24 DUP3 ADD MSTORE PUSH15 0x125B9D985B1A590819185D18481251 PUSH1 0x8A SHL PUSH1 0x44 DUP3 ADD MSTORE PUSH1 0x64 ADD PUSH2 0x526 JUMP JUMPDEST PUSH1 0x0 DUP3 DUP2 MSTORE PUSH1 0x3 PUSH1 0x20 MSTORE PUSH1 0x40 SWAP1 DUP2 SWAP1 KECCAK256 DUP2 MLOAD PUSH1 0xE0 DUP2 ADD SWAP1 SWAP3 MSTORE DUP1 SLOAD DUP3 SWAP1 DUP3 SWAP1 PUSH2 0x1769 SWAP1 PUSH2 0x2A64 JUMP JUMPDEST DUP1 PUSH1 0x1F ADD PUSH1 0x20 DUP1 SWAP2 DIV MUL PUSH1 0x20 ADD PUSH1 0x40 MLOAD SWAP1 DUP2 ADD PUSH1 0x40 MSTORE DUP1 SWAP3 SWAP2 SWAP1 DUP2 DUP2 MSTORE PUSH1 0x20 ADD DUP3 DUP1 SLOAD PUSH2 0x1795 SWAP1 PUSH2 0x2A64 JUMP JUMPDEST DUP1 ISZERO PUSH2 0x17E2 JUMPI DUP1 PUSH1 0x1F LT PUSH2 0x17B7 JUMPI PUSH2 0x100 DUP1 DUP4 SLOAD DIV MUL DUP4 MSTORE SWAP2 PUSH1 0x20 ADD SWAP2 PUSH2 0x17E2 JUMP JUMPDEST DUP3 ADD SWAP2 SWAP1 PUSH1 0x0 MSTORE PUSH1 0x20 PUSH1 0x0 KECCAK256 SWAP1 JUMPDEST DUP2 SLOAD DUP2 MSTORE SWAP1 PUSH1 0x1 ADD SWAP1 PUSH1 0x20 ADD DUP1 DUP4 GT PUSH2 0x17C5 JUMPI DUP3 SWAP1 SUB PUSH1 0x1F AND DUP3 ADD SWAP2 JUMPDEST POP POP POP POP POP DUP2 MSTORE PUSH1 0x20 ADD PUSH1 0x1 DUP3 ADD SLOAD DUP2 MSTORE PUSH1 0x20 ADD PUSH1 0x2 DUP3 ADD SLOAD DUP2 MSTORE PUSH1 0x20 ADD PUSH1 0x3 DUP3 ADD SLOAD DUP2 MSTORE PUSH1 0x20 ADD PUSH1 0x4 DUP3 ADD DUP1 SLOAD PUSH2 0x1819 SWAP1 PUSH2 0x2A64 JUMP JUMPDEST DUP1 PUSH1 0x1F ADD PUSH1 0x20 DUP1 SWAP2 DIV MUL PUSH1 0x20 ADD PUSH1 0x40 MLOAD SWAP1 DUP2 ADD PUSH1 0x40 MSTORE DUP1 SWAP3 SWAP2 SWAP1 DUP2 DUP2 MSTORE PUSH1 0x20 ADD DUP3 DUP1 SLOAD PUSH2 0x1845 SWAP1 PUSH2 0x2A64 JUMP JUMPDEST DUP1 ISZERO PUSH2 0x1892 JUMPI DUP1 PUSH1 0x1F LT PUSH2 0x1867 JUMPI PUSH2 0x100 DUP1 DUP4 SLOAD DIV MUL DUP4 MSTORE SWAP2 PUSH1 0x20 ADD SWAP2 PUSH2 0x1892 JUMP JUMPDEST DUP3 ADD SWAP2 SWAP1 PUSH1 0x0 MSTORE PUSH1 0x20 PUSH1 0x0 KECCAK256 SWAP1 JUMPDEST DUP2 SLOAD DUP2 MSTORE SWAP1 PUSH1 0x1 ADD SWAP1 PUSH1 0x20 ADD DUP1 DUP4 GT PUSH2 0x1875 JUMPI DUP3 SWAP1 SUB PUSH1 0x1F AND DUP3 ADD SWAP2 JUMPDEST POP POP POP SWAP2 DUP4 MSTORE POP POP PUSH1 0x5 SWAP2 SWAP1 SWAP2 ADD SLOAD PUSH1 0xFF DUP2 AND ISZERO ISZERO PUSH1 0x20 DUP4 ADD MSTORE PUSH2 0x100 SWAP1 DIV PUSH1 0x1 PUSH1 0x1 PUSH1 0xA0 SHL SUB AND PUSH1 0x40 SWAP1 SWAP2 ADD MSTORE SWAP3 SWAP2 POP POP JUMP JUMPDEST PUSH1 0x6 PUSH1 0x20 MSTORE DUP2 PUSH1 0x0 MSTORE PUSH1 0x40 PUSH1 0x0 KECCAK256 DUP2 DUP2 SLOAD DUP2 LT PUSH2 0x18E2 JUMPI PUSH1 0x0 DUP1 REVERT JUMPDEST SWAP1 PUSH1 0x0 MSTORE PUSH1 0x20 PUSH1 0x0 KECCAK256 ADD PUSH1 0x0 SWAP2 POP SWAP2 POP POP SLOAD DUP2 JUMP JUMPDEST PUSH1 0x0 DUP3 DUP2 MSTORE PUSH1 0x20 DUP2 SWAP1 MSTORE PUSH1 0x40 SWAP1 KECCAK256 PUSH1 0x1 ADD SLOAD PUSH2 0x1912 DUP2 PUSH2 0x1C88 JUMP JUMPDEST PUSH2 0xAF6 DUP4 DUP4 PUSH2 0x1D5E JUMP JUMPDEST PUSH32 0x4516A438D7A6EA0A767AB73178FF354A6680D6F5121DA52D484005AB1EC308B PUSH2 0x1946 DUP2 PUSH2 0x1C88 JUMP JUMPDEST PUSH1 0x8 SLOAD DUP5 GT ISZERO PUSH2 0x1968 JUMPI PUSH1 0x40 MLOAD PUSH3 0x461BCD PUSH1 0xE5 SHL DUP2 MSTORE PUSH1 0x4 ADD PUSH2 0x526 SWAP1 PUSH2 0x2A38 JUMP JUMPDEST PUSH1 0x0 DUP5 DUP2 MSTORE PUSH1 0x4 PUSH1 0x20 MSTORE PUSH1 0x40 DUP2 KECCAK256 SWAP1 PUSH1 0x6 DUP3 ADD SLOAD PUSH1 0xFF AND PUSH1 0x4 DUP2 GT ISZERO PUSH2 0x1990 JUMPI PUSH2 0x1990 PUSH2 0x23B0 JUMP JUMPDEST EQ PUSH2 0x19D3 JUMPI PUSH1 0x40 MLOAD PUSH3 0x461BCD PUSH1 0xE5 SHL DUP2 MSTORE PUSH1 0x20 PUSH1 0x4 DUP3 ADD MSTORE PUSH1 0x13 PUSH1 0x24 DUP3 ADD MSTORE PUSH19 0x52657175657374206E6F742070656E64696E67 PUSH1 0x68 SHL PUSH1 0x44 DUP3 ADD MSTORE PUSH1 0x64 ADD PUSH2 0x526 JUMP JUMPDEST PUSH1 0x64 DUP5 GT ISZERO PUSH2 0x1A17 JUMPI PUSH1 0x40 MLOAD PUSH3 0x461BCD PUSH1 0xE5 SHL DUP2 MSTORE PUSH1 0x20 PUSH1 0x4 DUP3 ADD MSTORE PUSH1 0x10 PUSH1 0x24 DUP3 ADD MSTORE PUSH16 0x496E76616C69642041492073636F7265 PUSH1 0x80 SHL PUSH1 0x44 DUP3 ADD MSTORE PUSH1 0x64 ADD PUSH2 0x526 JUMP JUMPDEST PUSH1 0x0 DUP4 MLOAD GT PUSH2 0x1A68 JUMPI PUSH1 0x40 MLOAD PUSH3 0x461BCD PUSH1 0xE5 SHL DUP2 MSTORE PUSH1 0x20 PUSH1 0x4 DUP3 ADD MSTORE PUSH1 0x19 PUSH1 0x24 DUP3 ADD MSTORE PUSH32 0x414920616E616C79736973206861736820726571756972656400000000000000 PUSH1 0x44 DUP3 ADD MSTORE PUSH1 0x64 ADD PUSH2 0x526 JUMP JUMPDEST PUSH1 0x8 DUP2 ADD DUP5 SWAP1 SSTORE PUSH1 0x9 DUP2 ADD PUSH2 0x1A7D DUP5 DUP3 PUSH2 0x2B1B JUMP JUMPDEST POP PUSH1 0x6 DUP2 ADD DUP1 SLOAD PUSH1 0xFF NOT AND PUSH1 0x1 OR SWAP1 SSTORE PUSH1 0x40 MLOAD DUP6 SWAP1 PUSH32 0x4D524ACF354732B975E86852D5A71731B2A470216C6AD9B64C5525E91D7008FA SWAP1 PUSH2 0x1AC1 SWAP1 DUP8 SWAP1 DUP8 SWAP1 PUSH2 0x2C0D JUMP JUMPDEST PUSH1 0x40 MLOAD DUP1 SWAP2 SUB SWAP1 LOG2 PUSH1 0x5A DUP5 LT PUSH2 0x1ADF JUMPI PUSH2 0x1ADA DUP6 PUSH2 0x1EAB JUMP JUMPDEST PUSH2 0x1AF8 JUMP JUMPDEST PUSH1 0x3C DUP5 LT ISZERO PUSH2 0x1AF8 JUMPI PUSH1 0x6 DUP2 ADD DUP1 SLOAD PUSH1 0xFF NOT AND PUSH1 0x3 OR SWAP1 SSTORE JUMPDEST POP POP POP POP POP JUMP JUMPDEST PUSH32 0x68E79A7BF1E0BC45D0A330C573BC367F9CF464FD326078812F301165FBDA4EF1 PUSH2 0x1B29 DUP2 PUSH2 0x1C88 JUMP JUMPDEST PUSH1 0x8 SLOAD DUP4 GT ISZERO PUSH2 0x1B4B JUMPI PUSH1 0x40 MLOAD PUSH3 0x461BCD PUSH1 0xE5 SHL DUP2 MSTORE PUSH1 0x4 ADD PUSH2 0x526 SWAP1 PUSH2 0x2A38 JUMP JUMPDEST PUSH1 0x0 DUP4 DUP2 MSTORE PUSH1 0x4 PUSH1 0x20 MSTORE PUSH1 0x40 SWAP1 KECCAK256 PUSH1 0x1 PUSH1 0x6 DUP3 ADD SLOAD PUSH1 0xFF AND PUSH1 0x4 DUP2 GT ISZERO PUSH2 0x1B74 JUMPI PUSH2 0x1B74 PUSH2 0x23B0 JUMP JUMPDEST EQ DUP1 PUSH2 0x1B98 JUMPI POP PUSH1 0x0 PUSH1 0x6 DUP3 ADD SLOAD PUSH1 0xFF AND PUSH1 0x4 DUP2 GT ISZERO PUSH2 0x1B96 JUMPI PUSH2 0x1B96 PUSH2 0x23B0 JUMP JUMPDEST EQ JUMPDEST PUSH2 0x1BF2 JUMPI PUSH1 0x40 MLOAD PUSH3 0x461BCD PUSH1 0xE5 SHL DUP2 MSTORE PUSH1 0x20 PUSH1 0x4 DUP3 ADD MSTORE PUSH1 0x25 PUSH1 0x24 DUP3 ADD MSTORE PUSH32 0x496E76616C69642073746174757320666F722068756D616E2076657269666963 PUSH1 0x44 DUP3 ADD MSTORE PUSH5 0x30BA34B7B7 PUSH1 0xD9 SHL PUSH1 0x64 DUP3 ADD MSTORE PUSH1 0x84 ADD PUSH2 0x526 JUMP JUMPDEST DUP3 ISZERO PUSH2 0x1C06 JUMPI PUSH2 0x1C01 DUP5 PUSH2 0x1EAB JUMP JUMPDEST PUSH2 0x1C16 JUMP JUMPDEST PUSH1 0x6 DUP2 ADD DUP1 SLOAD PUSH1 0xFF NOT AND PUSH1 0x3 OR SWAP1 SSTORE JUMPDEST POP POP POP POP JUMP JUMPDEST PUSH1 0x1 PUSH1 0x1 PUSH1 0xA0 SHL SUB DUP2 AND PUSH1 0x0 SWAP1 DUP2 MSTORE PUSH1 0x6 PUSH1 0x20 SWAP1 DUP2 MSTORE PUSH1 0x40 SWAP2 DUP3 SWAP1 KECCAK256 DUP1 SLOAD DUP4 MLOAD DUP2 DUP5 MUL DUP2 ADD DUP5 ADD SWAP1 SWAP5 MSTORE DUP1 DUP5 MSTORE PUSH1 0x60 SWAP4 SWAP3 DUP4 ADD DUP3 DUP3 DUP1 ISZERO PUSH2 0x1C7C JUMPI PUSH1 0x20 MUL DUP3 ADD SWAP2 SWAP1 PUSH1 0x0 MSTORE PUSH1 0x20 PUSH1 0x0 KECCAK256 SWAP1 JUMPDEST DUP2 SLOAD DUP2 MSTORE PUSH1 0x20 ADD SWAP1 PUSH1 0x1 ADD SWAP1 DUP1 DUP4 GT PUSH2 0x1C68 JUMPI JUMPDEST POP POP POP POP POP SWAP1 POP SWAP2 SWAP1 POP JUMP JUMPDEST PUSH2 0xB8C DUP2 CALLER PUSH2 0x1FB7 JUMP JUMPDEST PUSH1 0x2 SLOAD PUSH1 0xFF AND ISZERO PUSH2 0x1CD8 JUMPI PUSH1 0x40 MLOAD PUSH3 0x461BCD PUSH1 0xE5 SHL DUP2 MSTORE PUSH1 0x20 PUSH1 0x4 DUP3 ADD MSTORE PUSH1 0x10 PUSH1 0x24 DUP3 ADD MSTORE PUSH16 0x14185D5CD8589B194E881C185D5CD959 PUSH1 0x82 SHL PUSH1 0x44 DUP3 ADD MSTORE PUSH1 0x64 ADD PUSH2 0x526 JUMP JUMPDEST JUMP JUMPDEST PUSH2 0x1CE4 DUP3 DUP3 PUSH2 0x1531 JUMP JUMPDEST PUSH2 0xB75 JUMPI PUSH1 0x0 DUP3 DUP2 MSTORE PUSH1 0x20 DUP2 DUP2 MSTORE PUSH1 0x40 DUP1 DUP4 KECCAK256 PUSH1 0x1 PUSH1 0x1 PUSH1 0xA0 SHL SUB DUP6 AND DUP5 MSTORE SWAP1 SWAP2 MSTORE SWAP1 KECCAK256 DUP1 SLOAD PUSH1 0xFF NOT AND PUSH1 0x1 OR SWAP1 SSTORE PUSH2 0x1D1A CALLER SWAP1 JUMP JUMPDEST PUSH1 0x1 PUSH1 0x1 PUSH1 0xA0 SHL SUB AND DUP2 PUSH1 0x1 PUSH1 0x1 PUSH1 0xA0 SHL SUB AND DUP4 PUSH32 0x2F8788117E7EFF1D82E926EC794901D17C78024A50270940304540A733656F0D PUSH1 0x40 MLOAD PUSH1 0x40 MLOAD DUP1 SWAP2 SUB SWAP1 LOG4 POP POP JUMP JUMPDEST PUSH2 0x1D68 DUP3 DUP3 PUSH2 0x1531 JUMP JUMPDEST ISZERO PUSH2 0xB75 JUMPI PUSH1 0x0 DUP3 DUP2 MSTORE PUSH1 0x20 DUP2 DUP2 MSTORE PUSH1 0x40 DUP1 DUP4 KECCAK256 PUSH1 0x1 PUSH1 0x1 PUSH1 0xA0 SHL SUB DUP6 AND DUP1 DUP6 MSTORE SWAP3 MSTORE DUP1 DUP4 KECCAK256 DUP1 SLOAD PUSH1 0xFF NOT AND SWAP1 SSTORE MLOAD CALLER SWAP3 DUP6 SWAP2 PUSH32 0xF6391F5C32D9C69D2A47EA670B442974B53935D1EDC7FD64EB21E047A839171B SWAP2 SWAP1 LOG4 POP POP JUMP JUMPDEST PUSH2 0x1DCB PUSH2 0x2010 JUMP JUMPDEST PUSH1 0x2 DUP1 SLOAD PUSH1 0xFF NOT AND SWAP1 SSTORE PUSH32 0x5DB9EE0A495BF2E6FF9C91A7834C1BA4FDD244A5E8AA4E537BD38AEAE4B073AA CALLER JUMPDEST PUSH1 0x40 MLOAD PUSH1 0x1 PUSH1 0x1 PUSH1 0xA0 SHL SUB SWAP1 SWAP2 AND DUP2 MSTORE PUSH1 0x20 ADD PUSH1 0x40 MLOAD DUP1 SWAP2 SUB SWAP1 LOG1 JUMP JUMPDEST PUSH2 0x1E1D PUSH2 0x1C92 JUMP JUMPDEST PUSH1 0x2 DUP1 SLOAD PUSH1 0xFF NOT AND PUSH1 0x1 OR SWAP1 SSTORE PUSH32 0x62E78CEA01BEE320CD4E420270B5EA74000D11B0C9F74754EBDBFC544B05A258 PUSH2 0x1DF8 CALLER SWAP1 JUMP JUMPDEST PUSH1 0x2 PUSH1 0x1 SLOAD SUB PUSH2 0x1EA4 JUMPI PUSH1 0x40 MLOAD PUSH3 0x461BCD PUSH1 0xE5 SHL DUP2 MSTORE PUSH1 0x20 PUSH1 0x4 DUP3 ADD MSTORE PUSH1 0x1F PUSH1 0x24 DUP3 ADD MSTORE PUSH32 0x5265656E7472616E637947756172643A207265656E7472616E742063616C6C00 PUSH1 0x44 DUP3 ADD MSTORE PUSH1 0x64 ADD PUSH2 0x526 JUMP JUMPDEST PUSH1 0x2 PUSH1 0x1 SSTORE JUMP JUMPDEST PUSH1 0x0 DUP2 DUP2 MSTORE PUSH1 0x4 PUSH1 0x20 DUP2 SWAP1 MSTORE PUSH1 0x40 DUP3 KECCAK256 SWAP1 DUP2 ADD SLOAD SWAP1 SWAP2 PUSH2 0x1ECF TIMESTAMP PUSH4 0x12CC0300 PUSH2 0x2C26 JUMP JUMPDEST PUSH1 0x2 SLOAD PUSH1 0x4 DUP6 DUP2 ADD SLOAD PUSH1 0x40 MLOAD PUSH4 0x757044F PUSH1 0xE2 SHL DUP2 MSTORE SWAP4 SWAP5 POP PUSH2 0x100 SWAP1 SWAP3 DIV PUSH1 0x1 PUSH1 0x1 PUSH1 0xA0 SHL SUB AND SWAP3 PUSH4 0x1D5C113C SWAP3 PUSH2 0x1F1C SWAP3 PUSH1 0x1 DUP10 ADD SWAP3 PUSH1 0x3 DUP11 ADD SWAP3 SWAP2 DUP9 SWAP2 PUSH1 0x7 DUP13 ADD SWAP2 DUP12 SWAP2 ADD PUSH2 0x2CB6 JUMP JUMPDEST PUSH1 0x0 PUSH1 0x40 MLOAD DUP1 DUP4 SUB DUP2 PUSH1 0x0 DUP8 DUP1 EXTCODESIZE ISZERO DUP1 ISZERO PUSH2 0x1F36 JUMPI PUSH1 0x0 DUP1 REVERT JUMPDEST POP GAS CALL ISZERO DUP1 ISZERO PUSH2 0x1F4A JUMPI RETURNDATASIZE PUSH1 0x0 DUP1 RETURNDATACOPY RETURNDATASIZE PUSH1 0x0 REVERT JUMPDEST POP POP POP POP PUSH1 0x6 DUP4 ADD DUP1 SLOAD PUSH1 0xFF NOT AND PUSH1 0x4 OR SWAP1 SSTORE PUSH1 0x40 MLOAD PUSH2 0x1F6E SWAP1 PUSH1 0x1 DUP6 ADD SWAP1 PUSH2 0x2D0F JUMP JUMPDEST PUSH1 0x40 MLOAD DUP1 SWAP2 SUB SWAP1 KECCAK256 DUP5 PUSH32 0xD486BACAA6124074407C4C8D461CCEDA936209BC2B56E9173B9BD622A27F1398 PUSH1 0x0 PUSH1 0x40 MLOAD PUSH2 0x1FA9 SWAP2 DUP2 MSTORE PUSH1 0x20 ADD SWAP1 JUMP JUMPDEST PUSH1 0x40 MLOAD DUP1 SWAP2 SUB SWAP1 LOG3 POP POP POP POP JUMP JUMPDEST PUSH2 0x1FC1 DUP3 DUP3 PUSH2 0x1531 JUMP JUMPDEST PUSH2 0xB75 JUMPI PUSH2 0x1FCE DUP2 PUSH2 0x2059 JUMP JUMPDEST PUSH2 0x1FD9 DUP4 PUSH1 0x20 PUSH2 0x206B JUMP JUMPDEST PUSH1 0x40 MLOAD PUSH1 0x20 ADD PUSH2 0x1FEA SWAP3 SWAP2 SWAP1 PUSH2 0x2D85 JUMP JUMPDEST PUSH1 0x40 DUP1 MLOAD PUSH1 0x1F NOT DUP2 DUP5 SUB ADD DUP2 MSTORE SWAP1 DUP3 SWAP1 MSTORE PUSH3 0x461BCD PUSH1 0xE5 SHL DUP3 MSTORE PUSH2 0x526 SWAP2 PUSH1 0x4 ADD PUSH2 0x2DFA JUMP JUMPDEST PUSH1 0x2 SLOAD PUSH1 0xFF AND PUSH2 0x1CD8 JUMPI PUSH1 0x40 MLOAD PUSH3 0x461BCD PUSH1 0xE5 SHL DUP2 MSTORE PUSH1 0x20 PUSH1 0x4 DUP3 ADD MSTORE PUSH1 0x14 PUSH1 0x24 DUP3 ADD MSTORE PUSH20 0x14185D5CD8589B194E881B9BDD081C185D5CD959 PUSH1 0x62 SHL PUSH1 0x44 DUP3 ADD MSTORE PUSH1 0x64 ADD PUSH2 0x526 JUMP JUMPDEST PUSH1 0x60 PUSH2 0x4F6 PUSH1 0x1 PUSH1 0x1 PUSH1 0xA0 SHL SUB DUP4 AND PUSH1 0x14 JUMPDEST PUSH1 0x60 PUSH1 0x0 PUSH2 0x207A DUP4 PUSH1 0x2 PUSH2 0x2E0D JUMP JUMPDEST PUSH2 0x2085 SWAP1 PUSH1 0x2 PUSH2 0x2C26 JUMP JUMPDEST PUSH8 0xFFFFFFFFFFFFFFFF DUP2 GT ISZERO PUSH2 0x209D JUMPI PUSH2 0x209D PUSH2 0x24E4 JUMP JUMPDEST PUSH1 0x40 MLOAD SWAP1 DUP1 DUP3 MSTORE DUP1 PUSH1 0x1F ADD PUSH1 0x1F NOT AND PUSH1 0x20 ADD DUP3 ADD PUSH1 0x40 MSTORE DUP1 ISZERO PUSH2 0x20C7 JUMPI PUSH1 0x20 DUP3 ADD DUP2 DUP1 CALLDATASIZE DUP4 CALLDATACOPY ADD SWAP1 POP JUMPDEST POP SWAP1 POP PUSH1 0x3 PUSH1 0xFC SHL DUP2 PUSH1 0x0 DUP2 MLOAD DUP2 LT PUSH2 0x20E2 JUMPI PUSH2 0x20E2 PUSH2 0x2BF7 JUMP JUMPDEST PUSH1 0x20 ADD ADD SWAP1 PUSH1 0x1 PUSH1 0x1 PUSH1 0xF8 SHL SUB NOT AND SWAP1 DUP2 PUSH1 0x0 BYTE SWAP1 MSTORE8 POP PUSH1 0xF PUSH1 0xFB SHL DUP2 PUSH1 0x1 DUP2 MLOAD DUP2 LT PUSH2 0x2111 JUMPI PUSH2 0x2111 PUSH2 0x2BF7 JUMP JUMPDEST PUSH1 0x20 ADD ADD SWAP1 PUSH1 0x1 PUSH1 0x1 PUSH1 0xF8 SHL SUB NOT AND SWAP1 DUP2 PUSH1 0x0 BYTE SWAP1 MSTORE8 POP PUSH1 0x0 PUSH2 0x2135 DUP5 PUSH1 0x2 PUSH2 0x2E0D JUMP JUMPDEST PUSH2 0x2140 SWAP1 PUSH1 0x1 PUSH2 0x2C26 JUMP JUMPDEST SWAP1 POP JUMPDEST PUSH1 0x1 DUP2 GT ISZERO PUSH2 0x21B8 JUMPI PUSH16 0x181899199A1A9B1B9C1CB0B131B232B3 PUSH1 0x81 SHL DUP6 PUSH1 0xF AND PUSH1 0x10 DUP2 LT PUSH2 0x2174 JUMPI PUSH2 0x2174 PUSH2 0x2BF7 JUMP JUMPDEST BYTE PUSH1 0xF8 SHL DUP3 DUP3 DUP2 MLOAD DUP2 LT PUSH2 0x218A JUMPI PUSH2 0x218A PUSH2 0x2BF7 JUMP JUMPDEST PUSH1 0x20 ADD ADD SWAP1 PUSH1 0x1 PUSH1 0x1 PUSH1 0xF8 SHL SUB NOT AND SWAP1 DUP2 PUSH1 0x0 BYTE SWAP1 MSTORE8 POP PUSH1 0x4 SWAP5 SWAP1 SWAP5 SHR SWAP4 PUSH2 0x21B1 DUP2 PUSH2 0x2E24 JUMP JUMPDEST SWAP1 POP PUSH2 0x2143 JUMP JUMPDEST POP DUP4 ISZERO PUSH2 0x2207 JUMPI PUSH1 0x40 MLOAD PUSH3 0x461BCD PUSH1 0xE5 SHL DUP2 MSTORE PUSH1 0x20 PUSH1 0x4 DUP3 ADD DUP2 SWAP1 MSTORE PUSH1 0x24 DUP3 ADD MSTORE PUSH32 0x537472696E67733A20686578206C656E67746820696E73756666696369656E74 PUSH1 0x44 DUP3 ADD MSTORE PUSH1 0x64 ADD PUSH2 0x526 JUMP JUMPDEST SWAP4 SWAP3 POP POP POP JUMP JUMPDEST PUSH1 0x40 MLOAD DUP1 PUSH2 0x160 ADD PUSH1 0x40 MSTORE DUP1 PUSH1 0x0 DUP2 MSTORE PUSH1 0x20 ADD PUSH1 0x60 DUP2 MSTORE PUSH1 0x20 ADD PUSH1 0x60 DUP2 MSTORE PUSH1 0x20 ADD PUSH1 0x60 DUP2 MSTORE PUSH1 0x20 ADD PUSH1 0x0 DUP2 MSTORE PUSH1 0x20 ADD PUSH1 0x0 DUP2 MSTORE PUSH1 0x20 ADD PUSH1 0x0 PUSH1 0x4 DUP2 GT ISZERO PUSH2 0x2257 JUMPI PUSH2 0x2257 PUSH2 0x23B0 JUMP JUMPDEST DUP2 MSTORE PUSH1 0x20 ADD PUSH1 0x0 PUSH1 0x1 PUSH1 0x1 PUSH1 0xA0 SHL SUB AND DUP2 MSTORE PUSH1 0x20 ADD PUSH1 0x60 DUP2 MSTORE PUSH1 0x20 ADD PUSH1 0x0 DUP2 MSTORE PUSH1 0x20 ADD PUSH1 0x60 DUP2 MSTORE POP SWAP1 JUMP JUMPDEST DUP3 DUP1 SLOAD DUP3 DUP3 SSTORE SWAP1 PUSH1 0x0 MSTORE PUSH1 0x20 PUSH1 0x0 KECCAK256 SWAP1 DUP2 ADD SWAP3 DUP3 ISZERO PUSH2 0x22BD JUMPI SWAP2 PUSH1 0x20 MUL DUP3 ADD JUMPDEST DUP3 DUP2 GT ISZERO PUSH2 0x22BD JUMPI DUP3 MLOAD DUP3 SSTORE SWAP2 PUSH1 0x20 ADD SWAP2 SWAP1 PUSH1 0x1 ADD SWAP1 PUSH2 0x22A2 JUMP JUMPDEST POP PUSH2 0x22C9 SWAP3 SWAP2 POP PUSH2 0x22CD JUMP JUMPDEST POP SWAP1 JUMP JUMPDEST JUMPDEST DUP1 DUP3 GT ISZERO PUSH2 0x22C9 JUMPI PUSH1 0x0 DUP2 SSTORE PUSH1 0x1 ADD PUSH2 0x22CE JUMP JUMPDEST PUSH1 0x0 PUSH1 0x20 DUP3 DUP5 SUB SLT ISZERO PUSH2 0x22F4 JUMPI PUSH1 0x0 DUP1 REVERT JUMPDEST DUP2 CALLDATALOAD PUSH1 0x1 PUSH1 0x1 PUSH1 0xE0 SHL SUB NOT DUP2 AND DUP2 EQ PUSH2 0x2207 JUMPI PUSH1 0x0 DUP1 REVERT JUMPDEST PUSH1 0x0 PUSH1 0x20 DUP3 DUP5 SUB SLT ISZERO PUSH2 0x231E JUMPI PUSH1 0x0 DUP1 REVERT JUMPDEST POP CALLDATALOAD SWAP2 SWAP1 POP JUMP JUMPDEST PUSH1 0x0 JUMPDEST DUP4 DUP2 LT ISZERO PUSH2 0x2340 JUMPI DUP2 DUP2 ADD MLOAD DUP4 DUP3 ADD MSTORE PUSH1 0x20 ADD PUSH2 0x2328 JUMP JUMPDEST POP POP PUSH1 0x0 SWAP2 ADD MSTORE JUMP JUMPDEST PUSH1 0x0 DUP2 MLOAD DUP1 DUP5 MSTORE PUSH2 0x2361 DUP2 PUSH1 0x20 DUP7 ADD PUSH1 0x20 DUP7 ADD PUSH2 0x2325 JUMP JUMPDEST PUSH1 0x1F ADD PUSH1 0x1F NOT AND SWAP3 SWAP1 SWAP3 ADD PUSH1 0x20 ADD SWAP3 SWAP2 POP POP JUMP JUMPDEST PUSH1 0x0 DUP2 MLOAD DUP1 DUP5 MSTORE PUSH1 0x20 DUP1 DUP6 ADD SWAP5 POP DUP1 DUP5 ADD PUSH1 0x0 JUMPDEST DUP4 DUP2 LT ISZERO PUSH2 0x23A5 JUMPI DUP2 MLOAD DUP8 MSTORE SWAP6 DUP3 ADD SWAP6 SWAP1 DUP3 ADD SWAP1 PUSH1 0x1 ADD PUSH2 0x2389 JUMP JUMPDEST POP SWAP5 SWAP6 SWAP5 POP POP POP POP POP JUMP JUMPDEST PUSH4 0x4E487B71 PUSH1 0xE0 SHL PUSH1 0x0 MSTORE PUSH1 0x21 PUSH1 0x4 MSTORE PUSH1 0x24 PUSH1 0x0 REVERT JUMPDEST PUSH1 0x5 DUP2 LT PUSH2 0x23E4 JUMPI PUSH4 0x4E487B71 PUSH1 0xE0 SHL PUSH1 0x0 MSTORE PUSH1 0x21 PUSH1 0x4 MSTORE PUSH1 0x24 PUSH1 0x0 REVERT JUMPDEST SWAP1 MSTORE JUMP JUMPDEST PUSH1 0x20 DUP2 MSTORE DUP2 MLOAD PUSH1 0x20 DUP3 ADD MSTORE PUSH1 0x0 PUSH1 0x20 DUP4 ADD MLOAD PUSH2 0x160 DUP1 PUSH1 0x40 DUP6 ADD MSTORE PUSH2 0x2411 PUSH2 0x180 DUP6 ADD DUP4 PUSH2 0x2349 JUMP JUMPDEST SWAP2 POP PUSH1 0x40 DUP6 ADD MLOAD PUSH1 0x1F NOT DUP1 DUP7 DUP6 SUB ADD PUSH1 0x60 DUP8 ADD MSTORE PUSH2 0x242F DUP5 DUP4 PUSH2 0x2375 JUMP JUMPDEST SWAP4 POP PUSH1 0x60 DUP8 ADD MLOAD SWAP2 POP DUP1 DUP7 DUP6 SUB ADD PUSH1 0x80 DUP8 ADD MSTORE PUSH2 0x244C DUP5 DUP4 PUSH2 0x2349 JUMP JUMPDEST SWAP4 POP PUSH1 0x80 DUP8 ADD MLOAD PUSH1 0xA0 DUP8 ADD MSTORE PUSH1 0xA0 DUP8 ADD MLOAD PUSH1 0xC0 DUP8 ADD MSTORE PUSH1 0xC0 DUP8 ADD MLOAD SWAP2 POP PUSH2 0x2476 PUSH1 0xE0 DUP8 ADD DUP4 PUSH2 0x23C6 JUMP JUMPDEST PUSH1 0xE0 DUP8 ADD MLOAD SWAP2 POP PUSH2 0x100 PUSH2 0x2494 DUP2 DUP9 ADD DUP5 PUSH1 0x1 PUSH1 0x1 PUSH1 0xA0 SHL SUB AND SWAP1 MSTORE JUMP JUMPDEST DUP1 DUP9 ADD MLOAD SWAP3 POP POP PUSH2 0x120 DUP2 DUP8 DUP7 SUB ADD DUP2 DUP9 ADD MSTORE PUSH2 0x24B1 DUP6 DUP5 PUSH2 0x2349 JUMP JUMPDEST SWAP1 DUP9 ADD MLOAD PUSH2 0x140 DUP9 DUP2 ADD SWAP2 SWAP1 SWAP2 MSTORE DUP9 ADD MLOAD DUP8 DUP3 SUB SWAP1 SWAP3 ADD DUP5 DUP9 ADD MSTORE SWAP4 POP SWAP1 POP PUSH2 0x24DA DUP4 DUP3 PUSH2 0x2349 JUMP JUMPDEST SWAP7 SWAP6 POP POP POP POP POP POP JUMP JUMPDEST PUSH4 0x4E487B71 PUSH1 0xE0 SHL PUSH1 0x0 MSTORE PUSH1 0x41 PUSH1 0x4 MSTORE PUSH1 0x24 PUSH1 0x0 REVERT JUMPDEST PUSH1 0x40 MLOAD PUSH1 0x1F DUP3 ADD PUSH1 0x1F NOT AND DUP2 ADD PUSH8 0xFFFFFFFFFFFFFFFF DUP2 GT DUP3 DUP3 LT OR ISZERO PUSH2 0x2523 JUMPI PUSH2 0x2523 PUSH2 0x24E4 JUMP JUMPDEST PUSH1 0x40 MSTORE SWAP2 SWAP1 POP JUMP JUMPDEST PUSH1 0x0 DUP3 PUSH1 0x1F DUP4 ADD SLT PUSH2 0x253C JUMPI PUSH1 0x0 DUP1 REVERT JUMPDEST DUP2 CALLDATALOAD PUSH8 0xFFFFFFFFFFFFFFFF DUP2 GT ISZERO PUSH2 0x2556 JUMPI PUSH2 0x2556 PUSH2 0x24E4 JUMP JUMPDEST PUSH2 0x2569 PUSH1 0x1F DUP3 ADD PUSH1 0x1F NOT AND PUSH1 0x20 ADD PUSH2 0x24FA JUMP JUMPDEST DUP2 DUP2 MSTORE DUP5 PUSH1 0x20 DUP4 DUP7 ADD ADD GT ISZERO PUSH2 0x257E JUMPI PUSH1 0x0 DUP1 REVERT JUMPDEST DUP2 PUSH1 0x20 DUP6 ADD PUSH1 0x20 DUP4 ADD CALLDATACOPY PUSH1 0x0 SWAP2 DUP2 ADD PUSH1 0x20 ADD SWAP2 SWAP1 SWAP2 MSTORE SWAP4 SWAP3 POP POP POP JUMP JUMPDEST PUSH1 0x0 DUP1 PUSH1 0x0 DUP1 PUSH1 0x80 DUP6 DUP8 SUB SLT ISZERO PUSH2 0x25B1 JUMPI PUSH1 0x0 DUP1 REVERT JUMPDEST DUP5 CALLDATALOAD PUSH8 0xFFFFFFFFFFFFFFFF DUP1 DUP3 GT ISZERO PUSH2 0x25C9 JUMPI PUSH1 0x0 DUP1 REVERT JUMPDEST PUSH2 0x25D5 DUP9 DUP4 DUP10 ADD PUSH2 0x252B JUMP JUMPDEST SWAP6 POP PUSH1 0x20 DUP8 ADD CALLDATALOAD SWAP5 POP PUSH1 0x40 DUP8 ADD CALLDATALOAD SWAP4 POP PUSH1 0x60 DUP8 ADD CALLDATALOAD SWAP2 POP DUP1 DUP3 GT ISZERO PUSH2 0x25F9 JUMPI PUSH1 0x0 DUP1 REVERT JUMPDEST POP PUSH2 0x2606 DUP8 DUP3 DUP9 ADD PUSH2 0x252B JUMP JUMPDEST SWAP2 POP POP SWAP3 SWAP6 SWAP2 SWAP5 POP SWAP3 POP JUMP JUMPDEST DUP1 CALLDATALOAD PUSH1 0x1 PUSH1 0x1 PUSH1 0xA0 SHL SUB DUP2 AND DUP2 EQ PUSH2 0x2629 JUMPI PUSH1 0x0 DUP1 REVERT JUMPDEST SWAP2 SWAP1 POP JUMP JUMPDEST PUSH1 0x0 DUP1 PUSH1 0x40 DUP4 DUP6 SUB SLT ISZERO PUSH2 0x2641 JUMPI PUSH1 0x0 DUP1 REVERT JUMPDEST DUP3 CALLDATALOAD SWAP2 POP PUSH2 0x2651 PUSH1 0x20 DUP5 ADD PUSH2 0x2612 JUMP JUMPDEST SWAP1 POP SWAP3 POP SWAP3 SWAP1 POP JUMP JUMPDEST PUSH1 0x0 PUSH2 0x140 DUP13 DUP4 MSTORE DUP1 PUSH1 0x20 DUP5 ADD MSTORE PUSH2 0x2674 DUP2 DUP5 ADD DUP14 PUSH2 0x2349 JUMP JUMPDEST SWAP1 POP DUP3 DUP2 SUB PUSH1 0x40 DUP5 ADD MSTORE PUSH2 0x2688 DUP2 DUP13 PUSH2 0x2349 JUMP JUMPDEST SWAP1 POP DUP10 PUSH1 0x60 DUP5 ADD MSTORE DUP9 PUSH1 0x80 DUP5 ADD MSTORE PUSH2 0x26A3 PUSH1 0xA0 DUP5 ADD DUP10 PUSH2 0x23C6 JUMP JUMPDEST PUSH1 0x1 PUSH1 0x1 PUSH1 0xA0 SHL SUB DUP8 AND PUSH1 0xC0 DUP5 ADD MSTORE DUP3 DUP2 SUB PUSH1 0xE0 DUP5 ADD MSTORE PUSH2 0x26C4 DUP2 DUP8 PUSH2 0x2349 JUMP JUMPDEST SWAP1 POP DUP5 PUSH2 0x100 DUP5 ADD MSTORE DUP3 DUP2 SUB PUSH2 0x120 DUP5 ADD MSTORE PUSH2 0x26E0 DUP2 DUP6 PUSH2 0x2349 JUMP JUMPDEST SWAP14 SWAP13 POP POP POP POP POP POP POP POP POP POP POP POP POP JUMP JUMPDEST PUSH1 0x0 PUSH1 0x20 DUP3 DUP5 SUB SLT ISZERO PUSH2 0x2703 JUMPI PUSH1 0x0 DUP1 REVERT JUMPDEST DUP2 CALLDATALOAD PUSH8 0xFFFFFFFFFFFFFFFF DUP2 GT ISZERO PUSH2 0x271A JUMPI PUSH1 0x0 DUP1 REVERT JUMPDEST PUSH2 0x2726 DUP5 DUP3 DUP6 ADD PUSH2 0x252B JUMP JUMPDEST SWAP5 SWAP4 POP POP POP POP JUMP JUMPDEST PUSH1 0x20 DUP1 DUP3 MSTORE DUP3 MLOAD DUP3 DUP3 ADD DUP2 SWAP1 MSTORE PUSH1 0x0 SWAP2 SWAP1 DUP5 DUP3 ADD SWAP1 PUSH1 0x40 DUP6 ADD SWAP1 DUP5 JUMPDEST DUP2 DUP2 LT ISZERO PUSH2 0x2766 JUMPI DUP4 MLOAD DUP4 MSTORE SWAP3 DUP5 ADD SWAP3 SWAP2 DUP5 ADD SWAP2 PUSH1 0x1 ADD PUSH2 0x274A JUMP JUMPDEST POP SWAP1 SWAP7 SWAP6 POP POP POP POP POP POP JUMP JUMPDEST PUSH1 0x0 PUSH1 0x20 DUP3 DUP5 SUB SLT ISZERO PUSH2 0x2784 JUMPI PUSH1 0x0 DUP1 REVERT JUMPDEST PUSH2 0x2207 DUP3 PUSH2 0x2612 JUMP JUMPDEST PUSH1 0x0 DUP1 PUSH1 0x0 DUP1 PUSH1 0x0 PUSH1 0xA0 DUP7 DUP9 SUB SLT ISZERO PUSH2 0x27A5 JUMPI PUSH1 0x0 DUP1 REVERT JUMPDEST DUP6 CALLDATALOAD PUSH8 0xFFFFFFFFFFFFFFFF DUP1 DUP3 GT ISZERO PUSH2 0x27BD JUMPI PUSH1 0x0 DUP1 REVERT JUMPDEST PUSH2 0x27C9 DUP10 DUP4 DUP11 ADD PUSH2 0x252B JUMP JUMPDEST SWAP7 POP PUSH1 0x20 SWAP2 POP DUP2 DUP9 ADD CALLDATALOAD DUP2 DUP2 GT ISZERO PUSH2 0x27E0 JUMPI PUSH1 0x0 DUP1 REVERT JUMPDEST DUP9 ADD PUSH1 0x1F DUP2 ADD DUP11 SGT PUSH2 0x27F1 JUMPI PUSH1 0x0 DUP1 REVERT JUMPDEST DUP1 CALLDATALOAD DUP3 DUP2 GT ISZERO PUSH2 0x2803 JUMPI PUSH2 0x2803 PUSH2 0x24E4 JUMP JUMPDEST DUP1 PUSH1 0x5 SHL PUSH2 0x2812 DUP6 DUP3 ADD PUSH2 0x24FA JUMP JUMPDEST SWAP2 DUP3 MSTORE DUP3 DUP2 ADD DUP6 ADD SWAP2 DUP6 DUP2 ADD SWAP1 DUP14 DUP5 GT ISZERO PUSH2 0x282C JUMPI PUSH1 0x0 DUP1 REVERT JUMPDEST SWAP4 DUP7 ADD SWAP4 JUMPDEST DUP4 DUP6 LT ISZERO PUSH2 0x284A JUMPI DUP5 CALLDATALOAD DUP3 MSTORE SWAP4 DUP7 ADD SWAP4 SWAP1 DUP7 ADD SWAP1 PUSH2 0x2831 JUMP JUMPDEST SWAP10 POP POP POP POP PUSH1 0x40 DUP10 ADD CALLDATALOAD SWAP3 POP POP DUP1 DUP3 GT ISZERO PUSH2 0x2864 JUMPI PUSH1 0x0 DUP1 REVERT JUMPDEST PUSH2 0x2870 DUP10 DUP4 DUP11 ADD PUSH2 0x252B JUMP JUMPDEST SWAP5 POP PUSH1 0x60 DUP9 ADD CALLDATALOAD SWAP4 POP PUSH1 0x80 DUP9 ADD CALLDATALOAD SWAP2 POP DUP1 DUP3 GT ISZERO PUSH2 0x288D JUMPI PUSH1 0x0 DUP1 REVERT JUMPDEST POP PUSH2 0x289A DUP9 DUP3 DUP10 ADD PUSH2 0x252B JUMP JUMPDEST SWAP2 POP POP SWAP3 SWAP6 POP SWAP3 SWAP6 SWAP1 SWAP4 POP JUMP JUMPDEST PUSH1 0xE0 DUP2 MSTORE PUSH1 0x0 PUSH2 0x28BA PUSH1 0xE0 DUP4 ADD DUP11 PUSH2 0x2349 JUMP JUMPDEST DUP9 PUSH1 0x20 DUP5 ADD MSTORE DUP8 PUSH1 0x40 DUP5 ADD MSTORE DUP7 PUSH1 0x60 DUP5 ADD MSTORE DUP3 DUP2 SUB PUSH1 0x80 DUP5 ADD MSTORE PUSH2 0x28DE DUP2 DUP8 PUSH2 0x2349 JUMP JUMPDEST SWAP5 ISZERO ISZERO PUSH1 0xA0 DUP5 ADD MSTORE POP POP PUSH1 0x1 PUSH1 0x1 PUSH1 0xA0 SHL SUB SWAP2 SWAP1 SWAP2 AND PUSH1 0xC0 SWAP1 SWAP2 ADD MSTORE SWAP6 SWAP5 POP POP POP POP POP JUMP JUMPDEST PUSH1 0x20 DUP2 MSTORE PUSH1 0x0 DUP3 MLOAD PUSH1 0xE0 PUSH1 0x20 DUP5 ADD MSTORE PUSH2 0x2920 PUSH2 0x100 DUP5 ADD DUP3 PUSH2 0x2349 JUMP JUMPDEST SWAP1 POP PUSH1 0x20 DUP5 ADD MLOAD PUSH1 0x40 DUP5 ADD MSTORE PUSH1 0x40 DUP5 ADD MLOAD PUSH1 0x60 DUP5 ADD MSTORE PUSH1 0x60 DUP5 ADD MLOAD PUSH1 0x80 DUP5 ADD MSTORE PUSH1 0x80 DUP5 ADD MLOAD PUSH1 0x1F NOT DUP5 DUP4 SUB ADD PUSH1 0xA0 DUP6 ADD MSTORE PUSH2 0x295B DUP3 DUP3 PUSH2 0x2349 JUMP JUMPDEST PUSH1 0xA0 DUP7 ADD MLOAD ISZERO ISZERO PUSH1 0xC0 DUP7 DUP2 ADD SWAP2 SWAP1 SWAP2 MSTORE SWAP1 SWAP6 ADD MLOAD PUSH1 0x1 PUSH1 0x1 PUSH1 0xA0 SHL SUB AND PUSH1 0xE0 SWAP1 SWAP5 ADD SWAP4 SWAP1 SWAP4 MSTORE POP SWAP2 SWAP3 SWAP2 POP POP JUMP JUMPDEST PUSH1 0x0 DUP1 PUSH1 0x40 DUP4 DUP6 SUB SLT ISZERO PUSH2 0x299C JUMPI PUSH1 0x0 DUP1 REVERT JUMPDEST PUSH2 0x29A5 DUP4 PUSH2 0x2612 JUMP JUMPDEST SWAP5 PUSH1 0x20 SWAP4 SWAP1 SWAP4 ADD CALLDATALOAD SWAP4 POP POP POP JUMP JUMPDEST PUSH1 0x0 DUP1 PUSH1 0x0 PUSH1 0x60 DUP5 DUP7 SUB SLT ISZERO PUSH2 0x29C8 JUMPI PUSH1 0x0 DUP1 REVERT JUMPDEST DUP4 CALLDATALOAD SWAP3 POP PUSH1 0x20 DUP5 ADD CALLDATALOAD SWAP2 POP PUSH1 0x40 DUP5 ADD CALLDATALOAD PUSH8 0xFFFFFFFFFFFFFFFF DUP2 GT ISZERO PUSH2 0x29ED JUMPI PUSH1 0x0 DUP1 REVERT JUMPDEST PUSH2 0x29F9 DUP7 DUP3 DUP8 ADD PUSH2 0x252B JUMP JUMPDEST SWAP2 POP POP SWAP3 POP SWAP3 POP SWAP3 JUMP JUMPDEST PUSH1 0x0 DUP1 PUSH1 0x40 DUP4 DUP6 SUB SLT ISZERO PUSH2 0x2A16 JUMPI PUSH1 0x0 DUP1 REVERT JUMPDEST DUP3 CALLDATALOAD SWAP2 POP PUSH1 0x20 DUP4 ADD CALLDATALOAD DUP1 ISZERO ISZERO DUP2 EQ PUSH2 0x2A2D JUMPI PUSH1 0x0 DUP1 REVERT JUMPDEST DUP1 SWAP2 POP POP SWAP3 POP SWAP3 SWAP1 POP JUMP JUMPDEST PUSH1 0x20 DUP1 DUP3 MSTORE PUSH1 0x12 SWAP1 DUP3 ADD MSTORE PUSH18 0x125B9D985B1A59081C995C5D595CDD081251 PUSH1 0x72 SHL PUSH1 0x40 DUP3 ADD MSTORE PUSH1 0x60 ADD SWAP1 JUMP JUMPDEST PUSH1 0x1 DUP2 DUP2 SHR SWAP1 DUP3 AND DUP1 PUSH2 0x2A78 JUMPI PUSH1 0x7F DUP3 AND SWAP2 POP JUMPDEST PUSH1 0x20 DUP3 LT DUP2 SUB PUSH2 0x2A98 JUMPI PUSH4 0x4E487B71 PUSH1 0xE0 SHL PUSH1 0x0 MSTORE PUSH1 0x22 PUSH1 0x4 MSTORE PUSH1 0x24 PUSH1 0x0 REVERT JUMPDEST POP SWAP2 SWAP1 POP JUMP JUMPDEST PUSH4 0x4E487B71 PUSH1 0xE0 SHL PUSH1 0x0 MSTORE PUSH1 0x11 PUSH1 0x4 MSTORE PUSH1 0x24 PUSH1 0x0 REVERT JUMPDEST PUSH1 0x0 PUSH1 0x1 DUP3 ADD PUSH2 0x2AC6 JUMPI PUSH2 0x2AC6 PUSH2 0x2A9E JUMP JUMPDEST POP PUSH1 0x1 ADD SWAP1 JUMP JUMPDEST PUSH1 0x1F DUP3 GT ISZERO PUSH2 0xAF6 JUMPI PUSH1 0x0 DUP2 DUP2 MSTORE PUSH1 0x20 DUP2 KECCAK256 PUSH1 0x1F DUP6 ADD PUSH1 0x5 SHR DUP2 ADD PUSH1 0x20 DUP7 LT ISZERO PUSH2 0x2AF4 JUMPI POP DUP1 JUMPDEST PUSH1 0x1F DUP6 ADD PUSH1 0x5 SHR DUP3 ADD SWAP2 POP JUMPDEST DUP2 DUP2 LT ISZERO PUSH2 0x2B13 JUMPI DUP3 DUP2 SSTORE PUSH1 0x1 ADD PUSH2 0x2B00 JUMP JUMPDEST POP POP POP POP POP POP JUMP JUMPDEST DUP2 MLOAD PUSH8 0xFFFFFFFFFFFFFFFF DUP2 GT ISZERO PUSH2 0x2B35 JUMPI PUSH2 0x2B35 PUSH2 0x24E4 JUMP JUMPDEST PUSH2 0x2B49 DUP2 PUSH2 0x2B43 DUP5 SLOAD PUSH2 0x2A64 JUMP JUMPDEST DUP5 PUSH2 0x2ACD JUMP JUMPDEST PUSH1 0x20 DUP1 PUSH1 0x1F DUP4 GT PUSH1 0x1 DUP2 EQ PUSH2 0x2B7E JUMPI PUSH1 0x0 DUP5 ISZERO PUSH2 0x2B66 JUMPI POP DUP6 DUP4 ADD MLOAD JUMPDEST PUSH1 0x0 NOT PUSH1 0x3 DUP7 SWAP1 SHL SHR NOT AND PUSH1 0x1 DUP6 SWAP1 SHL OR DUP6 SSTORE PUSH2 0x2B13 JUMP JUMPDEST PUSH1 0x0 DUP6 DUP2 MSTORE PUSH1 0x20 DUP2 KECCAK256 PUSH1 0x1F NOT DUP7 AND SWAP2 JUMPDEST DUP3 DUP2 LT ISZERO PUSH2 0x2BAD JUMPI DUP9 DUP7 ADD MLOAD DUP3 SSTORE SWAP5 DUP5 ADD SWAP5 PUSH1 0x1 SWAP1 SWAP2 ADD SWAP1 DUP5 ADD PUSH2 0x2B8E JUMP JUMPDEST POP DUP6 DUP3 LT ISZERO PUSH2 0x2BCB JUMPI DUP8 DUP6 ADD MLOAD PUSH1 0x0 NOT PUSH1 0x3 DUP9 SWAP1 SHL PUSH1 0xF8 AND SHR NOT AND DUP2 SSTORE JUMPDEST POP POP POP POP POP PUSH1 0x1 SWAP1 DUP2 SHL ADD SWAP1 SSTORE POP JUMP JUMPDEST PUSH1 0x0 DUP3 MLOAD PUSH2 0x2BED DUP2 DUP5 PUSH1 0x20 DUP8 ADD PUSH2 0x2325 JUMP JUMPDEST SWAP2 SWAP1 SWAP2 ADD SWAP3 SWAP2 POP POP JUMP JUMPDEST PUSH4 0x4E487B71 PUSH1 0xE0 SHL PUSH1 0x0 MSTORE PUSH1 0x32 PUSH1 0x4 MSTORE PUSH1 0x24 PUSH1 0x0 REVERT JUMPDEST DUP3 DUP2 MSTORE PUSH1 0x40 PUSH1 0x20 DUP3 ADD MSTORE PUSH1 0x0 PUSH2 0x2726 PUSH1 0x40 DUP4 ADD DUP5 PUSH2 0x2349 JUMP JUMPDEST DUP1 DUP3 ADD DUP1 DUP3 GT ISZERO PUSH2 0x4F6 JUMPI PUSH2 0x4F6 PUSH2 0x2A9E JUMP JUMPDEST PUSH1 0x0 DUP2 SLOAD PUSH2 0x2C46 DUP2 PUSH2 0x2A64 JUMP JUMPDEST DUP1 DUP6 MSTORE PUSH1 0x20 PUSH1 0x1 DUP4 DUP2 AND DUP1 ISZERO PUSH2 0x2C63 JUMPI PUSH1 0x1 DUP2 EQ PUSH2 0x2C7D JUMPI PUSH2 0x2CAB JUMP JUMPDEST PUSH1 0xFF NOT DUP6 AND DUP9 DUP5 ADD MSTORE DUP4 ISZERO ISZERO PUSH1 0x5 SHL DUP9 ADD DUP4 ADD SWAP6 POP PUSH2 0x2CAB JUMP JUMPDEST DUP7 PUSH1 0x0 MSTORE DUP3 PUSH1 0x0 KECCAK256 PUSH1 0x0 JUMPDEST DUP6 DUP2 LT ISZERO PUSH2 0x2CA3 JUMPI DUP2 SLOAD DUP11 DUP3 ADD DUP7 ADD MSTORE SWAP1 DUP4 ADD SWAP1 DUP5 ADD PUSH2 0x2C88 JUMP JUMPDEST DUP10 ADD DUP5 ADD SWAP7 POP POP JUMPDEST POP POP POP POP POP SWAP3 SWAP2 POP POP JUMP JUMPDEST PUSH1 0xC0 DUP2 MSTORE PUSH1 0x0 PUSH2 0x2CC9 PUSH1 0xC0 DUP4 ADD DUP10 PUSH2 0x2C39 JUMP JUMPDEST DUP3 DUP2 SUB PUSH1 0x20 DUP5 ADD MSTORE PUSH2 0x2CDB DUP2 DUP10 PUSH2 0x2C39 JUMP JUMPDEST SWAP1 POP DUP7 PUSH1 0x40 DUP5 ADD MSTORE DUP6 PUSH1 0x60 DUP5 ADD MSTORE DUP3 DUP2 SUB PUSH1 0x80 DUP5 ADD MSTORE PUSH2 0x2CFB DUP2 DUP7 PUSH2 0x2C39 JUMP JUMPDEST SWAP2 POP POP DUP3 PUSH1 0xA0 DUP4 ADD MSTORE SWAP8 SWAP7 POP POP POP POP POP POP POP JUMP JUMPDEST PUSH1 0x0 DUP1 DUP4 SLOAD PUSH2 0x2D1D DUP2 PUSH2 0x2A64 JUMP JUMPDEST PUSH1 0x1 DUP3 DUP2 AND DUP1 ISZERO PUSH2 0x2D35 JUMPI PUSH1 0x1 DUP2 EQ PUSH2 0x2D4A JUMPI PUSH2 0x2D79 JUMP JUMPDEST PUSH1 0xFF NOT DUP5 AND DUP8 MSTORE DUP3 ISZERO ISZERO DUP4 MUL DUP8 ADD SWAP5 POP PUSH2 0x2D79 JUMP JUMPDEST DUP8 PUSH1 0x0 MSTORE PUSH1 0x20 DUP1 PUSH1 0x0 KECCAK256 PUSH1 0x0 JUMPDEST DUP6 DUP2 LT ISZERO PUSH2 0x2D70 JUMPI DUP2 SLOAD DUP11 DUP3 ADD MSTORE SWAP1 DUP5 ADD SWAP1 DUP3 ADD PUSH2 0x2D57 JUMP JUMPDEST POP POP POP DUP3 DUP8 ADD SWAP5 POP JUMPDEST POP SWAP3 SWAP7 SWAP6 POP POP POP POP POP POP JUMP JUMPDEST PUSH32 0x416363657373436F6E74726F6C3A206163636F756E7420000000000000000000 DUP2 MSTORE PUSH1 0x0 DUP4 MLOAD PUSH2 0x2DBD DUP2 PUSH1 0x17 DUP6 ADD PUSH1 0x20 DUP9 ADD PUSH2 0x2325 JUMP JUMPDEST PUSH17 0x1034B99036B4B9B9B4B733903937B6329 PUSH1 0x7D SHL PUSH1 0x17 SWAP2 DUP5 ADD SWAP2 DUP3 ADD MSTORE DUP4 MLOAD PUSH2 0x2DEE DUP2 PUSH1 0x28 DUP5 ADD PUSH1 0x20 DUP9 ADD PUSH2 0x2325 JUMP JUMPDEST ADD PUSH1 0x28 ADD SWAP5 SWAP4 POP POP POP POP JUMP JUMPDEST PUSH1 0x20 DUP2 MSTORE PUSH1 0x0 PUSH2 0x2207 PUSH1 0x20 DUP4 ADD DUP5 PUSH2 0x2349 JUMP JUMPDEST DUP1 DUP3 MUL DUP2 ISZERO DUP3 DUP3 DIV DUP5 EQ OR PUSH2 0x4F6 JUMPI PUSH2 0x4F6 PUSH2 0x2A9E JUMP JUMPDEST PUSH1 0x0 DUP2 PUSH2 0x2E33 JUMPI PUSH2 0x2E33 PUSH2 0x2A9E JUMP JUMPDEST POP PUSH1 0x0 NOT ADD SWAP1 JUMP INVALID LOG2 PUSH5 0x6970667358 0x22 SLT KECCAK256 0xD8 GASLIMIT 0xA7 LOG4 SMOD LOG3 DUP6 LOG2 DUP8 0xE8 CALLER 0xB9 SGT PUSH24 0x7CFDABB3D5F134C2E83CDC75BC614FC731FE64736F6C6343 STOP ADDMOD SGT STOP CALLER "},"methodIdentifiers":{"AI_THRESHOLD_HIGH()":"519ede30","AI_THRESHOLD_LOW()":"50d9286d","AI_VERIFIER_ROLE()":"b820ebeb","DEFAULT_ADMIN_ROLE()":"a217fddf","IOT_PROVIDER_ROLE()":"062d7c85","ORACLE_ROLE()":"07e2cea5","carbonToken()":"82a71ef2","emissionData(uint256)":"99fab435","getEmissionData(uint256)":"a705726d","getPendingRequests()":"80a1f712","getProviderData(address)":"fc2d64e3","getRoleAdmin(bytes32)":"248a9ca3","getVerificationRequest(uint256)":"22ccb474","grantRole(bytes32,address)":"2f2ff15d","hasRole(bytes32,address)":"91d14854","humanVerifyRequest(uint256,bool)":"f3152a77","pause()":"8456cb59","paused()":"5c975abb","projectRequests(string)":"458109f3","providerData(address,uint256)":"ba978193","renounceRole(bytes32,address)":"36568abe","requestVerification(string,uint256[],string,uint256,string)":"8fee22d1","revokeRole(bytes32,address)":"d547741f","submitAIVerification(uint256,uint256,string)":"ea58c95d","submitEmissionData(string,uint256,uint256,string)":"2acd8779","supportsInterface(bytes4)":"01ffc9a7","unpause()":"3f4ba83a","updateCarbonTokenAddress(address)":"8d4eea66","verificationRequests(uint256)":"4089d49f","verifyEmissionData(uint256)":"478d6c34"}}}}}