{
  "_format": "hh-sol-artifact-1",
  "contractName": "CarbonMarketplace",
  "sourceName": "blockchain/contracts/CarbonMarketplace.sol",
  "abi": [
    {
      "inputs": [
        {
          "internalType": "address",
          "name": "_carbonTokenAddress",
          "type": "address"
        }
      ],
      "stateMutability": "nonpayable",
      "type": "constructor"
    },
    {
      "anonymous": false,
      "inputs": [
        {
          "indexed": true,
          "internalType": "uint256",
          "name": "auctionId",
          "type": "uint256"
        },
        {
          "indexed": true,
          "internalType": "uint256",
          "name": "tokenId",
          "type": "uint256"
        },
        {
          "indexed": true,
          "internalType": "address",
          "name": "seller",
          "type": "address"
        },
        {
          "indexed": false,
          "internalType": "uint256",
          "name": "amount",
          "type": "uint256"
        },
        {
          "indexed": false,
          "internalType": "uint256",
          "name": "startingPrice",
          "type": "uint256"
        },
        {
          "indexed": false,
          "internalType": "uint256",
          "name": "endTime",
          "type": "uint256"
        }
      ],
      "name": "AuctionCreated",
      "type": "event"
    },
    {
      "anonymous": false,
      "inputs": [
        {
          "indexed": true,
          "internalType": "uint256",
          "name": "auctionId",
          "type": "uint256"
        },
        {
          "indexed": true,
          "internalType": "address",
          "name": "winner",
          "type": "address"
        },
        {
          "indexed": false,
          "internalType": "uint256",
          "name": "winningBid",
          "type": "uint256"
        }
      ],
      "name": "AuctionFinalized",
      "type": "event"
    },
    {
      "anonymous": false,
      "inputs": [
        {
          "indexed": true,
          "internalType": "uint256",
          "name": "auctionId",
          "type": "uint256"
        },
        {
          "indexed": true,
          "internalType": "address",
          "name": "bidder",
          "type": "address"
        },
        {
          "indexed": false,
          "internalType": "uint256",
          "name": "bidAmount",
          "type": "uint256"
        }
      ],
      "name": "BidPlaced",
      "type": "event"
    },
    {
      "anonymous": false,
      "inputs": [
        {
          "indexed": true,
          "internalType": "uint256",
          "name": "listingId",
          "type": "uint256"
        }
      ],
      "name": "ListingCancelled",
      "type": "event"
    },
    {
      "anonymous": false,
      "inputs": [
        {
          "indexed": true,
          "internalType": "uint256",
          "name": "listingId",
          "type": "uint256"
        },
        {
          "indexed": true,
          "internalType": "uint256",
          "name": "tokenId",
          "type": "uint256"
        },
        {
          "indexed": true,
          "internalType": "address",
          "name": "seller",
          "type": "address"
        },
        {
          "indexed": false,
          "internalType": "uint256",
          "name": "amount",
          "type": "uint256"
        },
        {
          "indexed": false,
          "internalType": "uint256",
          "name": "pricePerCredit",
          "type": "uint256"
        }
      ],
      "name": "ListingCreated",
      "type": "event"
    },
    {
      "anonymous": false,
      "inputs": [
        {
          "indexed": true,
          "internalType": "uint256",
          "name": "listingId",
          "type": "uint256"
        },
        {
          "indexed": true,
          "internalType": "uint256",
          "name": "tokenId",
          "type": "uint256"
        },
        {
          "indexed": true,
          "internalType": "address",
          "name": "buyer",
          "type": "address"
        },
        {
          "indexed": false,
          "internalType": "uint256",
          "name": "amount",
          "type": "uint256"
        },
        {
          "indexed": false,
          "internalType": "uint256",
          "name": "totalPrice",
          "type": "uint256"
        }
      ],
      "name": "ListingPurchased",
      "type": "event"
    },
    {
      "anonymous": false,
      "inputs": [
        {
          "indexed": true,
          "internalType": "address",
          "name": "previousOwner",
          "type": "address"
        },
        {
          "indexed": true,
          "internalType": "address",
          "name": "newOwner",
          "type": "address"
        }
      ],
      "name": "OwnershipTransferred",
      "type": "event"
    },
    {
      "anonymous": false,
      "inputs": [
        {
          "indexed": false,
          "internalType": "address",
          "name": "account",
          "type": "address"
        }
      ],
      "name": "Paused",
      "type": "event"
    },
    {
      "anonymous": false,
      "inputs": [
        {
          "indexed": false,
          "internalType": "address",
          "name": "account",
          "type": "address"
        }
      ],
      "name": "Unpaused",
      "type": "event"
    },
    {
      "inputs": [
        {
          "internalType": "uint256",
          "name": "",
          "type": "uint256"
        }
      ],
      "name": "auctions",
      "outputs": [
        {
          "internalType": "uint256",
          "name": "auctionId",
          "type": "uint256"
        },
        {
          "internalType": "uint256",
          "name": "tokenId",
          "type": "uint256"
        },
        {
          "internalType": "address",
          "name": "seller",
          "type": "address"
        },
        {
          "internalType": "uint256",
          "name": "amount",
          "type": "uint256"
        },
        {
          "internalType": "uint256",
          "name": "startingPrice",
          "type": "uint256"
        },
        {
          "internalType": "uint256",
          "name": "currentBid",
          "type": "uint256"
        },
        {
          "internalType": "address",
          "name": "currentBidder",
          "type": "address"
        },
        {
          "internalType": "uint256",
          "name": "startTime",
          "type": "uint256"
        },
        {
          "internalType": "uint256",
          "name": "endTime",
          "type": "uint256"
        },
        {
          "internalType": "bool",
          "name": "active",
          "type": "bool"
        },
        {
          "internalType": "bool",
          "name": "finalized",
          "type": "bool"
        }
      ],
      "stateMutability": "view",
      "type": "function"
    },
    {
      "inputs": [
        {
          "internalType": "uint256",
          "name": "listingId",
          "type": "uint256"
        }
      ],
      "name": "cancelListing",
      "outputs": [],
      "stateMutability": "nonpayable",
      "type": "function"
    },
    {
      "inputs": [],
      "name": "carbonToken",
      "outputs": [
        {
          "internalType": "contract ICarbonCreditToken",
          "name": "",
          "type": "address"
        }
      ],
      "stateMutability": "view",
      "type": "function"
    },
    {
      "inputs": [
        {
          "internalType": "uint256",
          "name": "tokenId",
          "type": "uint256"
        },
        {
          "internalType": "uint256",
          "name": "amount",
          "type": "uint256"
        },
        {
          "internalType": "uint256",
          "name": "startingPrice",
          "type": "uint256"
        },
        {
          "internalType": "uint256",
          "name": "duration",
          "type": "uint256"
        }
      ],
      "name": "createAuction",
      "outputs": [],
      "stateMutability": "nonpayable",
      "type": "function"
    },
    {
      "inputs": [
        {
          "internalType": "uint256",
          "name": "tokenId",
          "type": "uint256"
        },
        {
          "internalType": "uint256",
          "name": "amount",
          "type": "uint256"
        },
        {
          "internalType": "uint256",
          "name": "pricePerCredit",
          "type": "uint256"
        },
        {
          "internalType": "uint256",
          "name": "duration",
          "type": "uint256"
        }
      ],
      "name": "createListing",
      "outputs": [],
      "stateMutability": "nonpayable",
      "type": "function"
    },
    {
      "inputs": [
        {
          "internalType": "uint256",
          "name": "auctionId",
          "type": "uint256"
        }
      ],
      "name": "finalizeAuction",
      "outputs": [],
      "stateMutability": "nonpayable",
      "type": "function"
    },
    {
      "inputs": [],
      "name": "getActiveAuctions",
      "outputs": [
        {
          "internalType": "uint256[]",
          "name": "",
          "type": "uint256[]"
        }
      ],
      "stateMutability": "view",
      "type": "function"
    },
    {
      "inputs": [],
      "name": "getActiveListings",
      "outputs": [
        {
          "internalType": "uint256[]",
          "name": "",
          "type": "uint256[]"
        }
      ],
      "stateMutability": "view",
      "type": "function"
    },
    {
      "inputs": [
        {
          "internalType": "uint256",
          "name": "",
          "type": "uint256"
        }
      ],
      "name": "listings",
      "outputs": [
        {
          "internalType": "uint256",
          "name": "listingId",
          "type": "uint256"
        },
        {
          "internalType": "uint256",
          "name": "tokenId",
          "type": "uint256"
        },
        {
          "internalType": "address",
          "name": "seller",
          "type": "address"
        },
        {
          "internalType": "uint256",
          "name": "amount",
          "type": "uint256"
        },
        {
          "internalType": "uint256",
          "name": "pricePerCredit",
          "type": "uint256"
        },
        {
          "internalType": "uint256",
          "name": "createdAt",
          "type": "uint256"
        },
        {
          "internalType": "uint256",
          "name": "expiresAt",
          "type": "uint256"
        },
        {
          "internalType": "bool",
          "name": "active",
          "type": "bool"
        },
        {
          "internalType": "enum CarbonMarketplace.ListingType",
          "name": "listingType",
          "type": "uint8"
        }
      ],
      "stateMutability": "view",
      "type": "function"
    },
    {
      "inputs": [
        {
          "internalType": "address",
          "name": "",
          "type": "address"
        },
        {
          "internalType": "address",
          "name": "",
          "type": "address"
        },
        {
          "internalType": "uint256[]",
          "name": "",
          "type": "uint256[]"
        },
        {
          "internalType": "uint256[]",
          "name": "",
          "type": "uint256[]"
        },
        {
          "internalType": "bytes",
          "name": "",
          "type": "bytes"
        }
      ],
      "name": "onERC1155BatchReceived",
      "outputs": [
        {
          "internalType": "bytes4",
          "name": "",
          "type": "bytes4"
        }
      ],
      "stateMutability": "nonpayable",
      "type": "function"
    },
    {
      "inputs": [
        {
          "internalType": "address",
          "name": "",
          "type": "address"
        },
        {
          "internalType": "address",
          "name": "",
          "type": "address"
        },
        {
          "internalType": "uint256",
          "name": "",
          "type": "uint256"
        },
        {
          "internalType": "uint256",
          "name": "",
          "type": "uint256"
        },
        {
          "internalType": "bytes",
          "name": "",
          "type": "bytes"
        }
      ],
      "name": "onERC1155Received",
      "outputs": [
        {
          "internalType": "bytes4",
          "name": "",
          "type": "bytes4"
        }
      ],
      "stateMutability": "nonpayable",
      "type": "function"
    },
    {
      "inputs": [],
      "name": "owner",
      "outputs": [
        {
          "internalType": "address",
          "name": "",
          "type": "address"
        }
      ],
      "stateMutability": "view",
      "type": "function"
    },
    {
      "inputs": [],
      "name": "pause",
      "outputs": [],
      "stateMutability": "nonpayable",
      "type": "function"
    },
    {
      "inputs": [],
      "name": "paused",
      "outputs": [
        {
          "internalType": "bool",
          "name": "",
          "type": "bool"
        }
      ],
      "stateMutability": "view",
      "type": "function"
    },
    {
      "inputs": [
        {
          "internalType": "uint256",
          "name": "auctionId",
          "type": "uint256"
        }
      ],
      "name": "placeBid",
      "outputs": [],
      "stateMutability": "payable",
      "type": "function"
    },
    {
      "inputs": [
        {
          "internalType": "uint256",
          "name": "listingId",
          "type": "uint256"
        },
        {
          "internalType": "uint256",
          "name": "amount",
          "type": "uint256"
        }
      ],
      "name": "purchaseListing",
      "outputs": [],
      "stateMutability": "payable",
      "type": "function"
    },
    {
      "inputs": [],
      "name": "renounceOwnership",
      "outputs": [],
      "stateMutability": "nonpayable",
      "type": "function"
    },
    {
      "inputs": [
        {
          "internalType": "bytes4",
          "name": "interfaceId",
          "type": "bytes4"
        }
      ],
      "name": "supportsInterface",
      "outputs": [
        {
          "internalType": "bool",
          "name": "",
          "type": "bool"
        }
      ],
      "stateMutability": "view",
      "type": "function"
    },
    {
      "inputs": [],
      "name": "totalTransactions",
      "outputs": [
        {
          "internalType": "uint256",
          "name": "",
          "type": "uint256"
        }
      ],
      "stateMutability": "view",
      "type": "function"
    },
    {
      "inputs": [],
      "name": "totalVolume",
      "outputs": [
        {
          "internalType": "uint256",
          "name": "",
          "type": "uint256"
        }
      ],
      "stateMutability": "view",
      "type": "function"
    },
    {
      "inputs": [
        {
          "internalType": "address",
          "name": "newOwner",
          "type": "address"
        }
      ],
      "name": "transferOwnership",
      "outputs": [],
      "stateMutability": "nonpayable",
      "type": "function"
    },
    {
      "inputs": [],
      "name": "unpause",
      "outputs": [],
      "stateMutability": "nonpayable",
      "type": "function"
    },
    {
      "inputs": [
        {
          "internalType": "address",
          "name": "",
          "type": "address"
        },
        {
          "internalType": "uint256",
          "name": "",
          "type": "uint256"
        }
      ],
      "name": "userBids",
      "outputs": [
        {
          "internalType": "uint256",
          "name": "",
          "type": "uint256"
        }
      ],
      "stateMutability": "view",
      "type": "function"
    },
    {
      "inputs": [
        {
          "internalType": "address",
          "name": "",
          "type": "address"
        },
        {
          "internalType": "uint256",
          "name": "",
          "type": "uint256"
        }
      ],
      "name": "userListings",
      "outputs": [
        {
          "internalType": "uint256",
          "name": "",
          "type": "uint256"
        }
      ],
      "stateMutability": "view",
      "type": "function"
    },
    {
      "inputs": [],
      "name": "withdrawFees",
      "outputs": [],
      "stateMutability": "nonpayable",
      "type": "function"
    }
  ],
  "bytecode": "0x60806040523480156200001157600080fd5b5060405162002806380380620028068339810160408190526200003491620000c9565b6001600055620000443362000077565b6001805460ff60a01b19169055600280546001600160a01b0319166001600160a01b0392909216919091179055620000fb565b600180546001600160a01b038381166001600160a01b0319831681179093556040519116919082907f8be0079c531659141344cd1fd0a4f28419497f9722a3daafe3b4186f6b6457e090600090a35050565b600060208284031215620000dc57600080fd5b81516001600160a01b0381168114620000f457600080fd5b9392505050565b6126fb806200010b6000396000f3fe6080604052600436106101655760003560e01c806386cfa7d3116100d1578063b9a600381161008a578063de74e57b11610064578063de74e57b146104d6578063e808386314610562578063f23a6e6114610582578063f2fde38b146105ae57600080fd5b8063b9a6003814610466578063bc197c811461047c578063cf44b5d5146104c157600080fd5b806386cfa7d3146103b357806386d71ee2146103d357806387c35bc0146103f35780638da5cb5b1461041557806396ec50c3146104335780639979ef451461045357600080fd5b8063571a26a011610123578063571a26a01461021e5780635c975abb1461030e5780635f81a57c1461032d578063715018a61461035157806382a71ef2146103665780638456cb591461039e57600080fd5b8062b395f41461016a57806301ffc9a71461017f578063305a67a8146101b45780633f4ba83a146101d4578063431f21da146101e9578063476343ee14610209575b600080fd5b61017d610178366004611fb7565b6105ce565b005b34801561018b57600080fd5b5061019f61019a366004611fd9565b610945565b60405190151581526020015b60405180910390f35b3480156101c057600080fd5b5061017d6101cf36600461200a565b61097c565b3480156101e057600080fd5b5061017d610ae6565b3480156101f557600080fd5b5061017d610204366004612023565b610af8565b34801561021557600080fd5b5061017d610f91565b34801561022a57600080fd5b506102a361023936600461200a565b60046020819052600091825260409091208054600182015460028301546003840154948401546005850154600686015460078701546008880154600990980154969895976001600160a01b0395861697949593949290931692909160ff808216916101009004168b565b604080519b8c5260208c019a909a526001600160a01b03988916998b019990995260608a0196909652608089019490945260a088019290925290931660c086015260e085019290925261010084019190915215156101208301521515610140820152610160016101ab565b34801561031a57600080fd5b50600154600160a01b900460ff1661019f565b34801561033957600080fd5b5061034360095481565b6040519081526020016101ab565b34801561035d57600080fd5b5061017d611017565b34801561037257600080fd5b50600254610386906001600160a01b031681565b6040516001600160a01b0390911681526020016101ab565b3480156103aa57600080fd5b5061017d611029565b3480156103bf57600080fd5b506103436103ce36600461206a565b611039565b3480156103df57600080fd5b5061017d6103ee366004612023565b61106a565b3480156103ff57600080fd5b506104086114dd565b6040516101ab9190612096565b34801561042157600080fd5b506001546001600160a01b0316610386565b34801561043f57600080fd5b5061034361044e36600461206a565b61164e565b61017d61046136600461200a565b61166a565b34801561047257600080fd5b50610343600a5481565b34801561048857600080fd5b506104a8610497366004612249565b63bc197c8160e01b95945050505050565b6040516001600160e01b031990911681526020016101ab565b3480156104cd57600080fd5b50610408611887565b3480156104e257600080fd5b5061054d6104f136600461200a565b600360208190526000918252604090912080546001820154600283015493830154600484015460058501546006860154600790960154949693956001600160a01b03909416949293919290919060ff8082169161010090041689565b6040516101ab9998979695949392919061230d565b34801561056e57600080fd5b5061017d61057d36600461200a565b6119f0565b34801561058e57600080fd5b506104a861059d366004612382565b63f23a6e6160e01b95945050505050565b3480156105ba57600080fd5b5061017d6105c93660046123eb565b611d07565b6105d6611d7d565b6105de611dd6565b6000828152600360205260409020600781015460ff1661063a5760405162461bcd60e51b81526020600482015260126024820152714c697374696e67206e6f742061637469766560701b60448201526064015b60405180910390fd5b4281600601541161067f5760405162461bcd60e51b815260206004820152600f60248201526e131a5cdd1a5b99c8195e1c1a5c9959608a1b6044820152606401610631565b600082118015610693575080600301548211155b6106d05760405162461bcd60e51b815260206004820152600e60248201526d125b9d985b1a5908185b5bdd5b9d60921b6044820152606401610631565b60028101546001600160a01b031633036107255760405162461bcd60e51b815260206004820152601660248201527543616e6e6f7420627579206f776e206c697374696e6760501b6044820152606401610631565b6000816004015483610737919061241e565b9050803410156107805760405162461bcd60e51b8152602060048201526014602482015273125b9cdd59999a58da595b9d081c185e5b595b9d60621b6044820152606401610631565b600061271061079060fa8461241e565b61079a9190612435565b905060006107a88284612457565b9050848460030160008282546107be9190612457565b909155505060038401546000036107dc5760078401805460ff191690555b6002546001850154604051637921219560e11b81526001600160a01b039092169163f242432a9161081591309133918b9060040161246a565b600060405180830381600087803b15801561082f57600080fd5b505af1158015610843573d6000803e3d6000fd5b50505060028501546040516001600160a01b03909116915082156108fc029083906000818181858888f19350505050158015610883573d6000803e3d6000fd5b50826009600082825461089691906124a2565b9091555050600a80549060006108ab836124b5565b9190505550823411156108f057336108fc6108c68534612457565b6040518115909202916000818181858888f193505050501580156108ee573d6000803e3d6000fd5b505b6001840154604080518781526020810186905233929189917f4796a149c21fb626dad3324569974193fef170cfdb5501fa4b8eec483b5f1395910160405180910390a4505050506109416001600055565b5050565b60006001600160e01b03198216630271189760e51b148061097657506301ffc9a760e01b6001600160e01b03198316145b92915050565b610984611d7d565b6000818152600360205260409020600781015460ff166109db5760405162461bcd60e51b81526020600482015260126024820152714c697374696e67206e6f742061637469766560701b6044820152606401610631565b60028101546001600160a01b03163314610a2b5760405162461bcd60e51b81526020600482015260116024820152702737ba103634b9ba34b7339037bbb732b960791b6044820152606401610631565b60078101805460ff19169055600280549082015460018301546003840154604051637921219560e11b81526001600160a01b039485169463f242432a94610a7b943094919092169260040161246a565b600060405180830381600087803b158015610a9557600080fd5b505af1158015610aa9573d6000803e3d6000fd5b50506040518492507f411aee90354c51b1b04cd563fcab2617142a9d50da19232d888547c8a1b7fd8a9150600090a250610ae36001600055565b50565b610aee611e23565b610af6611e7d565b565b610b00611d7d565b610b08611dd6565b60008311610b585760405162461bcd60e51b815260206004820152601d60248201527f416d6f756e74206d7573742062652067726561746572207468616e20300000006044820152606401610631565b60008211610bb65760405162461bcd60e51b815260206004820152602560248201527f5374617274696e67207072696365206d75737420626520677265617465722074604482015264068616e20360dc1b6064820152608401610631565b610e108110158015610bcb575062093a808111155b610c0a5760405162461bcd60e51b815260206004820152601060248201526f24b73b30b634b210323ab930ba34b7b760811b6044820152606401610631565b600254604051637c37722360e01b8152600481018690526000916001600160a01b031690637c37722390602401600060405180830381865afa158015610c54573d6000803e3d6000fd5b505050506040513d6000823e601f3d908101601f19168201604052610c7c9190810190612564565b905080610160015160ff16600214610cca5760405162461bcd60e51b8152602060048201526011602482015270437265646974206e6f742061637469766560781b6044820152606401610631565b600254604051627eeac760e11b81523360048201526024810187905285916001600160a01b03169062fdd58e90604401602060405180830381865afa158015610d17573d6000803e3d6000fd5b505050506040513d601f19601f82011682018060405250810190610d3b9190612696565b1015610d895760405162461bcd60e51b815260206004820152601a60248201527f496e73756666696369656e7420746f6b656e2062616c616e63650000000000006044820152606401610631565b60088054906000610d99836124b5565b919050555060006008549050604051806101600160405280828152602001878152602001336001600160a01b0316815260200186815260200185815260200185815260200160006001600160a01b031681526020014281526020018442610e0091906124a2565b8152600160208083018290526000604093840181905285815260048083529084902085518155918501519282019290925583830151600280830180546001600160a01b03199081166001600160a01b03948516179091556060870151600385015560808701518486015560a0870151600585015560c087015160068501805490921690841617905560e08601516007840155610100808701516008850155610120870151600990940180546101409098015161ffff1990981694151561ff00191694909417961515029590951790915592549151637921219560e11b8152919092169163f242432a91610efb91339130918c918c910161246a565b600060405180830381600087803b158015610f1557600080fd5b505af1158015610f29573d6000803e3d6000fd5b503392508891508390507f56102b55f8c4ba831c7d439c06939c7e1fe545abbd4f8a71737c2a9b0f7e85848888610f6089426124a2565b604080519384526020840192909252908201526060015b60405180910390a45050610f8b6001600055565b50505050565b610f99611e23565b4780610fdd5760405162461bcd60e51b81526020600482015260136024820152724e6f206665657320746f20776974686472617760681b6044820152606401610631565b6001546040516001600160a01b039091169082156108fc029083906000818181858888f19350505050158015610941573d6000803e3d6000fd5b61101f611e23565b610af66000611ed2565b611031611e23565b610af6611f24565b6005602052816000526040600020818154811061105557600080fd5b90600052602060002001600091509150505481565b611072611d7d565b61107a611dd6565b600083116110ca5760405162461bcd60e51b815260206004820152601d60248201527f416d6f756e74206d7573742062652067726561746572207468616e20300000006044820152606401610631565b6000821161111a5760405162461bcd60e51b815260206004820152601c60248201527f5072696365206d7573742062652067726561746572207468616e2030000000006044820152606401610631565b6000811161116a5760405162461bcd60e51b815260206004820152601f60248201527f4475726174696f6e206d7573742062652067726561746572207468616e2030006044820152606401610631565b600254604051637c37722360e01b8152600481018690526000916001600160a01b031690637c37722390602401600060405180830381865afa1580156111b4573d6000803e3d6000fd5b505050506040513d6000823e601f3d908101601f191682016040526111dc9190810190612564565b905080610160015160ff1660021461122a5760405162461bcd60e51b8152602060048201526011602482015270437265646974206e6f742061637469766560781b6044820152606401610631565b600254604051627eeac760e11b81523360048201526024810187905285916001600160a01b03169062fdd58e90604401602060405180830381865afa158015611277573d6000803e3d6000fd5b505050506040513d601f19601f8201168201806040525081019061129b9190612696565b10156112e95760405162461bcd60e51b815260206004820152601a60248201527f496e73756666696369656e7420746f6b656e2062616c616e63650000000000006044820152606401610631565b600780549060006112f9836124b5565b919050555060006007549050604051806101200160405280828152602001878152602001336001600160a01b03168152602001868152602001858152602001428152602001844261134a91906124a2565b815260016020820152604001600090526000828152600360208181526040928390208451815590840151600182015591830151600280840180546001600160a01b0319166001600160a01b03909316929092179091556060840151918301919091556080830151600483015560a0830151600583015560c0830151600683015560e083015160078301805460ff19811692151592831782556101008087015194929361ffff1990921661ff001990921691909117918490811115611410576114106122f7565b021790555050336000818152600560209081526040808320805460018101825590845291909220018490556002549051637921219560e11b81526001600160a01b03909116925063f242432a9161146f9130908b908b9060040161246a565b600060405180830381600087803b15801561148957600080fd5b505af115801561149d573d6000803e3d6000fd5b5050604080518881526020810188905233935089925084917f492d2294f1b8a982001da6ecb3de3a374ad9c29c9c8d5ad43da90cc50b5851369101610f77565b6060600060075467ffffffffffffffff8111156114fc576114fc6120da565b604051908082528060200260200182016040528015611525578160200160208202803683370190505b509050600060015b60075481116115aa5760008181526003602052604090206007015460ff168015611567575060008181526003602052604090206006015442105b15611598578083838151811061157f5761157f6126af565b602090810291909101015281611594816124b5565b9250505b806115a2816124b5565b91505061152d565b5060008167ffffffffffffffff8111156115c6576115c66120da565b6040519080825280602002602001820160405280156115ef578160200160208202803683370190505b50905060005b828110156116465783818151811061160f5761160f6126af565b6020026020010151828281518110611629576116296126af565b60209081029190910101528061163e816124b5565b9150506115f5565b509392505050565b6006602052816000526040600020818154811061105557600080fd5b611672611d7d565b61167a611dd6565b6000818152600460205260409020600981015460ff166116d15760405162461bcd60e51b815260206004820152601260248201527141756374696f6e206e6f742061637469766560701b6044820152606401610631565b806008015442106117145760405162461bcd60e51b815260206004820152600d60248201526c105d58dd1a5bdb88195b991959609a1b6044820152606401610631565b60028101546001600160a01b031633036117705760405162461bcd60e51b815260206004820152601960248201527f43616e6e6f7420626964206f6e206f776e2061756374696f6e000000000000006044820152606401610631565b806005015434116117b15760405162461bcd60e51b815260206004820152600b60248201526a42696420746f6f206c6f7760a81b6044820152606401610631565b60068101546001600160a01b03161561180657600681015460058201546040516001600160a01b039092169181156108fc0291906000818181858888f19350505050158015611804573d6000803e3d6000fd5b505b3460058201819055600680830180546001600160a01b03191633908117909155600081815260209283526040808220805460018101825590835291849020909101869055519283529184917f0e54eff26401bf69b81b26f60bd85ef47f5d85275c1d268d84f68d6897431c47910160405180910390a350610ae36001600055565b6060600060085467ffffffffffffffff8111156118a6576118a66120da565b6040519080825280602002602001820160405280156118cf578160200160208202803683370190505b509050600060015b60085481116119545760008181526004602052604090206009015460ff168015611911575060008181526004602052604090206008015442105b156119425780838381518110611929576119296126af565b60209081029190910101528161193e816124b5565b9250505b8061194c816124b5565b9150506118d7565b5060008167ffffffffffffffff811115611970576119706120da565b604051908082528060200260200182016040528015611999578160200160208202803683370190505b50905060005b82811015611646578381815181106119b9576119b96126af565b60200260200101518282815181106119d3576119d36126af565b6020908102919091010152806119e8816124b5565b91505061199f565b6119f8611d7d565b6000818152600460205260409020600981015460ff16611a4f5760405162461bcd60e51b815260206004820152601260248201527141756374696f6e206e6f742061637469766560701b6044820152606401610631565b8060080154421015611a9b5760405162461bcd60e51b815260206004820152601560248201527441756374696f6e207374696c6c206f6e676f696e6760581b6044820152606401610631565b6009810154610100900460ff1615611af55760405162461bcd60e51b815260206004820152601960248201527f41756374696f6e20616c72656164792066696e616c697a6564000000000000006044820152606401610631565b60098101805461ffff191661010017905560068101546001600160a01b031615611c8557600061271060fa8360050154611b2f919061241e565b611b399190612435565b90506000818360050154611b4d9190612457565b600254600685015460018601546003870154604051637921219560e11b81529495506001600160a01b039384169463f242432a94611b94943094911692909160040161246a565b600060405180830381600087803b158015611bae57600080fd5b505af1158015611bc2573d6000803e3d6000fd5b50505060028401546040516001600160a01b03909116915082156108fc029083906000818181858888f19350505050158015611c02573d6000803e3d6000fd5b50826005015460096000828254611c1991906124a2565b9091555050600a8054906000611c2e836124b5565b9091555050600683015460058401546040519081526001600160a01b039091169085907f4d9113a1377d665eaa1f9168a9c9080f2e488cb820b10149de3d6d2e0f2780c79060200160405180910390a35050611cfc565b600280549082015460018301546003840154604051637921219560e11b81526001600160a01b039485169463f242432a94611cc9943094919092169260040161246a565b600060405180830381600087803b158015611ce357600080fd5b505af1158015611cf7573d6000803e3d6000fd5b505050505b50610ae36001600055565b611d0f611e23565b6001600160a01b038116611d745760405162461bcd60e51b815260206004820152602660248201527f4f776e61626c653a206e6577206f776e657220697320746865207a65726f206160448201526564647265737360d01b6064820152608401610631565b610ae381611ed2565b600260005403611dcf5760405162461bcd60e51b815260206004820152601f60248201527f5265656e7472616e637947756172643a207265656e7472616e742063616c6c006044820152606401610631565b6002600055565b600154600160a01b900460ff1615610af65760405162461bcd60e51b815260206004820152601060248201526f14185d5cd8589b194e881c185d5cd95960821b6044820152606401610631565b6001546001600160a01b03163314610af65760405162461bcd60e51b815260206004820181905260248201527f4f776e61626c653a2063616c6c6572206973206e6f7420746865206f776e65726044820152606401610631565b611e85611f67565b6001805460ff60a01b191690557f5db9ee0a495bf2e6ff9c91a7834c1ba4fdd244a5e8aa4e537bd38aeae4b073aa335b6040516001600160a01b03909116815260200160405180910390a1565b600180546001600160a01b038381166001600160a01b0319831681179093556040519116919082907f8be0079c531659141344cd1fd0a4f28419497f9722a3daafe3b4186f6b6457e090600090a35050565b611f2c611dd6565b6001805460ff60a01b1916600160a01b1790557f62e78cea01bee320cd4e420270b5ea74000d11b0c9f74754ebdbfc544b05a258611eb53390565b600154600160a01b900460ff16610af65760405162461bcd60e51b815260206004820152601460248201527314185d5cd8589b194e881b9bdd081c185d5cd95960621b6044820152606401610631565b60008060408385031215611fca57600080fd5b50508035926020909101359150565b600060208284031215611feb57600080fd5b81356001600160e01b03198116811461200357600080fd5b9392505050565b60006020828403121561201c57600080fd5b5035919050565b6000806000806080858703121561203957600080fd5b5050823594602084013594506040840135936060013592509050565b6001600160a01b0381168114610ae357600080fd5b6000806040838503121561207d57600080fd5b823561208881612055565b946020939093013593505050565b6020808252825182820181905260009190848201906040850190845b818110156120ce578351835292840192918401916001016120b2565b50909695505050505050565b634e487b7160e01b600052604160045260246000fd5b604051610180810167ffffffffffffffff81118282101715612114576121146120da565b60405290565b604051601f8201601f1916810167ffffffffffffffff81118282101715612143576121436120da565b604052919050565b600082601f83011261215c57600080fd5b8135602067ffffffffffffffff821115612178576121786120da565b8160051b61218782820161211a565b92835284810182019282810190878511156121a157600080fd5b83870192505b848310156121c0578235825291830191908301906121a7565b979650505050505050565b600067ffffffffffffffff8211156121e5576121e56120da565b50601f01601f191660200190565b600082601f83011261220457600080fd5b8135612217612212826121cb565b61211a565b81815284602083860101111561222c57600080fd5b816020850160208301376000918101602001919091529392505050565b600080600080600060a0868803121561226157600080fd5b853561226c81612055565b9450602086013561227c81612055565b9350604086013567ffffffffffffffff8082111561229957600080fd5b6122a589838a0161214b565b945060608801359150808211156122bb57600080fd5b6122c789838a0161214b565b935060808801359150808211156122dd57600080fd5b506122ea888289016121f3565b9150509295509295909350565b634e487b7160e01b600052602160045260246000fd5b898152602081018990526001600160a01b0388166040820152606081018790526080810186905260a0810185905260c0810184905282151560e082015261012081016003831061236d57634e487b7160e01b600052602160045260246000fd5b826101008301529a9950505050505050505050565b600080600080600060a0868803121561239a57600080fd5b85356123a581612055565b945060208601356123b581612055565b93506040860135925060608601359150608086013567ffffffffffffffff8111156123df57600080fd5b6122ea888289016121f3565b6000602082840312156123fd57600080fd5b813561200381612055565b634e487b7160e01b600052601160045260246000fd5b808202811582820484141761097657610976612408565b60008261245257634e487b7160e01b600052601260045260246000fd5b500490565b8181038181111561097657610976612408565b6001600160a01b0394851681529290931660208301526040820152606081019190915260a06080820181905260009082015260c00190565b8082018082111561097657610976612408565b6000600182016124c7576124c7612408565b5060010190565b600082601f8301126124df57600080fd5b81516124ed612212826121cb565b8181526020858184870101111561250357600080fd5b60005b83811015612521578581018201518382018301528101612506565b50600092820101919091529392505050565b8051801515811461254357600080fd5b919050565b805161254381612055565b805160ff8116811461254357600080fd5b60006020828403121561257657600080fd5b815167ffffffffffffffff8082111561258e57600080fd5b9083019061018082860312156125a357600080fd5b6125ab6120f0565b8251815260208301516020820152604083015160408201526060830151828111156125d557600080fd5b6125e1878286016124ce565b6060830152506080830151828111156125f957600080fd5b612605878286016124ce565b60808301525060a083015160a082015260c083015160c082015260e083015160e0820152610100808401518381111561263d57600080fd5b612649888287016124ce565b828401525050610120915061265f828401612533565b828201526101409150612673828401612548565b828201526101609150612687828401612553565b91810191909152949350505050565b6000602082840312156126a857600080fd5b5051919050565b634e487b7160e01b600052603260045260246000fdfea26469706673582212208672b03e1484e660c1234395a8e442d7b287f3835520efaaf0876a1fbe35550064736f6c63430008130033",
  "linkReferences": {},
  "deployedLinkReferences": {}
}